{
  "_format": "hh-sol-artifact-1",
  "contractName": "PumpFun",
  "sourceName": "contracts/PumpFun.sol",
  "abi": [
    {
      "inputs": [
        {
          "internalType": "address",
          "name": "factory_",
          "type": "address"
        },
        {
          "internalType": "address",
          "name": "router_",
          "type": "address"
        },
        {
          "internalType": "address",
          "name": "fee_to",
          "type": "address"
        },
        {
          "internalType": "uint256",
          "name": "_fee",
          "type": "uint256"
        }
      ],
      "stateMutability": "nonpayable",
      "type": "constructor"
    },
    {
      "inputs": [],
      "name": "ReentrancyGuardReentrantCall",
      "type": "error"
    },
    {
      "anonymous": false,
      "inputs": [
        {
          "indexed": true,
          "internalType": "address",
          "name": "token",
          "type": "address"
        },
        {
          "indexed": false,
          "internalType": "uint256",
          "name": "amount0",
          "type": "uint256"
        },
        {
          "indexed": false,
          "internalType": "uint256",
          "name": "amount1",
          "type": "uint256"
        }
      ],
      "name": "Deployed",
      "type": "event"
    },
    {
      "anonymous": false,
      "inputs": [
        {
          "indexed": true,
          "internalType": "address",
          "name": "token",
          "type": "address"
        },
        {
          "indexed": true,
          "internalType": "address",
          "name": "pair",
          "type": "address"
        },
        {
          "indexed": false,
          "internalType": "uint256",
          "name": "",
          "type": "uint256"
        }
      ],
      "name": "Launched",
      "type": "event"
    },
    {
      "inputs": [
        {
          "internalType": "address",
          "name": "_user",
          "type": "address"
        },
        {
          "internalType": "address",
          "name": "_token",
          "type": "address"
        },
        {
          "internalType": "uint256",
          "name": "amount",
          "type": "uint256"
        }
      ],
      "name": "approval",
      "outputs": [
        {
          "internalType": "bool",
          "name": "",
          "type": "bool"
        }
      ],
      "stateMutability": "nonpayable",
      "type": "function"
    },
    {
      "inputs": [
        {
          "internalType": "address",
          "name": "tk",
          "type": "address"
        }
      ],
      "name": "deploy",
      "outputs": [],
      "stateMutability": "nonpayable",
      "type": "function"
    },
    {
      "inputs": [],
      "name": "feeTo",
      "outputs": [
        {
          "internalType": "address",
          "name": "",
          "type": "address"
        }
      ],
      "stateMutability": "view",
      "type": "function"
    },
    {
      "inputs": [],
      "name": "feeToSetter",
      "outputs": [
        {
          "internalType": "address",
          "name": "",
          "type": "address"
        }
      ],
      "stateMutability": "view",
      "type": "function"
    },
    {
      "inputs": [],
      "name": "getTokens",
      "outputs": [
        {
          "components": [
            {
              "internalType": "address",
              "name": "creator",
              "type": "address"
            },
            {
              "internalType": "address",
              "name": "token",
              "type": "address"
            },
            {
              "internalType": "address",
              "name": "pair",
              "type": "address"
            },
            {
              "components": [
                {
                  "internalType": "address",
                  "name": "token",
                  "type": "address"
                },
                {
                  "internalType": "string",
                  "name": "name",
                  "type": "string"
                },
                {
                  "internalType": "string",
                  "name": "ticker",
                  "type": "string"
                },
                {
                  "internalType": "uint256",
                  "name": "supply",
                  "type": "uint256"
                },
                {
                  "internalType": "uint256",
                  "name": "price",
                  "type": "uint256"
                },
                {
                  "internalType": "uint256",
                  "name": "marketCap",
                  "type": "uint256"
                },
                {
                  "internalType": "uint256",
                  "name": "liquidity",
                  "type": "uint256"
                },
                {
                  "internalType": "uint256",
                  "name": "_liquidity",
                  "type": "uint256"
                },
                {
                  "internalType": "uint256",
                  "name": "volume",
                  "type": "uint256"
                },
                {
                  "internalType": "uint256",
                  "name": "volume24H",
                  "type": "uint256"
                },
                {
                  "internalType": "uint256",
                  "name": "prevPrice",
                  "type": "uint256"
                },
                {
                  "internalType": "uint256",
                  "name": "lastUpdated",
                  "type": "uint256"
                }
              ],
              "internalType": "struct PumpFun.Data",
              "name": "data",
              "type": "tuple"
            },
            {
              "internalType": "string",
              "name": "description",
              "type": "string"
            },
            {
              "internalType": "string",
              "name": "image",
              "type": "string"
            },
            {
              "internalType": "string",
              "name": "twitter",
              "type": "string"
            },
            {
              "internalType": "string",
              "name": "telegram",
              "type": "string"
            },
            {
              "internalType": "string",
              "name": "youtube",
              "type": "string"
            },
            {
              "internalType": "string",
              "name": "website",
              "type": "string"
            },
            {
              "internalType": "bool",
              "name": "trading",
              "type": "bool"
            },
            {
              "internalType": "bool",
              "name": "tradingOnUniswap",
              "type": "bool"
            }
          ],
          "internalType": "struct PumpFun.Token[]",
          "name": "",
          "type": "tuple[]"
        }
      ],
      "stateMutability": "view",
      "type": "function"
    },
    {
      "inputs": [],
      "name": "getUserTokens",
      "outputs": [
        {
          "components": [
            {
              "internalType": "address",
              "name": "creator",
              "type": "address"
            },
            {
              "internalType": "address",
              "name": "token",
              "type": "address"
            },
            {
              "internalType": "address",
              "name": "pair",
              "type": "address"
            },
            {
              "components": [
                {
                  "internalType": "address",
                  "name": "token",
                  "type": "address"
                },
                {
                  "internalType": "string",
                  "name": "name",
                  "type": "string"
                },
                {
                  "internalType": "string",
                  "name": "ticker",
                  "type": "string"
                },
                {
                  "internalType": "uint256",
                  "name": "supply",
                  "type": "uint256"
                },
                {
                  "internalType": "uint256",
                  "name": "price",
                  "type": "uint256"
                },
                {
                  "internalType": "uint256",
                  "name": "marketCap",
                  "type": "uint256"
                },
                {
                  "internalType": "uint256",
                  "name": "liquidity",
                  "type": "uint256"
                },
                {
                  "internalType": "uint256",
                  "name": "_liquidity",
                  "type": "uint256"
                },
                {
                  "internalType": "uint256",
                  "name": "volume",
                  "type": "uint256"
                },
                {
                  "internalType": "uint256",
                  "name": "volume24H",
                  "type": "uint256"
                },
                {
                  "internalType": "uint256",
                  "name": "prevPrice",
                  "type": "uint256"
                },
                {
                  "internalType": "uint256",
                  "name": "lastUpdated",
                  "type": "uint256"
                }
              ],
              "internalType": "struct PumpFun.Data",
              "name": "data",
              "type": "tuple"
            },
            {
              "internalType": "string",
              "name": "description",
              "type": "string"
            },
            {
              "internalType": "string",
              "name": "image",
              "type": "string"
            },
            {
              "internalType": "string",
              "name": "twitter",
              "type": "string"
            },
            {
              "internalType": "string",
              "name": "telegram",
              "type": "string"
            },
            {
              "internalType": "string",
              "name": "youtube",
              "type": "string"
            },
            {
              "internalType": "string",
              "name": "website",
              "type": "string"
            },
            {
              "internalType": "bool",
              "name": "trading",
              "type": "bool"
            },
            {
              "internalType": "bool",
              "name": "tradingOnUniswap",
              "type": "bool"
            }
          ],
          "internalType": "struct PumpFun.Token[]",
          "name": "",
          "type": "tuple[]"
        }
      ],
      "stateMutability": "view",
      "type": "function"
    },
    {
      "inputs": [
        {
          "internalType": "string",
          "name": "_name",
          "type": "string"
        },
        {
          "internalType": "string",
          "name": "_ticker",
          "type": "string"
        },
        {
          "internalType": "string",
          "name": "desc",
          "type": "string"
        },
        {
          "internalType": "string",
          "name": "img",
          "type": "string"
        },
        {
          "internalType": "string[4]",
          "name": "urls",
          "type": "string[4]"
        },
        {
          "internalType": "uint256",
          "name": "_supply",
          "type": "uint256"
        },
        {
          "internalType": "uint256",
          "name": "maxTx",
          "type": "uint256"
        }
      ],
      "name": "launch",
      "outputs": [
        {
          "internalType": "address",
          "name": "",
          "type": "address"
        },
        {
          "internalType": "address",
          "name": "",
          "type": "address"
        },
        {
          "internalType": "uint256",
          "name": "",
          "type": "uint256"
        }
      ],
      "stateMutability": "payable",
      "type": "function"
    },
    {
      "inputs": [],
      "name": "launchFee",
      "outputs": [
        {
          "internalType": "uint256",
          "name": "",
          "type": "uint256"
        }
      ],
      "stateMutability": "view",
      "type": "function"
    },
    {
      "inputs": [],
      "name": "liquidityFee",
      "outputs": [
        {
          "internalType": "uint256",
          "name": "",
          "type": "uint256"
        }
      ],
      "stateMutability": "pure",
      "type": "function"
    },
    {
      "inputs": [],
      "name": "marketCapLimit",
      "outputs": [
        {
          "internalType": "uint256",
          "name": "",
          "type": "uint256"
        }
      ],
      "stateMutability": "pure",
      "type": "function"
    },
    {
      "inputs": [
        {
          "internalType": "address",
          "name": "",
          "type": "address"
        }
      ],
      "name": "profile",
      "outputs": [
        {
          "internalType": "address",
          "name": "user",
          "type": "address"
        }
      ],
      "stateMutability": "view",
      "type": "function"
    },
    {
      "inputs": [
        {
          "internalType": "uint256",
          "name": "",
          "type": "uint256"
        }
      ],
      "name": "profiles",
      "outputs": [
        {
          "internalType": "address",
          "name": "user",
          "type": "address"
        }
      ],
      "stateMutability": "view",
      "type": "function"
    },
    {
      "inputs": [
        {
          "internalType": "address",
          "name": "fee_to",
          "type": "address"
        }
      ],
      "name": "setFeeTo",
      "outputs": [],
      "stateMutability": "nonpayable",
      "type": "function"
    },
    {
      "inputs": [
        {
          "internalType": "address",
          "name": "tk",
          "type": "address"
        },
        {
          "internalType": "address",
          "name": "to",
          "type": "address"
        },
        {
          "internalType": "address",
          "name": "referree",
          "type": "address"
        }
      ],
      "name": "swapETHForTokens",
      "outputs": [
        {
          "internalType": "bool",
          "name": "",
          "type": "bool"
        }
      ],
      "stateMutability": "payable",
      "type": "function"
    },
    {
      "inputs": [
        {
          "internalType": "uint256",
          "name": "amountIn",
          "type": "uint256"
        },
        {
          "internalType": "address",
          "name": "tk",
          "type": "address"
        },
        {
          "internalType": "address",
          "name": "to",
          "type": "address"
        },
        {
          "internalType": "address",
          "name": "referree",
          "type": "address"
        }
      ],
      "name": "swapTokensForETH",
      "outputs": [
        {
          "internalType": "bool",
          "name": "",
          "type": "bool"
        }
      ],
      "stateMutability": "nonpayable",
      "type": "function"
    },
    {
      "inputs": [
        {
          "internalType": "address",
          "name": "",
          "type": "address"
        }
      ],
      "name": "token",
      "outputs": [
        {
          "internalType": "address",
          "name": "creator",
          "type": "address"
        },
        {
          "internalType": "address",
          "name": "token",
          "type": "address"
        },
        {
          "internalType": "address",
          "name": "pair",
          "type": "address"
        },
        {
          "components": [
            {
              "internalType": "address",
              "name": "token",
              "type": "address"
            },
            {
              "internalType": "string",
              "name": "name",
              "type": "string"
            },
            {
              "internalType": "string",
              "name": "ticker",
              "type": "string"
            },
            {
              "internalType": "uint256",
              "name": "supply",
              "type": "uint256"
            },
            {
              "internalType": "uint256",
              "name": "price",
              "type": "uint256"
            },
            {
              "internalType": "uint256",
              "name": "marketCap",
              "type": "uint256"
            },
            {
              "internalType": "uint256",
              "name": "liquidity",
              "type": "uint256"
            },
            {
              "internalType": "uint256",
              "name": "_liquidity",
              "type": "uint256"
            },
            {
              "internalType": "uint256",
              "name": "volume",
              "type": "uint256"
            },
            {
              "internalType": "uint256",
              "name": "volume24H",
              "type": "uint256"
            },
            {
              "internalType": "uint256",
              "name": "prevPrice",
              "type": "uint256"
            },
            {
              "internalType": "uint256",
              "name": "lastUpdated",
              "type": "uint256"
            }
          ],
          "internalType": "struct PumpFun.Data",
          "name": "data",
          "type": "tuple"
        },
        {
          "internalType": "string",
          "name": "description",
          "type": "string"
        },
        {
          "internalType": "string",
          "name": "image",
          "type": "string"
        },
        {
          "internalType": "string",
          "name": "twitter",
          "type": "string"
        },
        {
          "internalType": "string",
          "name": "telegram",
          "type": "string"
        },
        {
          "internalType": "string",
          "name": "youtube",
          "type": "string"
        },
        {
          "internalType": "string",
          "name": "website",
          "type": "string"
        },
        {
          "internalType": "bool",
          "name": "trading",
          "type": "bool"
        },
        {
          "internalType": "bool",
          "name": "tradingOnUniswap",
          "type": "bool"
        }
      ],
      "stateMutability": "view",
      "type": "function"
    },
    {
      "inputs": [
        {
          "internalType": "uint256",
          "name": "",
          "type": "uint256"
        }
      ],
      "name": "tokens",
      "outputs": [
        {
          "internalType": "address",
          "name": "creator",
          "type": "address"
        },
        {
          "internalType": "address",
          "name": "token",
          "type": "address"
        },
        {
          "internalType": "address",
          "name": "pair",
          "type": "address"
        },
        {
          "components": [
            {
              "internalType": "address",
              "name": "token",
              "type": "address"
            },
            {
              "internalType": "string",
              "name": "name",
              "type": "string"
            },
            {
              "internalType": "string",
              "name": "ticker",
              "type": "string"
            },
            {
              "internalType": "uint256",
              "name": "supply",
              "type": "uint256"
            },
            {
              "internalType": "uint256",
              "name": "price",
              "type": "uint256"
            },
            {
              "internalType": "uint256",
              "name": "marketCap",
              "type": "uint256"
            },
            {
              "internalType": "uint256",
              "name": "liquidity",
              "type": "uint256"
            },
            {
              "internalType": "uint256",
              "name": "_liquidity",
              "type": "uint256"
            },
            {
              "internalType": "uint256",
              "name": "volume",
              "type": "uint256"
            },
            {
              "internalType": "uint256",
              "name": "volume24H",
              "type": "uint256"
            },
            {
              "internalType": "uint256",
              "name": "prevPrice",
              "type": "uint256"
            },
            {
              "internalType": "uint256",
              "name": "lastUpdated",
              "type": "uint256"
            }
          ],
          "internalType": "struct PumpFun.Data",
          "name": "data",
          "type": "tuple"
        },
        {
          "internalType": "string",
          "name": "description",
          "type": "string"
        },
        {
          "internalType": "string",
          "name": "image",
          "type": "string"
        },
        {
          "internalType": "string",
          "name": "twitter",
          "type": "string"
        },
        {
          "internalType": "string",
          "name": "telegram",
          "type": "string"
        },
        {
          "internalType": "string",
          "name": "youtube",
          "type": "string"
        },
        {
          "internalType": "string",
          "name": "website",
          "type": "string"
        },
        {
          "internalType": "bool",
          "name": "trading",
          "type": "bool"
        },
        {
          "internalType": "bool",
          "name": "tradingOnUniswap",
          "type": "bool"
        }
      ],
      "stateMutability": "view",
      "type": "function"
    },
    {
      "inputs": [
        {
          "internalType": "uint256",
          "name": "_fee",
          "type": "uint256"
        }
      ],
      "name": "updateLaunchFee",
      "outputs": [
        {
          "internalType": "uint256",
          "name": "",
          "type": "uint256"
        }
      ],
      "stateMutability": "nonpayable",
      "type": "function"
    },
    {
      "stateMutability": "payable",
      "type": "receive"
    }
  ],
  "bytecode": "0x6080346200014657601f62004f8f38819003918201601f19168301916001600160401b038311848410176200014b5780849260809460405283398101031262000146576200004d8162000161565b6200005b6020830162000161565b60606200006b6040850162000161565b9301516001600081905580546001600160a01b03199081163317909155909390926001600160a01b03908116928190620000a785151562000176565b1691620000b683151562000176565b1691620000c583151562000176565b836002541617600255826003541617600355816004541617600455670de0b6b3a76400009182810292818404149015171562000130576103e8734752ba5dbc23f44d87826276bf6fd6b1c372ad2492046005556006541617600655604051614dcb9081620001c48239f35b634e487b7160e01b600052601160045260246000fd5b600080fd5b634e487b7160e01b600052604160045260246000fd5b51906001600160a01b03821682036200014657565b156200017e57565b60405162461bcd60e51b815260206004820152601f60248201527f5a65726f2061646472657373657320617265206e6f7420616c6c6f7765642e006044820152606490fdfe60808060405260043610156200001f575b5036156200001d57600080fd5b005b600090813560e01c908163017e7e58146200280457508063094b741514620027d95780634c96a3891462001ac55780634f64b2be1462001a62578063512b1e6e14620015e657806357f8d90114620010af5780635c52a5f2146200105e5780636d46a1db1462000f8e5780637660f44a1462000f6957806380997e471462000f425780638a664ebc1462000d6e57806398118cb41462000d505780639dd9d0fd1462000d10578063aa6ca8081462000b9a578063ad256f7d14620001c4578063c36fe3d61462000180578063cf3cf57314620001605763f46901ed036200001057346200015d5760203660031901126200015d576200011d6200282b565b6001546001600160a01b03919062000139908316331462002e4c565b166200014781151562002ea8565b6001600160601b0360a01b600454161760045580f35b80fd5b50346200015d57806003193601126200015d576020600554604051908152f35b50346200015d5760203660031901126200015d57600435906008548210156200015d576020620001b08362002e11565b50546040516001600160a01b039091168152f35b5060e03660031901126200015d576001600160401b03600435818111620007a157620001f590369060040162002dc4565b60243582811162000b96576200021090369060040162002dc4565b9060443583811162000b92576200022c90369060040162002dc4565b9160643584811162000b8e576200024890369060040162002dc4565b926084359480861162000b8a573660238701121562000b8a576040519560808701878110838211176200087d57604052608481018736821162000b865782600401905b82821062000b565750505050620002a1620039c2565b600554341062000b1157604051906110ab8083019182118383101762000afd5790829162003ceb833960808152620002f0620002e1608083018862002ab1565b82810360208401528662002ab1565b9060a4356040820152606060c435910152039087f094851562000af2576003546040516315ab88c960e31b81529590602090879060049082906001600160a01b03165afa958615620008e25762000389966020918a9162000ad0575b506002546040516364e329cb60e11b81526001600160a01b038b8116600483015292831660248201529889929091169082908c9082906044820190565b03925af1958615620008e257889662000a98575b5060405163313ce56760e01b81526020816004816001600160a01b038c165afa801562000a8d57899062000a49575b60ff915016604d811162000a3557620003eb90600a0a60a43562002f94565b600354620004089082906001600160a01b038b8116911662003a00565b1562000a3157346005029060058204340362000a1d576200042d606483043462002f86565b60035460408051630e505aa960e31b81526001600160a01b038d8116600483015260248201869052939a9390928391604491839160648a0491165af18015620009dd57620009e8575b50604051635d4d3d2b60e11b8152916020836004816001600160a01b038e165afa928315620009dd578c93620009a0575b50620004b66004938262002fa8565b604051635d4d3d2b60e11b8152939092906020908590816001600160a01b038f165afa93841562000995578d946200095b575b50606485046064860460011b04600214606486041517156200094757908c94939291600460208d60405192838092635d4d3d2b60e11b825260018060a01b03165afa9687156200093b579662000901575b50858060011b0460021486151715620008ed57908d9594939291600460208e60405192838092635d4d3d2b60e11b825260018060a01b03165afa908115620008e2578f989162000893575b509a82916200059e620005aa9d60649897969562002fa8565b986040519d8e620028ff565b60018060a01b03168d5260208d015260408c015260608b015260808a015260a08901520460011b60c087015260011b60e086015288610100860152886101208601526101408501524261016085015281516020830151916060604085015194015194604051966200061b88620028ff565b33885260018060a01b038b16602089015260018060a01b038a1660408901526060880152608087015260a086015260c085015260e084015261010083015261012082015260016101408201528461016082015260018060a01b038416855260096020526200068d816040872062002fc9565b600a5490600160401b91828110156200087d57806001620006b29201600a5562002870565b9290926200086757620006c782889462002fc9565b620006d23362003ab1565b15620007ab5750818093620006f782933384526007602052600160408520016200398b565b6004546001600160a01b03165af13d15620007a5573d620007188162002da8565b9062000728604051928362002938565b81528460203d92013e5b15620007a157600a546040518181526060949192916001916001600160a01b0380851691908716907f714aa39317ad9a7a7a99db52b44490da5d068a0b2710fffb1a1282ad3cadae1f90602090a355604080516001600160a01b03948516815291909316602082015291820152f35b8280fd5b62000732565b909150620007bb33151562002ea8565b60405190620007ca826200291c565b338252606060208301523387526007602052620007eb826040892062003b58565b60085490811015620008535780600162000809920160085562002e11565b6200083f578693620008398594620008248695869562003b58565b3384526007602052600160408520016200398b565b620006f7565b634e487b7160e01b87526004879052602487fd5b634e487b7160e01b87526041600452602487fd5b634e487b7160e01b600052600060045260246000fd5b634e487b7160e01b600052604160045260246000fd5b95949392919750506020853d602011620008d9575b81620008b76020938362002938565b81010312620008d45793518d969394929391929190606462000585565b600080fd5b3d9150620008a8565b6040513d8a823e3d90fd5b634e487b7160e01b8e52601160045260248efd5b9095506020813d60201162000932575b81620009206020938362002938565b81010312620008d4575194386200053a565b3d915062000911565b604051903d90823e3d90fd5b634e487b7160e01b8d52601160045260248dfd5b9093506020813d6020116200098c575b816200097a6020938362002938565b81010312620008d457519238620004e9565b3d91506200096b565b6040513d8f823e3d90fd5b92506020833d602011620009d4575b81620009be6020938362002938565b81010312620008d457915191620004b6620004a7565b3d9150620009af565b6040513d8e823e3d90fd5b62000a0e9060403d60401162000a15575b62000a05818362002938565b81019062002f16565b5062000476565b503d620009f9565b634e487b7160e01b8a52601160045260248afd5b8880fd5b634e487b7160e01b89526011600452602489fd5b506020813d60201162000a84575b8162000a666020938362002938565b8101031262000a31575160ff8116810362000a315760ff90620003cc565b3d915062000a57565b6040513d8b823e3d90fd5b62000ac091965060203d60201162000ac8575b62000ab7818362002938565b81019062002ef5565b94386200039d565b503d62000aab565b62000aeb9150823d841162000ac85762000ab7818362002938565b386200034c565b6040513d88823e3d90fd5b634e487b7160e01b89526041600452602489fd5b60405162461bcd60e51b815260206004820152601960248201527f496e73756666696369656e7420616d6f756e742073656e742e000000000000006044820152606490fd5b813585811162000b825760209162000b7683926004369189010162002dc4565b8152019101906200028b565b8b80fd5b8980fd5b8680fd5b8580fd5b8480fd5b8380fd5b50346200015d57806003193601126200015d57600a546001600160401b0381116200087d576020906040519062000bd860208260051b018362002938565b80825260208201600a6000527fc65a7bb8d6351c1cf70c95a316cc6a92839c986682d98bc35f958f4883f9d2a8936000915b83831062000c26576040518062000c22878262002c5d565b0390f35b60168260019260405162000c3a81620028ff565b848060a01b03808b5416825280868c0154168483015260028b015416604082015262000c6960038b0162002a0b565b606082015262000c7c600f8b016200295a565b608082015262000c8f60108b016200295a565b60a082015262000ca260118b016200295a565b60c082015262000cb560128b016200295a565b60e082015262000cc860138b016200295a565b61010082015262000cdc60148b016200295a565b61012082015260158a015460ff90818116151561014084015260081c16151561016082015281520196019201919462000c0a565b50346200015d5760203660031901126200015d576020906001600160a01b03906040908262000d3e6200282b565b16815260078452205416604051908152f35b50346200015d57806003193601126200015d57602060405160058152f35b50346200015d57806003193601126200015d5762000d8c3362003ab1565b1562000efd573381526040602091600783522060405162000dad816200291c565b81546001600160a01b039081168252600192830180549093916001600160401b0382116200087d57936040519462000deb878460051b018762002938565b8286526000918252868220908787015b84841062000e19578689018890526040518062000c228a8262002c5d565b601689879260405162000e2c81620028ff565b8587541681528585880154168382015285600288015416604082015262000e566003880162002a0b565b606082015262000e69600f88016200295a565b608082015262000e7c601088016200295a565b60a082015262000e8f601188016200295a565b60c082015262000ea2601288016200295a565b60e082015262000eb5601388016200295a565b61010082015262000ec9601488016200295a565b610120820152601587015460ff90818116151561014084015260081c16151561016082015281520193019301929162000dfb565b60405162461bcd60e51b815260206004820152601c60248201527f557365722050726f66696c6520646f7365206e6f742065786973742e000000006044820152606490fd5b50346200015d57806003193601126200015d57602060405169152d02c7e14af68000008152f35b50346200015d5760203660031901126200015d57602060043580600555604051908152f35b50346200015d5760203660031901126200015d576001600160a01b03906040908262000fb96200282b565b1681526009602052209062000c22818354169282600182015416926002820154169362000fe96003830162002a0b565b9162000ff8600f82016200295a565b62001006601083016200295a565b62001014601184016200295a565b62001022601285016200295a565b9162001031601386016200295a565b93601562001042601488016200295a565b960154976040519b8c9b60ff808c60081c169b16998d62002b94565b50346200015d5760603660031901126200015d576020906001620010a3620010856200282b565b6200108f62002842565b62001099620039c2565b6044359162003a00565b91556040519015158152f35b5060603660031901126200015d57620010c76200282b565b90620010d262002842565b620010dc62002859565b90620010f36001600160a01b038516151562002ea8565b6001600160a01b0316906200110a82151562002ea8565b6001600160a01b0316906200112182151562002ea8565b6002546003546040516315ab88c960e31b81526001600160a01b039182169392909116602082600481875afa91821562000af257916020916200119c938892620015c2575b5060405163e6a4390560e01b81526001600160a01b03808b16600483015290921660248301529092839190829081906044820190565b03915afa9081156200154b57600493929160609187916200159e575b50604051630240bc6b60e21b815294859182906001600160a01b03165afa9384156200154b5785918694879662001556575b50604080516357f8d90160e01b81526001600160a01b038a16600482015260248101929092526044820192909252928390606490829034905af19081156200154b578592869262001514575b5062001254836200124d6200125b94829462002f86565b9562002f62565b9462002f62565b6001600160a01b0386168552600960205260408520600e015490919062001283904262002f86565b92828060011b04600214831517156200150057848060011b0460021485151715620015005760018060a01b03871686526009602052620012e283620012db83620012d583600660408d20015462002f94565b62002fa8565b9262002fa8565b9162015180851115620014d35780925b62015180861115620014b3576001600160a01b038916885260096020526040882060070154945b60018060a01b038a16895260096020526200135a83600b60408c208560078201558760088201558b60011b60098201558460011b600a820155015462002f62565b60018060a01b038b168a52600960205260408a2090600b82015585600c82015586600d820155620151808811620014a6575b50885b600a548110156200149b57808a858d8c620013ac60019662002870565b5086015460a087901b879003838116911614620013cf575b50505050016200138f565b6200143b93600b926040928a6007620013e88a62002870565b5001558c6008620013f98a62002870565b5001556009620014098962002870565b50918a1b9101556200141b8762002870565b50600a8a8a1b910155878060a01b03168152600960205220015462002f62565b600b620014488362002870565b50015586600c620014598362002870565b50015587600d6200146a8362002870565b50015562015180891162001483575b8a858d8c620013c4565b6200148e8162002870565b50600e4291015562001479565b602060405160018152f35b600e42910155386200138c565b6001600160a01b0389168852600960205260408820600d01549462001319565b6001600160a01b0388168752600960205260408720600c0154620014f990829062002f62565b92620012f2565b634e487b7160e01b86526011600452602486fd5b6200124d93506200125b925062001540620012549160403d60401162000a155762000a05818362002938565b909450925062001236565b6040513d87823e3d90fd5b6200158791965060409295506064935060603d60601162001596575b6200157e818362002938565b81019062002f46565b959193909596919250620011ea565b503d62001572565b620015bb915060203d60201162000ac85762000ab7818362002938565b38620011b8565b620015de919250833d851162000ac85762000ab7818362002938565b903862001166565b50346200015d5760803660031901126200015d576200160462002842565b906200160f62002859565b6064356001600160a01b0381169190829003620008d4576200163c6001600160a01b038516151562002ea8565b6001600160a01b03166200165281151562002ea8565b6200165f82151562002ea8565b6002546003546040516315ab88c960e31b81526001600160a01b0391821692909116602082600481865afa91821562000af25791602091620016d8938892620015c2575060405163e6a4390560e01b81526001600160a01b03808b16600483015290921660248301529092839190829081906044820190565b03915afa9081156200154b576004939291606091879162001a3e575b50604051630240bc6b60e21b815294859182906001600160a01b03165afa9384156200154b5785928694879662001a08575b5090608460409288845195869485936328958f3760e11b855260043560048601528d60018060a01b03166024860152604485015260648401525af19182156200154b5785918693620019d2575b5062001791836200178a6200179894829462002f62565b9562002f86565b9462002f86565b6001600160a01b0386168552600960205260408520600e0154909190620017c0904262002f86565b92828060011b04600214831517156200150057848060011b0460021485151715620015005760018060a01b038716865260096020526200181283620012db83620012d583600660408d20015462002f94565b9162015180851115620019a55780925b6201518086111562001985576001600160a01b038916885260096020526040882060070154945b60018060a01b038a16895260096020526200188a83600b60408c208560078201558760088201558b60011b60098201558460011b600a820155015462002f62565b60018060a01b038b168a52600960205260408a2090600b82015585600c82015586600d82015562015180881162001978575b50885b600a548110156200149b57808a858d8c620018dc60019662002870565b5086015460a087901b879003838116911614620018ff575b5050505001620018bf565b6200191893600b926040928a6007620013e88a62002870565b600b620019258362002870565b50015586600c620019368362002870565b50015587600d620019478362002870565b50015562015180891162001960575b8a858d8c620018f4565b6200196b8162002870565b50600e4291015562001956565b600e4291015538620018bc565b6001600160a01b0389168852600960205260408820600d01549462001849565b6001600160a01b0388168752600960205260408720600c0154620019cb90829062002f62565b9262001822565b6200178a9350620017989250620019fe620017919160403d60401162000a155762000a05818362002938565b9450925062001773565b62001a2f91965060409295506084945060603d60601162001596576200157e818362002938565b95919490959691925062001726565b62001a5b915060203d60201162000ac85762000ab7818362002938565b38620016f4565b50346200015d5760203660031901126200015d57600435600a5481101562001ac15762001a8f9062002870565b508054600182015460028301546001600160a01b03908116939181169262000c2292911662000fe96003830162002a0b565b5080fd5b50346200015d5760203660031901126200015d5762001ae36200282b565b9062001afb60018060a01b0360015416331462002e4c565b62001b05620039c2565b62001b1b6001600160a01b038316151562002ea8565b6003546040516315ab88c960e31b815290602090829060049082906001600160a01b03165afa908115620027885762001b94916020918491620027b7575b5060025460405163e6a4390560e01b81526001600160a01b038781166004830152928316602482015293849290911690829081906044820190565b03915afa9081156200278857829162002793575b506001600160a01b0383163b1562001ac1576040516306da678f60e51b81526001600160a01b03918216600482015290829082906024908290849088165af1801562002788576200275b575b506001600160a01b0380831680835260096020526040808420600354825163e79a408960e01b8152600481019490945260646024850181905230604486015295969395919486929183918991165af192831562002750578490859462002727575b5060018060a01b038216855260096020526040852092600684015462001cab60056040519662001c8588620028ff565b6001600160a01b038716885262001c9f600482016200295a565b6020890152016200295a565b604086015260608501528560808501528560a08501528560c08501528560e08501528561010085015285610120850152856101408501524261016085015260018060a01b038451166001600160601b0360a01b60038301541617600382015560208401518051906001600160401b038211620026685762001d306004840154620028c2565b601f8111620026f0575b50602090601f83116001146200267c5762001d6e929189918362001fdd575b50508160011b916000199060031b1c19161790565b60048201555b60408401518051906001600160401b038211620026685762001d9a6005840154620028c2565b601f811162002631575b50602090601f8311600114620025bd5762001dd7929189918362001fdd5750508160011b916000199060031b1c19161790565b60058201555b606084015160068201556080840151600782015560a0840151600882015560c0840151600982015560e0840151600a820155610100840151600b820155610120840151600c820155610140840151600d820155610160840151600e820155855b600a54811015620021615762001e538162002870565b50600101546001600160a01b0385811691161462001e75575b60010162001e3d565b62001e808162002870565b506003810160018060a01b038751166001600160601b0360a01b82541617905560208601518051906001600160401b038211620020a25762001ec66004840154620028c2565b601f81116200212a575b50602090601f8311600114620020b65762001f0392918b918362001fdd5750508160011b916000199060031b1c19161790565b60048201555b60408601518051906001600160401b038211620020a25762001f2f6005840154620028c2565b601f81116200205f575b50602090601f831160011462001fe957918062001f719260019695948d9262001fdd5750508160011b916000199060031b1c19161790565b60058201555b606087015160068201556080870151600782015560a0870151600882015560c0870151600982015560e0870151600a820155610100870151600b820155610120870151600c820155610140870151600d820155600e610160880151910155905062001e6c565b01519050388062001d59565b90600584018b5260208b20918b5b601f19851681106200204657509183916001969594938794601f198116106200202c575b505050811b01600582015562001f77565b015160001960f88460031b161c191690553880806200201b565b9192602060018192868501518155019401920162001ff7565b6200209090600585018c5260208c20601f850160051c8101916020861062002097575b601f0160051c019062002f2d565b3862001f39565b909150819062002082565b634e487b7160e01b8a52604160045260248afd5b9190600484018b5260208b20908b935b601f19841685106200210e576001945083601f19811610620020f4575b505050811b01600482015562001f09565b015160001960f88460031b161c19169055388080620020e3565b81810151835560209485019460019093019290910190620020c6565b6200215a90600485018c5260208c20601f850160051c810191602086106200209757601f0160051c019062002f2d565b3862001ed0565b50859285906200217c6001600160a01b038216151562002ea8565b6001600160a01b03811685526009602052604085206015015460ff81169081620025ad575b501562002568576006546040516370a0823160e01b80825230600483015293916001600160a01b03908116906020908390602490829088165afa908115620008e2578490899262002529575b620021f9935062003a00565b15620024f45760065460405163c45a015560e01b81528794916001600160a01b0316602082600481845afa91821562000af2578692620024ca575b506020600491604051928380926315ab88c960e31b82525afa90811562000af25786926020926200229c928591620024a8575b506040516364e329cb60e11b81526001600160a01b03808a166004830152909116602482015293849283919082906044820190565b03926001600160a01b03165af19081156200154b57859162002484575b5060065460405192835230600484015247926001600160a01b0391821691602090829060249082908a165afa908115620024795787916200243b575b509060c4606092604051958693849263f305d71960e01b845260018060a01b038b16600485015260248401528a60448401528a60648401523060848401524260a48401525af19182156200154b5760209262002417575b5060065460405163095ea7b360e01b81526001600160a01b0391821660048201526000196024820152958692604492849291165af1801562000af2577f540bcec33387745b2ced30977dcfe4a623a245511eb0a133989c27c8bb95b4a994604094601592620023e1575b5001805461ffff1916610100179055825194855260208501526001600160a01b031692a26001815580f35b620024079060203d6020116200240f575b620023fe818362002938565b810190620039e6565b5088620023b6565b503d620023f2565b620024339060603d60601162001596576200157e818362002938565b50506200234c565b919650506020813d60201162002470575b816200245b6020938362002938565b81010312620008d4575188959060c4620022f5565b3d91506200244c565b6040513d89823e3d90fd5b620024a1915060203d60201162000ac85762000ab7818362002938565b88620022b9565b620024c39150843d861162000ac85762000ab7818362002938565b8c62002267565b6004919250620024eb602091823d841162000ac85762000ab7818362002938565b92915062002234565b60405162461bcd60e51b815260206004820152600d60248201526c2737ba1030b8383937bb32b21760991b6044820152606490fd5b9150506020823d6020116200255f575b81620025486020938362002938565b81010312620008d45783620021f9925191620021ed565b3d915062002539565b60405162461bcd60e51b815260206004820152601760248201527f74726164696e6720697320616c7265616479206f70656e0000000000000000006044820152606490fd5b60ff915060081c161586620021a1565b9190600584018952602089209089935b601f198416851062002615576001945083601f19811610620025fb575b505050811b01600582015562001ddd565b015160001960f88460031b161c19169055388080620025ea565b81810151835560209485019460019093019290910190620025cd565b6200266190600585018a5260208a20601f850160051c810191602086106200209757601f0160051c019062002f2d565b3862001da4565b634e487b7160e01b88526041600452602488fd5b9190600484018952602089209089935b601f1984168510620026d4576001945083601f19811610620026ba575b505050811b01600482015562001d74565b015160001960f88460031b161c19169055388080620026a9565b818101518355602094850194600190930192909101906200268c565b6200272090600485018a5260208a20601f850160051c810191602086106200209757601f0160051c019062002f2d565b3862001d3a565b90506200274791935060403d60401162000a155762000a05818362002938565b92903862001c55565b6040513d86823e3d90fd5b6001600160401b03811162002774576040523862001bf4565b634e487b7160e01b82526041600452602482fd5b6040513d84823e3d90fd5b620027b0915060203d60201162000ac85762000ab7818362002938565b3862001ba8565b620027d29150823d841162000ac85762000ab7818362002938565b3862001b59565b50346200015d57806003193601126200015d576001546040516001600160a01b039091168152602090f35b90503462001ac1578160031936011262001ac1576004546001600160a01b03168152602090f35b600435906001600160a01b0382168203620008d457565b602435906001600160a01b0382168203620008d457565b604435906001600160a01b0382168203620008d457565b600a54811015620028ac57601690600a600052027fc65a7bb8d6351c1cf70c95a316cc6a92839c986682d98bc35f958f4883f9d2a80190600090565b634e487b7160e01b600052603260045260246000fd5b90600182811c92168015620028f4575b6020831014620028de57565b634e487b7160e01b600052602260045260246000fd5b91607f1691620028d2565b61018081019081106001600160401b038211176200087d57604052565b604081019081106001600160401b038211176200087d57604052565b90601f801991011681019081106001600160401b038211176200087d57604052565b906040519182600082546200296f81620028c2565b90818452602094600191600181169081600014620029e75750600114620029a4575b505050620029a29250038362002938565b565b600090815285812095935091905b818310620029ce575050620029a2935082010138808062002991565b85548884018501529485019487945091830191620029b2565b92505050620029a294925060ff191682840152151560051b82010138808062002991565b9060405162002a1a81620028ff565b82546001600160a01b0316815291829061016090600b9062002a3f600182016200295a565b602085015262002a52600282016200295a565b60408501526003810154606085015260048101546080850152600581015460a0850152600681015460c0850152600781015460e085015260088101546101008501526009810154610120850152600a8101546101408501520154910152565b919082519283825260005b84811062002ade575050826000602080949584010152601f8019910116010190565b60208183018101518483018201520162002abc565b9062002b3362002b2061018060018060a01b03855116845260208501519080602086015284019062002ab1565b6040840151838203604085015262002ab1565b91606081015160608301526080810151608083015260a081015160a083015260c081015160c083015260e081015160e08301526101008082015190830152610120808201519083015261014080820151908301526101608091015191015290565b9a9c9b989462002c3d9662002c008d62002c0f9362002bf16101609f9c969962002c2d9a62002c4d9f9a9962002c1e9a6101809260018060a01b039283809216895216602088015216604086015280606086015284019062002af3565b91608081840391015262002ab1565b8d810360a08f01529062002ab1565b908b820360c08d015262002ab1565b9089820360e08b015262002ab1565b9087820361010089015262002ab1565b9085820361012087015262002ab1565b9415156101408401521515910152565b6020808201908083528351809252604092604081018260408560051b8401019601946000925b85841062002c95575050505050505090565b909192939495968580600192603f198582030187528a519062002d7c62002d6762002d5262002d3e62002d2a62002d1662002d028d610180908d8060a01b03808c51168b52808d8d0151168d8c0152818c015116908a015260609080828c0151928b015289019062002af3565b6080808a015190898303908a015262002ab1565b60a080890151908883039089015262002ab1565b60c080880151908783039088015262002ab1565b60e080870151908683039087015262002ab1565b61010080860151908583039086015262002ab1565b61012080850151908483039085015262002ab1565b916101408082015115159083015261016080910151151591015299019401940192959493919062002c83565b6001600160401b0381116200087d57601f01601f191660200190565b81601f82011215620008d45780359062002dde8262002da8565b9262002dee604051948562002938565b82845260208383010111620008d457816000926020809301838601378301015290565b600854811015620028ac57600860005260011b7ff3f7a9fe364faab93b216da50a3214154f22a0a2b415b23a84c8169e8b636ee30190600090565b1562002e5457565b60405162461bcd60e51b815260206004820152602660248201527f4f6e6c7920746865206f776e65722063616e2063616c6c20746869732066756e60448201526531ba34b7b71760d11b6064820152608490fd5b1562002eb057565b60405162461bcd60e51b815260206004820152601f60248201527f5a65726f2061646472657373657320617265206e6f7420616c6c6f7765642e006044820152606490fd5b90816020910312620008d457516001600160a01b0381168103620008d45790565b9190826040910312620008d4576020825192015190565b81811062002f39575050565b6000815560010162002f2d565b90816060910312620008d4578051916040602083015192015190565b9190820180921162002f7057565b634e487b7160e01b600052601160045260246000fd5b9190820391821162002f7057565b8181029291811591840414171562002f7057565b811562002fb3570490565b634e487b7160e01b600052601260045260246000fd5b9060018060a01b0390818151166001600160601b0360a01b908185541617845560018401836020840151168282541617905560028401836040840151168282541617905560038401906060830151938451169082541617905560049283810160208401518051906001600160401b03821162003976576200304b8354620028c2565b601f811162003940575b50602090601f8311600114620038d3576200308992916000918362001fdd5750508160011b916000199060031b1c19161790565b90555b60408301518051906001600160401b038211620038be57620030b26005840154620028c2565b601f811162003885575b50602090601f83116001146200380e57620030f092916000918362001fdd5750508160011b916000199060031b1c19161790565b60058201555b606083015160068201556080830151600782015560a0830151600882015560c0830151600982015560e0830151600a8201556101009384840151600b8301556101209081850151600c8401556101409586860151600d85015561016080960151600e850155600f840160808601518051906001600160401b0382116200361057620031828354620028c2565b601f8111620037d8575b50602090601f83116001146200376b57620031c092916000918362001fdd5750508160011b916000199060031b1c19161790565b90555b6010840160a08601518051906001600160401b0382116200361057620031ea8354620028c2565b601f811162003735575b50602090601f8311600114620036c8576200322892916000918362001fdd5750508160011b916000199060031b1c19161790565b90555b6011840160c08601518051906001600160401b0382116200361057620032528354620028c2565b601f811162003692575b50602090601f831160011462003625576200329092916000918362001fdd5750508160011b916000199060031b1c19161790565b90555b6012840160e08601518051906001600160401b0382116200361057620032ba8354620028c2565b601f8111620035da575b50602090601f83116001146200356d57620032f892916000918362001fdd5750508160011b916000199060031b1c19161790565b90555b840151805160138501916001600160401b0382116200355857620033208354620028c2565b601f811162003522575b50602090601f8311600114620034b5576200335e92916000918362001fdd5750508160011b916000199060031b1c19161790565b90555b60148301918401518051916001600160401b038311620034a05750620033888354620028c2565b601f81116200346a575b50602090601f8311600114620033f45792620033d08360159460ff979461ff009760009262001fdd5750508160011b916000199060031b1c19161790565b90555b01948301511515938554930151151560081b1692169061ffff191617179055565b90601f198316918460005260206000209260005b8181106200345157509360ff969361ff009693600193836015981062003437575b505050811b019055620033d3565b015160001960f88460031b161c1916905538808062003429565b9293602060018192878601518155019501930162003408565b6200349990846000526020600020601f850160051c810191602086106200209757601f0160051c019062002f2d565b3862003392565b604190634e487b7160e01b6000525260246000fd5b90601f198316918460005260206000209260005b818110620035095750908460019594939210620034ef575b505050811b01905562003361565b015160001960f88460031b161c19169055388080620034e1565b92936020600181928786015181550195019301620034c9565b6200355190846000526020600020601f850160051c810191602086106200209757601f0160051c019062002f2d565b386200332a565b604184634e487b7160e01b6000525260246000fd5b90601f198316918460005260206000209260005b818110620035c15750908460019594939210620035a7575b505050811b019055620032fb565b015160001960f88460031b161c1916905538808062003599565b9293602060018192878601518155019501930162003581565b6200360990846000526020600020601f850160051c810191602086106200209757601f0160051c019062002f2d565b38620032c4565b604185634e487b7160e01b6000525260246000fd5b90601f198316918460005260206000209260005b8181106200367957509084600195949392106200365f575b505050811b01905562003293565b015160001960f88460031b161c1916905538808062003651565b9293602060018192878601518155019501930162003639565b620036c190846000526020600020601f850160051c810191602086106200209757601f0160051c019062002f2d565b386200325c565b90601f198316918460005260206000209260005b8181106200371c575090846001959493921062003702575b505050811b0190556200322b565b015160001960f88460031b161c19169055388080620036f4565b92936020600181928786015181550195019301620036dc565b6200376490846000526020600020601f850160051c810191602086106200209757601f0160051c019062002f2d565b38620031f4565b90601f198316918460005260206000209260005b818110620037bf5750908460019594939210620037a5575b505050811b019055620031c3565b015160001960f88460031b161c1916905538808062003797565b929360206001819287860151815501950193016200377f565b6200380790846000526020600020601f850160051c810191602086106200209757601f0160051c019062002f2d565b386200318c565b9190600584016000526020600020906000935b601f198416851062003869576001945083601f198116106200384f575b505050811b016005820155620030f6565b015160001960f88460031b161c191690553880806200383e565b8181015183556020948501946001909301929091019062003821565b620038b790600585016000526020600020601f850160051c810191602086106200209757601f0160051c019062002f2d565b38620030bc565b604186634e487b7160e01b6000525260246000fd5b90601f198316918460005260206000209260005b8181106200392757509084600195949392106200390d575b505050811b0190556200308c565b015160001960f88460031b161c19169055388080620038ff565b92936020600181928786015181550195019301620038e7565b6200396f90846000526020600020601f850160051c810191602086106200209757601f0160051c019062002f2d565b3862003055565b604187634e487b7160e01b6000525260246000fd5b908154600160401b8110156200087d5760018101808455811015620028ac57620029a2926000526016602060002091020162002fc9565b600260005414620039d4576002600055565b604051633ee5aeb560e01b8152600490fd5b90816020910312620008d457518015158103620008d45790565b62003a6a926020929091906001600160a01b039062003a23828416151562002ea8565b169062003a3282151562002ea8565b60405163095ea7b360e01b81526001600160a01b03909116600482015260248101929092529092839190829060009082906044820190565b03925af1801562003aa55762003a81575b50600190565b62003a9d9060203d6020116200240f57620023fe818362002938565b503862003a7b565b6040513d6000823e3d90fd5b6001600160a01b0390811662003ac981151562002ea8565b6008549160005b83811062003ae15750505050600090565b828262003aee8362002e11565b5054161462003b005760010162003ad0565b50505050600190565b62003b158154620028c2565b908162003b20575050565b81601f6000931160011462003b33575055565b90808391825262003b54601f60208420940160051c84016001850162002f2d565b5555565b815181546001600160a01b0319166001600160a01b039190911617815560209182015180516001939092840191600160401b84116200087d57825484845580851062003bdf575b506020019160005260206000206000925b84841062003bc057505050505050565b6016838262003bd28994518662002fc9565b0192019301929062003bb0565b6016908060160290601682040362002f70578560160260168104870362002f70576000908682526020822092830192015b82811062003c215750505062003b9f565b8082859255828a82015582600282015582600382015562003c456004820162003b09565b62003c536005820162003b09565b82600682015582600782015582600882015582600982015582600a82015582600b82015582600c82015582600d82015582600e82015562003c97600f820162003b09565b62003ca56010820162003b09565b62003cb36011820162003b09565b62003cc16012820162003b09565b62003ccf6013820162003b09565b62003cdd6014820162003b09565b8260158201550162003c1056fe604060808152346200042957620010ab803803806200001e816200042e565b928339810190608081830312620004295780516001600160401b039190828111620004295783620000519183016200046a565b90602093848201519084821162000429576200006f9183016200046a565b606086830151920151906000943360018060a01b031987541617865533867f8be0079c531659141344cd1fd0a4f28419497f9722a3daafe3b4186f6b6457e08180a384518181116200034357600254906001968783811c931680156200041e575b8a84101462000324578190601f93848111620003ca575b508a9084831160011462000363578a9262000357575b5050600019600383901b1c191690871b176002555b8251918211620003435760039283548781811c9116801562000338575b8a821014620003245790818385949311620002cf575b50899183116001146200026c57889262000260575b505060001982841b1c191690851b1790555b670de0b6b3a7640000918281029281840414901517156200024c5781835560058111620001fe57907fddf252ad1be2c89b69c2b068fc378daa952ba7f163c4a11628f55a4df523b3ef929160045533845260058552858420556007845284832060ff199082828254161790553084528186852091825416179055549284519384523393a351610bce9081620004dd8239f35b855162461bcd60e51b815260048101869052602160248201527f4d6178205472616e73616374696f6e2063616e6e6f74206578636565642035256044820152601760f91b6064820152608490fd5b634e487b7160e01b84526011600452602484fd5b0151905038806200015a565b8489528989208894509190601f1984168a5b8c828210620002b857505084116200029f575b505050811b0190556200016c565b015160001983861b60f8161c1916905538808062000291565b8385015186558b979095019493840193016200027e565b909192508489528989208380860160051c8201928c87106200031a575b9186958b929594930160051c01915b8281106200030b57505062000145565b8b81558695508a9101620002fb565b92508192620002ec565b634e487b7160e01b89526022600452602489fd5b90607f16906200012f565b634e487b7160e01b87526041600452602487fd5b015190503880620000fd565b60028b528b8b208a94509190601f1984168c8e5b828210620003b2575050841162000398575b505050811b0160025562000112565b015160001960f88460031b161c1916905538808062000389565b8385015186558d979095019493840193018e62000377565b90915060028a528a8a208480850160051c8201928d861062000414575b918b91869594930160051c01915b82811062000405575050620000e7565b8c81558594508b9101620003f5565b92508192620003e7565b92607f1692620000d0565b600080fd5b6040519190601f01601f191682016001600160401b038111838210176200045457604052565b634e487b7160e01b600052604160045260246000fd5b919080601f84011215620004295782516001600160401b0381116200045457602090620004a0601f8201601f191683016200042e565b92818452828287010111620004295760005b818110620004c857508260009394955001015290565b8581018301518482018401528201620004b256fe608060408181526004918236101561001657600080fd5b600092833560e01c91826306fdde03146105b557508163095ea7b31461058b57816318160ddd1461056c57816323b872dd14610497578163313ce5671461047b57816370a0823114610443578163715018a6146103e45781637437681e146103c65781638da5cb5b1461039e57816395d89b4114610299578163a9059cbb14610268578163c2d0ffca146101b9578163db4cf1e01461010a575063dd62ed3e146100bf57600080fd5b34610106578060031936011261010657806020926100db6106bd565b6100e36106d8565b6001600160a01b0391821683526006865283832091168252845220549051908152f35b5080fd5b9050346101b55760203660031901126101b5576101256106bd565b83546001600160a01b03919061013e9083163314610726565b1690811561015e5750825260076020528120805460ff1916600117905580f35b608490602084519162461bcd60e51b8352820152602b60248201527f45524332303a204578636c756465204d61782054782066726f6d20746865207a60448201526a65726f206164647265737360a81b6064820152fd5b8280fd5b919050346101b55760203660031901126101b5578135916101e460018060a01b038554163314610726565b6005831161021c5791602091817fff3dd5e80294197918c284bbfc3dadd97d0b40ce92106110946329088f80068a945551908152a180f35b6020608492519162461bcd60e51b8352820152602160248201527f4d6178205472616e73616374696f6e2063616e6e6f74206578636565642035256044820152601760f91b6064820152fd5b5050346101065780600319360112610106576020906102926102886106bd565b6024359033610873565b5160018152f35b919050346101b557826003193601126101b55780519183600354906001908260011c92600181168015610394575b6020958686108214610381575084885290811561035f5750600114610306575b61030286866102f8828b03836106ee565b5191829182610674565b0390f35b929550600383527fc2575a0e9e593c00f959f8c92f12db2869c3395a3b0502d05e2516446f71f85b5b82841061034c5750505082610302946102f89282010194386102e7565b805486850188015292860192810161032f565b60ff191687860152505050151560051b83010192506102f882610302386102e7565b634e487b7160e01b845260229052602483fd5b93607f16936102c7565b505034610106578160031936011261010657905490516001600160a01b039091168152602090f35b9050346101b557826003193601126101b55760209250549051908152f35b83346104405780600319360112610440578054816001600160a01b03821661040d338214610726565b7f8be0079c531659141344cd1fd0a4f28419497f9722a3daafe3b4186f6b6457e08280a36001600160a01b031916815580f35b80fd5b5050346101065760203660031901126101065760209181906001600160a01b0361046b6106bd565b1681526005845220549051908152f35b5050346101065781600319360112610106576020905160128152f35b828434610440576060366003190112610440576104b26106bd565b906104bb6106d8565b6104c9604435809285610873565b6001600160a01b038316825260066020908152848320338452905283822054845192606084019067ffffffffffffffff8211858310176105595760208761029288610551898989898752602883527f45524332303a207472616e7366657220616d6f756e742065786365656473206188840152676c6c6f77616e636560c01b87840152610b4d565b903390610771565b634e487b7160e01b815260418852602490fd5b5050346101065781600319360112610106576020906001549051908152f35b5050346101065780600319360112610106576020906102926105ab6106bd565b6024359033610771565b92915034610670578360031936011261067057600254600181811c9186908281168015610666575b6020958686108214610381575084885290811561035f575060011461060d5761030286866102f8828b03836106ee565b929550600283527f405787fa12a823e0f2b7631cc41b3ba8828b3321ca811111fa75cd3aa3bb5ace5b8284106106535750505082610302946102f89282010194386102e7565b8054868501880152928601928101610636565b93607f16936105dd565b8380fd5b6020808252825181830181905290939260005b8281106106a957505060409293506000838284010152601f8019910116010190565b818101860151848201604001528501610687565b600435906001600160a01b03821682036106d357565b600080fd5b602435906001600160a01b03821682036106d357565b90601f8019910116810190811067ffffffffffffffff82111761071057604052565b634e487b7160e01b600052604160045260246000fd5b1561072d57565b606460405162461bcd60e51b815260206004820152602060248201527f4f776e61626c653a2063616c6c6572206973206e6f7420746865206f776e65726044820152fd5b6001600160a01b0390811691821561082257169182156107d25760207f8c5be1e5ebec7d5bd14f71427d1e84f3dd0314c0f7b2291e5b200ac8c7c3b925918360005260068252604060002085600052825280604060002055604051908152a3565b60405162461bcd60e51b815260206004820152602260248201527f45524332303a20617070726f766520746f20746865207a65726f206164647265604482015261737360f01b6064820152608490fd5b60405162461bcd60e51b8152602060048201526024808201527f45524332303a20617070726f76652066726f6d20746865207a65726f206164646044820152637265737360e01b6064820152608490fd5b9192916001600160a01b03908116918215610afa5716908115610aa9578315610a5257600480549460015495868102968188041490151715610a3d576000958387526020926007845260409160ff838a205416156109ec575b50848852600584528188205482519083820182811067ffffffffffffffff8211176109d957610928929186918652601e83527f536166654d6174683a207375627472616374696f6e206f766572666c6f77000088840152610b4d565b85895260058552828920558588528188205490838201918281116109c657821061098357508188877fddf252ad1be2c89b69c2b068fc378daa952ba7f163c4a11628f55a4df523b3ef9798999a5260058652205551908152a3565b825162461bcd60e51b8152908101859052601b60248201527f536166654d6174683a206164646974696f6e206f766572666c6f7700000000006044820152606490fd5b634e487b7160e01b8a526011825260248afd5b634e487b7160e01b8b526041845260248bfd5b6064900483116109fc57386108cc565b83606492519162461bcd60e51b8352820152601860248201527f4578636565647320746865204d61785478416d6f756e742e00000000000000006044820152fd5b601182634e487b7160e01b6000525260246000fd5b60405162461bcd60e51b815260206004820152602960248201527f5472616e7366657220616d6f756e74206d7573742062652067726561746572206044820152687468616e207a65726f60b81b6064820152608490fd5b60405162461bcd60e51b815260206004820152602360248201527f45524332303a207472616e7366657220746f20746865207a65726f206164647260448201526265737360e81b6064820152608490fd5b60405162461bcd60e51b815260206004820152602560248201527f45524332303a207472616e736665722066726f6d20746865207a65726f206164604482015264647265737360d81b6064820152608490fd5b91828211610b7857508103908111610b625790565b634e487b7160e01b600052601160045260246000fd5b60405162461bcd60e51b8152908190610b949060048301610674565b0390fdfea2646970667358221220c49e554740cb71aa09a85b3746b1a934acbfb9371a9f5eefd27a7b626ea785f264736f6c63430008180033a2646970667358221220ab92ae205b8b630e9d939ba73302e6b4b81af7da47e1634d00be172162e86ed664736f6c63430008180033",
  "linkReferences": {},
  "deployedLinkReferences": {}
}