{
  "_format": "hh-sol-artifact-1",
  "contractName": "Router",
  "sourceName": "contracts/Router.sol",
  "abi": [
    {
      "inputs": [
        {
          "internalType": "address",
          "name": "factory_",
          "type": "address"
        },
        {
          "internalType": "address",
          "name": "weth",
          "type": "address"
        },
        {
          "internalType": "uint256",
          "name": "refFee",
          "type": "uint256"
        }
      ],
      "stateMutability": "nonpayable",
      "type": "constructor"
    },
    {
      "inputs": [],
      "name": "ReentrancyGuardReentrantCall",
      "type": "error"
    },
    {
      "inputs": [],
      "name": "WETH",
      "outputs": [
        {
          "internalType": "address",
          "name": "",
          "type": "address"
        }
      ],
      "stateMutability": "view",
      "type": "function"
    },
    {
      "inputs": [
        {
          "internalType": "address",
          "name": "token",
          "type": "address"
        },
        {
          "internalType": "uint256",
          "name": "amountToken",
          "type": "uint256"
        }
      ],
      "name": "addLiquidityETH",
      "outputs": [
        {
          "internalType": "uint256",
          "name": "",
          "type": "uint256"
        },
        {
          "internalType": "uint256",
          "name": "",
          "type": "uint256"
        }
      ],
      "stateMutability": "payable",
      "type": "function"
    },
    {
      "inputs": [],
      "name": "factory",
      "outputs": [
        {
          "internalType": "address",
          "name": "",
          "type": "address"
        }
      ],
      "stateMutability": "view",
      "type": "function"
    },
    {
      "inputs": [
        {
          "internalType": "address",
          "name": "token",
          "type": "address"
        },
        {
          "internalType": "address",
          "name": "weth",
          "type": "address"
        },
        {
          "internalType": "uint256",
          "name": "amountIn",
          "type": "uint256"
        }
      ],
      "name": "getAmountsOut",
      "outputs": [
        {
          "internalType": "uint256",
          "name": "_amountOut",
          "type": "uint256"
        }
      ],
      "stateMutability": "nonpayable",
      "type": "function"
    },
    {
      "inputs": [],
      "name": "referralFee",
      "outputs": [
        {
          "internalType": "uint256",
          "name": "",
          "type": "uint256"
        }
      ],
      "stateMutability": "view",
      "type": "function"
    },
    {
      "inputs": [
        {
          "internalType": "address",
          "name": "token",
          "type": "address"
        },
        {
          "internalType": "uint256",
          "name": "liquidity",
          "type": "uint256"
        },
        {
          "internalType": "address",
          "name": "to",
          "type": "address"
        }
      ],
      "name": "removeLiquidityETH",
      "outputs": [
        {
          "internalType": "uint256",
          "name": "",
          "type": "uint256"
        },
        {
          "internalType": "uint256",
          "name": "",
          "type": "uint256"
        }
      ],
      "stateMutability": "nonpayable",
      "type": "function"
    },
    {
      "inputs": [
        {
          "internalType": "address",
          "name": "token",
          "type": "address"
        },
        {
          "internalType": "address",
          "name": "to",
          "type": "address"
        },
        {
          "internalType": "address",
          "name": "referree",
          "type": "address"
        }
      ],
      "name": "swapETHForTokens",
      "outputs": [
        {
          "internalType": "uint256",
          "name": "",
          "type": "uint256"
        },
        {
          "internalType": "uint256",
          "name": "",
          "type": "uint256"
        }
      ],
      "stateMutability": "payable",
      "type": "function"
    },
    {
      "inputs": [
        {
          "internalType": "uint256",
          "name": "amountIn",
          "type": "uint256"
        },
        {
          "internalType": "address",
          "name": "token",
          "type": "address"
        },
        {
          "internalType": "address",
          "name": "to",
          "type": "address"
        },
        {
          "internalType": "address",
          "name": "referree",
          "type": "address"
        }
      ],
      "name": "swapTokensForETH",
      "outputs": [
        {
          "internalType": "uint256",
          "name": "",
          "type": "uint256"
        },
        {
          "internalType": "uint256",
          "name": "",
          "type": "uint256"
        }
      ],
      "stateMutability": "nonpayable",
      "type": "function"
    }
  ],
  "bytecode": "0x6080346200010a57601f6200188b38819003918201601f19168301916001600160401b038311848410176200010f578084926060946040528339810103126200010a576200004d8162000125565b9060406200005e6020830162000125565b9101516001600055916001600160a01b0390811691620000808315156200013a565b16906200008f8215156200013a565b60018060a01b031990816001541617600155600254161760025560058111620000c5576003556040516117039081620001888239f35b60405162461bcd60e51b815260206004820152601e60248201527f526566657272616c204665652063616e6e6f74206578636565642035252e00006044820152606490fd5b600080fd5b634e487b7160e01b600052604160045260246000fd5b51906001600160a01b03821682036200010a57565b156200014257565b60405162461bcd60e51b815260206004820152601f60248201527f5a65726f2061646472657373657320617265206e6f7420616c6c6f7765642e006044820152606490fdfe6080604052600436101561001257600080fd5b60003560e01c806345608d0014611062578063512b1e6e14610a2257806357f8d9011461068b5780637282d548146104f857806384ae2bc6146104da578063ad5c4648146104b1578063c45a0155146104885763e79a40891461007457600080fd5b346103d55760603660031901126103d55761008d6110a6565b602435906100996110d2565b916100a2611377565b6001600160a01b039261011190838516906100be8215156110e8565b6100cb86821615156110e8565b60015460025460405163e6a4390560e01b81526001600160a01b038881166004830152918916909116602482015296602094909185918991841690829081906044820190565b03915afa9687156102f057600097610459575b50861695604051630240bc6b60e21b81526060816004818b5afa9081156102f057600091610428575b506040516316d3df1560e31b815285816004818c5afa80156102f05786916000916103f7575b5061018f6101c793606461018881948c6111bf565b04996111bf565b604051632e2952f960e11b81523060048201526001600160a01b03909a1660248b015204604489018190529791829081906064820190565b038160008c5af19081156102f0576000916103da575b50156103d557604051637b1a490960e01b81526001600160a01b038316600482015260248101869052848160448160008c5af19081156102f0576000916103b8575b5015610369576040516323b872dd60e01b81526001600160a01b0391821660048201529116602482015260448101859052908290829060649082906000905af19081156102f05760009161034c575b50156102fc57604051631d24e23160e21b81526004810184905260248101839052336044820152938190859060649082906000905af19384156102f0576040946102c3575b5060016000558351928352820152f35b6102e290823d84116102e9575b6102da8183611166565b8101906111a7565b50386102b3565b503d6102d0565b6040513d6000823e3d90fd5b6084906040519062461bcd60e51b82526004820152602360248201527f5472616e73666572206f6620746f6b656e20746f2063616c6c6572206661696c60448201526232b21760e91b6064820152fd5b6103639150823d84116102e9576102da8183611166565b3861026e565b60405162461bcd60e51b815260048101859052602160248201527f5472616e73666572206f662045544820746f2063616c6c6572206661696c65646044820152601760f91b6064820152608490fd5b6103cf9150853d87116102e9576102da8183611166565b3861021f565b600080fd5b6103f19150853d87116102e9576102da8183611166565b386101dd565b82819392503d8311610421575b61040e8183611166565b810103126103d55751859061018f610173565b503d610404565b61044a915060603d606011610452575b6104428183611166565b81019061139a565b50503861014d565b503d610438565b61047a919750843d8611610481575b6104728183611166565b810190611188565b9538610124565b503d610468565b346103d55760003660031901126103d5576001546040516001600160a01b039091168152602090f35b346103d55760003660031901126103d5576002546040516001600160a01b039091168152602090f35b346103d55760003660031901126103d5576020600354604051908152f35b60403660031901126103d55761050c6110a6565b602435610517611377565b6001600160a01b03828116929061052f8415156110e8565b60015460025460405163e6a4390560e01b81526001600160a01b0394851660048201529083169093166024840152602092919083908390604490829085165afa9182156102f05760009261066c575b5061059161058c348461159b565b6112d5565b6040516323b872dd60e01b81523360048201526001600160a01b038316602482015260448101859052948390869060649082906000905af19182156102f0576105e58493600097889161064f575b50611321565b60405163e7d3fe6b60e01b815260048101869052346024820152336044820152958692606492849291165af19283156102f057604093610632575b50600160005582519182523490820152f35b61064890823d84116102e9576102da8183611166565b5083610620565b6106669150853d87116102e9576102da8183611166565b886105df565b610684919250833d8511610481576104728183611166565b908561057e565b60603660031901126103d55761069f6110a6565b6106a76110bc565b906106b06110d2565b906106b9611377565b6001600160a01b03818116936106d08515156110e8565b6106dd82821615156110e8565b81841615156106eb816110e8565b60015460025460405163e6a4390560e01b81526001600160a01b03878116600483015291861691821660248201529760209591949092909190811690868a604481855afa998a156102f05760009a6109f9575b5086610752610789928c169734908b61140f565b604051632e2952f960e11b81523060048201526001600160a01b03909a1660248b015260448a018190529891829081906064820190565b038160008a5af19081156102f0576000916109dc575b50156109a75760405163cf82046160e01b81528681600481855afa9081156102f057600091610978575b506107d760649134906111bf565b0493156109615790856004939261081761081260646107f8346003546111bf565b0461080c610806828b611215565b34611208565b9c61159b565b611222565b604051622fcfcb60e31b815294859182905afa9384156102f05761089c9961086261085d6000938a988d8d99879261093a575b5061058c610858918761159b565b61159b565b61127a565b6040516323b872dd60e01b81526001600160a01b039182166004820152921660248301526044820193909352978892839182906064820190565b03925af19081156102f0576108bb839260009788916109235750611321565b608460405180978193635673b02d60e01b83528160048401528760248401528860448401528160648401525af19384156102f057604094610906575060016000558351928352820152f35b61091c90823d84116102e9576102da8183611166565b50846102b3565b6106669150843d86116102e9576102da8183611166565b61085891925061095961058c918d803d10610481576104728183611166565b92915061084a565b965090600491856109728534611208565b98610817565b90508681813d83116109a0575b61098f8183611166565b810103126103d557516107d76107c9565b503d610985565b60405162461bcd60e51b815260048101879052600d60248201526c2737ba1020b8383937bb32b21760991b6044820152606490fd5b6109f39150873d89116102e9576102da8183611166565b8a61079f565b610789919a50610752610a198992833d8511610481576104728183611166565b9b92505061073e565b346103d55760803660031901126103d557610a3b6110bc565b610a436110d2565b6064356001600160a01b0381169290918383036103d557610a62611377565b610a766001600160a01b03831615156110e8565b610a8a6001600160a01b03821615156110e8565b610a958415156110e8565b60015460025460405163e6a4390560e01b81526001600160a01b0385811660048301529182166024820181905290949190921691602085604481865afa9485156102f057600095611041575b50610af66001600160a01b03831615156110e8565b60405163e6a4390560e01b81526001600160a01b03838116600483015282166024820152602081604481875afa9081156102f057600091611022575b50604051630240bc6b60e21b81526001600160a01b039190911691606082600481865afa9081156102f057600493600093600093610ff8575b5060209060405195868092637464fc3d60e01b82525afa9384156102f057600094610fc4575b50610fa957610bdd92610baa610bc3926004359061160c565b90610bbe610bb66113b5565b831515611666565b6111e8565b90610bd8610bcf6113e0565b82841115611666565b611208565b905b6040516323b872dd60e01b81526001600160a01b038581166004808401919091528782166024840152356044830152909160209183916064918391600091165af19081156102f057600091610f8a575b5015610f465760405163cf82046160e01b8152602081600481865afa80156102f0578291600091610f10575b50606491610c68916111bf565b0495869015610ef9575090602082610c9c6064610c8a610cce966003546111bf565b0491610c96838b611215565b90611208565b604051637b1a490960e01b81526001600160a01b03909816600489015260248801919091529592839081906044820190565b038160006001600160a01b0389165af19081156102f057610cfc602092600494600091610edc575b50611222565b604051622fcfcb60e31b815292839182905afa9081156102f057600091610ebd575b50604051637b1a490960e01b8082526001600160a01b039093166004820152602481018590526020818060448101038160006001600160a01b0389165af19081156102f057600091610e9e575b5015610e59576040519182526001600160a01b0316600482015260248101939093526020838060448101038160006001600160a01b0386165af19081156102f057610dc26020926000958691610e3c575b5061127a565b608460405180958193635673b02d60e01b8352600435600484015281602484015281604484015286606484015260018060a01b03165af19182156102f057604092610e1d575b50600160005581519060043582526020820152f35b610e359060203d6020116102e9576102da8183611166565b5082610e08565b610e539150843d86116102e9576102da8183611166565b86610dbc565b60405162461bcd60e51b815260206004820152601f60248201527f5472616e73666572206f662045544820746f2075736572206661696c65642e006044820152606490fd5b610eb7915060203d6020116102e9576102da8183611166565b86610d6b565b610ed6915060203d602011610481576104728183611166565b85610d1e565b610ef39150843d86116102e9576102da8183611166565b89610cf6565b6004929550610f0a90602092611208565b94610cfc565b9150506020813d602011610f3e575b81610f2c60209383611166565b810103126103d5575181906064610c5b565b3d9150610f1f565b606460405162461bcd60e51b815260206004820152602060248201527f5472616e73666572206f6620746f6b656e20746f2070616972206661696c65646044820152fd5b610fa3915060203d6020116102e9576102da8183611166565b87610c2f565b90610fbe92610baa610bc3926004359061160c565b90610bdf565b9093506020813d602011610ff0575b81610fe060209383611166565b810103126103d55751928a610b91565b3d9150610fd3565b6020945061101691935060603d606011610452576104428183611166565b94919050939290610b6b565b61103b915060203d602011610481576104728183611166565b88610b32565b61105b91955060203d602011610481576104728183611166565b9387610ae1565b346103d55760603660031901126103d55760206110996110806110a6565b6110886110bc565b611090611377565b6044359161140f565b6001600055604051908152f35b600435906001600160a01b03821682036103d557565b602435906001600160a01b03821682036103d557565b604435906001600160a01b03821682036103d557565b156110ef57565b60405162461bcd60e51b815260206004820152601f60248201527f5a65726f2061646472657373657320617265206e6f7420616c6c6f7765642e006044820152606490fd5b6040810190811067ffffffffffffffff82111761115057604052565b634e487b7160e01b600052604160045260246000fd5b90601f8019910116810190811067ffffffffffffffff82111761115057604052565b908160209103126103d557516001600160a01b03811681036103d55790565b908160209103126103d5575180151581036103d55790565b818102929181159184041417156111d257565b634e487b7160e01b600052601160045260246000fd5b81156111f2570490565b634e487b7160e01b600052601260045260246000fd5b919082039182116111d257565b919082018092116111d257565b1561122957565b60405162461bcd60e51b815260206004820152602360248201527f5472616e73666572206f662045544820746f207265666572726565206661696c60448201526232b21760e91b6064820152608490fd5b1561128157565b60405162461bcd60e51b815260206004820152602660248201527f5472616e73666572206f662045544820746f206665652061646472657373206660448201526530b4b632b21760d11b6064820152608490fd5b156112dc57565b60405162461bcd60e51b815260206004820152601f60248201527f5472616e73666572206f662045544820746f2070616972206661696c65642e006044820152606490fd5b1561132857565b60405162461bcd60e51b815260206004820152602160248201527f5472616e73666572206f6620746f6b656e20746f2070616972206661696c65646044820152601760f91b6064820152608490fd5b600260005414611388576002600055565b604051633ee5aeb560e01b8152600490fd5b908160609103126103d5578051916040602083015192015190565b604051906113c282611134565b600f82526e111a5d9a5cda5bdb8819985a5b1959608a1b6020830152565b604051906113ed82611134565b601382527229bab13a3930b1ba34b7b7103330b4b632b21760691b6020830152565b6001600160a01b0392909161142784841615156110e8565b6001546002546040805163e6a4390560e01b81526001600160a01b039687166004820152918716958616602483015260209690959290919087908290604490829086165afa90811561159057908291600091611573575b501692855196630240bc6b60e21b8852606088600481885afa94851561156857600098600096611539575b509080600492895193848092637464fc3d60e01b82525afa97881561152f57506000976114ff575b505016036114ee5791610baa610bc3926114eb959461160c565b90565b91610baa610bc3926114eb9561160c565b9080929750813d8311611528575b6115178183611166565b810103126103d557519438806114d1565b503d61150d565b513d6000823e3d90fd5b82995060049291965061155a9060603d606011610452576104428183611166565b9a91905099969192506114a9565b87513d6000823e3d90fd5b61158a9150883d8a11610481576104728183611166565b3861147e565b86513d6000823e3d90fd5b6001600160a01b03166115af8115156110e8565b60008080809481945af1903d15611608573d9067ffffffffffffffff82116115f457604051916115e9601f8201601f191660200184611166565b825260203d92013e90565b634e487b7160e01b81526041600452602490fd5b5090565b906116179082611215565b9081106116215790565b60405162461bcd60e51b815260206004820152601b60248201527f536166654d6174683a206164646974696f6e206f766572666c6f7700000000006044820152606490fd5b1561166e5750565b6040519062461bcd60e51b82528160208060048301528251908160248401526000935b8285106116b4575050604492506000838284010152601f80199101168101030190fd5b848101820151868601604401529381019385935061169156fea26469706673582212200747326b2c0cd8e4577ea5aae08c8521b64ea0fd9ba426c4cef02fab760e8e8764736f6c63430008180033",
  "linkReferences": {},
  "deployedLinkReferences": {}
}