{"abi":[{"type":"constructor","inputs":[{"name":"name","type":"string","internalType":"string"},{"name":"symbol","type":"string","internalType":"string"},{"name":"_tokenFactory","type":"address","internalType":"address"}],"stateMutability":"nonpayable"},{"type":"function","name":"allowance","inputs":[{"name":"owner","type":"address","internalType":"address"},{"name":"spender","type":"address","internalType":"address"}],"outputs":[{"name":"","type":"uint256","internalType":"uint256"}],"stateMutability":"view"},{"type":"function","name":"approve","inputs":[{"name":"spender","type":"address","internalType":"address"},{"name":"value","type":"uint256","internalType":"uint256"}],"outputs":[{"name":"","type":"bool","internalType":"bool"}],"stateMutability":"nonpayable"},{"type":"function","name":"balanceOf","inputs":[{"name":"account","type":"address","internalType":"address"}],"outputs":[{"name":"","type":"uint256","internalType":"uint256"}],"stateMutability":"view"},{"type":"function","name":"burn","inputs":[{"name":"from","type":"address","internalType":"address"},{"name":"amount","type":"uint256","internalType":"uint256"}],"outputs":[],"stateMutability":"nonpayable"},{"type":"function","name":"decimals","inputs":[],"outputs":[{"name":"","type":"uint8","internalType":"uint8"}],"stateMutability":"view"},{"type":"function","name":"mint","inputs":[{"name":"to","type":"address","internalType":"address"},{"name":"amount","type":"uint256","internalType":"uint256"}],"outputs":[],"stateMutability":"nonpayable"},{"type":"function","name":"name","inputs":[],"outputs":[{"name":"","type":"string","internalType":"string"}],"stateMutability":"view"},{"type":"function","name":"owner","inputs":[],"outputs":[{"name":"","type":"address","internalType":"address"}],"stateMutability":"view"},{"type":"function","name":"renounceOwnership","inputs":[],"outputs":[],"stateMutability":"nonpayable"},{"type":"function","name":"symbol","inputs":[],"outputs":[{"name":"","type":"string","internalType":"string"}],"stateMutability":"view"},{"type":"function","name":"tokenFactory","inputs":[],"outputs":[{"name":"","type":"address","internalType":"address"}],"stateMutability":"view"},{"type":"function","name":"totalSupply","inputs":[],"outputs":[{"name":"","type":"uint256","internalType":"uint256"}],"stateMutability":"view"},{"type":"function","name":"transfer","inputs":[{"name":"to","type":"address","internalType":"address"},{"name":"value","type":"uint256","internalType":"uint256"}],"outputs":[{"name":"","type":"bool","internalType":"bool"}],"stateMutability":"nonpayable"},{"type":"function","name":"transferFrom","inputs":[{"name":"from","type":"address","internalType":"address"},{"name":"to","type":"address","internalType":"address"},{"name":"value","type":"uint256","internalType":"uint256"}],"outputs":[{"name":"","type":"bool","internalType":"bool"}],"stateMutability":"nonpayable"},{"type":"function","name":"transferOwnership","inputs":[{"name":"newOwner","type":"address","internalType":"address"}],"outputs":[],"stateMutability":"nonpayable"},{"type":"function","name":"updateBondingCurve","inputs":[{"name":"_newTokenFactory","type":"address","internalType":"address"}],"outputs":[],"stateMutability":"nonpayable"},{"type":"event","name":"Approval","inputs":[{"name":"owner","type":"address","indexed":true,"internalType":"address"},{"name":"spender","type":"address","indexed":true,"internalType":"address"},{"name":"value","type":"uint256","indexed":false,"internalType":"uint256"}],"anonymous":false},{"type":"event","name":"OwnershipTransferred","inputs":[{"name":"previousOwner","type":"address","indexed":true,"internalType":"address"},{"name":"newOwner","type":"address","indexed":true,"internalType":"address"}],"anonymous":false},{"type":"event","name":"Transfer","inputs":[{"name":"from","type":"address","indexed":true,"internalType":"address"},{"name":"to","type":"address","indexed":true,"internalType":"address"},{"name":"value","type":"uint256","indexed":false,"internalType":"uint256"}],"anonymous":false},{"type":"error","name":"ERC20InsufficientAllowance","inputs":[{"name":"spender","type":"address","internalType":"address"},{"name":"allowance","type":"uint256","internalType":"uint256"},{"name":"needed","type":"uint256","internalType":"uint256"}]},{"type":"error","name":"ERC20InsufficientBalance","inputs":[{"name":"sender","type":"address","internalType":"address"},{"name":"balance","type":"uint256","internalType":"uint256"},{"name":"needed","type":"uint256","internalType":"uint256"}]},{"type":"error","name":"ERC20InvalidApprover","inputs":[{"name":"approver","type":"address","internalType":"address"}]},{"type":"error","name":"ERC20InvalidReceiver","inputs":[{"name":"receiver","type":"address","internalType":"address"}]},{"type":"error","name":"ERC20InvalidSender","inputs":[{"name":"sender","type":"address","internalType":"address"}]},{"type":"error","name":"ERC20InvalidSpender","inputs":[{"name":"spender","type":"address","internalType":"address"}]},{"type":"error","name":"OwnableInvalidOwner","inputs":[{"name":"owner","type":"address","internalType":"address"}]},{"type":"error","name":"OwnableUnauthorizedAccount","inputs":[{"name":"account","type":"address","internalType":"address"}]}],"bytecode":{"object":"0x608060405234801561001057600080fd5b5060405161124e38038061124e83398101604081905261002f9161021c565b338383600361003e8382610330565b50600461004b8282610330565b5050506001600160a01b03811661007d57604051631e4fbdf760e01b8152600060048201526024015b60405180910390fd5b61008681610111565b506001600160a01b0381166100e95760405162461bcd60e51b8152602060048201526024808201527f426f6e64696e6720637572766520616464726573732063616e6e6f74206265206044820152637a65726f60e01b6064820152608401610074565b600680546001600160a01b0319166001600160a01b0392909216919091179055506103ee9050565b600580546001600160a01b038381166001600160a01b0319831681179093556040519116919082907f8be0079c531659141344cd1fd0a4f28419497f9722a3daafe3b4186f6b6457e090600090a35050565b634e487b7160e01b600052604160045260246000fd5b600082601f83011261018a57600080fd5b81516001600160401b038111156101a3576101a3610163565b604051601f8201601f19908116603f011681016001600160401b03811182821017156101d1576101d1610163565b6040528181528382016020018510156101e957600080fd5b60005b82811015610208576020818601810151838301820152016101ec565b506000918101602001919091529392505050565b60008060006060848603121561023157600080fd5b83516001600160401b0381111561024757600080fd5b61025386828701610179565b602086015190945090506001600160401b0381111561027157600080fd5b61027d86828701610179565b604086015190935090506001600160a01b038116811461029c57600080fd5b809150509250925092565b600181811c908216806102bb57607f821691505b6020821081036102db57634e487b7160e01b600052602260045260246000fd5b50919050565b601f82111561032b57806000526020600020601f840160051c810160208510156103085750805b601f840160051c820191505b818110156103285760008155600101610314565b50505b505050565b81516001600160401b0381111561034957610349610163565b61035d8161035784546102a7565b846102e1565b6020601f82116001811461039157600083156103795750848201515b600019600385901b1c1916600184901b178455610328565b600084815260208120601f198516915b828110156103c157878501518255602094850194600190920191016103a1565b50848210156103df5786840151600019600387901b60f8161c191681555b50505050600190811b01905550565b610e51806103fd6000396000f3fe608060405234801561001057600080fd5b50600436106101005760003560e01c8063715018a611610097578063a9059cbb11610066578063a9059cbb1461023a578063dd62ed3e1461024d578063e77772fe14610293578063f2fde38b146102b357600080fd5b8063715018a6146101d85780638da5cb5b146101e057806395d89b411461021f5780639dc29fac1461022757600080fd5b80632637af31116100d35780632637af311461016b578063313ce5671461018057806340c10f191461018f57806370a08231146101a257600080fd5b806306fdde0314610105578063095ea7b31461012357806318160ddd1461014657806323b872dd14610158575b600080fd5b61010d6102c6565b60405161011a9190610c3d565b60405180910390f35b610136610131366004610cd2565b610358565b604051901515815260200161011a565b6002545b60405190815260200161011a565b610136610166366004610cfc565b610372565b61017e610179366004610d39565b610396565b005b6040516012815260200161011a565b61017e61019d366004610cd2565b61048d565b61014a6101b0366004610d39565b73ffffffffffffffffffffffffffffffffffffffff1660009081526020819052604090205490565b61017e61051c565b60055473ffffffffffffffffffffffffffffffffffffffff165b60405173ffffffffffffffffffffffffffffffffffffffff909116815260200161011a565b61010d610530565b61017e610235366004610cd2565b61053f565b610136610248366004610cd2565b6105ca565b61014a61025b366004610d5b565b73ffffffffffffffffffffffffffffffffffffffff918216600090815260016020908152604080832093909416825291909152205490565b6006546101fa9073ffffffffffffffffffffffffffffffffffffffff1681565b61017e6102c1366004610d39565b6105d8565b6060600380546102d590610d8e565b80601f016020809104026020016040519081016040528092919081815260200182805461030190610d8e565b801561034e5780601f106103235761010080835404028352916020019161034e565b820191906000526020600020905b81548152906001019060200180831161033157829003601f168201915b5050505050905090565b60003361036681858561063c565b60019150505b92915050565b60003361038085828561064e565b61038b85858561071d565b506001949350505050565b61039e6107c8565b73ffffffffffffffffffffffffffffffffffffffff8116610446576040517f08c379a000000000000000000000000000000000000000000000000000000000815260206004820152602860248201527f4e657720626f6e64696e6720637572766520616464726573732063616e6e6f7460448201527f206265207a65726f00000000000000000000000000000000000000000000000060648201526084015b60405180910390fd5b600680547fffffffffffffffffffffffff00000000000000000000000000000000000000001673ffffffffffffffffffffffffffffffffffffffff92909216919091179055565b60065473ffffffffffffffffffffffffffffffffffffffff16331461050e576040517f08c379a000000000000000000000000000000000000000000000000000000000815260206004820152601b60248201527f4f6e6c7920626f6e64696e672063757276652063616e206d696e740000000000604482015260640161043d565b610518828261081b565b5050565b6105246107c8565b61052e6000610877565b565b6060600480546102d590610d8e565b60065473ffffffffffffffffffffffffffffffffffffffff1633146105c0576040517f08c379a000000000000000000000000000000000000000000000000000000000815260206004820152601b60248201527f4f6e6c7920626f6e64696e672063757276652063616e206275726e0000000000604482015260640161043d565b61051882826108ee565b60003361036681858561071d565b6105e06107c8565b73ffffffffffffffffffffffffffffffffffffffff8116610630576040517f1e4fbdf70000000000000000000000000000000000000000000000000000000081526000600482015260240161043d565b61063981610877565b50565b610649838383600161094a565b505050565b73ffffffffffffffffffffffffffffffffffffffff8381166000908152600160209081526040808320938616835292905220547fffffffffffffffffffffffffffffffffffffffffffffffffffffffffffffffff81146107175781811015610708576040517ffb8f41b200000000000000000000000000000000000000000000000000000000815273ffffffffffffffffffffffffffffffffffffffff84166004820152602481018290526044810183905260640161043d565b6107178484848403600061094a565b50505050565b73ffffffffffffffffffffffffffffffffffffffff831661076d576040517f96c6fd1e0000000000000000000000000000000000000000000000000000000081526000600482015260240161043d565b73ffffffffffffffffffffffffffffffffffffffff82166107bd576040517fec442f050000000000000000000000000000000000000000000000000000000081526000600482015260240161043d565b610649838383610a92565b60055473ffffffffffffffffffffffffffffffffffffffff16331461052e576040517f118cdaa700000000000000000000000000000000000000000000000000000000815233600482015260240161043d565b73ffffffffffffffffffffffffffffffffffffffff821661086b576040517fec442f050000000000000000000000000000000000000000000000000000000081526000600482015260240161043d565b61051860008383610a92565b6005805473ffffffffffffffffffffffffffffffffffffffff8381167fffffffffffffffffffffffff0000000000000000000000000000000000000000831681179093556040519116919082907f8be0079c531659141344cd1fd0a4f28419497f9722a3daafe3b4186f6b6457e090600090a35050565b73ffffffffffffffffffffffffffffffffffffffff821661093e576040517f96c6fd1e0000000000000000000000000000000000000000000000000000000081526000600482015260240161043d565b61051882600083610a92565b73ffffffffffffffffffffffffffffffffffffffff841661099a576040517fe602df050000000000000000000000000000000000000000000000000000000081526000600482015260240161043d565b73ffffffffffffffffffffffffffffffffffffffff83166109ea576040517f94280d620000000000000000000000000000000000000000000000000000000081526000600482015260240161043d565b73ffffffffffffffffffffffffffffffffffffffff80851660009081526001602090815260408083209387168352929052208290558015610717578273ffffffffffffffffffffffffffffffffffffffff168473ffffffffffffffffffffffffffffffffffffffff167f8c5be1e5ebec7d5bd14f71427d1e84f3dd0314c0f7b2291e5b200ac8c7c3b92584604051610a8491815260200190565b60405180910390a350505050565b73ffffffffffffffffffffffffffffffffffffffff8316610aca578060026000828254610abf9190610de1565b90915550610b7c9050565b73ffffffffffffffffffffffffffffffffffffffff831660009081526020819052604090205481811015610b50576040517fe450d38c00000000000000000000000000000000000000000000000000000000815273ffffffffffffffffffffffffffffffffffffffff85166004820152602481018290526044810183905260640161043d565b73ffffffffffffffffffffffffffffffffffffffff841660009081526020819052604090209082900390555b73ffffffffffffffffffffffffffffffffffffffff8216610ba557600280548290039055610bd1565b73ffffffffffffffffffffffffffffffffffffffff821660009081526020819052604090208054820190555b8173ffffffffffffffffffffffffffffffffffffffff168373ffffffffffffffffffffffffffffffffffffffff167fddf252ad1be2c89b69c2b068fc378daa952ba7f163c4a11628f55a4df523b3ef83604051610c3091815260200190565b60405180910390a3505050565b602081526000825180602084015260005b81811015610c6b5760208186018101516040868401015201610c4e565b5060006040828501015260407fffffffffffffffffffffffffffffffffffffffffffffffffffffffffffffffe0601f83011684010191505092915050565b803573ffffffffffffffffffffffffffffffffffffffff81168114610ccd57600080fd5b919050565b60008060408385031215610ce557600080fd5b610cee83610ca9565b946020939093013593505050565b600080600060608486031215610d1157600080fd5b610d1a84610ca9565b9250610d2860208501610ca9565b929592945050506040919091013590565b600060208284031215610d4b57600080fd5b610d5482610ca9565b9392505050565b60008060408385031215610d6e57600080fd5b610d7783610ca9565b9150610d8560208401610ca9565b90509250929050565b600181811c90821680610da257607f821691505b602082108103610ddb577f4e487b7100000000000000000000000000000000000000000000000000000000600052602260045260246000fd5b50919050565b8082018082111561036c577f4e487b7100000000000000000000000000000000000000000000000000000000600052601160045260246000fdfea264697066735822122092bae91eeb78706d8a48cd331d2037a0c7e49bfecc5f3b460566d59b8e219acb64736f6c634300081a0033","linkReferences":{}},"methodIdentifiers":{"allowance(address,address)":"dd62ed3e","approve(address,uint256)":"095ea7b3","balanceOf(address)":"70a08231","burn(address,uint256)":"9dc29fac","decimals()":"313ce567","mint(address,uint256)":"40c10f19","name()":"06fdde03","owner()":"8da5cb5b","renounceOwnership()":"715018a6","symbol()":"95d89b41","tokenFactory()":"e77772fe","totalSupply()":"18160ddd","transfer(address,uint256)":"a9059cbb","transferFrom(address,address,uint256)":"23b872dd","transferOwnership(address)":"f2fde38b","updateBondingCurve(address)":"2637af31"},"id":7}