{"abi":[{"type":"constructor","inputs":[{"name":"_a","type":"uint256","internalType":"uint256"},{"name":"_b","type":"uint256","internalType":"uint256"}],"stateMutability":"nonpayable"},{"type":"function","name":"A","inputs":[],"outputs":[{"name":"","type":"uint256","internalType":"uint256"}],"stateMutability":"view"},{"type":"function","name":"B","inputs":[],"outputs":[{"name":"","type":"uint256","internalType":"uint256"}],"stateMutability":"view"},{"type":"function","name":"getAmountOut","inputs":[{"name":"x0","type":"uint256","internalType":"uint256"},{"name":"deltaY","type":"uint256","internalType":"uint256"}],"outputs":[{"name":"deltaX","type":"uint256","internalType":"uint256"}],"stateMutability":"view"},{"type":"function","name":"getFundsReceived","inputs":[{"name":"x0","type":"uint256","internalType":"uint256"},{"name":"deltaX","type":"uint256","internalType":"uint256"}],"outputs":[{"name":"deltaY","type":"uint256","internalType":"uint256"}],"stateMutability":"view"}],"bytecode":{"object":"0x60c0604052348015600f57600080fd5b506040516108f43803806108f4833981016040819052602c916039565b60809190915260a052605c565b60008060408385031215604b57600080fd5b505080516020909101519092909150565b60805160a05161085b6100996000396000818160560152818160fc015261019701526000818160b50152818160db0152610176015261085b6000f3fe608060405234801561001057600080fd5b506004361061004c5760003560e01c806332e7c5bf146100515780637cabb7cf1461008a578063901ce73e1461009d578063f446c1d0146100b0575b600080fd5b6100787f000000000000000000000000000000000000000000000000000000000000000081565b60405190815260200160405180910390f35b610078610098366004610781565b6100d7565b6100786100ab366004610781565b610172565b6100787f000000000000000000000000000000000000000000000000000000000000000081565b60007f00000000000000000000000000000000000000000000000000000000000000007f00000000000000000000000000000000000000000000000000000000000000008261012e6101298388610214565b610246565b9050600061013d86848661042e565b61014790836107d2565b90508661015d84610157846104e2565b9061073d565b61016791906107eb565b979650505050505050565b60007f00000000000000000000000000000000000000000000000000000000000000007f0000000000000000000000000000000000000000000000000000000000000000838510156101c357600080fd5b60006101d26101298388610214565b905060006101ed6101296101e6888a6107eb565b8590610214565b905060006101fb82846107fe565b905061020885828661042e565b98975050505050505050565b600081600019048311156102365781156102365763bac65e5b6000526004601cfd5b50670de0b6b3a764000091020490565b60007ffffffffffffffffffffffffffffffffffffffffffffffffdc0d0570925a462d7821361027457919050565b680755bf798b4a1bf1e582126102925763a37bfec96000526004601cfd5b6503782dace9d9604e83901b059150600060606bb17217f7d1cf79abc9e3b39884821b056b80000000000000000000000001901d6bb17217f7d1cf79abc9e3b39881029093037fffffffffffffffffffffffffffffffffffffffdbf3ccf1604d263450f02a550481018102606090811d6d0277594991cfc85f6e2461837cd9018202811d7fffffffffffffffffffffffffffffffffffffe5adedaa1cb095af9e4da10e363c018202811d6db1bbb201f443cf962f1a1d3db4a5018202811d7ffffffffffffffffffffffffffffffffffffd38dc772608b0ae56cce01296c0eb018202811d6e05180bb14799ab47a8a8cb2a527d57016d02d16720577bd19bf614176fe9ea6c10fe68e7fd37d0007b713f765084018402831d9081019084017ffffffffffffffffffffffffffffffffffffffe2c69812cf03b0763fd454a8f7e010290911d6e0587f503bb6ea29d25fcb7401964500190910279d835ebba824c98fb31b83b2ca45c000000000000000000000000010574029d9dc38563c32e5c2f6dc192ee70ef65f9978af30260c3939093039290921c92915050565b828202818385830414851517026104d7577fffffffffffffffffffffffffffffffffffffffffffffffffffffffffffffffff83850981811082019003828486098360000384168285116104895763ae47f7026000526004601cfd5b938490049383821190920360008390038390046001010292030417600260038302811880840282030280840282030280840282030280840282030280840282030280840290910302026104db565b8190045b9392505050565b6fffffffffffffffffffffffffffffffff811160071b81811c67ffffffffffffffff1060061b1781811c63ffffffff1060051b1781811c61ffff1060041b1781811c60ff1060031b176000821361054157631615e6386000526004601cfd5b7ff8f9f9faf9fdfafbf9fdfcfdfafbfcfef9fafdfafcfcfbfefafafcfbffffffff6f8421084210842108cc6318c6db6d54be83831c1c601f161a1890811b609f90811c6c465772b2bbbb5f824b15207a3081018102606090811d6d0388eaa27412d5aca026815d636e018202811d6d0df99ac502031bf953eff472fdcc018202811d6d13cdffb29d51d99322bdff5f2211018202811d6d0a0f742023def783a307a986912e018202811d6d01920d8043ca89b5239253284e42018202811d6c0b7a86d7375468fac667a0a527016c29508e458543d8aa4df2abee7883018302821d6d0139601a2efabe717e604cbb4894018302821d6d02247f7a7b6594320649aa03aba1018302821d7fffffffffffffffffffffffffffffffffffffff73c0c716a594e00d54e3c4cbc9018302821d7ffffffffffffffffffffffffffffffffffffffdc7b88c420e53a9890533129f6f01830290911d7fffffffffffffffffffffffffffffffffffffff465fda27eb4d63ded474e5f832019091027ffffffffffffffff5f6af8f7b3396644f18e157960000000000000000000000000105711340daa0d5f769dba1915cef59f0815a5506029190037d0267a36c0c95b3975ab3ee5b203a7614a3f75373f047d803ae7b6687f2b302017d57115e47018c7177eebf7cd370a3356a1b7863008a5ae8028c72b88642840160ae1d90565b60007812725dd1d243aba0e75fe645cc4873f9e65afe688c928e1f228310820261076f57637c5f487d6000526004601cfd5b50670de0b6b3a7640000919091020490565b6000806040838503121561079457600080fd5b50508035926020909101359150565b7f4e487b7100000000000000000000000000000000000000000000000000000000600052601160045260246000fd5b808201808211156107e5576107e56107a3565b92915050565b818103818111156107e5576107e56107a3565b818103600083128015838313168383128216171561081e5761081e6107a3565b509291505056fea26469706673582212207a4f8dbfc6148d9f4e3f4b4694aabf0fbf16ba240e6aef88fb28d60de8e1757a64736f6c634300081a0033","linkReferences":{}},"methodIdentifiers":{"A()":"f446c1d0","B()":"32e7c5bf","getAmountOut(uint256,uint256)":"7cabb7cf","getFundsReceived(uint256,uint256)":"901ce73e"},"id":0}