{"abi":[{"type":"constructor","inputs":[{"name":"_reserveToken","type":"address","internalType":"address"},{"name":"_bondingCurve","type":"address","internalType":"address"}],"stateMutability":"nonpayable"},{"type":"function","name":"bondingCurve","inputs":[],"outputs":[{"name":"","type":"address","internalType":"contract BondingCurve"}],"stateMutability":"view"},{"type":"function","name":"buy","inputs":[{"name":"token","type":"address","internalType":"address"},{"name":"amount","type":"uint256","internalType":"uint256"}],"outputs":[],"stateMutability":"nonpayable"},{"type":"function","name":"createToken","inputs":[{"name":"name","type":"string","internalType":"string"},{"name":"symbol","type":"string","internalType":"string"},{"name":"_supplies","type":"uint256[]","internalType":"uint256[]"},{"name":"_prices","type":"uint256[]","internalType":"uint256[]"}],"outputs":[],"stateMutability":"nonpayable"},{"type":"function","name":"currentWinner","inputs":[],"outputs":[{"name":"","type":"address","internalType":"address"}],"stateMutability":"view"},{"type":"function","name":"getOwnerTokens","inputs":[{"name":"creator","type":"address","internalType":"address"}],"outputs":[{"name":"","type":"tuple[]","internalType":"struct TokenFactory.TokenInfoWithPrice[]","components":[{"name":"name","type":"string","internalType":"string"},{"name":"symbol","type":"string","internalType":"string"},{"name":"tokenAddress","type":"address","internalType":"address"},{"name":"currentPrice","type":"uint256","internalType":"uint256"},{"name":"totalSupply","type":"uint256","internalType":"uint256"}]}],"stateMutability":"view"},{"type":"function","name":"getTokenList","inputs":[],"outputs":[{"name":"","type":"tuple[]","internalType":"struct TokenFactory.TokenInfo[]","components":[{"name":"name","type":"string","internalType":"string"},{"name":"symbol","type":"string","internalType":"string"},{"name":"tokenAddress","type":"address","internalType":"address"},{"name":"nameHash","type":"bytes32","internalType":"bytes32"},{"name":"creator","type":"address","internalType":"address"}]}],"stateMutability":"view"},{"type":"function","name":"getTokenListWithPrice","inputs":[],"outputs":[{"name":"","type":"tuple[]","internalType":"struct TokenFactory.TokenInfoWithPrice[]","components":[{"name":"name","type":"string","internalType":"string"},{"name":"symbol","type":"string","internalType":"string"},{"name":"tokenAddress","type":"address","internalType":"address"},{"name":"currentPrice","type":"uint256","internalType":"uint256"},{"name":"totalSupply","type":"uint256","internalType":"uint256"}]}],"stateMutability":"view"},{"type":"function","name":"getTokenStepAt","inputs":[{"name":"token","type":"address","internalType":"address"},{"name":"index","type":"uint256","internalType":"uint256"}],"outputs":[{"name":"","type":"tuple","internalType":"struct BondingCurve.Step","components":[{"name":"supply","type":"uint256","internalType":"uint256"},{"name":"price","type":"uint256","internalType":"uint256"}]}],"stateMutability":"view"},{"type":"function","name":"getTokenStepCount","inputs":[{"name":"token","type":"address","internalType":"address"}],"outputs":[{"name":"","type":"uint256","internalType":"uint256"}],"stateMutability":"view"},{"type":"function","name":"getTokenSteps","inputs":[{"name":"token","type":"address","internalType":"address"}],"outputs":[{"name":"","type":"tuple[]","internalType":"struct BondingCurve.Step[]","components":[{"name":"supply","type":"uint256","internalType":"uint256"},{"name":"price","type":"uint256","internalType":"uint256"}]}],"stateMutability":"view"},{"type":"function","name":"getTopLiquidityToken","inputs":[{"name":"timestamp","type":"uint256","internalType":"uint256"}],"outputs":[{"name":"topToken","type":"address","internalType":"address"},{"name":"maxLiquidity","type":"uint256","internalType":"uint256"}],"stateMutability":"view"},{"type":"function","name":"lastUpdateTime","inputs":[],"outputs":[{"name":"","type":"uint256","internalType":"uint256"}],"stateMutability":"view"},{"type":"function","name":"owner","inputs":[],"outputs":[{"name":"","type":"address","internalType":"address"}],"stateMutability":"view"},{"type":"function","name":"renounceOwnership","inputs":[],"outputs":[],"stateMutability":"nonpayable"},{"type":"function","name":"reserveToken","inputs":[],"outputs":[{"name":"","type":"address","internalType":"contract IERC20"}],"stateMutability":"view"},{"type":"function","name":"sell","inputs":[{"name":"token","type":"address","internalType":"address"},{"name":"amount","type":"uint256","internalType":"uint256"}],"outputs":[],"stateMutability":"nonpayable"},{"type":"function","name":"tokenBond","inputs":[{"name":"","type":"address","internalType":"address"}],"outputs":[{"name":"reserveBalance","type":"uint256","internalType":"uint256"},{"name":"creator","type":"address","internalType":"address"},{"name":"createdAt","type":"uint256","internalType":"uint256"}],"stateMutability":"view"},{"type":"function","name":"tokenInfo","inputs":[{"name":"","type":"address","internalType":"address"}],"outputs":[{"name":"name","type":"string","internalType":"string"},{"name":"symbol","type":"string","internalType":"string"},{"name":"tokenAddress","type":"address","internalType":"address"},{"name":"nameHash","type":"bytes32","internalType":"bytes32"},{"name":"creator","type":"address","internalType":"address"}],"stateMutability":"view"},{"type":"function","name":"tokens","inputs":[{"name":"","type":"uint256","internalType":"uint256"}],"outputs":[{"name":"name","type":"string","internalType":"string"},{"name":"symbol","type":"string","internalType":"string"},{"name":"tokenAddress","type":"address","internalType":"address"},{"name":"nameHash","type":"bytes32","internalType":"bytes32"},{"name":"creator","type":"address","internalType":"address"}],"stateMutability":"view"},{"type":"function","name":"transferOwnership","inputs":[{"name":"newOwner","type":"address","internalType":"address"}],"outputs":[],"stateMutability":"nonpayable"},{"type":"function","name":"updateDailyWinner","inputs":[{"name":"timestamp","type":"uint256","internalType":"uint256"}],"outputs":[],"stateMutability":"nonpayable"},{"type":"event","name":"DailyWinnerUpdated","inputs":[{"name":"winner","type":"address","indexed":false,"internalType":"address"}],"anonymous":false},{"type":"event","name":"OwnershipTransferred","inputs":[{"name":"previousOwner","type":"address","indexed":true,"internalType":"address"},{"name":"newOwner","type":"address","indexed":true,"internalType":"address"}],"anonymous":false},{"type":"event","name":"TokenAdded","inputs":[{"name":"token","type":"address","indexed":false,"internalType":"address"},{"name":"name","type":"string","indexed":false,"internalType":"string"},{"name":"symbol","type":"string","indexed":false,"internalType":"string"}],"anonymous":false},{"type":"event","name":"TokensPurchased","inputs":[{"name":"token","type":"address","indexed":false,"internalType":"address"},{"name":"buyer","type":"address","indexed":false,"internalType":"address"},{"name":"amount","type":"uint256","indexed":false,"internalType":"uint256"},{"name":"cost","type":"uint256","indexed":false,"internalType":"uint256"}],"anonymous":false},{"type":"event","name":"TokensSold","inputs":[{"name":"token","type":"address","indexed":false,"internalType":"address"},{"name":"seller","type":"address","indexed":false,"internalType":"address"},{"name":"amount","type":"uint256","indexed":false,"internalType":"uint256"},{"name":"refund","type":"uint256","indexed":false,"internalType":"uint256"}],"anonymous":false},{"type":"error","name":"OwnableInvalidOwner","inputs":[{"name":"owner","type":"address","internalType":"address"}]},{"type":"error","name":"OwnableUnauthorizedAccount","inputs":[{"name":"account","type":"address","internalType":"address"}]}],"bytecode":{"object":"0x608060405234801561001057600080fd5b50604051613d2b380380613d2b83398101604081905261002f916100fc565b338061005557604051631e4fbdf760e01b81526000600482015260240160405180910390fd5b61005e81610090565b50600280546001600160a01b039384166001600160a01b0319918216179091556001805492909316911617905561012f565b600080546001600160a01b038381166001600160a01b0319831681178455604051919092169283917f8be0079c531659141344cd1fd0a4f28419497f9722a3daafe3b4186f6b6457e09190a35050565b80516001600160a01b03811681146100f757600080fd5b919050565b6000806040838503121561010f57600080fd5b610118836100e0565b9150610126602084016100e0565b90509250929050565b613bed8061013e6000396000f3fe608060405234801561001057600080fd5b50600436106101775760003560e01c8063aabe2fe3116100d8578063d9fe0eae1161008c578063f2fde38b11610066578063f2fde38b146103ff578063f4325d6714610412578063f5dab7111461043257600080fd5b8063d9fe0eae1461032b578063e3fec86c146103a0578063eff1d50e146103df57600080fd5b8063cce7ec13116100bd578063cce7ec13146102f2578063cf5e11fe14610305578063d63d4af01461031857600080fd5b8063aabe2fe3146102c9578063c8f33c91146102e957600080fd5b806356719eeb1161012f578063715018a611610114578063715018a61461026d5780638da5cb5b1461027557806396b7d272146102b457600080fd5b806356719eeb146102135780636c197ff51461025a57600080fd5b8063273cbaa011610160578063273cbaa0146101c55780632b127d4b146101da5780634f64b2be146101ef57600080fd5b80630e95aa831461017c57806317734e3d146101a5575b600080fd5b61018f61018a366004611fd1565b610445565b60405161019c9190611ffb565b60405180910390f35b6101b86101b3366004612012565b61055f565b60405161019c9190612034565b6101cd6105f8565b60405161019c91906120f0565b6101ed6101e83660046121ea565b6107b8565b005b6102026101fd3660046121ea565b6108c6565b60405161019c959493929190612203565b61024c610221366004612012565b73ffffffffffffffffffffffffffffffffffffffff1660009081526004602052604090206001015490565b60405190815260200161019c565b6101ed610268366004611fd1565b610a36565b6101ed610d20565b60005473ffffffffffffffffffffffffffffffffffffffff165b60405173ffffffffffffffffffffffffffffffffffffffff909116815260200161019c565b6102bc610d34565b60405161019c9190612273565b60085461028f9073ffffffffffffffffffffffffffffffffffffffff1681565b61024c60095481565b6101ed610300366004611fd1565b611110565b6101ed6103133660046124d4565b6113f5565b6102bc610326366004612012565b61195a565b610370610339366004612012565b600460205260009081526040902080546002820154600390920154909173ffffffffffffffffffffffffffffffffffffffff169083565b6040805193845273ffffffffffffffffffffffffffffffffffffffff90921660208401529082015260600161019c565b6103b36103ae3660046121ea565b611d90565b6040805173ffffffffffffffffffffffffffffffffffffffff909316835260208301919091520161019c565b60015461028f9073ffffffffffffffffffffffffffffffffffffffff1681565b6101ed61040d366004612012565b611e54565b60025461028f9073ffffffffffffffffffffffffffffffffffffffff1681565b610202610440366004612012565b611eb8565b604080518082019091526000808252602082015273ffffffffffffffffffffffffffffffffffffffff831660009081526004602052604090206001015482106104ef576040517f08c379a000000000000000000000000000000000000000000000000000000000815260206004820152601360248201527f496e646578206f7574206f6620626f756e64730000000000000000000000000060448201526064015b60405180910390fd5b73ffffffffffffffffffffffffffffffffffffffff8316600090815260046020526040902060010180548390811061052957610529612594565b90600052602060002090600202016040518060400160405290816000820154815260200160018201548152505090505b92915050565b73ffffffffffffffffffffffffffffffffffffffff81166000908152600460209081526040808320600101805482518185028101850190935280835260609492939192909184015b828210156105ed578382906000526020600020906002020160405180604001604052908160008201548152602001600182015481525050815260200190600101906105a7565b505050509050919050565b60606003805480602002602001604051908101604052809291908181526020016000905b828210156107af57838290600052602060002090600502016040518060a001604052908160008201805461064f906125c3565b80601f016020809104026020016040519081016040528092919081815260200182805461067b906125c3565b80156106c85780601f1061069d576101008083540402835291602001916106c8565b820191906000526020600020905b8154815290600101906020018083116106ab57829003601f168201915b505050505081526020016001820180546106e1906125c3565b80601f016020809104026020016040519081016040528092919081815260200182805461070d906125c3565b801561075a5780601f1061072f5761010080835404028352916020019161075a565b820191906000526020600020905b81548152906001019060200180831161073d57829003601f168201915b5050509183525050600282015473ffffffffffffffffffffffffffffffffffffffff9081166020808401919091526003840154604084015260049093015416606090910152908252600192909201910161061c565b50505050905090565b6107c0611ed3565b6009546107d09062015180612645565b421015610839576040517f08c379a000000000000000000000000000000000000000000000000000000000815260206004820152601860248201527f323420686f7572732068617665206e6f7420706173736564000000000000000060448201526064016104e6565b600061084482611d90565b50600880547fffffffffffffffffffffffff00000000000000000000000000000000000000001673ffffffffffffffffffffffffffffffffffffffff8316908117909155426009556040519081529091507f8f66caef2e8e21afddc0441160543ef2520d32b5eab3231894752182ba3c083f9060200160405180910390a15050565b600381815481106108d657600080fd5b90600052602060002090600502016000915090508060000180546108f9906125c3565b80601f0160208091040260200160405190810160405280929190818152602001828054610925906125c3565b80156109725780601f1061094757610100808354040283529160200191610972565b820191906000526020600020905b81548152906001019060200180831161095557829003601f168201915b505050505090806001018054610987906125c3565b80601f01602080910402602001604051908101604052809291908181526020018280546109b3906125c3565b8015610a005780601f106109d557610100808354040283529160200191610a00565b820191906000526020600020905b8154815290600101906020018083116109e357829003601f168201915b5050505060028301546003840154600490940154929373ffffffffffffffffffffffffffffffffffffffff918216939092501685565b60008273ffffffffffffffffffffffffffffffffffffffff166318160ddd6040518163ffffffff1660e01b8152600401602060405180830381865afa158015610a83573d6000803e3d6000fd5b505050506040513d601f19601f82011682018060405250810190610aa79190612658565b6001805473ffffffffffffffffffffffffffffffffffffffff868116600090815260046020819052604080832090517fd5e398850000000000000000000000000000000000000000000000000000000081529697509195929093169363d5e3988593610b1c93929091019187918991016126bd565b602060405180830381865afa158015610b39573d6000803e3d6000fd5b505050506040513d601f19601f82011682018060405250810190610b5d9190612658565b6040517f9dc29fac0000000000000000000000000000000000000000000000000000000081523360048201526024810185905290915073ffffffffffffffffffffffffffffffffffffffff851690639dc29fac90604401600060405180830381600087803b158015610bce57600080fd5b505af1158015610be2573d6000803e3d6000fd5b5050505073ffffffffffffffffffffffffffffffffffffffff841660009081526004602052604081208054839290610c1b9084906126e2565b90915550506002546040517fa9059cbb0000000000000000000000000000000000000000000000000000000081523360048201526024810183905273ffffffffffffffffffffffffffffffffffffffff9091169063a9059cbb906044016020604051808303816000875af1158015610c97573d6000803e3d6000fd5b505050506040513d601f19601f82011682018060405250810190610cbb91906126f5565b506040805173ffffffffffffffffffffffffffffffffffffffff86168152336020820152908101849052606081018290527f697c42d55a5e1fed3f464ec6f38b32546a0bd368dc8068b065c67566d73f3290906080015b60405180910390a150505050565b610d28611ed3565b610d326000611f26565b565b60035460609060008167ffffffffffffffff811115610d5557610d55612345565b604051908082528060200260200182016040528015610dce57816020015b610dbb6040518060a001604052806060815260200160608152602001600073ffffffffffffffffffffffffffffffffffffffff16815260200160008152602001600081525090565b815260200190600190039081610d735790505b50905060005b8281101561110957600060038281548110610df157610df1612594565b906000526020600020906005020160020160009054906101000a900473ffffffffffffffffffffffffffffffffffffffff16905060008173ffffffffffffffffffffffffffffffffffffffff166318160ddd6040518163ffffffff1660e01b8152600401602060405180830381865afa158015610e72573d6000803e3d6000fd5b505050506040513d601f19601f82011682018060405250810190610e969190612658565b6001805473ffffffffffffffffffffffffffffffffffffffff858116600090815260046020819052604080832090517f4a1dcb2e00000000000000000000000000000000000000000000000000000000815296975091959290931693634a1dcb2e93610f09939290910191879101612717565b602060405180830381865afa158015610f26573d6000803e3d6000fd5b505050506040513d601f19601f82011682018060405250810190610f4a9190612658565b90506040518060a0016040528060038681548110610f6a57610f6a612594565b90600052602060002090600502016000018054610f86906125c3565b80601f0160208091040260200160405190810160405280929190818152602001828054610fb2906125c3565b8015610fff5780601f10610fd457610100808354040283529160200191610fff565b820191906000526020600020905b815481529060010190602001808311610fe257829003601f168201915b505050505081526020016003868154811061101c5761101c612594565b90600052602060002090600502016001018054611038906125c3565b80601f0160208091040260200160405190810160405280929190818152602001828054611064906125c3565b80156110b15780601f10611086576101008083540402835291602001916110b1565b820191906000526020600020905b81548152906001019060200180831161109457829003601f168201915b505050505081526020018473ffffffffffffffffffffffffffffffffffffffff168152602001828152602001838152508585815181106110f3576110f3612594565b6020908102919091010152505050600101610dd4565b5092915050565b60008273ffffffffffffffffffffffffffffffffffffffff166318160ddd6040518163ffffffff1660e01b8152600401602060405180830381865afa15801561115d573d6000803e3d6000fd5b505050506040513d601f19601f820116820180604052508101906111819190612658565b6001805473ffffffffffffffffffffffffffffffffffffffff868116600090815260046020819052604080832090517f5debf76b00000000000000000000000000000000000000000000000000000000815296975091959290931693635debf76b936111f693929091019187918991016126bd565b602060405180830381865afa158015611213573d6000803e3d6000fd5b505050506040513d601f19601f820116820180604052508101906112379190612658565b6002546040517f23b872dd0000000000000000000000000000000000000000000000000000000081523360048201523060248201526044810183905291925073ffffffffffffffffffffffffffffffffffffffff16906323b872dd906064016020604051808303816000875af11580156112b5573d6000803e3d6000fd5b505050506040513d601f19601f820116820180604052508101906112d991906126f5565b5073ffffffffffffffffffffffffffffffffffffffff84166000908152600460205260408120805483929061130f908490612645565b90915550506040517f40c10f190000000000000000000000000000000000000000000000000000000081523360048201526024810184905273ffffffffffffffffffffffffffffffffffffffff8516906340c10f1990604401600060405180830381600087803b15801561138257600080fd5b505af1158015611396573d6000803e3d6000fd5b50506040805173ffffffffffffffffffffffffffffffffffffffff88168152336020820152908101869052606081018490527f6faf93231a456e552dbc9961f58d9713ee4f2e69d15f1975b050ef0911053a7b92506080019050610d12565b6113fd611ed3565b805182511461148e576040517f08c379a000000000000000000000000000000000000000000000000000000000815260206004820152602d60248201527f537570706c69657320616e6420707269636573206d757374206861766520746860448201527f652073616d65206c656e6774680000000000000000000000000000000000000060648201526084016104e6565b60008251116114f9576040517f08c379a000000000000000000000000000000000000000000000000000000000815260206004820152601e60248201527f4d7573742070726f76696465206174206c65617374206f6e652073746570000060448201526064016104e6565b6000845111611564576040517f08c379a000000000000000000000000000000000000000000000000000000000815260206004820152601460248201527f4e616d652063616e6e6f7420626520656d70747900000000000000000000000060448201526064016104e6565b60008351116115cf576040517f08c379a000000000000000000000000000000000000000000000000000000000815260206004820152601660248201527f53796d626f6c2063616e6e6f7420626520656d7074790000000000000000000060448201526064016104e6565b83516020808601919091206000818152600690925260409091205460ff1615611654576040517f08c379a000000000000000000000000000000000000000000000000000000000815260206004820152601360248201527f4e616d6520616c7265616479206578697374730000000000000000000000000060448201526064016104e6565b600085853060405161166590611f9b565b61167193929190612739565b604051809103906000f08015801561168d573d6000803e3d6000fd5b506040805160a0810182528881526020810188905273ffffffffffffffffffffffffffffffffffffffff83169181019190915260608101849052336080820152600380546001810182556000919091528151929350839282916005027fc2575a0e9e593c00f959f8c92f12db2869c3395a3b0502d05e2516446f71f85b0190819061171890826127d4565b506020820151600182019061172d90826127d4565b506040828101516002830180547fffffffffffffffffffffffff000000000000000000000000000000000000000090811673ffffffffffffffffffffffffffffffffffffffff9384161790915560608501516003850155608090940151600490930180549094169281169290921790925583166000908152600560205220815182919081906117bc90826127d4565b50602082015160018201906117d190826127d4565b50604082810151600283810180547fffffffffffffffffffffffff000000000000000000000000000000000000000090811673ffffffffffffffffffffffffffffffffffffffff9485161790915560608601516003808701919091556080909601516004958601805483169185169190911790553360008181526007602090815286822080546001810182559083528183200180548516968c16968717905594815295909352928420908101805490931690911790915542928101929092555b8751811015611913578160010160405180604001604052808a84815181106118bb576118bb612594565b602002602001015181526020018984815181106118da576118da612594565b60209081029190910181015190915282546001818101855560009485529382902083516002909202019081559101519082015501611891565b507f2fb34ce114a136590b874d8cf80e7652adda576578bacfa4f8023f720f569394838a8a604051611947939291906128ed565b60405180910390a1505050505050505050565b73ffffffffffffffffffffffffffffffffffffffff8116600090815260076020526040812080546060929067ffffffffffffffff81111561199d5761199d612345565b604051908082528060200260200182016040528015611a1657816020015b611a036040518060a001604052806060815260200160608152602001600073ffffffffffffffffffffffffffffffffffffffff16815260200160008152602001600081525090565b8152602001906001900390816119bb5790505b50905060005b8254811015611d8857600060056000858481548110611a3d57611a3d612594565b600091825260208083209091015473ffffffffffffffffffffffffffffffffffffffff1683528201929092526040908101909120815160a08101909252805482908290611a89906125c3565b80601f0160208091040260200160405190810160405280929190818152602001828054611ab5906125c3565b8015611b025780601f10611ad757610100808354040283529160200191611b02565b820191906000526020600020905b815481529060010190602001808311611ae557829003601f168201915b50505050508152602001600182018054611b1b906125c3565b80601f0160208091040260200160405190810160405280929190818152602001828054611b47906125c3565b8015611b945780601f10611b6957610100808354040283529160200191611b94565b820191906000526020600020905b815481529060010190602001808311611b7757829003601f168201915b5050509183525050600282015473ffffffffffffffffffffffffffffffffffffffff908116602080840191909152600384015460408085019190915260049485015483166060909401939093528483015183517f18160ddd00000000000000000000000000000000000000000000000000000000815293519596506000959216936318160ddd938082019391908290030181865afa158015611c3a573d6000803e3d6000fd5b505050506040513d601f19601f82011682018060405250810190611c5e9190612658565b6001805460408086015173ffffffffffffffffffffffffffffffffffffffff90811660009081526004602081905283822093517f4a1dcb2e00000000000000000000000000000000000000000000000000000000815296975090959190931693634a1dcb2e93611cd49390910191879101612717565b602060405180830381865afa158015611cf1573d6000803e3d6000fd5b505050506040513d601f19601f82011682018060405250810190611d159190612658565b90506040518060a001604052808460000151815260200184602001518152602001846040015173ffffffffffffffffffffffffffffffffffffffff16815260200182815260200183815250858581518110611d7257611d72612594565b6020908102919091010152505050600101611a1c565b509392505050565b600080808315611da05783611da2565b425b905060005b600354811015611e4d57600060038281548110611dc657611dc6612594565b600091825260208083206002600590930201919091015473ffffffffffffffffffffffffffffffffffffffff1680835260049091526040822060038101549193509190611e1790620151809061292e565b8260030154611e2691906126e2565b9050848103611e4257815486811115611e40578096508397505b505b505050600101611da7565b5050915091565b611e5c611ed3565b73ffffffffffffffffffffffffffffffffffffffff8116611eac576040517f1e4fbdf7000000000000000000000000000000000000000000000000000000008152600060048201526024016104e6565b611eb581611f26565b50565b6005602052600090815260409020805481906108f9906125c3565b60005473ffffffffffffffffffffffffffffffffffffffff163314610d32576040517f118cdaa70000000000000000000000000000000000000000000000000000000081523360048201526024016104e6565b6000805473ffffffffffffffffffffffffffffffffffffffff8381167fffffffffffffffffffffffff0000000000000000000000000000000000000000831681178455604051919092169283917f8be0079c531659141344cd1fd0a4f28419497f9722a3daafe3b4186f6b6457e09190a35050565b61124e8061296a83390190565b803573ffffffffffffffffffffffffffffffffffffffff81168114611fcc57600080fd5b919050565b60008060408385031215611fe457600080fd5b611fed83611fa8565b946020939093013593505050565b815181526020808301519082015260408101610559565b60006020828403121561202457600080fd5b61202d82611fa8565b9392505050565b602080825282518282018190526000918401906040840190835b818110156120815761206b83855180518252602090810151910152565b602093909301926040929092019160010161204e565b509095945050505050565b6000815180845260005b818110156120b257602081850181015186830182015201612096565b5060006020828601015260207fffffffffffffffffffffffffffffffffffffffffffffffffffffffffffffffe0601f83011685010191505092915050565b6000602082016020835280845180835260408501915060408160051b86010192506020860160005b828110156121de577fffffffffffffffffffffffffffffffffffffffffffffffffffffffffffffffc08786030184528151805160a0875261215c60a088018261208c565b905060208201518782036020890152612175828261208c565b91505073ffffffffffffffffffffffffffffffffffffffff60408301511660408801526060820151606088015273ffffffffffffffffffffffffffffffffffffffff60808301511660808801528096505050602082019150602084019350600181019050612118565b50929695505050505050565b6000602082840312156121fc57600080fd5b5035919050565b60a08152600061221660a083018861208c565b8281036020840152612228818861208c565b91505073ffffffffffffffffffffffffffffffffffffffff8516604083015283606083015273ffffffffffffffffffffffffffffffffffffffff831660808301529695505050505050565b6000602082016020835280845180835260408501915060408160051b86010192506020860160005b828110156121de577fffffffffffffffffffffffffffffffffffffffffffffffffffffffffffffffc08786030184528151805160a087526122df60a088018261208c565b9050602082015187820360208901526122f8828261208c565b60408481015173ffffffffffffffffffffffffffffffffffffffff16908a0152606080850151908a015260809384015193909801929092525050602093840193919091019060010161229b565b7f4e487b7100000000000000000000000000000000000000000000000000000000600052604160045260246000fd5b604051601f82017fffffffffffffffffffffffffffffffffffffffffffffffffffffffffffffffe016810167ffffffffffffffff811182821017156123bb576123bb612345565b604052919050565b600082601f8301126123d457600080fd5b813567ffffffffffffffff8111156123ee576123ee612345565b61241f60207fffffffffffffffffffffffffffffffffffffffffffffffffffffffffffffffe0601f84011601612374565b81815284602083860101111561243457600080fd5b816020850160208301376000918101602001919091529392505050565b600082601f83011261246257600080fd5b813567ffffffffffffffff81111561247c5761247c612345565b8060051b61248c60208201612374565b918252602081850181019290810190868411156124a857600080fd5b6020860192505b838310156124ca5782358252602092830192909101906124af565b9695505050505050565b600080600080608085870312156124ea57600080fd5b843567ffffffffffffffff81111561250157600080fd5b61250d878288016123c3565b945050602085013567ffffffffffffffff81111561252a57600080fd5b612536878288016123c3565b935050604085013567ffffffffffffffff81111561255357600080fd5b61255f87828801612451565b925050606085013567ffffffffffffffff81111561257c57600080fd5b61258887828801612451565b91505092959194509250565b7f4e487b7100000000000000000000000000000000000000000000000000000000600052603260045260246000fd5b600181811c908216806125d757607f821691505b602082108103612610577f4e487b7100000000000000000000000000000000000000000000000000000000600052602260045260246000fd5b50919050565b7f4e487b7100000000000000000000000000000000000000000000000000000000600052601160045260246000fd5b8082018082111561055957610559612616565b60006020828403121561266a57600080fd5b5051919050565b6000815480845260208401935082600052602060002060005b828110156126b3578154865260018083015460208801526040909601956002909201910161268a565b5093949350505050565b6060815260006126d06060830186612671565b60208301949094525060400152919050565b8181038181111561055957610559612616565b60006020828403121561270757600080fd5b8151801515811461202d57600080fd5b60408152600061272a6040830185612671565b90508260208301529392505050565b60608152600061274c606083018661208c565b828103602084015261275e818661208c565b91505073ffffffffffffffffffffffffffffffffffffffff83166040830152949350505050565b601f8211156127cf57806000526020600020601f840160051c810160208510156127ac5750805b601f840160051c820191505b818110156127cc57600081556001016127b8565b50505b505050565b815167ffffffffffffffff8111156127ee576127ee612345565b612802816127fc84546125c3565b84612785565b6020601f821160018114612854576000831561281e5750848201515b7fffffffffffffffffffffffffffffffffffffffffffffffffffffffffffffffff600385901b1c1916600184901b1784556127cc565b6000848152602081207fffffffffffffffffffffffffffffffffffffffffffffffffffffffffffffffe08516915b828110156128a25787850151825560209485019460019092019101612882565b50848210156128de57868401517fffffffffffffffffffffffffffffffffffffffffffffffffffffffffffffffff600387901b60f8161c191681555b50505050600190811b01905550565b73ffffffffffffffffffffffffffffffffffffffff8416815260606020820152600061291c606083018561208c565b82810360408401526124ca818561208c565b600082612964577f4e487b7100000000000000000000000000000000000000000000000000000000600052601260045260246000fd5b50069056fe608060405234801561001057600080fd5b5060405161124e38038061124e83398101604081905261002f9161021c565b338383600361003e8382610330565b50600461004b8282610330565b5050506001600160a01b03811661007d57604051631e4fbdf760e01b8152600060048201526024015b60405180910390fd5b61008681610111565b506001600160a01b0381166100e95760405162461bcd60e51b8152602060048201526024808201527f426f6e64696e6720637572766520616464726573732063616e6e6f74206265206044820152637a65726f60e01b6064820152608401610074565b600680546001600160a01b0319166001600160a01b0392909216919091179055506103ee9050565b600580546001600160a01b038381166001600160a01b0319831681179093556040519116919082907f8be0079c531659141344cd1fd0a4f28419497f9722a3daafe3b4186f6b6457e090600090a35050565b634e487b7160e01b600052604160045260246000fd5b600082601f83011261018a57600080fd5b81516001600160401b038111156101a3576101a3610163565b604051601f8201601f19908116603f011681016001600160401b03811182821017156101d1576101d1610163565b6040528181528382016020018510156101e957600080fd5b60005b82811015610208576020818601810151838301820152016101ec565b506000918101602001919091529392505050565b60008060006060848603121561023157600080fd5b83516001600160401b0381111561024757600080fd5b61025386828701610179565b602086015190945090506001600160401b0381111561027157600080fd5b61027d86828701610179565b604086015190935090506001600160a01b038116811461029c57600080fd5b809150509250925092565b600181811c908216806102bb57607f821691505b6020821081036102db57634e487b7160e01b600052602260045260246000fd5b50919050565b601f82111561032b57806000526020600020601f840160051c810160208510156103085750805b601f840160051c820191505b818110156103285760008155600101610314565b50505b505050565b81516001600160401b0381111561034957610349610163565b61035d8161035784546102a7565b846102e1565b6020601f82116001811461039157600083156103795750848201515b600019600385901b1c1916600184901b178455610328565b600084815260208120601f198516915b828110156103c157878501518255602094850194600190920191016103a1565b50848210156103df5786840151600019600387901b60f8161c191681555b50505050600190811b01905550565b610e51806103fd6000396000f3fe608060405234801561001057600080fd5b50600436106101005760003560e01c8063715018a611610097578063a9059cbb11610066578063a9059cbb1461023a578063dd62ed3e1461024d578063e77772fe14610293578063f2fde38b146102b357600080fd5b8063715018a6146101d85780638da5cb5b146101e057806395d89b411461021f5780639dc29fac1461022757600080fd5b80632637af31116100d35780632637af311461016b578063313ce5671461018057806340c10f191461018f57806370a08231146101a257600080fd5b806306fdde0314610105578063095ea7b31461012357806318160ddd1461014657806323b872dd14610158575b600080fd5b61010d6102c6565b60405161011a9190610c3d565b60405180910390f35b610136610131366004610cd2565b610358565b604051901515815260200161011a565b6002545b60405190815260200161011a565b610136610166366004610cfc565b610372565b61017e610179366004610d39565b610396565b005b6040516012815260200161011a565b61017e61019d366004610cd2565b61048d565b61014a6101b0366004610d39565b73ffffffffffffffffffffffffffffffffffffffff1660009081526020819052604090205490565b61017e61051c565b60055473ffffffffffffffffffffffffffffffffffffffff165b60405173ffffffffffffffffffffffffffffffffffffffff909116815260200161011a565b61010d610530565b61017e610235366004610cd2565b61053f565b610136610248366004610cd2565b6105ca565b61014a61025b366004610d5b565b73ffffffffffffffffffffffffffffffffffffffff918216600090815260016020908152604080832093909416825291909152205490565b6006546101fa9073ffffffffffffffffffffffffffffffffffffffff1681565b61017e6102c1366004610d39565b6105d8565b6060600380546102d590610d8e565b80601f016020809104026020016040519081016040528092919081815260200182805461030190610d8e565b801561034e5780601f106103235761010080835404028352916020019161034e565b820191906000526020600020905b81548152906001019060200180831161033157829003601f168201915b5050505050905090565b60003361036681858561063c565b60019150505b92915050565b60003361038085828561064e565b61038b85858561071d565b506001949350505050565b61039e6107c8565b73ffffffffffffffffffffffffffffffffffffffff8116610446576040517f08c379a000000000000000000000000000000000000000000000000000000000815260206004820152602860248201527f4e657720626f6e64696e6720637572766520616464726573732063616e6e6f7460448201527f206265207a65726f00000000000000000000000000000000000000000000000060648201526084015b60405180910390fd5b600680547fffffffffffffffffffffffff00000000000000000000000000000000000000001673ffffffffffffffffffffffffffffffffffffffff92909216919091179055565b60065473ffffffffffffffffffffffffffffffffffffffff16331461050e576040517f08c379a000000000000000000000000000000000000000000000000000000000815260206004820152601b60248201527f4f6e6c7920626f6e64696e672063757276652063616e206d696e740000000000604482015260640161043d565b610518828261081b565b5050565b6105246107c8565b61052e6000610877565b565b6060600480546102d590610d8e565b60065473ffffffffffffffffffffffffffffffffffffffff1633146105c0576040517f08c379a000000000000000000000000000000000000000000000000000000000815260206004820152601b60248201527f4f6e6c7920626f6e64696e672063757276652063616e206275726e0000000000604482015260640161043d565b61051882826108ee565b60003361036681858561071d565b6105e06107c8565b73ffffffffffffffffffffffffffffffffffffffff8116610630576040517f1e4fbdf70000000000000000000000000000000000000000000000000000000081526000600482015260240161043d565b61063981610877565b50565b610649838383600161094a565b505050565b73ffffffffffffffffffffffffffffffffffffffff8381166000908152600160209081526040808320938616835292905220547fffffffffffffffffffffffffffffffffffffffffffffffffffffffffffffffff81146107175781811015610708576040517ffb8f41b200000000000000000000000000000000000000000000000000000000815273ffffffffffffffffffffffffffffffffffffffff84166004820152602481018290526044810183905260640161043d565b6107178484848403600061094a565b50505050565b73ffffffffffffffffffffffffffffffffffffffff831661076d576040517f96c6fd1e0000000000000000000000000000000000000000000000000000000081526000600482015260240161043d565b73ffffffffffffffffffffffffffffffffffffffff82166107bd576040517fec442f050000000000000000000000000000000000000000000000000000000081526000600482015260240161043d565b610649838383610a92565b60055473ffffffffffffffffffffffffffffffffffffffff16331461052e576040517f118cdaa700000000000000000000000000000000000000000000000000000000815233600482015260240161043d565b73ffffffffffffffffffffffffffffffffffffffff821661086b576040517fec442f050000000000000000000000000000000000000000000000000000000081526000600482015260240161043d565b61051860008383610a92565b6005805473ffffffffffffffffffffffffffffffffffffffff8381167fffffffffffffffffffffffff0000000000000000000000000000000000000000831681179093556040519116919082907f8be0079c531659141344cd1fd0a4f28419497f9722a3daafe3b4186f6b6457e090600090a35050565b73ffffffffffffffffffffffffffffffffffffffff821661093e576040517f96c6fd1e0000000000000000000000000000000000000000000000000000000081526000600482015260240161043d565b61051882600083610a92565b73ffffffffffffffffffffffffffffffffffffffff841661099a576040517fe602df050000000000000000000000000000000000000000000000000000000081526000600482015260240161043d565b73ffffffffffffffffffffffffffffffffffffffff83166109ea576040517f94280d620000000000000000000000000000000000000000000000000000000081526000600482015260240161043d565b73ffffffffffffffffffffffffffffffffffffffff80851660009081526001602090815260408083209387168352929052208290558015610717578273ffffffffffffffffffffffffffffffffffffffff168473ffffffffffffffffffffffffffffffffffffffff167f8c5be1e5ebec7d5bd14f71427d1e84f3dd0314c0f7b2291e5b200ac8c7c3b92584604051610a8491815260200190565b60405180910390a350505050565b73ffffffffffffffffffffffffffffffffffffffff8316610aca578060026000828254610abf9190610de1565b90915550610b7c9050565b73ffffffffffffffffffffffffffffffffffffffff831660009081526020819052604090205481811015610b50576040517fe450d38c00000000000000000000000000000000000000000000000000000000815273ffffffffffffffffffffffffffffffffffffffff85166004820152602481018290526044810183905260640161043d565b73ffffffffffffffffffffffffffffffffffffffff841660009081526020819052604090209082900390555b73ffffffffffffffffffffffffffffffffffffffff8216610ba557600280548290039055610bd1565b73ffffffffffffffffffffffffffffffffffffffff821660009081526020819052604090208054820190555b8173ffffffffffffffffffffffffffffffffffffffff168373ffffffffffffffffffffffffffffffffffffffff167fddf252ad1be2c89b69c2b068fc378daa952ba7f163c4a11628f55a4df523b3ef83604051610c3091815260200190565b60405180910390a3505050565b602081526000825180602084015260005b81811015610c6b5760208186018101516040868401015201610c4e565b5060006040828501015260407fffffffffffffffffffffffffffffffffffffffffffffffffffffffffffffffe0601f83011684010191505092915050565b803573ffffffffffffffffffffffffffffffffffffffff81168114610ccd57600080fd5b919050565b60008060408385031215610ce557600080fd5b610cee83610ca9565b946020939093013593505050565b600080600060608486031215610d1157600080fd5b610d1a84610ca9565b9250610d2860208501610ca9565b929592945050506040919091013590565b600060208284031215610d4b57600080fd5b610d5482610ca9565b9392505050565b60008060408385031215610d6e57600080fd5b610d7783610ca9565b9150610d8560208401610ca9565b90509250929050565b600181811c90821680610da257607f821691505b602082108103610ddb577f4e487b7100000000000000000000000000000000000000000000000000000000600052602260045260246000fd5b50919050565b8082018082111561036c577f4e487b7100000000000000000000000000000000000000000000000000000000600052601160045260246000fdfea264697066735822122092bae91eeb78706d8a48cd331d2037a0c7e49bfecc5f3b460566d59b8e219acb64736f6c634300081a0033a264697066735822122007f1406f21b9868af67d3c3b605882092f172ca028507cafd12710191beef83364736f6c634300081a0033","linkReferences":{}},"methodIdentifiers":{"bondingCurve()":"eff1d50e","buy(address,uint256)":"cce7ec13","createToken(string,string,uint256[],uint256[])":"cf5e11fe","currentWinner()":"aabe2fe3","getOwnerTokens(address)":"d63d4af0","getTokenList()":"273cbaa0","getTokenListWithPrice()":"96b7d272","getTokenStepAt(address,uint256)":"0e95aa83","getTokenStepCount(address)":"56719eeb","getTokenSteps(address)":"17734e3d","getTopLiquidityToken(uint256)":"e3fec86c","lastUpdateTime()":"c8f33c91","owner()":"8da5cb5b","renounceOwnership()":"715018a6","reserveToken()":"f4325d67","sell(address,uint256)":"6c197ff5","tokenBond(address)":"d9fe0eae","tokenInfo(address)":"f5dab711","tokens(uint256)":"4f64b2be","transferOwnership(address)":"f2fde38b","updateDailyWinner(uint256)":"2b127d4b"},"id":8}