{"abi":[{"type":"constructor","inputs":[{"name":"_slope","type":"uint256","internalType":"uint256"},{"name":"_reserveRatio","type":"uint32","internalType":"uint32"}],"stateMutability":"nonpayable"},{"type":"function","name":"MAX_WEIGHT","inputs":[],"outputs":[{"name":"","type":"uint32","internalType":"uint32"}],"stateMutability":"view"},{"type":"function","name":"computeBurningAmountFromRefund","inputs":[{"name":"b","type":"uint256","internalType":"uint256"},{"name":"supply","type":"uint256","internalType":"uint256"},{"name":"p","type":"uint256","internalType":"uint256"}],"outputs":[{"name":"k","type":"uint256","internalType":"uint256"}],"stateMutability":"view"},{"type":"function","name":"computeMintingAmountFromPrice","inputs":[{"name":"b","type":"uint256","internalType":"uint256"},{"name":"supply","type":"uint256","internalType":"uint256"},{"name":"p","type":"uint256","internalType":"uint256"}],"outputs":[{"name":"k","type":"uint256","internalType":"uint256"}],"stateMutability":"view"},{"type":"function","name":"computePriceForMinting","inputs":[{"name":"b","type":"uint256","internalType":"uint256"},{"name":"supply","type":"uint256","internalType":"uint256"},{"name":"k","type":"uint256","internalType":"uint256"}],"outputs":[{"name":"p","type":"uint256","internalType":"uint256"}],"stateMutability":"view"},{"type":"function","name":"computeRefundForBurning","inputs":[{"name":"b","type":"uint256","internalType":"uint256"},{"name":"supply","type":"uint256","internalType":"uint256"},{"name":"k","type":"uint256","internalType":"uint256"}],"outputs":[{"name":"p","type":"uint256","internalType":"uint256"}],"stateMutability":"view"},{"type":"function","name":"reserveRatio","inputs":[],"outputs":[{"name":"","type":"uint32","internalType":"uint32"}],"stateMutability":"view"},{"type":"function","name":"slope","inputs":[],"outputs":[{"name":"","type":"uint256","internalType":"uint256"}],"stateMutability":"view"},{"type":"function","name":"version","inputs":[],"outputs":[{"name":"","type":"string","internalType":"string"}],"stateMutability":"view"}],"bytecode":{"object":"0x60c060405234801561001057600080fd5b506040516119bd3803806119bd83398101604081905261002f9161076c565b6001641c35fedd1560601b036020556001646c3390ecc9605e1b036021556001640cf801476160611b0360225560016431bdb23e1d605f1b0360235560016502fb1d8fe083605b1b0360245560016505b771955b37605a1b036025556001650af67a93bb5160591b0360265560016515060c256cb360581b036027556001651428a2f98d7360581b036028556001654d515663970960561b03602955600165944620b0e70f60551b03602a55600166011c592761c66760541b03602b5560016602214d10d014eb60531b03602c55600166020ade36b7dbef60531b03602d5560016603eab73b3bbfe360521b03602e556001660782ee3593f6d760511b03602f556001661ccf4b44bb4821604f1b0360305560016606e7f88ad8a77760511b0360315560016669f3d1c921891d604d1b03603255600166cb2ff529eb71e5604c1b03603355600166c2d415c3db974b604c1b0360345560016702eb40f9f620fda7604a1b0360355560016705990681d961a1eb60491b03603655600167055e12902701414760491b0360375560016714962dee9dc9764160471b0360385560016704ef57b9b560fab560491b0360395560016712ed7b32a58f552b60471b03603a556001679131271922eaa60760441b03603b556001678b380f3558668c4760441b03603c556001680215f77c045fbe885760421b03603d556001600160831b03603e556001670f577eded5773a1160471b03603f556001680eb5ec597592befbf5603f1b036040556001681c35fedd14b861eb05603e1b036041556001683619c87664579bc94b603d1b0360425560016867c00a3b07ffc01fd7603c1b03604355600168c6f6c8f8739773a7a5603b1b03604455600168bec763f8209b7a72b1603b1b0360455560016902dbb8caad9b7097b91b60391b03604655600169057b3d49dda84556d6f760381b03604755600169054183095b2c8ececf3160381b036048556001690a14517cc6b9457111ef60371b0360495560016913545598e5c23276ccf160361b03604a556001692511882c39c3adea96ff60351b03604b55600169471649d87199aa99075760341b03604c557004429a21a029d4c1457cfbffffffffffff604d55700415bc6d6fb7dd71af2cb3ffffffffffff604e557003eab73b3bbfe282243ce1ffffffffffff604f557003c1771ac9fb6b4c18e229ffffffffffff605055700399e96897690418f785257fffffffffff605155700373fc456c53bb779bf0ea9fffffffffff60525570034f9e8e490c48e67e6ab8bfffffffffff60535570032cbfd4a7adc790560b3337ffffffffff60545570030b50570f6e5d2acca94613ffffffffff6055557002eb40f9f620fda6b56c2861ffffffffff6056557002cc8340ecb0d0f520a6af58ffffffffff6057557002af09481380a0a35cf1ba02ffffffffff605855700292c5bdd3b92ec810287b1b3fffffffff605955700277abdcdab07d5a77ac6d6b9fffffffff605a5570025daf6654b1eaa55fd64df5efffffffff605b55700244c49c648baa98192dce88b7ffffffff605c5570022ce03cd5619a311b2471268bffffffff605d55700215f77c045fbe885654a44a0fffffffff605e556001600160811b03605f557001eaefdbdaaee7421fc4d3ede5ffffffff6060557001d6bd8b2eb257df7e8ca57b09bfffffff6061557001c35fedd14b861eb0443f7f133fffffff6062557001b0ce43b322bcde4a56e8ada5afffffff60635570019f0028ec1fff007f5a195a39dfffffff60645570018ded91f0e72ee74f49b15ba527ffffff60655570017d8ec7f04136f4e5615fd41a63ffffff60665570016ddc6556cdb84bdc8d12d22e6fffffff60675570015ecf52776a1155b5bd8395814f7fffff60685570015060c256cb23b3b3cc3754cf40ffffff6069557001428a2f98d728ae223ddab715be3fffff606a5570013545598e5c23276ccf0ede68034fffff606b557001288c4161ce1d6f54b7f61081194fffff606c5570011c592761c666aa641d5a01a40f17ffff606d55700110a688680a7530515f3e6e6cfdcdffff606e557001056f1b5bedf75c6bcb2ce8aed428ffff606f556ffaadceceeff8a0890f3875f008277fff6070556ff05dc6b27edad306388a600f6ba0bfff6071556fe67a5a25da41063de1495d5b18cdbfff6072556fdcff115b14eedde6fc3aa5353f2e4fff6073556fd3e7a3924312399f9aae2e0f868f8fff6074556fcb2ff529eb71e41582cccd5a1ee26fff6075556fc2d415c3db974ab32a51840c0b67edff6076556fbad03e7d883f69ad5b0a186184e06bff6077556fb320d03b2c343d4829abd6075f0cc5ff6078556fabc25204e02828d73c6e80bcdb1a95bf6079556fa4b16f74ee4bb2040a1ec6c15fbbf2df607a556f9deaf736ac1f569deb1b5ae3f36c130f607b556f976bd9952c7aa957f5937d790ef65037607c556f9131271922eaa6064b73a22d0bd4f2bf607d556f8b380f3558668c46c91c49a2f8e967b9607e556f857ddf0117efa215952912839f6473e6607f5560809190915263ffffffff1660a0526107a5565b6000806040838503121561077f57600080fd5b82519150602083015163ffffffff8116811461079a57600080fd5b809150509250929050565b60805160a0516111ae61080f600039600081816092015281816101bb015281816101f101528181610261015281816102a7015281816102ec015281816103590152818161038001526103bd01526000818161016301528181610218015261033301526111ae6000f3fe608060405234801561001057600080fd5b50600436106100885760003560e01c806382b85cf51161005b57806382b85cf51461014b57806383caf2751461015e57806388dc874314610185578063e4a28a521461019857600080fd5b80630c7d5cd81461008d57806354fd4d50146100ce5780636a32926c146101175780636d2dfa4a14610138575b600080fd5b6100b47f000000000000000000000000000000000000000000000000000000000000000081565b60405163ffffffff90911681526020015b60405180910390f35b61010a6040518060400160405280600581526020017f302e332e3100000000000000000000000000000000000000000000000000000081525081565b6040516100c59190610f44565b61012a610125366004610fb0565b6101a2565b6040519081526020016100c5565b61012a610146366004610fb0565b610290565b61012a610159366004610fb0565b6102cc565b61012a7f000000000000000000000000000000000000000000000000000000000000000081565b61012a610193366004610fb0565b610311565b6100b4620f424081565b600082600003610251576000806101df846001620f42407f00000000000000000000000000000000000000000000000000000000000000006103e2565b909250905060ff8116620f424061023c7f000000000000000000000000000000000000000000000000000000000000000063ffffffff167f000000000000000000000000000000000000000000000000000000000000000061100b565b6102469190611051565b901c92505050610289565b61028661025e8385611065565b857f000000000000000000000000000000000000000000000000000000000000000085610449565b90505b9392505050565b60008183036102a0575082610289565b61028683857f000000000000000000000000000000000000000000000000000000000000000085610449565b60008184036102dc575081610289565b610286836102ea8487611078565b7f00000000000000000000000000000000000000000000000000000000000000008561055b565b6000826000036103b6576000806103a861032e620f42408661100b565b61037e7f000000000000000000000000000000000000000000000000000000000000000063ffffffff7f00000000000000000000000000000000000000000000000000000000000000001661100b565b7f0000000000000000000000000000000000000000000000000000000000000000620f42406103e2565b60ff161c9250610289915050565b61028683857f00000000000000000000000000000000000000000000000000000000000000008561055b565b60008060008363ffffffff168563ffffffff166103ff8989610633565b610409919061100b565b6104139190611051565b90506000610420826107a9565b905061043c61043082607f61108b565b60ff1683901c8261086e565b9890975095505050505050565b6000808511801561045a5750600084115b801561046c575060008363ffffffff16115b80156104815750620f424063ffffffff841611155b801561048d5750848211155b61049657600080fd5b816000036104a657506000610553565b8482036104b4575082610553565b7ffffffffffffffffffffffffffffffffffffffffffffffffffffffffffff0bdc063ffffffff8416016104fd57846104ec838661100b565b6104f69190611051565b9050610553565b6000808061050b8589611078565b905061051c8882620f4240896103e2565b9093509150600061052d848961100b565b905060ff831688901b846105418284611078565b61054b9190611051565b955050505050505b949350505050565b6000808511801561056c5750600084115b801561057e575060008363ffffffff16115b80156105935750620f424063ffffffff841611155b61059c57600080fd5b816000036105ac57506000610553565b7ffffffffffffffffffffffffffffffffffffffffffffffffffffffffffff0bdc063ffffffff8416016105e457836104ec838761100b565b600080806105f28786611065565b9050610603818888620f42406103e2565b9093509150600060ff8316610618858b61100b565b901c90506106268982611078565b9998505050505050505050565b60007001ffffffffffffffffffffffffffffffff831115610656576106566110a4565b600080836106746f800000000000000000000000000000008761100b565b61067e9190611051565b905070010000000000000000000000000000000081106106e65760006106bc6106b76f8000000000000000000000000000000084611051565b610ed5565b60ff811692831c929091506106e2906f800000000000000000000000000000009061100b565b9250505b6f8000000000000000000000000000000081111561078057607f5b60ff81161561077e576f80000000000000000000000000000000610725838061100b565b61072f9190611051565b9150700100000000000000000000000000000000821061076e57600191821c91610759908261108b565b60ff166001901b8361076b9190611065565b92505b610777816110d3565b9050610701565b505b607a61079c6f02c5c85fdf473de6af278ece600fcbda8461100b565b901c925050505b92915050565b60006020607f5b60ff81166107bf83600161110e565b60ff16101561081257600060026107d6838561110e565b6107e09190611127565b90508460008260ff16608081106107f9576107f9611149565b0154106108085780925061080c565b8091505b506107b0565b8360008260ff166080811061082957610829611149565b015410610837579392505050565b8360008360ff166080811061084e5761084e611149565b01541061085c575092915050565b6108646110a4565b5060009392505050565b6000828160ff8416610880838061100b565b901c915061089e826f03442c4e6074a82f1797f72ac000000061100b565b6108a89082611065565b905060ff84166108b8868461100b565b901c91506108d6826f0116b96f757c380fb287fd0e4000000061100b565b6108e09082611065565b905060ff84166108f0868461100b565b901c915061090d826e45ae5bdd5f0e03eca1ff439000000061100b565b6109179082611065565b905060ff8416610927868461100b565b901c9150610944826e0defabf91302cd95b9ffda5000000061100b565b61094e9082611065565b905060ff841661095e868461100b565b901c915061097b826e02529ca9832b22439efff9b800000061100b565b6109859082611065565b905060ff8416610995868461100b565b901c91506109b1826d54f1cf12bd04e516b6da8800000061100b565b6109bb9082611065565b905060ff84166109cb868461100b565b901c91506109e7826d0a9e39e257a09ca2d6db5100000061100b565b6109f19082611065565b905060ff8416610a01868461100b565b901c9150610a1d826d012e066e7b839fa050c30900000061100b565b610a279082611065565b905060ff8416610a37868461100b565b901c9150610a52826c1e33d7d926c329a1ad1a80000061100b565b610a5c9082611065565b905060ff8416610a6c868461100b565b901c9150610a87826c02bee513bdb4a6b19b5f80000061100b565b610a919082611065565b905060ff8416610aa1868461100b565b901c9150610abb826b3a9316fa79b88eccf2a0000061100b565b610ac59082611065565b905060ff8416610ad5868461100b565b901c9150610aef826b048177ebe1fa81237520000061100b565b610af99082611065565b905060ff8416610b09868461100b565b901c9150610b22826a5263fe90242dcbacf0000061100b565b610b2c9082611065565b905060ff8416610b3c868461100b565b901c9150610b55826a057e22099c030d9410000061100b565b610b5f9082611065565b905060ff8416610b6f868461100b565b901c9150610b87826957e22099c030d941000061100b565b610b919082611065565b905060ff8416610ba1868461100b565b901c9150610bb98269052b6b5456997631000061100b565b610bc39082611065565b905060ff8416610bd3868461100b565b901c9150610bea82684985f67696bf74800061100b565b610bf49082611065565b905060ff8416610c04868461100b565b901c9150610c1b826803dea12ea99e49800061100b565b610c259082611065565b905060ff8416610c35868461100b565b901c9150610c4b826731880f2214b6e00061100b565b610c559082611065565b905060ff8416610c65868461100b565b901c9150610c7b8267025bcff56eb3600061100b565b610c859082611065565b905060ff8416610c95868461100b565b901c9150610caa82661b722e10ab100061100b565b610cb49082611065565b905060ff8416610cc4868461100b565b901c9150610cd9826601317c7007700061100b565b610ce39082611065565b905060ff8416610cf3868461100b565b901c9150610d0782650cba84aafa0061100b565b610d119082611065565b905060ff8416610d21868461100b565b901c9150610d34826482573a0a0061100b565b610d3e9082611065565b905060ff8416610d4e868461100b565b901c9150610d61826405035ad90061100b565b610d6b9082611065565b905060ff8416610d7b868461100b565b901c9150610d8d82632f881b0061100b565b610d979082611065565b905060ff8416610da7868461100b565b901c9150610db9826301b2934061100b565b610dc39082611065565b905060ff8416610dd3868461100b565b901c9150610de482620efc4061100b565b610dee9082611065565b905060ff8416610dfe868461100b565b901c9150610e0e82617fe061100b565b610e189082611065565b905060ff8416610e28868461100b565b901c9150610e388261042061100b565b610e429082611065565b905060ff8416610e52868461100b565b901c9150610e6182602161100b565b610e6b9082611065565b905060ff8416610e7b868461100b565b901c9150610e8a82600161100b565b610e949082611065565b9050600160ff85161b85610eb86f0688589cc0e9505e2f2fee558000000084611051565b610ec29190611065565b610ecc9190611065565b95945050505050565b60008082610100811015610f09575b6001811115610f0457600190811c90610efd908361110e565b9150610ee4565b610f3d565b60805b60ff811615610f3b57600160ff82161b8210610f30579182179160ff81169190911c905b60011c607f16610f0c565b505b5092915050565b602081526000825180602084015260005b81811015610f725760208186018101516040868401015201610f55565b5060006040828501015260407fffffffffffffffffffffffffffffffffffffffffffffffffffffffffffffffe0601f83011684010191505092915050565b600080600060608486031215610fc557600080fd5b505081359360208301359350604090920135919050565b7f4e487b7100000000000000000000000000000000000000000000000000000000600052601160045260246000fd5b80820281158282048414176107a3576107a3610fdc565b7f4e487b7100000000000000000000000000000000000000000000000000000000600052601260045260246000fd5b60008261106057611060611022565b500490565b808201808211156107a3576107a3610fdc565b818103818111156107a3576107a3610fdc565b60ff82811682821603908111156107a3576107a3610fdc565b7f4e487b7100000000000000000000000000000000000000000000000000000000600052600160045260246000fd5b600060ff8216806110e6576110e6610fdc565b7fffffffffffffffffffffffffffffffffffffffffffffffffffffffffffffffff0192915050565b60ff81811683821601908111156107a3576107a3610fdc565b600060ff83168061113a5761113a611022565b8060ff84160491505092915050565b7f4e487b7100000000000000000000000000000000000000000000000000000000600052603260045260246000fdfea26469706673582212202fdbc1f9e6b047b1ff456e0dd0c4ebe9cdd6df4e77e241a2c45270691991837864736f6c634300081a0033","linkReferences":{}},"methodIdentifiers":{"MAX_WEIGHT()":"e4a28a52","computeBurningAmountFromRefund(uint256,uint256,uint256)":"82b85cf5","computeMintingAmountFromPrice(uint256,uint256,uint256)":"88dc8743","computePriceForMinting(uint256,uint256,uint256)":"6a32926c","computeRefundForBurning(uint256,uint256,uint256)":"6d2dfa4a","reserveRatio()":"0c7d5cd8","slope()":"83caf275","version()":"54fd4d50"},"id":1}