{"abi":[{"type":"constructor","inputs":[{"name":"_slope","type":"uint256","internalType":"uint256"},{"name":"_reserveRatio","type":"uint32","internalType":"uint32"}],"stateMutability":"nonpayable"},{"type":"function","name":"computeBurningAmountFromRefund","inputs":[{"name":"b","type":"uint256","internalType":"uint256"},{"name":"supply","type":"uint256","internalType":"uint256"},{"name":"p","type":"uint256","internalType":"uint256"}],"outputs":[{"name":"k","type":"uint256","internalType":"uint256"}],"stateMutability":"view"},{"type":"function","name":"computeMintingAmountFromPrice","inputs":[{"name":"b","type":"uint256","internalType":"uint256"},{"name":"supply","type":"uint256","internalType":"uint256"},{"name":"p","type":"uint256","internalType":"uint256"}],"outputs":[{"name":"k","type":"uint256","internalType":"uint256"}],"stateMutability":"view"},{"type":"function","name":"computePriceForMinting","inputs":[{"name":"b","type":"uint256","internalType":"uint256"},{"name":"supply","type":"uint256","internalType":"uint256"},{"name":"k","type":"uint256","internalType":"uint256"}],"outputs":[{"name":"p","type":"uint256","internalType":"uint256"}],"stateMutability":"view"},{"type":"function","name":"computeRefundForBurning","inputs":[{"name":"b","type":"uint256","internalType":"uint256"},{"name":"supply","type":"uint256","internalType":"uint256"},{"name":"k","type":"uint256","internalType":"uint256"}],"outputs":[{"name":"p","type":"uint256","internalType":"uint256"}],"stateMutability":"view"},{"type":"function","name":"reserveRatio","inputs":[],"outputs":[{"name":"","type":"uint32","internalType":"uint32"}],"stateMutability":"view"},{"type":"function","name":"slope","inputs":[],"outputs":[{"name":"","type":"uint256","internalType":"uint256"}],"stateMutability":"view"},{"type":"function","name":"version","inputs":[],"outputs":[{"name":"","type":"string","internalType":"string"}],"stateMutability":"view"},{"type":"error","name":"ConnectorWeightExceeded","inputs":[]},{"type":"error","name":"SellAmountExceededSupply","inputs":[]},{"type":"error","name":"ZeroBalance","inputs":[]},{"type":"error","name":"ZeroConnectorWeight","inputs":[]},{"type":"error","name":"ZeroSupply","inputs":[]}],"bytecode":{"object":"0x60c060405234801561001057600080fd5b50604051611bcc380380611bcc83398101604081905261002f9161076c565b6001641c35fedd1560601b036020556001646c3390ecc9605e1b036021556001640cf801476160611b0360225560016431bdb23e1d605f1b0360235560016502fb1d8fe083605b1b0360245560016505b771955b37605a1b036025556001650af67a93bb5160591b0360265560016515060c256cb360581b036027556001651428a2f98d7360581b036028556001654d515663970960561b03602955600165944620b0e70f60551b03602a55600166011c592761c66760541b03602b5560016602214d10d014eb60531b03602c55600166020ade36b7dbef60531b03602d5560016603eab73b3bbfe360521b03602e556001660782ee3593f6d760511b03602f556001661ccf4b44bb4821604f1b0360305560016606e7f88ad8a77760511b0360315560016669f3d1c921891d604d1b03603255600166cb2ff529eb71e5604c1b03603355600166c2d415c3db974b604c1b0360345560016702eb40f9f620fda7604a1b0360355560016705990681d961a1eb60491b03603655600167055e12902701414760491b0360375560016714962dee9dc9764160471b0360385560016704ef57b9b560fab560491b0360395560016712ed7b32a58f552b60471b03603a556001679131271922eaa60760441b03603b556001678b380f3558668c4760441b03603c556001680215f77c045fbe885760421b03603d556001600160831b03603e556001670f577eded5773a1160471b03603f556001680eb5ec597592befbf5603f1b036040556001681c35fedd14b861eb05603e1b036041556001683619c87664579bc94b603d1b0360425560016867c00a3b07ffc01fd7603c1b03604355600168c6f6c8f8739773a7a5603b1b03604455600168bec763f8209b7a72b1603b1b0360455560016902dbb8caad9b7097b91b60391b03604655600169057b3d49dda84556d6f760381b03604755600169054183095b2c8ececf3160381b036048556001690a14517cc6b9457111ef60371b0360495560016913545598e5c23276ccf160361b03604a556001692511882c39c3adea96ff60351b03604b55600169471649d87199aa99075760341b03604c557004429a21a029d4c1457cfbffffffffffff604d55700415bc6d6fb7dd71af2cb3ffffffffffff604e557003eab73b3bbfe282243ce1ffffffffffff604f557003c1771ac9fb6b4c18e229ffffffffffff605055700399e96897690418f785257fffffffffff605155700373fc456c53bb779bf0ea9fffffffffff60525570034f9e8e490c48e67e6ab8bfffffffffff60535570032cbfd4a7adc790560b3337ffffffffff60545570030b50570f6e5d2acca94613ffffffffff6055557002eb40f9f620fda6b56c2861ffffffffff6056557002cc8340ecb0d0f520a6af58ffffffffff6057557002af09481380a0a35cf1ba02ffffffffff605855700292c5bdd3b92ec810287b1b3fffffffff605955700277abdcdab07d5a77ac6d6b9fffffffff605a5570025daf6654b1eaa55fd64df5efffffffff605b55700244c49c648baa98192dce88b7ffffffff605c5570022ce03cd5619a311b2471268bffffffff605d55700215f77c045fbe885654a44a0fffffffff605e556001600160811b03605f557001eaefdbdaaee7421fc4d3ede5ffffffff6060557001d6bd8b2eb257df7e8ca57b09bfffffff6061557001c35fedd14b861eb0443f7f133fffffff6062557001b0ce43b322bcde4a56e8ada5afffffff60635570019f0028ec1fff007f5a195a39dfffffff60645570018ded91f0e72ee74f49b15ba527ffffff60655570017d8ec7f04136f4e5615fd41a63ffffff60665570016ddc6556cdb84bdc8d12d22e6fffffff60675570015ecf52776a1155b5bd8395814f7fffff60685570015060c256cb23b3b3cc3754cf40ffffff6069557001428a2f98d728ae223ddab715be3fffff606a5570013545598e5c23276ccf0ede68034fffff606b557001288c4161ce1d6f54b7f61081194fffff606c5570011c592761c666aa641d5a01a40f17ffff606d55700110a688680a7530515f3e6e6cfdcdffff606e557001056f1b5bedf75c6bcb2ce8aed428ffff606f556ffaadceceeff8a0890f3875f008277fff6070556ff05dc6b27edad306388a600f6ba0bfff6071556fe67a5a25da41063de1495d5b18cdbfff6072556fdcff115b14eedde6fc3aa5353f2e4fff6073556fd3e7a3924312399f9aae2e0f868f8fff6074556fcb2ff529eb71e41582cccd5a1ee26fff6075556fc2d415c3db974ab32a51840c0b67edff6076556fbad03e7d883f69ad5b0a186184e06bff6077556fb320d03b2c343d4829abd6075f0cc5ff6078556fabc25204e02828d73c6e80bcdb1a95bf6079556fa4b16f74ee4bb2040a1ec6c15fbbf2df607a556f9deaf736ac1f569deb1b5ae3f36c130f607b556f976bd9952c7aa957f5937d790ef65037607c556f9131271922eaa6064b73a22d0bd4f2bf607d556f8b380f3558668c46c91c49a2f8e967b9607e556f857ddf0117efa215952912839f6473e6607f5560809190915263ffffffff1660a0526107a5565b6000806040838503121561077f57600080fd5b82519150602083015163ffffffff8116811461079a57600080fd5b809150509250929050565b60805160a0516113bd61080f600039600081816087015281816101a6015281816101dc0152818161024c01528181610292015281816102d90152818161037f015281816103a601526103e301526000818161015801528181610203015261035901526113bd6000f3fe608060405234801561001057600080fd5b506004361061007d5760003560e01c80636d2dfa4a1161005b5780636d2dfa4a1461012d57806382b85cf51461014057806383caf2751461015357806388dc87431461017a57600080fd5b80630c7d5cd81461008257806354fd4d50146100c35780636a32926c1461010c575b600080fd5b6100a97f000000000000000000000000000000000000000000000000000000000000000081565b60405163ffffffff90911681526020015b60405180910390f35b6100ff6040518060400160405280600581526020017f302e332e3100000000000000000000000000000000000000000000000000000081525081565b6040516100ba9190611153565b61011f61011a3660046111bf565b61018d565b6040519081526020016100ba565b61011f61013b3660046111bf565b61027b565b61011f61014e3660046111bf565b6102b7565b61011f7f000000000000000000000000000000000000000000000000000000000000000081565b61011f6101883660046111bf565b61032a565b60008260000361023c576000806101ca846001620f42407f0000000000000000000000000000000000000000000000000000000000000000610408565b909250905060ff8116620f42406102277f000000000000000000000000000000000000000000000000000000000000000063ffffffff167f000000000000000000000000000000000000000000000000000000000000000061121a565b6102319190611260565b901c92505050610274565b6102716102498385611274565b857f00000000000000000000000000000000000000000000000000000000000000008561046f565b90505b9392505050565b600081830361028b575082610274565b61027183857f00000000000000000000000000000000000000000000000000000000000000008561046f565b60008184036102c7575081610274565b60006102fe846102d78588611287565b7f0000000000000000000000000000000000000000000000000000000000000000866106b2565b9050600061030c8583611274565b610316868461121a565b6103209190611260565b9695505050505050565b6000826000036103dc576000806103ce61271061034a620f42408761121a565b610354919061121a565b6103a47f000000000000000000000000000000000000000000000000000000000000000063ffffffff7f00000000000000000000000000000000000000000000000000000000000000001661121a565b7f0000000000000000000000000000000000000000000000000000000000000000620f4240610408565b60ff161c9250610274915050565b61027183857f0000000000000000000000000000000000000000000000000000000000000000856106b2565b60008060008363ffffffff168563ffffffff166104258989610842565b61042f919061121a565b6104399190611260565b90506000610446826109b8565b905061046261045682607f61129a565b60ff1683901c82610a7d565b9890975095505050505050565b600080851180156104805750600084115b8015610492575060008363ffffffff16115b80156104a75750620f424063ffffffff841611155b80156104b35750848211155b6104bc57600080fd5b846000036104f6576040517fc16f3a9300000000000000000000000000000000000000000000000000000000815260040160405180910390fd5b83600003610530576040517f669567ea00000000000000000000000000000000000000000000000000000000815260040160405180910390fd5b8263ffffffff16600003610570576040517f9137845300000000000000000000000000000000000000000000000000000000815260040160405180910390fd5b620f424063ffffffff841611156105b3576040517f6f7e1f5800000000000000000000000000000000000000000000000000000000815260040160405180910390fd5b848211156105ed576040517f3b51897500000000000000000000000000000000000000000000000000000000815260040160405180910390fd5b816000036105fd575060006106aa565b84820361060b5750826106aa565b7ffffffffffffffffffffffffffffffffffffffffffffffffffffffffffff0bdc063ffffffff8416016106545784610643838661121a565b61064d9190611260565b90506106aa565b600080806106628589611287565b90506106738882620f424089610408565b90935091506000610684848961121a565b905060ff831688901b846106988284611287565b6106a29190611260565b955050505050505b949350505050565b6000846000036106ee576040517fc16f3a9300000000000000000000000000000000000000000000000000000000815260040160405180910390fd5b83600003610728576040517f669567ea00000000000000000000000000000000000000000000000000000000815260040160405180910390fd5b8263ffffffff16600003610768576040517f9137845300000000000000000000000000000000000000000000000000000000815260040160405180910390fd5b620f424063ffffffff841611156107ab576040517f6f7e1f5800000000000000000000000000000000000000000000000000000000815260040160405180910390fd5b816000036107bb575060006106aa565b7ffffffffffffffffffffffffffffffffffffffffffffffffffffffffffff0bdc063ffffffff8416016107f35783610643838761121a565b600080806108018786611274565b9050610812818888620f4240610408565b9093509150600060ff8316610827858b61121a565b901c90506108358982611287565b9998505050505050505050565b60007001ffffffffffffffffffffffffffffffff831115610865576108656112b3565b600080836108836f800000000000000000000000000000008761121a565b61088d9190611260565b905070010000000000000000000000000000000081106108f55760006108cb6108c66f8000000000000000000000000000000084611260565b6110e4565b60ff811692831c929091506108f1906f800000000000000000000000000000009061121a565b9250505b6f8000000000000000000000000000000081111561098f57607f5b60ff81161561098d576f80000000000000000000000000000000610934838061121a565b61093e9190611260565b9150700100000000000000000000000000000000821061097d57600191821c91610968908261129a565b60ff166001901b8361097a9190611274565b92505b610986816112e2565b9050610910565b505b607a6109ab6f02c5c85fdf473de6af278ece600fcbda8461121a565b901c925050505b92915050565b60006020607f5b60ff81166109ce83600161131d565b60ff161015610a2157600060026109e5838561131d565b6109ef9190611336565b90508460008260ff1660808110610a0857610a08611358565b015410610a1757809250610a1b565b8091505b506109bf565b8360008260ff1660808110610a3857610a38611358565b015410610a46579392505050565b8360008360ff1660808110610a5d57610a5d611358565b015410610a6b575092915050565b610a736112b3565b5060009392505050565b6000828160ff8416610a8f838061121a565b901c9150610aad826f03442c4e6074a82f1797f72ac000000061121a565b610ab79082611274565b905060ff8416610ac7868461121a565b901c9150610ae5826f0116b96f757c380fb287fd0e4000000061121a565b610aef9082611274565b905060ff8416610aff868461121a565b901c9150610b1c826e45ae5bdd5f0e03eca1ff439000000061121a565b610b269082611274565b905060ff8416610b36868461121a565b901c9150610b53826e0defabf91302cd95b9ffda5000000061121a565b610b5d9082611274565b905060ff8416610b6d868461121a565b901c9150610b8a826e02529ca9832b22439efff9b800000061121a565b610b949082611274565b905060ff8416610ba4868461121a565b901c9150610bc0826d54f1cf12bd04e516b6da8800000061121a565b610bca9082611274565b905060ff8416610bda868461121a565b901c9150610bf6826d0a9e39e257a09ca2d6db5100000061121a565b610c009082611274565b905060ff8416610c10868461121a565b901c9150610c2c826d012e066e7b839fa050c30900000061121a565b610c369082611274565b905060ff8416610c46868461121a565b901c9150610c61826c1e33d7d926c329a1ad1a80000061121a565b610c6b9082611274565b905060ff8416610c7b868461121a565b901c9150610c96826c02bee513bdb4a6b19b5f80000061121a565b610ca09082611274565b905060ff8416610cb0868461121a565b901c9150610cca826b3a9316fa79b88eccf2a0000061121a565b610cd49082611274565b905060ff8416610ce4868461121a565b901c9150610cfe826b048177ebe1fa81237520000061121a565b610d089082611274565b905060ff8416610d18868461121a565b901c9150610d31826a5263fe90242dcbacf0000061121a565b610d3b9082611274565b905060ff8416610d4b868461121a565b901c9150610d64826a057e22099c030d9410000061121a565b610d6e9082611274565b905060ff8416610d7e868461121a565b901c9150610d96826957e22099c030d941000061121a565b610da09082611274565b905060ff8416610db0868461121a565b901c9150610dc88269052b6b5456997631000061121a565b610dd29082611274565b905060ff8416610de2868461121a565b901c9150610df982684985f67696bf74800061121a565b610e039082611274565b905060ff8416610e13868461121a565b901c9150610e2a826803dea12ea99e49800061121a565b610e349082611274565b905060ff8416610e44868461121a565b901c9150610e5a826731880f2214b6e00061121a565b610e649082611274565b905060ff8416610e74868461121a565b901c9150610e8a8267025bcff56eb3600061121a565b610e949082611274565b905060ff8416610ea4868461121a565b901c9150610eb982661b722e10ab100061121a565b610ec39082611274565b905060ff8416610ed3868461121a565b901c9150610ee8826601317c7007700061121a565b610ef29082611274565b905060ff8416610f02868461121a565b901c9150610f1682650cba84aafa0061121a565b610f209082611274565b905060ff8416610f30868461121a565b901c9150610f43826482573a0a0061121a565b610f4d9082611274565b905060ff8416610f5d868461121a565b901c9150610f70826405035ad90061121a565b610f7a9082611274565b905060ff8416610f8a868461121a565b901c9150610f9c82632f881b0061121a565b610fa69082611274565b905060ff8416610fb6868461121a565b901c9150610fc8826301b2934061121a565b610fd29082611274565b905060ff8416610fe2868461121a565b901c9150610ff382620efc4061121a565b610ffd9082611274565b905060ff841661100d868461121a565b901c915061101d82617fe061121a565b6110279082611274565b905060ff8416611037868461121a565b901c91506110478261042061121a565b6110519082611274565b905060ff8416611061868461121a565b901c915061107082602161121a565b61107a9082611274565b905060ff841661108a868461121a565b901c915061109982600161121a565b6110a39082611274565b9050600160ff85161b856110c76f0688589cc0e9505e2f2fee558000000084611260565b6110d19190611274565b6110db9190611274565b95945050505050565b60008082610100811015611118575b600181111561111357600190811c9061110c908361131d565b91506110f3565b61114c565b60805b60ff81161561114a57600160ff82161b821061113f579182179160ff81169190911c905b60011c607f1661111b565b505b5092915050565b602081526000825180602084015260005b818110156111815760208186018101516040868401015201611164565b5060006040828501015260407fffffffffffffffffffffffffffffffffffffffffffffffffffffffffffffffe0601f83011684010191505092915050565b6000806000606084860312156111d457600080fd5b505081359360208301359350604090920135919050565b7f4e487b7100000000000000000000000000000000000000000000000000000000600052601160045260246000fd5b80820281158282048414176109b2576109b26111eb565b7f4e487b7100000000000000000000000000000000000000000000000000000000600052601260045260246000fd5b60008261126f5761126f611231565b500490565b808201808211156109b2576109b26111eb565b818103818111156109b2576109b26111eb565b60ff82811682821603908111156109b2576109b26111eb565b7f4e487b7100000000000000000000000000000000000000000000000000000000600052600160045260246000fd5b600060ff8216806112f5576112f56111eb565b7fffffffffffffffffffffffffffffffffffffffffffffffffffffffffffffffff0192915050565b60ff81811683821601908111156109b2576109b26111eb565b600060ff83168061134957611349611231565b8060ff84160491505092915050565b7f4e487b7100000000000000000000000000000000000000000000000000000000600052603260045260246000fdfea2646970667358221220225a38186b642ec0ea91b03044ba6b24acfc7843c05134256e60b0131ae5ae3464736f6c634300081a0033","linkReferences":{}},"methodIdentifiers":{"computeBurningAmountFromRefund(uint256,uint256,uint256)":"82b85cf5","computeMintingAmountFromPrice(uint256,uint256,uint256)":"88dc8743","computePriceForMinting(uint256,uint256,uint256)":"6a32926c","computeRefundForBurning(uint256,uint256,uint256)":"6d2dfa4a","reserveRatio()":"0c7d5cd8","slope()":"83caf275","version()":"54fd4d50"},"id":0}