{
  "contracts/PumpFun.sol": {
    "PumpFun": {
      "abi": [
        {
          "inputs": [
            {
              "internalType": "address",
              "name": "factory_",
              "type": "address"
            },
            {
              "internalType": "address",
              "name": "router_",
              "type": "address"
            },
            {
              "internalType": "address",
              "name": "fee_to",
              "type": "address"
            },
            {
              "internalType": "uint256",
              "name": "_fee",
              "type": "uint256"
            }
          ],
          "stateMutability": "nonpayable",
          "type": "constructor"
        },
        {
          "inputs": [],
          "name": "ReentrancyGuardReentrantCall",
          "type": "error"
        },
        {
          "anonymous": false,
          "inputs": [
            {
              "indexed": true,
              "internalType": "address",
              "name": "token",
              "type": "address"
            },
            {
              "indexed": false,
              "internalType": "uint256",
              "name": "amount0",
              "type": "uint256"
            },
            {
              "indexed": false,
              "internalType": "uint256",
              "name": "amount1",
              "type": "uint256"
            }
          ],
          "name": "Deployed",
          "type": "event"
        },
        {
          "anonymous": false,
          "inputs": [
            {
              "indexed": true,
              "internalType": "address",
              "name": "token",
              "type": "address"
            },
            {
              "indexed": true,
              "internalType": "address",
              "name": "pair",
              "type": "address"
            },
            {
              "indexed": false,
              "internalType": "uint256",
              "name": "",
              "type": "uint256"
            }
          ],
          "name": "Launched",
          "type": "event"
        },
        {
          "inputs": [
            {
              "internalType": "address",
              "name": "_user",
              "type": "address"
            },
            {
              "internalType": "address",
              "name": "_token",
              "type": "address"
            },
            {
              "internalType": "uint256",
              "name": "amount",
              "type": "uint256"
            }
          ],
          "name": "approval",
          "outputs": [
            {
              "internalType": "bool",
              "name": "",
              "type": "bool"
            }
          ],
          "stateMutability": "nonpayable",
          "type": "function"
        },
        {
          "inputs": [
            {
              "internalType": "address",
              "name": "tk",
              "type": "address"
            }
          ],
          "name": "deploy",
          "outputs": [],
          "stateMutability": "nonpayable",
          "type": "function"
        },
        {
          "inputs": [],
          "name": "feeTo",
          "outputs": [
            {
              "internalType": "address",
              "name": "",
              "type": "address"
            }
          ],
          "stateMutability": "view",
          "type": "function"
        },
        {
          "inputs": [],
          "name": "feeToSetter",
          "outputs": [
            {
              "internalType": "address",
              "name": "",
              "type": "address"
            }
          ],
          "stateMutability": "view",
          "type": "function"
        },
        {
          "inputs": [],
          "name": "getTokens",
          "outputs": [
            {
              "components": [
                {
                  "internalType": "address",
                  "name": "creator",
                  "type": "address"
                },
                {
                  "internalType": "address",
                  "name": "token",
                  "type": "address"
                },
                {
                  "internalType": "address",
                  "name": "pair",
                  "type": "address"
                },
                {
                  "components": [
                    {
                      "internalType": "address",
                      "name": "token",
                      "type": "address"
                    },
                    {
                      "internalType": "string",
                      "name": "name",
                      "type": "string"
                    },
                    {
                      "internalType": "string",
                      "name": "ticker",
                      "type": "string"
                    },
                    {
                      "internalType": "uint256",
                      "name": "supply",
                      "type": "uint256"
                    },
                    {
                      "internalType": "uint256",
                      "name": "price",
                      "type": "uint256"
                    },
                    {
                      "internalType": "uint256",
                      "name": "marketCap",
                      "type": "uint256"
                    },
                    {
                      "internalType": "uint256",
                      "name": "liquidity",
                      "type": "uint256"
                    },
                    {
                      "internalType": "uint256",
                      "name": "_liquidity",
                      "type": "uint256"
                    },
                    {
                      "internalType": "uint256",
                      "name": "volume",
                      "type": "uint256"
                    },
                    {
                      "internalType": "uint256",
                      "name": "volume24H",
                      "type": "uint256"
                    },
                    {
                      "internalType": "uint256",
                      "name": "prevPrice",
                      "type": "uint256"
                    },
                    {
                      "internalType": "uint256",
                      "name": "lastUpdated",
                      "type": "uint256"
                    }
                  ],
                  "internalType": "struct PumpFun.Data",
                  "name": "data",
                  "type": "tuple"
                },
                {
                  "internalType": "string",
                  "name": "description",
                  "type": "string"
                },
                {
                  "internalType": "string",
                  "name": "image",
                  "type": "string"
                },
                {
                  "internalType": "string",
                  "name": "twitter",
                  "type": "string"
                },
                {
                  "internalType": "string",
                  "name": "telegram",
                  "type": "string"
                },
                {
                  "internalType": "string",
                  "name": "youtube",
                  "type": "string"
                },
                {
                  "internalType": "string",
                  "name": "website",
                  "type": "string"
                },
                {
                  "internalType": "bool",
                  "name": "trading",
                  "type": "bool"
                },
                {
                  "internalType": "bool",
                  "name": "tradingOnUniswap",
                  "type": "bool"
                }
              ],
              "internalType": "struct PumpFun.Token[]",
              "name": "",
              "type": "tuple[]"
            }
          ],
          "stateMutability": "view",
          "type": "function"
        },
        {
          "inputs": [],
          "name": "getUserTokens",
          "outputs": [
            {
              "components": [
                {
                  "internalType": "address",
                  "name": "creator",
                  "type": "address"
                },
                {
                  "internalType": "address",
                  "name": "token",
                  "type": "address"
                },
                {
                  "internalType": "address",
                  "name": "pair",
                  "type": "address"
                },
                {
                  "components": [
                    {
                      "internalType": "address",
                      "name": "token",
                      "type": "address"
                    },
                    {
                      "internalType": "string",
                      "name": "name",
                      "type": "string"
                    },
                    {
                      "internalType": "string",
                      "name": "ticker",
                      "type": "string"
                    },
                    {
                      "internalType": "uint256",
                      "name": "supply",
                      "type": "uint256"
                    },
                    {
                      "internalType": "uint256",
                      "name": "price",
                      "type": "uint256"
                    },
                    {
                      "internalType": "uint256",
                      "name": "marketCap",
                      "type": "uint256"
                    },
                    {
                      "internalType": "uint256",
                      "name": "liquidity",
                      "type": "uint256"
                    },
                    {
                      "internalType": "uint256",
                      "name": "_liquidity",
                      "type": "uint256"
                    },
                    {
                      "internalType": "uint256",
                      "name": "volume",
                      "type": "uint256"
                    },
                    {
                      "internalType": "uint256",
                      "name": "volume24H",
                      "type": "uint256"
                    },
                    {
                      "internalType": "uint256",
                      "name": "prevPrice",
                      "type": "uint256"
                    },
                    {
                      "internalType": "uint256",
                      "name": "lastUpdated",
                      "type": "uint256"
                    }
                  ],
                  "internalType": "struct PumpFun.Data",
                  "name": "data",
                  "type": "tuple"
                },
                {
                  "internalType": "string",
                  "name": "description",
                  "type": "string"
                },
                {
                  "internalType": "string",
                  "name": "image",
                  "type": "string"
                },
                {
                  "internalType": "string",
                  "name": "twitter",
                  "type": "string"
                },
                {
                  "internalType": "string",
                  "name": "telegram",
                  "type": "string"
                },
                {
                  "internalType": "string",
                  "name": "youtube",
                  "type": "string"
                },
                {
                  "internalType": "string",
                  "name": "website",
                  "type": "string"
                },
                {
                  "internalType": "bool",
                  "name": "trading",
                  "type": "bool"
                },
                {
                  "internalType": "bool",
                  "name": "tradingOnUniswap",
                  "type": "bool"
                }
              ],
              "internalType": "struct PumpFun.Token[]",
              "name": "",
              "type": "tuple[]"
            }
          ],
          "stateMutability": "view",
          "type": "function"
        },
        {
          "inputs": [
            {
              "internalType": "string",
              "name": "_name",
              "type": "string"
            },
            {
              "internalType": "string",
              "name": "_ticker",
              "type": "string"
            },
            {
              "internalType": "string",
              "name": "desc",
              "type": "string"
            },
            {
              "internalType": "string",
              "name": "img",
              "type": "string"
            },
            {
              "internalType": "string[4]",
              "name": "urls",
              "type": "string[4]"
            },
            {
              "internalType": "uint256",
              "name": "_supply",
              "type": "uint256"
            },
            {
              "internalType": "uint256",
              "name": "maxTx",
              "type": "uint256"
            }
          ],
          "name": "launch",
          "outputs": [
            {
              "internalType": "address",
              "name": "",
              "type": "address"
            },
            {
              "internalType": "address",
              "name": "",
              "type": "address"
            },
            {
              "internalType": "uint256",
              "name": "",
              "type": "uint256"
            }
          ],
          "stateMutability": "payable",
          "type": "function"
        },
        {
          "inputs": [],
          "name": "launchFee",
          "outputs": [
            {
              "internalType": "uint256",
              "name": "",
              "type": "uint256"
            }
          ],
          "stateMutability": "view",
          "type": "function"
        },
        {
          "inputs": [],
          "name": "liquidityFee",
          "outputs": [
            {
              "internalType": "uint256",
              "name": "",
              "type": "uint256"
            }
          ],
          "stateMutability": "pure",
          "type": "function"
        },
        {
          "inputs": [],
          "name": "marketCapLimit",
          "outputs": [
            {
              "internalType": "uint256",
              "name": "",
              "type": "uint256"
            }
          ],
          "stateMutability": "pure",
          "type": "function"
        },
        {
          "inputs": [
            {
              "internalType": "address",
              "name": "",
              "type": "address"
            }
          ],
          "name": "profile",
          "outputs": [
            {
              "internalType": "address",
              "name": "user",
              "type": "address"
            }
          ],
          "stateMutability": "view",
          "type": "function"
        },
        {
          "inputs": [
            {
              "internalType": "uint256",
              "name": "",
              "type": "uint256"
            }
          ],
          "name": "profiles",
          "outputs": [
            {
              "internalType": "address",
              "name": "user",
              "type": "address"
            }
          ],
          "stateMutability": "view",
          "type": "function"
        },
        {
          "inputs": [
            {
              "internalType": "address",
              "name": "fee_to",
              "type": "address"
            }
          ],
          "name": "setFeeTo",
          "outputs": [],
          "stateMutability": "nonpayable",
          "type": "function"
        },
        {
          "inputs": [
            {
              "internalType": "address",
              "name": "tk",
              "type": "address"
            },
            {
              "internalType": "address",
              "name": "to",
              "type": "address"
            },
            {
              "internalType": "address",
              "name": "referree",
              "type": "address"
            }
          ],
          "name": "swapETHForTokens",
          "outputs": [
            {
              "internalType": "bool",
              "name": "",
              "type": "bool"
            }
          ],
          "stateMutability": "payable",
          "type": "function"
        },
        {
          "inputs": [
            {
              "internalType": "uint256",
              "name": "amountIn",
              "type": "uint256"
            },
            {
              "internalType": "address",
              "name": "tk",
              "type": "address"
            },
            {
              "internalType": "address",
              "name": "to",
              "type": "address"
            },
            {
              "internalType": "address",
              "name": "referree",
              "type": "address"
            }
          ],
          "name": "swapTokensForETH",
          "outputs": [
            {
              "internalType": "bool",
              "name": "",
              "type": "bool"
            }
          ],
          "stateMutability": "nonpayable",
          "type": "function"
        },
        {
          "inputs": [
            {
              "internalType": "address",
              "name": "",
              "type": "address"
            }
          ],
          "name": "token",
          "outputs": [
            {
              "internalType": "address",
              "name": "creator",
              "type": "address"
            },
            {
              "internalType": "address",
              "name": "token",
              "type": "address"
            },
            {
              "internalType": "address",
              "name": "pair",
              "type": "address"
            },
            {
              "components": [
                {
                  "internalType": "address",
                  "name": "token",
                  "type": "address"
                },
                {
                  "internalType": "string",
                  "name": "name",
                  "type": "string"
                },
                {
                  "internalType": "string",
                  "name": "ticker",
                  "type": "string"
                },
                {
                  "internalType": "uint256",
                  "name": "supply",
                  "type": "uint256"
                },
                {
                  "internalType": "uint256",
                  "name": "price",
                  "type": "uint256"
                },
                {
                  "internalType": "uint256",
                  "name": "marketCap",
                  "type": "uint256"
                },
                {
                  "internalType": "uint256",
                  "name": "liquidity",
                  "type": "uint256"
                },
                {
                  "internalType": "uint256",
                  "name": "_liquidity",
                  "type": "uint256"
                },
                {
                  "internalType": "uint256",
                  "name": "volume",
                  "type": "uint256"
                },
                {
                  "internalType": "uint256",
                  "name": "volume24H",
                  "type": "uint256"
                },
                {
                  "internalType": "uint256",
                  "name": "prevPrice",
                  "type": "uint256"
                },
                {
                  "internalType": "uint256",
                  "name": "lastUpdated",
                  "type": "uint256"
                }
              ],
              "internalType": "struct PumpFun.Data",
              "name": "data",
              "type": "tuple"
            },
            {
              "internalType": "string",
              "name": "description",
              "type": "string"
            },
            {
              "internalType": "string",
              "name": "image",
              "type": "string"
            },
            {
              "internalType": "string",
              "name": "twitter",
              "type": "string"
            },
            {
              "internalType": "string",
              "name": "telegram",
              "type": "string"
            },
            {
              "internalType": "string",
              "name": "youtube",
              "type": "string"
            },
            {
              "internalType": "string",
              "name": "website",
              "type": "string"
            },
            {
              "internalType": "bool",
              "name": "trading",
              "type": "bool"
            },
            {
              "internalType": "bool",
              "name": "tradingOnUniswap",
              "type": "bool"
            }
          ],
          "stateMutability": "view",
          "type": "function"
        },
        {
          "inputs": [
            {
              "internalType": "uint256",
              "name": "",
              "type": "uint256"
            }
          ],
          "name": "tokens",
          "outputs": [
            {
              "internalType": "address",
              "name": "creator",
              "type": "address"
            },
            {
              "internalType": "address",
              "name": "token",
              "type": "address"
            },
            {
              "internalType": "address",
              "name": "pair",
              "type": "address"
            },
            {
              "components": [
                {
                  "internalType": "address",
                  "name": "token",
                  "type": "address"
                },
                {
                  "internalType": "string",
                  "name": "name",
                  "type": "string"
                },
                {
                  "internalType": "string",
                  "name": "ticker",
                  "type": "string"
                },
                {
                  "internalType": "uint256",
                  "name": "supply",
                  "type": "uint256"
                },
                {
                  "internalType": "uint256",
                  "name": "price",
                  "type": "uint256"
                },
                {
                  "internalType": "uint256",
                  "name": "marketCap",
                  "type": "uint256"
                },
                {
                  "internalType": "uint256",
                  "name": "liquidity",
                  "type": "uint256"
                },
                {
                  "internalType": "uint256",
                  "name": "_liquidity",
                  "type": "uint256"
                },
                {
                  "internalType": "uint256",
                  "name": "volume",
                  "type": "uint256"
                },
                {
                  "internalType": "uint256",
                  "name": "volume24H",
                  "type": "uint256"
                },
                {
                  "internalType": "uint256",
                  "name": "prevPrice",
                  "type": "uint256"
                },
                {
                  "internalType": "uint256",
                  "name": "lastUpdated",
                  "type": "uint256"
                }
              ],
              "internalType": "struct PumpFun.Data",
              "name": "data",
              "type": "tuple"
            },
            {
              "internalType": "string",
              "name": "description",
              "type": "string"
            },
            {
              "internalType": "string",
              "name": "image",
              "type": "string"
            },
            {
              "internalType": "string",
              "name": "twitter",
              "type": "string"
            },
            {
              "internalType": "string",
              "name": "telegram",
              "type": "string"
            },
            {
              "internalType": "string",
              "name": "youtube",
              "type": "string"
            },
            {
              "internalType": "string",
              "name": "website",
              "type": "string"
            },
            {
              "internalType": "bool",
              "name": "trading",
              "type": "bool"
            },
            {
              "internalType": "bool",
              "name": "tradingOnUniswap",
              "type": "bool"
            }
          ],
          "stateMutability": "view",
          "type": "function"
        },
        {
          "inputs": [
            {
              "internalType": "uint256",
              "name": "_fee",
              "type": "uint256"
            }
          ],
          "name": "updateLaunchFee",
          "outputs": [
            {
              "internalType": "uint256",
              "name": "",
              "type": "uint256"
            }
          ],
          "stateMutability": "nonpayable",
          "type": "function"
        },
        {
          "inputs": [],
          "name": "withdraw",
          "outputs": [
            {
              "internalType": "bool",
              "name": "",
              "type": "bool"
            }
          ],
          "stateMutability": "nonpayable",
          "type": "function"
        },
        {
          "stateMutability": "payable",
          "type": "receive"
        }
      ],
      "evm": {
        "bytecode": {
          "linkReferences": {},
          "object": "6080346200014657601f62004c9638819003918201601f19168301916001600160401b038311848410176200014b5780849260809460405283398101031262000146576200004d8162000161565b6200005b6020830162000161565b60606200006b6040850162000161565b9301516001600081905580546001600160a01b03199081163317909155909390926001600160a01b03908116928190620000a785151562000176565b1691620000b683151562000176565b1691620000c583151562000176565b836002541617600255826003541617600355816004541617600455670de0b6b3a76400009182810292818404149015171562000130576103e8734752ba5dbc23f44d87826276bf6fd6b1c372ad2492046005556006541617600655604051614ad29081620001c48239f35b634e487b7160e01b600052601160045260246000fd5b600080fd5b634e487b7160e01b600052604160045260246000fd5b51906001600160a01b03821682036200014657565b156200017e57565b60405162461bcd60e51b815260206004820152601f60248201527f5a65726f2061646472657373657320617265206e6f7420616c6c6f7765642e006044820152606490fdfe60808060405260043610156200001f575b5036156200001d57600080fd5b005b600090813560e01c908163017e7e5814620024d657508063094b741514620024ab5780633ccfd60b146200242a5780634c96a3891462001a295780634f64b2be14620019c6578063512b1e6e146200158a57806357f8d90114620010935780635c52a5f214620010425780636d46a1db1462000f725780637660f44a1462000f4d57806380997e471462000f265780638a664ebc1462000d5257806398118cb41462000d345780639dd9d0fd1462000cf4578063aa6ca8081462000b7e578063ad256f7d14620001d0578063c36fe3d6146200018c578063cf3cf573146200016c5763f46901ed0362000010573462000169576020366003190112620001695762000129620024fd565b6001546001600160a01b03919062000145908316331462002b53565b166200015381151562002baf565b6001600160601b0360a01b600454161760045580f35b80fd5b503462000169578060031936011262000169576020600554604051908152f35b50346200016957602036600319011262000169576004359060085482101562000169576020620001bc8362002ae3565b50546040516001600160a01b039091168152f35b5060e036600319011262000169576001600160401b036004358181116200078b576200020190369060040162002a96565b60243582811162000b7a576200021c90369060040162002a96565b9060443583811162000b76576200023890369060040162002a96565b9160643584811162000b72576200025490369060040162002a96565b926084359480861162000b6e573660238701121562000b6e576040519560808701878110838211176200086157604052608481018736821162000b6a5782600401905b82821062000b3a5750505050620002ad620036c9565b600554341062000af557604051906110ab8083019182118383101762000ae157908291620039f2833960808152620002fc620002ed608083018862002783565b82810360208401528662002783565b9060a4356040820152606060c435910152039087f094851562000ad6576003546040516315ab88c960e31b81529590602090879060049082906001600160a01b03165afa958615620008c65762000395966020918a9162000ab4575b506002546040516364e329cb60e11b81526001600160a01b038b8116600483015292831660248201529889929091169082908c9082906044820190565b03925af1958615620008c657889662000a7c575b5060405163313ce56760e01b81526020816004816001600160a01b038c165afa801562000a7157899062000a2d575b60ff915016604d811162000a1957620003f790600a0a60a43562002c9b565b600354620004149082906001600160a01b038b8116911662003707565b1562000a1557346005029060058204340362000a015762000439606483043462002c8d565b60035460408051630e505aa960e31b81526001600160a01b038d8116600483015260248201869052939a9390928391604491839160648a0491165af18015620009c157620009cc575b50604051635d4d3d2b60e11b8152916020836004816001600160a01b038e165afa928315620009c1578c9362000984575b50620004c26004938262002caf565b604051635d4d3d2b60e11b8152939092906020908590816001600160a01b038f165afa93841562000979578d946200093f575b50606485046064860460011b04600214606486041517156200092b57908c94939291600460208d60405192838092635d4d3d2b60e11b825260018060a01b03165afa9687156200091f5796620008e5575b50858060011b0460021486151715620008d157908d9594939291600460208e60405192838092635d4d3d2b60e11b825260018060a01b03165afa908115620008c6578f989162000877575b509a8291620005aa620005b69d60649897969562002caf565b986040519d8e620025d1565b60018060a01b03168d5260208d015260408c015260608b015260808a015260a08901520460011b60c087015260011b60e086015288610100860152886101208601526101408501524261016085015281516020830151916060604085015194015194604051966200062788620025d1565b33885260018060a01b038b16602089015260018060a01b038a1660408901526060880152608087015260a086015260c085015260e084015261010083015261012082015260016101408201528461016082015260018060a01b0384168552600960205262000699816040872062002cd0565b600a5490600160401b91828110156200086157806001620006be9201600a5562002542565b9290926200084b57620006d382889462002cd0565b620006de33620037b8565b156200078f575081809362000703829333845260076020526001604085200162003692565b6004546001600160a01b03165af16200071b62002b1e565b50156200078b57600a546040518181526060949192916001916001600160a01b0380851691908716907f714aa39317ad9a7a7a99db52b44490da5d068a0b2710fffb1a1282ad3cadae1f90602090a355604080516001600160a01b03948516815291909316602082015291820152f35b8280fd5b9091506200079f33151562002baf565b60405190620007ae82620025ee565b338252606060208301523387526007602052620007cf82604089206200385f565b600854908110156200083757806001620007ed920160085562002ae3565b620008235786936200081d859462000808869586956200385f565b33845260076020526001604085200162003692565b62000703565b634e487b7160e01b87526004879052602487fd5b634e487b7160e01b87526041600452602487fd5b634e487b7160e01b600052600060045260246000fd5b634e487b7160e01b600052604160045260246000fd5b95949392919750506020853d602011620008bd575b816200089b602093836200260a565b81010312620008b85793518d969394929391929190606462000591565b600080fd5b3d91506200088c565b6040513d8a823e3d90fd5b634e487b7160e01b8e52601160045260248efd5b9095506020813d60201162000916575b8162000904602093836200260a565b81010312620008b85751943862000546565b3d9150620008f5565b604051903d90823e3d90fd5b634e487b7160e01b8d52601160045260248dfd5b9093506020813d60201162000970575b816200095e602093836200260a565b81010312620008b857519238620004f5565b3d91506200094f565b6040513d8f823e3d90fd5b92506020833d602011620009b8575b81620009a2602093836200260a565b81010312620008b857915191620004c2620004b3565b3d915062000993565b6040513d8e823e3d90fd5b620009f29060403d604011620009f9575b620009e981836200260a565b81019062002c1d565b5062000482565b503d620009dd565b634e487b7160e01b8a52601160045260248afd5b8880fd5b634e487b7160e01b89526011600452602489fd5b506020813d60201162000a68575b8162000a4a602093836200260a565b8101031262000a15575160ff8116810362000a155760ff90620003d8565b3d915062000a3b565b6040513d8b823e3d90fd5b62000aa491965060203d60201162000aac575b62000a9b81836200260a565b81019062002bfc565b9438620003a9565b503d62000a8f565b62000acf9150823d841162000aac5762000a9b81836200260a565b3862000358565b6040513d88823e3d90fd5b634e487b7160e01b89526041600452602489fd5b60405162461bcd60e51b815260206004820152601960248201527f496e73756666696369656e7420616d6f756e742073656e742e000000000000006044820152606490fd5b813585811162000b665760209162000b5a83926004369189010162002a96565b81520191019062000297565b8b80fd5b8980fd5b8680fd5b8580fd5b8480fd5b8380fd5b50346200016957806003193601126200016957600a546001600160401b03811162000861576020906040519062000bbc60208260051b01836200260a565b80825260208201600a6000527fc65a7bb8d6351c1cf70c95a316cc6a92839c986682d98bc35f958f4883f9d2a8936000915b83831062000c0a576040518062000c0687826200292f565b0390f35b60168260019260405162000c1e81620025d1565b848060a01b03808b5416825280868c0154168483015260028b015416604082015262000c4d60038b01620026dd565b606082015262000c60600f8b016200262c565b608082015262000c7360108b016200262c565b60a082015262000c8660118b016200262c565b60c082015262000c9960128b016200262c565b60e082015262000cac60138b016200262c565b61010082015262000cc060148b016200262c565b61012082015260158a015460ff90818116151561014084015260081c16151561016082015281520196019201919462000bee565b50346200016957602036600319011262000169576020906001600160a01b03906040908262000d22620024fd565b16815260078452205416604051908152f35b50346200016957806003193601126200016957602060405160058152f35b5034620001695780600319360112620001695762000d7033620037b8565b1562000ee1573381526040602091600783522060405162000d9181620025ee565b81546001600160a01b039081168252600192830180549093916001600160401b0382116200086157936040519462000dcf878460051b01876200260a565b8286526000918252868220908787015b84841062000dfd578689018890526040518062000c068a826200292f565b601689879260405162000e1081620025d1565b8587541681528585880154168382015285600288015416604082015262000e3a60038801620026dd565b606082015262000e4d600f88016200262c565b608082015262000e60601088016200262c565b60a082015262000e73601188016200262c565b60c082015262000e86601288016200262c565b60e082015262000e99601388016200262c565b61010082015262000ead601488016200262c565b610120820152601587015460ff90818116151561014084015260081c16151561016082015281520193019301929162000ddf565b60405162461bcd60e51b815260206004820152601c60248201527f557365722050726f66696c6520646f7365206e6f742065786973742e000000006044820152606490fd5b50346200016957806003193601126200016957602060405169152d02c7e14af68000008152f35b5034620001695760203660031901126200016957602060043580600555604051908152f35b50346200016957602036600319011262000169576001600160a01b03906040908262000f9d620024fd565b1681526009602052209062000c06818354169282600182015416926002820154169362000fcd60038301620026dd565b9162000fdc600f82016200262c565b62000fea601083016200262c565b62000ff8601184016200262c565b62001006601285016200262c565b9162001015601386016200262c565b93601562001026601488016200262c565b960154976040519b8c9b60ff808c60081c169b16998d62002866565b503462000169576060366003190112620001695760209060016200108762001069620024fd565b6200107362002514565b6200107d620036c9565b6044359162003707565b91556040519015158152f35b5060603660031901126200016957620010ab620024fd565b90620010b662002514565b620010c06200252b565b90620010d76001600160a01b038516151562002baf565b6001600160a01b031690620010ee82151562002baf565b6001600160a01b0316906200110582151562002baf565b6002546003546040516315ab88c960e31b81526001600160a01b039182169392909116602082600481875afa91821562000ad657916020916200118093889262001566575b5060405163e6a4390560e01b81526001600160a01b03808b16600483015290921660248301529092839190829081906044820190565b03915afa908115620014ef576004939291606091879162001542575b50604051630240bc6b60e21b815294859182906001600160a01b03165afa938415620014ef57859186948796620014fa575b50604080516357f8d90160e01b81526001600160a01b038a16600482015260248101929092526044820192909252928390606490829034905af1908115620014ef5785928692620014b8575b506200123883620012316200123f94829462002c8d565b9562002c69565b9462002c69565b6001600160a01b0386168552600960205260408520600e015490919062001267904262002c8d565b92828060011b0460021483151715620014a457848060011b0460021485151715620014a45760018060a01b03871686526009602052620012c683620012bf83620012b983600660408d20015462002c9b565b62002caf565b9262002caf565b9162015180851115620014775780925b60018060a01b0389168852600960205260408820946200131e83600b6007890154988560078201558760088201558b60011b60098201558460011b600a820155015462002c69565b60018060a01b038b168a52600960205260408a2090600b82015585600c82015586600d8201556201518088116200146a575b50885b600a548110156200145f57808a858d8c6200137060019662002542565b5086015460a087901b87900383811691161462001393575b505050500162001353565b620013ff93600b926040928a6007620013ac8a62002542565b5001558c6008620013bd8a62002542565b5001556009620013cd8962002542565b50918a1b910155620013df8762002542565b50600a8a8a1b910155878060a01b03168152600960205220015462002c69565b600b6200140c8362002542565b50015586600c6200141d8362002542565b50015587600d6200142e8362002542565b50015562015180891162001447575b8a858d8c62001388565b620014528162002542565b50600e429101556200143d565b602060405160018152f35b600e429101553862001350565b6001600160a01b0388168752600960205260408720600c01546200149d90829062002c69565b92620012d6565b634e487b7160e01b86526011600452602486fd5b6200123193506200123f9250620014e4620012389160403d604011620009f957620009e981836200260a565b90945092506200121a565b6040513d87823e3d90fd5b6200152b91965060409295506064935060603d6060116200153a575b6200152281836200260a565b81019062002c4d565b959193909596919250620011ce565b503d62001516565b6200155f915060203d60201162000aac5762000a9b81836200260a565b386200119c565b62001582919250833d851162000aac5762000a9b81836200260a565b90386200114a565b5034620001695760803660031901126200016957620015a862002514565b90620015b36200252b565b6064356001600160a01b0381169190829003620008b857620015e06001600160a01b038516151562002baf565b6001600160a01b0316620015f681151562002baf565b6200160382151562002baf565b6002546003546040516315ab88c960e31b81526001600160a01b0391821692909116602082600481865afa91821562000ad657916020916200167c93889262001566575060405163e6a4390560e01b81526001600160a01b03808b16600483015290921660248301529092839190829081906044820190565b03915afa908115620014ef5760049392916060918791620019a2575b50604051630240bc6b60e21b815294859182906001600160a01b03165afa938415620014ef578592869487966200196c575b5090608460409288845195869485936328958f3760e11b855260043560048601528d60018060a01b03166024860152604485015260648401525af1918215620014ef578591869362001936575b5062001735836200172e6200173c94829462002c69565b9562002c8d565b9462002c8d565b6001600160a01b0386168552600960205260408520600e015490919062001764904262002c8d565b92828060011b0460021483151715620014a457848060011b0460021485151715620014a45760018060a01b03871686526009602052620017b683620012bf83620012b983600660408d20015462002c9b565b9162015180851115620019095780925b60018060a01b0389168852600960205260408820946200180e83600b6007890154988560078201558760088201558b60011b60098201558460011b600a820155015462002c69565b60018060a01b038b168a52600960205260408a2090600b82015585600c82015586600d820155620151808811620018fc575b50885b600a548110156200145f57808a858d8c6200186060019662002542565b5086015460a087901b87900383811691161462001883575b505050500162001843565b6200189c93600b926040928a6007620013ac8a62002542565b600b620018a98362002542565b50015586600c620018ba8362002542565b50015587600d620018cb8362002542565b500155620151808911620018e4575b8a858d8c62001878565b620018ef8162002542565b50600e42910155620018da565b600e429101553862001840565b6001600160a01b0388168752600960205260408720600c01546200192f90829062002c69565b92620017c6565b6200172e93506200173c925062001962620017359160403d604011620009f957620009e981836200260a565b9450925062001717565b6200199391965060409295506084945060603d6060116200153a576200152281836200260a565b959194909596919250620016ca565b620019bf915060203d60201162000aac5762000a9b81836200260a565b3862001698565b5034620001695760203660031901126200016957600435600a5481101562001a2557620019f39062002542565b508054600182015460028301546001600160a01b03908116939181169262000c0692911662000fcd60038301620026dd565b5080fd5b503462000169576020366003190112620001695762001a47620024fd565b9062001a5f60018060a01b0360015416331462002b53565b62001a69620036c9565b62001a7f6001600160a01b038316151562002baf565b6003546040516315ab88c960e31b815290602090829060049082906001600160a01b03165afa908115620023d95762001af891602091849162002408575b5060025460405163e6a4390560e01b81526001600160a01b038781166004830152928316602482015293849290911690829081906044820190565b03915afa908115620023d9578291620023e4575b506001600160a01b0383163b1562001a25576040516306da678f60e51b81526001600160a01b03918216600482015290829082906024908290849088165af18015620023d957620023ac575b506001600160a01b0380831680835260096020526040808420600354825163e79a408960e01b8152600481019490945260646024850181905230604486015295969395919486929183918991165af1908115620023a1578493859262002378575b5060018060a01b0381168552600960205260408520600681015462001c0e60056040519362001be885620025d1565b6001600160a01b038616855262001c02600482016200262c565b6020860152016200262c565b604083015260608201528560808201528560a08201528560c08201528560e0820152856101008201528561012082015285610140820152426101608201526003840160018060a01b038251166001600160601b0360a01b82541617905560208101518051906001600160401b038211620022b95762001c91600487015462002594565b601f811162002341575b50602090601f8311600114620022cd5762001ccf9291899183620021f4575b50508160011b916000199060031b1c19161790565b60048501555b60408101518051906001600160401b038211620022b95762001cfb600587015462002594565b601f811162002276575b50602090601f83116001146200220057918062001d3d9261016095948b92620021f45750508160011b916000199060031b1c19161790565b60058601555b606081015160068601556080810151600786015560a0810151600886015560c0810151600986015560e0810151600a860155610100810151600b860155610120810151600c860155610140810151600d8601550151600e84015562001db36001600160a01b038216151562002baf565b6001600160a01b03811685526009602052604085206015015460ff81169081620021e4575b50156200219f576006546040516370a0823160e01b80825230600483015293916001600160a01b03908116906020908390602490829088165afa908115620008c6578490899262002160575b62001e30935062003707565b156200212b5760065460405163c45a015560e01b81528794916001600160a01b0316602082600481845afa91821562000ad657869262002101575b506020600491604051928380926315ab88c960e31b82525afa90811562000ad657869260209262001ed3928591620020df575b506040516364e329cb60e11b81526001600160a01b03808a166004830152909116602482015293849283919082906044820190565b03926001600160a01b03165af1908115620014ef578591620020bb575b5060065460405192835230600484015247926001600160a01b0391821691602090829060249082908a165afa908115620020b057879162002072575b509060c4606092604051958693849263f305d71960e01b845260018060a01b038b16600485015260248401528a60448401528a60648401523060848401524260a48401525af1918215620014ef576020926200204e575b5060065460405163095ea7b360e01b81526001600160a01b0391821660048201526000196024820152958692604492849291165af1801562000ad6577f540bcec33387745b2ced30977dcfe4a623a245511eb0a133989c27c8bb95b4a99460409460159262002018575b5001805461ffff1916610100179055825194855260208501526001600160a01b031692a26001815580f35b6200203e9060203d60201162002046575b6200203581836200260a565b810190620036ed565b503862001fed565b503d62002029565b6200206a9060603d6060116200153a576200152281836200260a565b505062001f83565b919650506020813d602011620020a7575b8162002092602093836200260a565b81010312620008b8575188959060c462001f2c565b3d915062002083565b6040513d89823e3d90fd5b620020d8915060203d60201162000aac5762000a9b81836200260a565b3862001ef0565b620020fa9150843d861162000aac5762000a9b81836200260a565b3862001e9e565b600491925062002122602091823d841162000aac5762000a9b81836200260a565b92915062001e6b565b60405162461bcd60e51b815260206004820152600d60248201526c2737ba1030b8383937bb32b21760991b6044820152606490fd5b9150506020823d60201162002196575b816200217f602093836200260a565b81010312620008b8578362001e3092519162001e24565b3d915062002170565b60405162461bcd60e51b815260206004820152601760248201527f74726164696e6720697320616c7265616479206f70656e0000000000000000006044820152606490fd5b60ff915060081c16153862001dd8565b01519050388062001cba565b906005870189526020892091895b601f19851681106200225d57509183916001936101609695601f1981161062002243575b505050811b01600586015562001d43565b015160001960f88460031b161c1916905538808062002232565b919260206001819286850151815501940192016200220e565b620022a790600588018a5260208a20601f850160051c81019160208610620022ae575b601f0160051c019062002c34565b3862001d05565b909150819062002299565b634e487b7160e01b88526041600452602488fd5b9190600487018952602089209089935b601f198416851062002325576001945083601f198116106200230b575b505050811b01600485015562001cd5565b015160001960f88460031b161c19169055388080620022fa565b81810151835560209485019460019093019290910190620022dd565b6200237190600488018a5260208a20601f850160051c81019160208610620022ae57601f0160051c019062002c34565b3862001c9b565b90935062002398915060403d604011620009f957620009e981836200260a565b90923862001bb9565b6040513d86823e3d90fd5b6001600160401b038111620023c5576040523862001b58565b634e487b7160e01b82526041600452602482fd5b6040513d84823e3d90fd5b62002401915060203d60201162000aac5762000a9b81836200260a565b3862001b0c565b620024239150823d841162000aac5762000a9b81836200260a565b3862001abd565b5034620001695780600319360112620001695760015481908190819047906001600160a01b03165af16200245d62002b1e565b50156200246f57602060405160018152f35b60405162461bcd60e51b81526020600482015260146024820152732a3930b739b332b91022aa24102330b4b632b21760611b6044820152606490fd5b503462000169578060031936011262000169576001546040516001600160a01b039091168152602090f35b90503462001a25578160031936011262001a25576004546001600160a01b03168152602090f35b600435906001600160a01b0382168203620008b857565b602435906001600160a01b0382168203620008b857565b604435906001600160a01b0382168203620008b857565b600a548110156200257e57601690600a600052027fc65a7bb8d6351c1cf70c95a316cc6a92839c986682d98bc35f958f4883f9d2a80190600090565b634e487b7160e01b600052603260045260246000fd5b90600182811c92168015620025c6575b6020831014620025b057565b634e487b7160e01b600052602260045260246000fd5b91607f1691620025a4565b61018081019081106001600160401b038211176200086157604052565b604081019081106001600160401b038211176200086157604052565b90601f801991011681019081106001600160401b038211176200086157604052565b90604051918260008254620026418162002594565b90818452602094600191600181169081600014620026b9575060011462002676575b50505062002674925003836200260a565b565b600090815285812095935091905b818310620026a057505062002674935082010138808062002663565b8554888401850152948501948794509183019162002684565b925050506200267494925060ff191682840152151560051b82010138808062002663565b90604051620026ec81620025d1565b82546001600160a01b0316815291829061016090600b9062002711600182016200262c565b602085015262002724600282016200262c565b60408501526003810154606085015260048101546080850152600581015460a0850152600681015460c0850152600781015460e085015260088101546101008501526009810154610120850152600a8101546101408501520154910152565b919082519283825260005b848110620027b0575050826000602080949584010152601f8019910116010190565b6020818301810151848301820152016200278e565b9062002805620027f261018060018060a01b03855116845260208501519080602086015284019062002783565b6040840151838203604085015262002783565b91606081015160608301526080810151608083015260a081015160a083015260c081015160c083015260e081015160e08301526101008082015190830152610120808201519083015261014080820151908301526101608091015191015290565b9a9c9b98946200290f96620028d28d620028e193620028c36101609f9c9699620028ff9a6200291f9f9a99620028f09a6101809260018060a01b0392838092168952166020880152166040860152806060860152840190620027c5565b91608081840391015262002783565b8d810360a08f01529062002783565b908b820360c08d015262002783565b9089820360e08b015262002783565b9087820361010089015262002783565b9085820361012087015262002783565b9415156101408401521515910152565b6020808201908083528351809252604092604081018260408560051b8401019601946000925b85841062002967575050505050505090565b909192939495968580600192603f198582030187528a519062002a4e62002a3962002a2462002a10620029fc620029e8620029d48d610180908d8060a01b03808c51168b52808d8d0151168d8c0152818c015116908a015260609080828c0151928b0152890190620027c5565b6080808a015190898303908a015262002783565b60a080890151908883039089015262002783565b60c080880151908783039088015262002783565b60e080870151908683039087015262002783565b61010080860151908583039086015262002783565b61012080850151908483039085015262002783565b916101408082015115159083015261016080910151151591015299019401940192959493919062002955565b6001600160401b0381116200086157601f01601f191660200190565b81601f82011215620008b85780359062002ab08262002a7a565b9262002ac060405194856200260a565b82845260208383010111620008b857816000926020809301838601378301015290565b6008548110156200257e57600860005260011b7ff3f7a9fe364faab93b216da50a3214154f22a0a2b415b23a84c8169e8b636ee30190600090565b3d1562002b4e573d9062002b328262002a7a565b9162002b4260405193846200260a565b82523d6000602084013e565b606090565b1562002b5b57565b60405162461bcd60e51b815260206004820152602660248201527f4f6e6c7920746865206f776e65722063616e2063616c6c20746869732066756e60448201526531ba34b7b71760d11b6064820152608490fd5b1562002bb757565b60405162461bcd60e51b815260206004820152601f60248201527f5a65726f2061646472657373657320617265206e6f7420616c6c6f7765642e006044820152606490fd5b90816020910312620008b857516001600160a01b0381168103620008b85790565b9190826040910312620008b8576020825192015190565b81811062002c40575050565b6000815560010162002c34565b90816060910312620008b8578051916040602083015192015190565b9190820180921162002c7757565b634e487b7160e01b600052601160045260246000fd5b9190820391821162002c7757565b8181029291811591840414171562002c7757565b811562002cba570490565b634e487b7160e01b600052601260045260246000fd5b9060018060a01b0390818151166001600160601b0360a01b908185541617845560018401836020840151168282541617905560028401836040840151168282541617905560038401906060830151938451169082541617905560049283810160208401518051906001600160401b0382116200367d5762002d52835462002594565b601f811162003647575b50602090601f8311600114620035da5762002d90929160009183620021f45750508160011b916000199060031b1c19161790565b90555b60408301518051906001600160401b038211620035c55762002db9600584015462002594565b601f81116200358c575b50602090601f8311600114620035155762002df7929160009183620021f45750508160011b916000199060031b1c19161790565b60058201555b606083015160068201556080830151600782015560a0830151600882015560c0830151600982015560e0830151600a8201556101009384840151600b8301556101209081850151600c8401556101409586860151600d85015561016080960151600e850155600f840160808601518051906001600160401b038211620033175762002e89835462002594565b601f8111620034df575b50602090601f8311600114620034725762002ec7929160009183620021f45750508160011b916000199060031b1c19161790565b90555b6010840160a08601518051906001600160401b038211620033175762002ef1835462002594565b601f81116200343c575b50602090601f8311600114620033cf5762002f2f929160009183620021f45750508160011b916000199060031b1c19161790565b90555b6011840160c08601518051906001600160401b038211620033175762002f59835462002594565b601f811162003399575b50602090601f83116001146200332c5762002f97929160009183620021f45750508160011b916000199060031b1c19161790565b90555b6012840160e08601518051906001600160401b038211620033175762002fc1835462002594565b601f8111620032e1575b50602090601f8311600114620032745762002fff929160009183620021f45750508160011b916000199060031b1c19161790565b90555b840151805160138501916001600160401b0382116200325f5762003027835462002594565b601f811162003229575b50602090601f8311600114620031bc5762003065929160009183620021f45750508160011b916000199060031b1c19161790565b90555b60148301918401518051916001600160401b038311620031a757506200308f835462002594565b601f811162003171575b50602090601f8311600114620030fb5792620030d78360159460ff979461ff0097600092620021f45750508160011b916000199060031b1c19161790565b90555b01948301511515938554930151151560081b1692169061ffff191617179055565b90601f198316918460005260206000209260005b8181106200315857509360ff969361ff00969360019383601598106200313e575b505050811b019055620030da565b015160001960f88460031b161c1916905538808062003130565b929360206001819287860151815501950193016200310f565b620031a090846000526020600020601f850160051c81019160208610620022ae57601f0160051c019062002c34565b3862003099565b604190634e487b7160e01b6000525260246000fd5b90601f198316918460005260206000209260005b818110620032105750908460019594939210620031f6575b505050811b01905562003068565b015160001960f88460031b161c19169055388080620031e8565b92936020600181928786015181550195019301620031d0565b6200325890846000526020600020601f850160051c81019160208610620022ae57601f0160051c019062002c34565b3862003031565b604184634e487b7160e01b6000525260246000fd5b90601f198316918460005260206000209260005b818110620032c85750908460019594939210620032ae575b505050811b01905562003002565b015160001960f88460031b161c19169055388080620032a0565b9293602060018192878601518155019501930162003288565b6200331090846000526020600020601f850160051c81019160208610620022ae57601f0160051c019062002c34565b3862002fcb565b604185634e487b7160e01b6000525260246000fd5b90601f198316918460005260206000209260005b81811062003380575090846001959493921062003366575b505050811b01905562002f9a565b015160001960f88460031b161c1916905538808062003358565b9293602060018192878601518155019501930162003340565b620033c890846000526020600020601f850160051c81019160208610620022ae57601f0160051c019062002c34565b3862002f63565b90601f198316918460005260206000209260005b81811062003423575090846001959493921062003409575b505050811b01905562002f32565b015160001960f88460031b161c19169055388080620033fb565b92936020600181928786015181550195019301620033e3565b6200346b90846000526020600020601f850160051c81019160208610620022ae57601f0160051c019062002c34565b3862002efb565b90601f198316918460005260206000209260005b818110620034c65750908460019594939210620034ac575b505050811b01905562002eca565b015160001960f88460031b161c191690553880806200349e565b9293602060018192878601518155019501930162003486565b6200350e90846000526020600020601f850160051c81019160208610620022ae57601f0160051c019062002c34565b3862002e93565b9190600584016000526020600020906000935b601f198416851062003570576001945083601f1981161062003556575b505050811b01600582015562002dfd565b015160001960f88460031b161c1916905538808062003545565b8181015183556020948501946001909301929091019062003528565b620035be90600585016000526020600020601f850160051c81019160208610620022ae57601f0160051c019062002c34565b3862002dc3565b604186634e487b7160e01b6000525260246000fd5b90601f198316918460005260206000209260005b8181106200362e575090846001959493921062003614575b505050811b01905562002d93565b015160001960f88460031b161c1916905538808062003606565b92936020600181928786015181550195019301620035ee565b6200367690846000526020600020601f850160051c81019160208610620022ae57601f0160051c019062002c34565b3862002d5c565b604187634e487b7160e01b6000525260246000fd5b908154600160401b8110156200086157600181018084558110156200257e5762002674926000526016602060002091020162002cd0565b600260005414620036db576002600055565b604051633ee5aeb560e01b8152600490fd5b90816020910312620008b857518015158103620008b85790565b62003771926020929091906001600160a01b03906200372a828416151562002baf565b16906200373982151562002baf565b60405163095ea7b360e01b81526001600160a01b03909116600482015260248101929092529092839190829060009082906044820190565b03925af18015620037ac5762003788575b50600190565b620037a49060203d60201162002046576200203581836200260a565b503862003782565b6040513d6000823e3d90fd5b6001600160a01b03908116620037d081151562002baf565b6008549160005b838110620037e85750505050600090565b8282620037f58362002ae3565b505416146200380757600101620037d7565b50505050600190565b6200381c815462002594565b908162003827575050565b81601f600093116001146200383a575055565b9080839182526200385b601f60208420940160051c84016001850162002c34565b5555565b815181546001600160a01b0319166001600160a01b039190911617815560209182015180516001939092840191600160401b841162000861578254848455808510620038e6575b506020019160005260206000206000925b848410620038c757505050505050565b60168382620038d98994518662002cd0565b01920193019290620038b7565b6016908060160290601682040362002c77578560160260168104870362002c77576000908682526020822092830192015b8281106200392857505050620038a6565b8082859255828a8201558260028201558260038201556200394c6004820162003810565b6200395a6005820162003810565b82600682015582600782015582600882015582600982015582600a82015582600b82015582600c82015582600d82015582600e8201556200399e600f820162003810565b620039ac6010820162003810565b620039ba6011820162003810565b620039c86012820162003810565b620039d66013820162003810565b620039e46014820162003810565b826015820155016200391756fe604060808152346200042957620010ab803803806200001e816200042e565b928339810190608081830312620004295780516001600160401b039190828111620004295783620000519183016200046a565b90602093848201519084821162000429576200006f9183016200046a565b606086830151920151906000943360018060a01b031987541617865533867f8be0079c531659141344cd1fd0a4f28419497f9722a3daafe3b4186f6b6457e08180a384518181116200034357600254906001968783811c931680156200041e575b8a84101462000324578190601f93848111620003ca575b508a9084831160011462000363578a9262000357575b5050600019600383901b1c191690871b176002555b8251918211620003435760039283548781811c9116801562000338575b8a821014620003245790818385949311620002cf575b50899183116001146200026c57889262000260575b505060001982841b1c191690851b1790555b670de0b6b3a7640000918281029281840414901517156200024c5781835560058111620001fe57907fddf252ad1be2c89b69c2b068fc378daa952ba7f163c4a11628f55a4df523b3ef929160045533845260058552858420556007845284832060ff199082828254161790553084528186852091825416179055549284519384523393a351610bce9081620004dd8239f35b855162461bcd60e51b815260048101869052602160248201527f4d6178205472616e73616374696f6e2063616e6e6f74206578636565642035256044820152601760f91b6064820152608490fd5b634e487b7160e01b84526011600452602484fd5b0151905038806200015a565b8489528989208894509190601f1984168a5b8c828210620002b857505084116200029f575b505050811b0190556200016c565b015160001983861b60f8161c1916905538808062000291565b8385015186558b979095019493840193016200027e565b909192508489528989208380860160051c8201928c87106200031a575b9186958b929594930160051c01915b8281106200030b57505062000145565b8b81558695508a9101620002fb565b92508192620002ec565b634e487b7160e01b89526022600452602489fd5b90607f16906200012f565b634e487b7160e01b87526041600452602487fd5b015190503880620000fd565b60028b528b8b208a94509190601f1984168c8e5b828210620003b2575050841162000398575b505050811b0160025562000112565b015160001960f88460031b161c1916905538808062000389565b8385015186558d979095019493840193018e62000377565b90915060028a528a8a208480850160051c8201928d861062000414575b918b91869594930160051c01915b82811062000405575050620000e7565b8c81558594508b9101620003f5565b92508192620003e7565b92607f1692620000d0565b600080fd5b6040519190601f01601f191682016001600160401b038111838210176200045457604052565b634e487b7160e01b600052604160045260246000fd5b919080601f84011215620004295782516001600160401b0381116200045457602090620004a0601f8201601f191683016200042e565b92818452828287010111620004295760005b818110620004c857508260009394955001015290565b8581018301518482018401528201620004b256fe608060408181526004918236101561001657600080fd5b600092833560e01c91826306fdde03146105b557508163095ea7b31461058b57816318160ddd1461056c57816323b872dd14610497578163313ce5671461047b57816370a0823114610443578163715018a6146103e45781637437681e146103c65781638da5cb5b1461039e57816395d89b4114610299578163a9059cbb14610268578163c2d0ffca146101b9578163db4cf1e01461010a575063dd62ed3e146100bf57600080fd5b34610106578060031936011261010657806020926100db6106bd565b6100e36106d8565b6001600160a01b0391821683526006865283832091168252845220549051908152f35b5080fd5b9050346101b55760203660031901126101b5576101256106bd565b83546001600160a01b03919061013e9083163314610726565b1690811561015e5750825260076020528120805460ff1916600117905580f35b608490602084519162461bcd60e51b8352820152602b60248201527f45524332303a204578636c756465204d61782054782066726f6d20746865207a60448201526a65726f206164647265737360a81b6064820152fd5b8280fd5b919050346101b55760203660031901126101b5578135916101e460018060a01b038554163314610726565b6005831161021c5791602091817fff3dd5e80294197918c284bbfc3dadd97d0b40ce92106110946329088f80068a945551908152a180f35b6020608492519162461bcd60e51b8352820152602160248201527f4d6178205472616e73616374696f6e2063616e6e6f74206578636565642035256044820152601760f91b6064820152fd5b5050346101065780600319360112610106576020906102926102886106bd565b6024359033610873565b5160018152f35b919050346101b557826003193601126101b55780519183600354906001908260011c92600181168015610394575b6020958686108214610381575084885290811561035f5750600114610306575b61030286866102f8828b03836106ee565b5191829182610674565b0390f35b929550600383527fc2575a0e9e593c00f959f8c92f12db2869c3395a3b0502d05e2516446f71f85b5b82841061034c5750505082610302946102f89282010194386102e7565b805486850188015292860192810161032f565b60ff191687860152505050151560051b83010192506102f882610302386102e7565b634e487b7160e01b845260229052602483fd5b93607f16936102c7565b505034610106578160031936011261010657905490516001600160a01b039091168152602090f35b9050346101b557826003193601126101b55760209250549051908152f35b83346104405780600319360112610440578054816001600160a01b03821661040d338214610726565b7f8be0079c531659141344cd1fd0a4f28419497f9722a3daafe3b4186f6b6457e08280a36001600160a01b031916815580f35b80fd5b5050346101065760203660031901126101065760209181906001600160a01b0361046b6106bd565b1681526005845220549051908152f35b5050346101065781600319360112610106576020905160128152f35b828434610440576060366003190112610440576104b26106bd565b906104bb6106d8565b6104c9604435809285610873565b6001600160a01b038316825260066020908152848320338452905283822054845192606084019067ffffffffffffffff8211858310176105595760208761029288610551898989898752602883527f45524332303a207472616e7366657220616d6f756e742065786365656473206188840152676c6c6f77616e636560c01b87840152610b4d565b903390610771565b634e487b7160e01b815260418852602490fd5b5050346101065781600319360112610106576020906001549051908152f35b5050346101065780600319360112610106576020906102926105ab6106bd565b6024359033610771565b92915034610670578360031936011261067057600254600181811c9186908281168015610666575b6020958686108214610381575084885290811561035f575060011461060d5761030286866102f8828b03836106ee565b929550600283527f405787fa12a823e0f2b7631cc41b3ba8828b3321ca811111fa75cd3aa3bb5ace5b8284106106535750505082610302946102f89282010194386102e7565b8054868501880152928601928101610636565b93607f16936105dd565b8380fd5b6020808252825181830181905290939260005b8281106106a957505060409293506000838284010152601f8019910116010190565b818101860151848201604001528501610687565b600435906001600160a01b03821682036106d357565b600080fd5b602435906001600160a01b03821682036106d357565b90601f8019910116810190811067ffffffffffffffff82111761071057604052565b634e487b7160e01b600052604160045260246000fd5b1561072d57565b606460405162461bcd60e51b815260206004820152602060248201527f4f776e61626c653a2063616c6c6572206973206e6f7420746865206f776e65726044820152fd5b6001600160a01b0390811691821561082257169182156107d25760207f8c5be1e5ebec7d5bd14f71427d1e84f3dd0314c0f7b2291e5b200ac8c7c3b925918360005260068252604060002085600052825280604060002055604051908152a3565b60405162461bcd60e51b815260206004820152602260248201527f45524332303a20617070726f766520746f20746865207a65726f206164647265604482015261737360f01b6064820152608490fd5b60405162461bcd60e51b8152602060048201526024808201527f45524332303a20617070726f76652066726f6d20746865207a65726f206164646044820152637265737360e01b6064820152608490fd5b9192916001600160a01b03908116918215610afa5716908115610aa9578315610a5257600480549460015495868102968188041490151715610a3d576000958387526020926007845260409160ff838a205416156109ec575b50848852600584528188205482519083820182811067ffffffffffffffff8211176109d957610928929186918652601e83527f536166654d6174683a207375627472616374696f6e206f766572666c6f77000088840152610b4d565b85895260058552828920558588528188205490838201918281116109c657821061098357508188877fddf252ad1be2c89b69c2b068fc378daa952ba7f163c4a11628f55a4df523b3ef9798999a5260058652205551908152a3565b825162461bcd60e51b8152908101859052601b60248201527f536166654d6174683a206164646974696f6e206f766572666c6f7700000000006044820152606490fd5b634e487b7160e01b8a526011825260248afd5b634e487b7160e01b8b526041845260248bfd5b6064900483116109fc57386108cc565b83606492519162461bcd60e51b8352820152601860248201527f4578636565647320746865204d61785478416d6f756e742e00000000000000006044820152fd5b601182634e487b7160e01b6000525260246000fd5b60405162461bcd60e51b815260206004820152602960248201527f5472616e7366657220616d6f756e74206d7573742062652067726561746572206044820152687468616e207a65726f60b81b6064820152608490fd5b60405162461bcd60e51b815260206004820152602360248201527f45524332303a207472616e7366657220746f20746865207a65726f206164647260448201526265737360e81b6064820152608490fd5b60405162461bcd60e51b815260206004820152602560248201527f45524332303a207472616e736665722066726f6d20746865207a65726f206164604482015264647265737360d81b6064820152608490fd5b91828211610b7857508103908111610b625790565b634e487b7160e01b600052601160045260246000fd5b60405162461bcd60e51b8152908190610b949060048301610674565b0390fdfea2646970667358221220c49e554740cb71aa09a85b3746b1a934acbfb9371a9f5eefd27a7b626ea785f264736f6c63430008180033a264697066735822122034c755178b7c677af06651f2979571c8e895828e0c15c81b2cd5b3ca43dbeee064736f6c63430008180033",
          "opcodes": "PUSH1 0x80 CALLVALUE PUSH3 0x146 JUMPI PUSH1 0x1F PUSH3 0x4C96 CODESIZE DUP2 SWAP1 SUB SWAP2 DUP3 ADD PUSH1 0x1F NOT AND DUP4 ADD SWAP2 PUSH1 0x1 PUSH1 0x1 PUSH1 0x40 SHL SUB DUP4 GT DUP5 DUP5 LT OR PUSH3 0x14B JUMPI DUP1 DUP5 SWAP3 PUSH1 0x80 SWAP5 PUSH1 0x40 MSTORE DUP4 CODECOPY DUP2 ADD SUB SLT PUSH3 0x146 JUMPI PUSH3 0x4D DUP2 PUSH3 0x161 JUMP JUMPDEST PUSH3 0x5B PUSH1 0x20 DUP4 ADD PUSH3 0x161 JUMP JUMPDEST PUSH1 0x60 PUSH3 0x6B PUSH1 0x40 DUP6 ADD PUSH3 0x161 JUMP JUMPDEST SWAP4 ADD MLOAD PUSH1 0x1 PUSH1 0x0 DUP2 SWAP1 SSTORE DUP1 SLOAD PUSH1 0x1 PUSH1 0x1 PUSH1 0xA0 SHL SUB NOT SWAP1 DUP2 AND CALLER OR SWAP1 SWAP2 SSTORE SWAP1 SWAP4 SWAP1 SWAP3 PUSH1 0x1 PUSH1 0x1 PUSH1 0xA0 SHL SUB SWAP1 DUP2 AND SWAP3 DUP2 SWAP1 PUSH3 0xA7 DUP6 ISZERO ISZERO PUSH3 0x176 JUMP JUMPDEST AND SWAP2 PUSH3 0xB6 DUP4 ISZERO ISZERO PUSH3 0x176 JUMP JUMPDEST AND SWAP2 PUSH3 0xC5 DUP4 ISZERO ISZERO PUSH3 0x176 JUMP JUMPDEST DUP4 PUSH1 0x2 SLOAD AND OR PUSH1 0x2 SSTORE DUP3 PUSH1 0x3 SLOAD AND OR PUSH1 0x3 SSTORE DUP2 PUSH1 0x4 SLOAD AND OR PUSH1 0x4 SSTORE PUSH8 0xDE0B6B3A7640000 SWAP2 DUP3 DUP2 MUL SWAP3 DUP2 DUP5 DIV EQ SWAP1 ISZERO OR ISZERO PUSH3 0x130 JUMPI PUSH2 0x3E8 PUSH20 0x4752BA5DBC23F44D87826276BF6FD6B1C372AD24 SWAP3 DIV PUSH1 0x5 SSTORE PUSH1 0x6 SLOAD AND OR PUSH1 0x6 SSTORE PUSH1 0x40 MLOAD PUSH2 0x4AD2 SWAP1 DUP2 PUSH3 0x1C4 DUP3 CODECOPY RETURN JUMPDEST PUSH4 0x4E487B71 PUSH1 0xE0 SHL PUSH1 0x0 MSTORE PUSH1 0x11 PUSH1 0x4 MSTORE PUSH1 0x24 PUSH1 0x0 REVERT JUMPDEST PUSH1 0x0 DUP1 REVERT JUMPDEST PUSH4 0x4E487B71 PUSH1 0xE0 SHL PUSH1 0x0 MSTORE PUSH1 0x41 PUSH1 0x4 MSTORE PUSH1 0x24 PUSH1 0x0 REVERT JUMPDEST MLOAD SWAP1 PUSH1 0x1 PUSH1 0x1 PUSH1 0xA0 SHL SUB DUP3 AND DUP3 SUB PUSH3 0x146 JUMPI JUMP JUMPDEST ISZERO PUSH3 0x17E JUMPI JUMP JUMPDEST PUSH1 0x40 MLOAD PUSH3 0x461BCD PUSH1 0xE5 SHL DUP2 MSTORE PUSH1 0x20 PUSH1 0x4 DUP3 ADD MSTORE PUSH1 0x1F PUSH1 0x24 DUP3 ADD MSTORE PUSH32 0x5A65726F2061646472657373657320617265206E6F7420616C6C6F7765642E00 PUSH1 0x44 DUP3 ADD MSTORE PUSH1 0x64 SWAP1 REVERT INVALID PUSH1 0x80 DUP1 PUSH1 0x40 MSTORE PUSH1 0x4 CALLDATASIZE LT ISZERO PUSH3 0x1F JUMPI JUMPDEST POP CALLDATASIZE ISZERO PUSH3 0x1D JUMPI PUSH1 0x0 DUP1 REVERT JUMPDEST STOP JUMPDEST PUSH1 0x0 SWAP1 DUP2 CALLDATALOAD PUSH1 0xE0 SHR SWAP1 DUP2 PUSH4 0x17E7E58 EQ PUSH3 0x24D6 JUMPI POP DUP1 PUSH4 0x94B7415 EQ PUSH3 0x24AB JUMPI DUP1 PUSH4 0x3CCFD60B EQ PUSH3 0x242A JUMPI DUP1 PUSH4 0x4C96A389 EQ PUSH3 0x1A29 JUMPI DUP1 PUSH4 0x4F64B2BE EQ PUSH3 0x19C6 JUMPI DUP1 PUSH4 0x512B1E6E EQ PUSH3 0x158A JUMPI DUP1 PUSH4 0x57F8D901 EQ PUSH3 0x1093 JUMPI DUP1 PUSH4 0x5C52A5F2 EQ PUSH3 0x1042 JUMPI DUP1 PUSH4 0x6D46A1DB EQ PUSH3 0xF72 JUMPI DUP1 PUSH4 0x7660F44A EQ PUSH3 0xF4D JUMPI DUP1 PUSH4 0x80997E47 EQ PUSH3 0xF26 JUMPI DUP1 PUSH4 0x8A664EBC EQ PUSH3 0xD52 JUMPI DUP1 PUSH4 0x98118CB4 EQ PUSH3 0xD34 JUMPI DUP1 PUSH4 0x9DD9D0FD EQ PUSH3 0xCF4 JUMPI DUP1 PUSH4 0xAA6CA808 EQ PUSH3 0xB7E JUMPI DUP1 PUSH4 0xAD256F7D EQ PUSH3 0x1D0 JUMPI DUP1 PUSH4 0xC36FE3D6 EQ PUSH3 0x18C JUMPI DUP1 PUSH4 0xCF3CF573 EQ PUSH3 0x16C JUMPI PUSH4 0xF46901ED SUB PUSH3 0x10 JUMPI CALLVALUE PUSH3 0x169 JUMPI PUSH1 0x20 CALLDATASIZE PUSH1 0x3 NOT ADD SLT PUSH3 0x169 JUMPI PUSH3 0x129 PUSH3 0x24FD JUMP JUMPDEST PUSH1 0x1 SLOAD PUSH1 0x1 PUSH1 0x1 PUSH1 0xA0 SHL SUB SWAP2 SWAP1 PUSH3 0x145 SWAP1 DUP4 AND CALLER EQ PUSH3 0x2B53 JUMP JUMPDEST AND PUSH3 0x153 DUP2 ISZERO ISZERO PUSH3 0x2BAF JUMP JUMPDEST PUSH1 0x1 PUSH1 0x1 PUSH1 0x60 SHL SUB PUSH1 0xA0 SHL PUSH1 0x4 SLOAD AND OR PUSH1 0x4 SSTORE DUP1 RETURN JUMPDEST DUP1 REVERT JUMPDEST POP CALLVALUE PUSH3 0x169 JUMPI DUP1 PUSH1 0x3 NOT CALLDATASIZE ADD SLT PUSH3 0x169 JUMPI PUSH1 0x20 PUSH1 0x5 SLOAD PUSH1 0x40 MLOAD SWAP1 DUP2 MSTORE RETURN JUMPDEST POP CALLVALUE PUSH3 0x169 JUMPI PUSH1 0x20 CALLDATASIZE PUSH1 0x3 NOT ADD SLT PUSH3 0x169 JUMPI PUSH1 0x4 CALLDATALOAD SWAP1 PUSH1 0x8 SLOAD DUP3 LT ISZERO PUSH3 0x169 JUMPI PUSH1 0x20 PUSH3 0x1BC DUP4 PUSH3 0x2AE3 JUMP JUMPDEST POP SLOAD PUSH1 0x40 MLOAD PUSH1 0x1 PUSH1 0x1 PUSH1 0xA0 SHL SUB SWAP1 SWAP2 AND DUP2 MSTORE RETURN JUMPDEST POP PUSH1 0xE0 CALLDATASIZE PUSH1 0x3 NOT ADD SLT PUSH3 0x169 JUMPI PUSH1 0x1 PUSH1 0x1 PUSH1 0x40 SHL SUB PUSH1 0x4 CALLDATALOAD DUP2 DUP2 GT PUSH3 0x78B JUMPI PUSH3 0x201 SWAP1 CALLDATASIZE SWAP1 PUSH1 0x4 ADD PUSH3 0x2A96 JUMP JUMPDEST PUSH1 0x24 CALLDATALOAD DUP3 DUP2 GT PUSH3 0xB7A JUMPI PUSH3 0x21C SWAP1 CALLDATASIZE SWAP1 PUSH1 0x4 ADD PUSH3 0x2A96 JUMP JUMPDEST SWAP1 PUSH1 0x44 CALLDATALOAD DUP4 DUP2 GT PUSH3 0xB76 JUMPI PUSH3 0x238 SWAP1 CALLDATASIZE SWAP1 PUSH1 0x4 ADD PUSH3 0x2A96 JUMP JUMPDEST SWAP2 PUSH1 0x64 CALLDATALOAD DUP5 DUP2 GT PUSH3 0xB72 JUMPI PUSH3 0x254 SWAP1 CALLDATASIZE SWAP1 PUSH1 0x4 ADD PUSH3 0x2A96 JUMP JUMPDEST SWAP3 PUSH1 0x84 CALLDATALOAD SWAP5 DUP1 DUP7 GT PUSH3 0xB6E JUMPI CALLDATASIZE PUSH1 0x23 DUP8 ADD SLT ISZERO PUSH3 0xB6E JUMPI PUSH1 0x40 MLOAD SWAP6 PUSH1 0x80 DUP8 ADD DUP8 DUP2 LT DUP4 DUP3 GT OR PUSH3 0x861 JUMPI PUSH1 0x40 MSTORE PUSH1 0x84 DUP2 ADD DUP8 CALLDATASIZE DUP3 GT PUSH3 0xB6A JUMPI DUP3 PUSH1 0x4 ADD SWAP1 JUMPDEST DUP3 DUP3 LT PUSH3 0xB3A JUMPI POP POP POP POP PUSH3 0x2AD PUSH3 0x36C9 JUMP JUMPDEST PUSH1 0x5 SLOAD CALLVALUE LT PUSH3 0xAF5 JUMPI PUSH1 0x40 MLOAD SWAP1 PUSH2 0x10AB DUP1 DUP4 ADD SWAP2 DUP3 GT DUP4 DUP4 LT OR PUSH3 0xAE1 JUMPI SWAP1 DUP3 SWAP2 PUSH3 0x39F2 DUP4 CODECOPY PUSH1 0x80 DUP2 MSTORE PUSH3 0x2FC PUSH3 0x2ED PUSH1 0x80 DUP4 ADD DUP9 PUSH3 0x2783 JUMP JUMPDEST DUP3 DUP2 SUB PUSH1 0x20 DUP5 ADD MSTORE DUP7 PUSH3 0x2783 JUMP JUMPDEST SWAP1 PUSH1 0xA4 CALLDATALOAD PUSH1 0x40 DUP3 ADD MSTORE PUSH1 0x60 PUSH1 0xC4 CALLDATALOAD SWAP2 ADD MSTORE SUB SWAP1 DUP8 CREATE SWAP5 DUP6 ISZERO PUSH3 0xAD6 JUMPI PUSH1 0x3 SLOAD PUSH1 0x40 MLOAD PUSH4 0x15AB88C9 PUSH1 0xE3 SHL DUP2 MSTORE SWAP6 SWAP1 PUSH1 0x20 SWAP1 DUP8 SWAP1 PUSH1 0x4 SWAP1 DUP3 SWAP1 PUSH1 0x1 PUSH1 0x1 PUSH1 0xA0 SHL SUB AND GAS STATICCALL SWAP6 DUP7 ISZERO PUSH3 0x8C6 JUMPI PUSH3 0x395 SWAP7 PUSH1 0x20 SWAP2 DUP11 SWAP2 PUSH3 0xAB4 JUMPI JUMPDEST POP PUSH1 0x2 SLOAD PUSH1 0x40 MLOAD PUSH4 0x64E329CB PUSH1 0xE1 SHL DUP2 MSTORE PUSH1 0x1 PUSH1 0x1 PUSH1 0xA0 SHL SUB DUP12 DUP2 AND PUSH1 0x4 DUP4 ADD MSTORE SWAP3 DUP4 AND PUSH1 0x24 DUP3 ADD MSTORE SWAP9 DUP10 SWAP3 SWAP1 SWAP2 AND SWAP1 DUP3 SWAP1 DUP13 SWAP1 DUP3 SWAP1 PUSH1 0x44 DUP3 ADD SWAP1 JUMP JUMPDEST SUB SWAP3 GAS CALL SWAP6 DUP7 ISZERO PUSH3 0x8C6 JUMPI DUP9 SWAP7 PUSH3 0xA7C JUMPI JUMPDEST POP PUSH1 0x40 MLOAD PUSH4 0x313CE567 PUSH1 0xE0 SHL DUP2 MSTORE PUSH1 0x20 DUP2 PUSH1 0x4 DUP2 PUSH1 0x1 PUSH1 0x1 PUSH1 0xA0 SHL SUB DUP13 AND GAS STATICCALL DUP1 ISZERO PUSH3 0xA71 JUMPI DUP10 SWAP1 PUSH3 0xA2D JUMPI JUMPDEST PUSH1 0xFF SWAP2 POP AND PUSH1 0x4D DUP2 GT PUSH3 0xA19 JUMPI PUSH3 0x3F7 SWAP1 PUSH1 0xA EXP PUSH1 0xA4 CALLDATALOAD PUSH3 0x2C9B JUMP JUMPDEST PUSH1 0x3 SLOAD PUSH3 0x414 SWAP1 DUP3 SWAP1 PUSH1 0x1 PUSH1 0x1 PUSH1 0xA0 SHL SUB DUP12 DUP2 AND SWAP2 AND PUSH3 0x3707 JUMP JUMPDEST ISZERO PUSH3 0xA15 JUMPI CALLVALUE PUSH1 0x5 MUL SWAP1 PUSH1 0x5 DUP3 DIV CALLVALUE SUB PUSH3 0xA01 JUMPI PUSH3 0x439 PUSH1 0x64 DUP4 DIV CALLVALUE PUSH3 0x2C8D JUMP JUMPDEST PUSH1 0x3 SLOAD PUSH1 0x40 DUP1 MLOAD PUSH4 0xE505AA9 PUSH1 0xE3 SHL DUP2 MSTORE PUSH1 0x1 PUSH1 0x1 PUSH1 0xA0 SHL SUB DUP14 DUP2 AND PUSH1 0x4 DUP4 ADD MSTORE PUSH1 0x24 DUP3 ADD DUP7 SWAP1 MSTORE SWAP4 SWAP11 SWAP4 SWAP1 SWAP3 DUP4 SWAP2 PUSH1 0x44 SWAP2 DUP4 SWAP2 PUSH1 0x64 DUP11 DIV SWAP2 AND GAS CALL DUP1 ISZERO PUSH3 0x9C1 JUMPI PUSH3 0x9CC JUMPI JUMPDEST POP PUSH1 0x40 MLOAD PUSH4 0x5D4D3D2B PUSH1 0xE1 SHL DUP2 MSTORE SWAP2 PUSH1 0x20 DUP4 PUSH1 0x4 DUP2 PUSH1 0x1 PUSH1 0x1 PUSH1 0xA0 SHL SUB DUP15 AND GAS STATICCALL SWAP3 DUP4 ISZERO PUSH3 0x9C1 JUMPI DUP13 SWAP4 PUSH3 0x984 JUMPI JUMPDEST POP PUSH3 0x4C2 PUSH1 0x4 SWAP4 DUP3 PUSH3 0x2CAF JUMP JUMPDEST PUSH1 0x40 MLOAD PUSH4 0x5D4D3D2B PUSH1 0xE1 SHL DUP2 MSTORE SWAP4 SWAP1 SWAP3 SWAP1 PUSH1 0x20 SWAP1 DUP6 SWAP1 DUP2 PUSH1 0x1 PUSH1 0x1 PUSH1 0xA0 SHL SUB DUP16 AND GAS STATICCALL SWAP4 DUP5 ISZERO PUSH3 0x979 JUMPI DUP14 SWAP5 PUSH3 0x93F JUMPI JUMPDEST POP PUSH1 0x64 DUP6 DIV PUSH1 0x64 DUP7 DIV PUSH1 0x1 SHL DIV PUSH1 0x2 EQ PUSH1 0x64 DUP7 DIV ISZERO OR ISZERO PUSH3 0x92B JUMPI SWAP1 DUP13 SWAP5 SWAP4 SWAP3 SWAP2 PUSH1 0x4 PUSH1 0x20 DUP14 PUSH1 0x40 MLOAD SWAP3 DUP4 DUP1 SWAP3 PUSH4 0x5D4D3D2B PUSH1 0xE1 SHL DUP3 MSTORE PUSH1 0x1 DUP1 PUSH1 0xA0 SHL SUB AND GAS STATICCALL SWAP7 DUP8 ISZERO PUSH3 0x91F JUMPI SWAP7 PUSH3 0x8E5 JUMPI JUMPDEST POP DUP6 DUP1 PUSH1 0x1 SHL DIV PUSH1 0x2 EQ DUP7 ISZERO OR ISZERO PUSH3 0x8D1 JUMPI SWAP1 DUP14 SWAP6 SWAP5 SWAP4 SWAP3 SWAP2 PUSH1 0x4 PUSH1 0x20 DUP15 PUSH1 0x40 MLOAD SWAP3 DUP4 DUP1 SWAP3 PUSH4 0x5D4D3D2B PUSH1 0xE1 SHL DUP3 MSTORE PUSH1 0x1 DUP1 PUSH1 0xA0 SHL SUB AND GAS STATICCALL SWAP1 DUP2 ISZERO PUSH3 0x8C6 JUMPI DUP16 SWAP9 SWAP2 PUSH3 0x877 JUMPI JUMPDEST POP SWAP11 DUP3 SWAP2 PUSH3 0x5AA PUSH3 0x5B6 SWAP14 PUSH1 0x64 SWAP9 SWAP8 SWAP7 SWAP6 PUSH3 0x2CAF JUMP JUMPDEST SWAP9 PUSH1 0x40 MLOAD SWAP14 DUP15 PUSH3 0x25D1 JUMP JUMPDEST PUSH1 0x1 DUP1 PUSH1 0xA0 SHL SUB AND DUP14 MSTORE PUSH1 0x20 DUP14 ADD MSTORE PUSH1 0x40 DUP13 ADD MSTORE PUSH1 0x60 DUP12 ADD MSTORE PUSH1 0x80 DUP11 ADD MSTORE PUSH1 0xA0 DUP10 ADD MSTORE DIV PUSH1 0x1 SHL PUSH1 0xC0 DUP8 ADD MSTORE PUSH1 0x1 SHL PUSH1 0xE0 DUP7 ADD MSTORE DUP9 PUSH2 0x100 DUP7 ADD MSTORE DUP9 PUSH2 0x120 DUP7 ADD MSTORE PUSH2 0x140 DUP6 ADD MSTORE TIMESTAMP PUSH2 0x160 DUP6 ADD MSTORE DUP2 MLOAD PUSH1 0x20 DUP4 ADD MLOAD SWAP2 PUSH1 0x60 PUSH1 0x40 DUP6 ADD MLOAD SWAP5 ADD MLOAD SWAP5 PUSH1 0x40 MLOAD SWAP7 PUSH3 0x627 DUP9 PUSH3 0x25D1 JUMP JUMPDEST CALLER DUP9 MSTORE PUSH1 0x1 DUP1 PUSH1 0xA0 SHL SUB DUP12 AND PUSH1 0x20 DUP10 ADD MSTORE PUSH1 0x1 DUP1 PUSH1 0xA0 SHL SUB DUP11 AND PUSH1 0x40 DUP10 ADD MSTORE PUSH1 0x60 DUP9 ADD MSTORE PUSH1 0x80 DUP8 ADD MSTORE PUSH1 0xA0 DUP7 ADD MSTORE PUSH1 0xC0 DUP6 ADD MSTORE PUSH1 0xE0 DUP5 ADD MSTORE PUSH2 0x100 DUP4 ADD MSTORE PUSH2 0x120 DUP3 ADD MSTORE PUSH1 0x1 PUSH2 0x140 DUP3 ADD MSTORE DUP5 PUSH2 0x160 DUP3 ADD MSTORE PUSH1 0x1 DUP1 PUSH1 0xA0 SHL SUB DUP5 AND DUP6 MSTORE PUSH1 0x9 PUSH1 0x20 MSTORE PUSH3 0x699 DUP2 PUSH1 0x40 DUP8 KECCAK256 PUSH3 0x2CD0 JUMP JUMPDEST PUSH1 0xA SLOAD SWAP1 PUSH1 0x1 PUSH1 0x40 SHL SWAP2 DUP3 DUP2 LT ISZERO PUSH3 0x861 JUMPI DUP1 PUSH1 0x1 PUSH3 0x6BE SWAP3 ADD PUSH1 0xA SSTORE PUSH3 0x2542 JUMP JUMPDEST SWAP3 SWAP1 SWAP3 PUSH3 0x84B JUMPI PUSH3 0x6D3 DUP3 DUP9 SWAP5 PUSH3 0x2CD0 JUMP JUMPDEST PUSH3 0x6DE CALLER PUSH3 0x37B8 JUMP JUMPDEST ISZERO PUSH3 0x78F JUMPI POP DUP2 DUP1 SWAP4 PUSH3 0x703 DUP3 SWAP4 CALLER DUP5 MSTORE PUSH1 0x7 PUSH1 0x20 MSTORE PUSH1 0x1 PUSH1 0x40 DUP6 KECCAK256 ADD PUSH3 0x3692 JUMP JUMPDEST PUSH1 0x4 SLOAD PUSH1 0x1 PUSH1 0x1 PUSH1 0xA0 SHL SUB AND GAS CALL PUSH3 0x71B PUSH3 0x2B1E JUMP JUMPDEST POP ISZERO PUSH3 0x78B JUMPI PUSH1 0xA SLOAD PUSH1 0x40 MLOAD DUP2 DUP2 MSTORE PUSH1 0x60 SWAP5 SWAP2 SWAP3 SWAP2 PUSH1 0x1 SWAP2 PUSH1 0x1 PUSH1 0x1 PUSH1 0xA0 SHL SUB DUP1 DUP6 AND SWAP2 SWAP1 DUP8 AND SWAP1 PUSH32 0x714AA39317AD9A7A7A99DB52B44490DA5D068A0B2710FFFB1A1282AD3CADAE1F SWAP1 PUSH1 0x20 SWAP1 LOG3 SSTORE PUSH1 0x40 DUP1 MLOAD PUSH1 0x1 PUSH1 0x1 PUSH1 0xA0 SHL SUB SWAP5 DUP6 AND DUP2 MSTORE SWAP2 SWAP1 SWAP4 AND PUSH1 0x20 DUP3 ADD MSTORE SWAP2 DUP3 ADD MSTORE RETURN JUMPDEST DUP3 DUP1 REVERT JUMPDEST SWAP1 SWAP2 POP PUSH3 0x79F CALLER ISZERO ISZERO PUSH3 0x2BAF JUMP JUMPDEST PUSH1 0x40 MLOAD SWAP1 PUSH3 0x7AE DUP3 PUSH3 0x25EE JUMP JUMPDEST CALLER DUP3 MSTORE PUSH1 0x60 PUSH1 0x20 DUP4 ADD MSTORE CALLER DUP8 MSTORE PUSH1 0x7 PUSH1 0x20 MSTORE PUSH3 0x7CF DUP3 PUSH1 0x40 DUP10 KECCAK256 PUSH3 0x385F JUMP JUMPDEST PUSH1 0x8 SLOAD SWAP1 DUP2 LT ISZERO PUSH3 0x837 JUMPI DUP1 PUSH1 0x1 PUSH3 0x7ED SWAP3 ADD PUSH1 0x8 SSTORE PUSH3 0x2AE3 JUMP JUMPDEST PUSH3 0x823 JUMPI DUP7 SWAP4 PUSH3 0x81D DUP6 SWAP5 PUSH3 0x808 DUP7 SWAP6 DUP7 SWAP6 PUSH3 0x385F JUMP JUMPDEST CALLER DUP5 MSTORE PUSH1 0x7 PUSH1 0x20 MSTORE PUSH1 0x1 PUSH1 0x40 DUP6 KECCAK256 ADD PUSH3 0x3692 JUMP JUMPDEST PUSH3 0x703 JUMP JUMPDEST PUSH4 0x4E487B71 PUSH1 0xE0 SHL DUP8 MSTORE PUSH1 0x4 DUP8 SWAP1 MSTORE PUSH1 0x24 DUP8 REVERT JUMPDEST PUSH4 0x4E487B71 PUSH1 0xE0 SHL DUP8 MSTORE PUSH1 0x41 PUSH1 0x4 MSTORE PUSH1 0x24 DUP8 REVERT JUMPDEST PUSH4 0x4E487B71 PUSH1 0xE0 SHL PUSH1 0x0 MSTORE PUSH1 0x0 PUSH1 0x4 MSTORE PUSH1 0x24 PUSH1 0x0 REVERT JUMPDEST PUSH4 0x4E487B71 PUSH1 0xE0 SHL PUSH1 0x0 MSTORE PUSH1 0x41 PUSH1 0x4 MSTORE PUSH1 0x24 PUSH1 0x0 REVERT JUMPDEST SWAP6 SWAP5 SWAP4 SWAP3 SWAP2 SWAP8 POP POP PUSH1 0x20 DUP6 RETURNDATASIZE PUSH1 0x20 GT PUSH3 0x8BD JUMPI JUMPDEST DUP2 PUSH3 0x89B PUSH1 0x20 SWAP4 DUP4 PUSH3 0x260A JUMP JUMPDEST DUP2 ADD SUB SLT PUSH3 0x8B8 JUMPI SWAP4 MLOAD DUP14 SWAP7 SWAP4 SWAP5 SWAP3 SWAP4 SWAP2 SWAP3 SWAP2 SWAP1 PUSH1 0x64 PUSH3 0x591 JUMP JUMPDEST PUSH1 0x0 DUP1 REVERT JUMPDEST RETURNDATASIZE SWAP2 POP PUSH3 0x88C JUMP JUMPDEST PUSH1 0x40 MLOAD RETURNDATASIZE DUP11 DUP3 RETURNDATACOPY RETURNDATASIZE SWAP1 REVERT JUMPDEST PUSH4 0x4E487B71 PUSH1 0xE0 SHL DUP15 MSTORE PUSH1 0x11 PUSH1 0x4 MSTORE PUSH1 0x24 DUP15 REVERT JUMPDEST SWAP1 SWAP6 POP PUSH1 0x20 DUP2 RETURNDATASIZE PUSH1 0x20 GT PUSH3 0x916 JUMPI JUMPDEST DUP2 PUSH3 0x904 PUSH1 0x20 SWAP4 DUP4 PUSH3 0x260A JUMP JUMPDEST DUP2 ADD SUB SLT PUSH3 0x8B8 JUMPI MLOAD SWAP5 CODESIZE PUSH3 0x546 JUMP JUMPDEST RETURNDATASIZE SWAP2 POP PUSH3 0x8F5 JUMP JUMPDEST PUSH1 0x40 MLOAD SWAP1 RETURNDATASIZE SWAP1 DUP3 RETURNDATACOPY RETURNDATASIZE SWAP1 REVERT JUMPDEST PUSH4 0x4E487B71 PUSH1 0xE0 SHL DUP14 MSTORE PUSH1 0x11 PUSH1 0x4 MSTORE PUSH1 0x24 DUP14 REVERT JUMPDEST SWAP1 SWAP4 POP PUSH1 0x20 DUP2 RETURNDATASIZE PUSH1 0x20 GT PUSH3 0x970 JUMPI JUMPDEST DUP2 PUSH3 0x95E PUSH1 0x20 SWAP4 DUP4 PUSH3 0x260A JUMP JUMPDEST DUP2 ADD SUB SLT PUSH3 0x8B8 JUMPI MLOAD SWAP3 CODESIZE PUSH3 0x4F5 JUMP JUMPDEST RETURNDATASIZE SWAP2 POP PUSH3 0x94F JUMP JUMPDEST PUSH1 0x40 MLOAD RETURNDATASIZE DUP16 DUP3 RETURNDATACOPY RETURNDATASIZE SWAP1 REVERT JUMPDEST SWAP3 POP PUSH1 0x20 DUP4 RETURNDATASIZE PUSH1 0x20 GT PUSH3 0x9B8 JUMPI JUMPDEST DUP2 PUSH3 0x9A2 PUSH1 0x20 SWAP4 DUP4 PUSH3 0x260A JUMP JUMPDEST DUP2 ADD SUB SLT PUSH3 0x8B8 JUMPI SWAP2 MLOAD SWAP2 PUSH3 0x4C2 PUSH3 0x4B3 JUMP JUMPDEST RETURNDATASIZE SWAP2 POP PUSH3 0x993 JUMP JUMPDEST PUSH1 0x40 MLOAD RETURNDATASIZE DUP15 DUP3 RETURNDATACOPY RETURNDATASIZE SWAP1 REVERT JUMPDEST PUSH3 0x9F2 SWAP1 PUSH1 0x40 RETURNDATASIZE PUSH1 0x40 GT PUSH3 0x9F9 JUMPI JUMPDEST PUSH3 0x9E9 DUP2 DUP4 PUSH3 0x260A JUMP JUMPDEST DUP2 ADD SWAP1 PUSH3 0x2C1D JUMP JUMPDEST POP PUSH3 0x482 JUMP JUMPDEST POP RETURNDATASIZE PUSH3 0x9DD JUMP JUMPDEST PUSH4 0x4E487B71 PUSH1 0xE0 SHL DUP11 MSTORE PUSH1 0x11 PUSH1 0x4 MSTORE PUSH1 0x24 DUP11 REVERT JUMPDEST DUP9 DUP1 REVERT JUMPDEST PUSH4 0x4E487B71 PUSH1 0xE0 SHL DUP10 MSTORE PUSH1 0x11 PUSH1 0x4 MSTORE PUSH1 0x24 DUP10 REVERT JUMPDEST POP PUSH1 0x20 DUP2 RETURNDATASIZE PUSH1 0x20 GT PUSH3 0xA68 JUMPI JUMPDEST DUP2 PUSH3 0xA4A PUSH1 0x20 SWAP4 DUP4 PUSH3 0x260A JUMP JUMPDEST DUP2 ADD SUB SLT PUSH3 0xA15 JUMPI MLOAD PUSH1 0xFF DUP2 AND DUP2 SUB PUSH3 0xA15 JUMPI PUSH1 0xFF SWAP1 PUSH3 0x3D8 JUMP JUMPDEST RETURNDATASIZE SWAP2 POP PUSH3 0xA3B JUMP JUMPDEST PUSH1 0x40 MLOAD RETURNDATASIZE DUP12 DUP3 RETURNDATACOPY RETURNDATASIZE SWAP1 REVERT JUMPDEST PUSH3 0xAA4 SWAP2 SWAP7 POP PUSH1 0x20 RETURNDATASIZE PUSH1 0x20 GT PUSH3 0xAAC JUMPI JUMPDEST PUSH3 0xA9B DUP2 DUP4 PUSH3 0x260A JUMP JUMPDEST DUP2 ADD SWAP1 PUSH3 0x2BFC JUMP JUMPDEST SWAP5 CODESIZE PUSH3 0x3A9 JUMP JUMPDEST POP RETURNDATASIZE PUSH3 0xA8F JUMP JUMPDEST PUSH3 0xACF SWAP2 POP DUP3 RETURNDATASIZE DUP5 GT PUSH3 0xAAC JUMPI PUSH3 0xA9B DUP2 DUP4 PUSH3 0x260A JUMP JUMPDEST CODESIZE PUSH3 0x358 JUMP JUMPDEST PUSH1 0x40 MLOAD RETURNDATASIZE DUP9 DUP3 RETURNDATACOPY RETURNDATASIZE SWAP1 REVERT JUMPDEST PUSH4 0x4E487B71 PUSH1 0xE0 SHL DUP10 MSTORE PUSH1 0x41 PUSH1 0x4 MSTORE PUSH1 0x24 DUP10 REVERT JUMPDEST PUSH1 0x40 MLOAD PUSH3 0x461BCD PUSH1 0xE5 SHL DUP2 MSTORE PUSH1 0x20 PUSH1 0x4 DUP3 ADD MSTORE PUSH1 0x19 PUSH1 0x24 DUP3 ADD MSTORE PUSH32 0x496E73756666696369656E7420616D6F756E742073656E742E00000000000000 PUSH1 0x44 DUP3 ADD MSTORE PUSH1 0x64 SWAP1 REVERT JUMPDEST DUP2 CALLDATALOAD DUP6 DUP2 GT PUSH3 0xB66 JUMPI PUSH1 0x20 SWAP2 PUSH3 0xB5A DUP4 SWAP3 PUSH1 0x4 CALLDATASIZE SWAP2 DUP10 ADD ADD PUSH3 0x2A96 JUMP JUMPDEST DUP2 MSTORE ADD SWAP2 ADD SWAP1 PUSH3 0x297 JUMP JUMPDEST DUP12 DUP1 REVERT JUMPDEST DUP10 DUP1 REVERT JUMPDEST DUP7 DUP1 REVERT JUMPDEST DUP6 DUP1 REVERT JUMPDEST DUP5 DUP1 REVERT JUMPDEST DUP4 DUP1 REVERT JUMPDEST POP CALLVALUE PUSH3 0x169 JUMPI DUP1 PUSH1 0x3 NOT CALLDATASIZE ADD SLT PUSH3 0x169 JUMPI PUSH1 0xA SLOAD PUSH1 0x1 PUSH1 0x1 PUSH1 0x40 SHL SUB DUP2 GT PUSH3 0x861 JUMPI PUSH1 0x20 SWAP1 PUSH1 0x40 MLOAD SWAP1 PUSH3 0xBBC PUSH1 0x20 DUP3 PUSH1 0x5 SHL ADD DUP4 PUSH3 0x260A JUMP JUMPDEST DUP1 DUP3 MSTORE PUSH1 0x20 DUP3 ADD PUSH1 0xA PUSH1 0x0 MSTORE PUSH32 0xC65A7BB8D6351C1CF70C95A316CC6A92839C986682D98BC35F958F4883F9D2A8 SWAP4 PUSH1 0x0 SWAP2 JUMPDEST DUP4 DUP4 LT PUSH3 0xC0A JUMPI PUSH1 0x40 MLOAD DUP1 PUSH3 0xC06 DUP8 DUP3 PUSH3 0x292F JUMP JUMPDEST SUB SWAP1 RETURN JUMPDEST PUSH1 0x16 DUP3 PUSH1 0x1 SWAP3 PUSH1 0x40 MLOAD PUSH3 0xC1E DUP2 PUSH3 0x25D1 JUMP JUMPDEST DUP5 DUP1 PUSH1 0xA0 SHL SUB DUP1 DUP12 SLOAD AND DUP3 MSTORE DUP1 DUP7 DUP13 ADD SLOAD AND DUP5 DUP4 ADD MSTORE PUSH1 0x2 DUP12 ADD SLOAD AND PUSH1 0x40 DUP3 ADD MSTORE PUSH3 0xC4D PUSH1 0x3 DUP12 ADD PUSH3 0x26DD JUMP JUMPDEST PUSH1 0x60 DUP3 ADD MSTORE PUSH3 0xC60 PUSH1 0xF DUP12 ADD PUSH3 0x262C JUMP JUMPDEST PUSH1 0x80 DUP3 ADD MSTORE PUSH3 0xC73 PUSH1 0x10 DUP12 ADD PUSH3 0x262C JUMP JUMPDEST PUSH1 0xA0 DUP3 ADD MSTORE PUSH3 0xC86 PUSH1 0x11 DUP12 ADD PUSH3 0x262C JUMP JUMPDEST PUSH1 0xC0 DUP3 ADD MSTORE PUSH3 0xC99 PUSH1 0x12 DUP12 ADD PUSH3 0x262C JUMP JUMPDEST PUSH1 0xE0 DUP3 ADD MSTORE PUSH3 0xCAC PUSH1 0x13 DUP12 ADD PUSH3 0x262C JUMP JUMPDEST PUSH2 0x100 DUP3 ADD MSTORE PUSH3 0xCC0 PUSH1 0x14 DUP12 ADD PUSH3 0x262C JUMP JUMPDEST PUSH2 0x120 DUP3 ADD MSTORE PUSH1 0x15 DUP11 ADD SLOAD PUSH1 0xFF SWAP1 DUP2 DUP2 AND ISZERO ISZERO PUSH2 0x140 DUP5 ADD MSTORE PUSH1 0x8 SHR AND ISZERO ISZERO PUSH2 0x160 DUP3 ADD MSTORE DUP2 MSTORE ADD SWAP7 ADD SWAP3 ADD SWAP2 SWAP5 PUSH3 0xBEE JUMP JUMPDEST POP CALLVALUE PUSH3 0x169 JUMPI PUSH1 0x20 CALLDATASIZE PUSH1 0x3 NOT ADD SLT PUSH3 0x169 JUMPI PUSH1 0x20 SWAP1 PUSH1 0x1 PUSH1 0x1 PUSH1 0xA0 SHL SUB SWAP1 PUSH1 0x40 SWAP1 DUP3 PUSH3 0xD22 PUSH3 0x24FD JUMP JUMPDEST AND DUP2 MSTORE PUSH1 0x7 DUP5 MSTORE KECCAK256 SLOAD AND PUSH1 0x40 MLOAD SWAP1 DUP2 MSTORE RETURN JUMPDEST POP CALLVALUE PUSH3 0x169 JUMPI DUP1 PUSH1 0x3 NOT CALLDATASIZE ADD SLT PUSH3 0x169 JUMPI PUSH1 0x20 PUSH1 0x40 MLOAD PUSH1 0x5 DUP2 MSTORE RETURN JUMPDEST POP CALLVALUE PUSH3 0x169 JUMPI DUP1 PUSH1 0x3 NOT CALLDATASIZE ADD SLT PUSH3 0x169 JUMPI PUSH3 0xD70 CALLER PUSH3 0x37B8 JUMP JUMPDEST ISZERO PUSH3 0xEE1 JUMPI CALLER DUP2 MSTORE PUSH1 0x40 PUSH1 0x20 SWAP2 PUSH1 0x7 DUP4 MSTORE KECCAK256 PUSH1 0x40 MLOAD PUSH3 0xD91 DUP2 PUSH3 0x25EE JUMP JUMPDEST DUP2 SLOAD PUSH1 0x1 PUSH1 0x1 PUSH1 0xA0 SHL SUB SWAP1 DUP2 AND DUP3 MSTORE PUSH1 0x1 SWAP3 DUP4 ADD DUP1 SLOAD SWAP1 SWAP4 SWAP2 PUSH1 0x1 PUSH1 0x1 PUSH1 0x40 SHL SUB DUP3 GT PUSH3 0x861 JUMPI SWAP4 PUSH1 0x40 MLOAD SWAP5 PUSH3 0xDCF DUP8 DUP5 PUSH1 0x5 SHL ADD DUP8 PUSH3 0x260A JUMP JUMPDEST DUP3 DUP7 MSTORE PUSH1 0x0 SWAP2 DUP3 MSTORE DUP7 DUP3 KECCAK256 SWAP1 DUP8 DUP8 ADD JUMPDEST DUP5 DUP5 LT PUSH3 0xDFD JUMPI DUP7 DUP10 ADD DUP9 SWAP1 MSTORE PUSH1 0x40 MLOAD DUP1 PUSH3 0xC06 DUP11 DUP3 PUSH3 0x292F JUMP JUMPDEST PUSH1 0x16 DUP10 DUP8 SWAP3 PUSH1 0x40 MLOAD PUSH3 0xE10 DUP2 PUSH3 0x25D1 JUMP JUMPDEST DUP6 DUP8 SLOAD AND DUP2 MSTORE DUP6 DUP6 DUP9 ADD SLOAD AND DUP4 DUP3 ADD MSTORE DUP6 PUSH1 0x2 DUP9 ADD SLOAD AND PUSH1 0x40 DUP3 ADD MSTORE PUSH3 0xE3A PUSH1 0x3 DUP9 ADD PUSH3 0x26DD JUMP JUMPDEST PUSH1 0x60 DUP3 ADD MSTORE PUSH3 0xE4D PUSH1 0xF DUP9 ADD PUSH3 0x262C JUMP JUMPDEST PUSH1 0x80 DUP3 ADD MSTORE PUSH3 0xE60 PUSH1 0x10 DUP9 ADD PUSH3 0x262C JUMP JUMPDEST PUSH1 0xA0 DUP3 ADD MSTORE PUSH3 0xE73 PUSH1 0x11 DUP9 ADD PUSH3 0x262C JUMP JUMPDEST PUSH1 0xC0 DUP3 ADD MSTORE PUSH3 0xE86 PUSH1 0x12 DUP9 ADD PUSH3 0x262C JUMP JUMPDEST PUSH1 0xE0 DUP3 ADD MSTORE PUSH3 0xE99 PUSH1 0x13 DUP9 ADD PUSH3 0x262C JUMP JUMPDEST PUSH2 0x100 DUP3 ADD MSTORE PUSH3 0xEAD PUSH1 0x14 DUP9 ADD PUSH3 0x262C JUMP JUMPDEST PUSH2 0x120 DUP3 ADD MSTORE PUSH1 0x15 DUP8 ADD SLOAD PUSH1 0xFF SWAP1 DUP2 DUP2 AND ISZERO ISZERO PUSH2 0x140 DUP5 ADD MSTORE PUSH1 0x8 SHR AND ISZERO ISZERO PUSH2 0x160 DUP3 ADD MSTORE DUP2 MSTORE ADD SWAP4 ADD SWAP4 ADD SWAP3 SWAP2 PUSH3 0xDDF JUMP JUMPDEST PUSH1 0x40 MLOAD PUSH3 0x461BCD PUSH1 0xE5 SHL DUP2 MSTORE PUSH1 0x20 PUSH1 0x4 DUP3 ADD MSTORE PUSH1 0x1C PUSH1 0x24 DUP3 ADD MSTORE PUSH32 0x557365722050726F66696C6520646F7365206E6F742065786973742E00000000 PUSH1 0x44 DUP3 ADD MSTORE PUSH1 0x64 SWAP1 REVERT JUMPDEST POP CALLVALUE PUSH3 0x169 JUMPI DUP1 PUSH1 0x3 NOT CALLDATASIZE ADD SLT PUSH3 0x169 JUMPI PUSH1 0x20 PUSH1 0x40 MLOAD PUSH10 0x152D02C7E14AF6800000 DUP2 MSTORE RETURN JUMPDEST POP CALLVALUE PUSH3 0x169 JUMPI PUSH1 0x20 CALLDATASIZE PUSH1 0x3 NOT ADD SLT PUSH3 0x169 JUMPI PUSH1 0x20 PUSH1 0x4 CALLDATALOAD DUP1 PUSH1 0x5 SSTORE PUSH1 0x40 MLOAD SWAP1 DUP2 MSTORE RETURN JUMPDEST POP CALLVALUE PUSH3 0x169 JUMPI PUSH1 0x20 CALLDATASIZE PUSH1 0x3 NOT ADD SLT PUSH3 0x169 JUMPI PUSH1 0x1 PUSH1 0x1 PUSH1 0xA0 SHL SUB SWAP1 PUSH1 0x40 SWAP1 DUP3 PUSH3 0xF9D PUSH3 0x24FD JUMP JUMPDEST AND DUP2 MSTORE PUSH1 0x9 PUSH1 0x20 MSTORE KECCAK256 SWAP1 PUSH3 0xC06 DUP2 DUP4 SLOAD AND SWAP3 DUP3 PUSH1 0x1 DUP3 ADD SLOAD AND SWAP3 PUSH1 0x2 DUP3 ADD SLOAD AND SWAP4 PUSH3 0xFCD PUSH1 0x3 DUP4 ADD PUSH3 0x26DD JUMP JUMPDEST SWAP2 PUSH3 0xFDC PUSH1 0xF DUP3 ADD PUSH3 0x262C JUMP JUMPDEST PUSH3 0xFEA PUSH1 0x10 DUP4 ADD PUSH3 0x262C JUMP JUMPDEST PUSH3 0xFF8 PUSH1 0x11 DUP5 ADD PUSH3 0x262C JUMP JUMPDEST PUSH3 0x1006 PUSH1 0x12 DUP6 ADD PUSH3 0x262C JUMP JUMPDEST SWAP2 PUSH3 0x1015 PUSH1 0x13 DUP7 ADD PUSH3 0x262C JUMP JUMPDEST SWAP4 PUSH1 0x15 PUSH3 0x1026 PUSH1 0x14 DUP9 ADD PUSH3 0x262C JUMP JUMPDEST SWAP7 ADD SLOAD SWAP8 PUSH1 0x40 MLOAD SWAP12 DUP13 SWAP12 PUSH1 0xFF DUP1 DUP13 PUSH1 0x8 SHR AND SWAP12 AND SWAP10 DUP14 PUSH3 0x2866 JUMP JUMPDEST POP CALLVALUE PUSH3 0x169 JUMPI PUSH1 0x60 CALLDATASIZE PUSH1 0x3 NOT ADD SLT PUSH3 0x169 JUMPI PUSH1 0x20 SWAP1 PUSH1 0x1 PUSH3 0x1087 PUSH3 0x1069 PUSH3 0x24FD JUMP JUMPDEST PUSH3 0x1073 PUSH3 0x2514 JUMP JUMPDEST PUSH3 0x107D PUSH3 0x36C9 JUMP JUMPDEST PUSH1 0x44 CALLDATALOAD SWAP2 PUSH3 0x3707 JUMP JUMPDEST SWAP2 SSTORE PUSH1 0x40 MLOAD SWAP1 ISZERO ISZERO DUP2 MSTORE RETURN JUMPDEST POP PUSH1 0x60 CALLDATASIZE PUSH1 0x3 NOT ADD SLT PUSH3 0x169 JUMPI PUSH3 0x10AB PUSH3 0x24FD JUMP JUMPDEST SWAP1 PUSH3 0x10B6 PUSH3 0x2514 JUMP JUMPDEST PUSH3 0x10C0 PUSH3 0x252B JUMP JUMPDEST SWAP1 PUSH3 0x10D7 PUSH1 0x1 PUSH1 0x1 PUSH1 0xA0 SHL SUB DUP6 AND ISZERO ISZERO PUSH3 0x2BAF JUMP JUMPDEST PUSH1 0x1 PUSH1 0x1 PUSH1 0xA0 SHL SUB AND SWAP1 PUSH3 0x10EE DUP3 ISZERO ISZERO PUSH3 0x2BAF JUMP JUMPDEST PUSH1 0x1 PUSH1 0x1 PUSH1 0xA0 SHL SUB AND SWAP1 PUSH3 0x1105 DUP3 ISZERO ISZERO PUSH3 0x2BAF JUMP JUMPDEST PUSH1 0x2 SLOAD PUSH1 0x3 SLOAD PUSH1 0x40 MLOAD PUSH4 0x15AB88C9 PUSH1 0xE3 SHL DUP2 MSTORE PUSH1 0x1 PUSH1 0x1 PUSH1 0xA0 SHL SUB SWAP2 DUP3 AND SWAP4 SWAP3 SWAP1 SWAP2 AND PUSH1 0x20 DUP3 PUSH1 0x4 DUP2 DUP8 GAS STATICCALL SWAP2 DUP3 ISZERO PUSH3 0xAD6 JUMPI SWAP2 PUSH1 0x20 SWAP2 PUSH3 0x1180 SWAP4 DUP9 SWAP3 PUSH3 0x1566 JUMPI JUMPDEST POP PUSH1 0x40 MLOAD PUSH4 0xE6A43905 PUSH1 0xE0 SHL DUP2 MSTORE PUSH1 0x1 PUSH1 0x1 PUSH1 0xA0 SHL SUB DUP1 DUP12 AND PUSH1 0x4 DUP4 ADD MSTORE SWAP1 SWAP3 AND PUSH1 0x24 DUP4 ADD MSTORE SWAP1 SWAP3 DUP4 SWAP2 SWAP1 DUP3 SWAP1 DUP2 SWAP1 PUSH1 0x44 DUP3 ADD SWAP1 JUMP JUMPDEST SUB SWAP2 GAS STATICCALL SWAP1 DUP2 ISZERO PUSH3 0x14EF JUMPI PUSH1 0x4 SWAP4 SWAP3 SWAP2 PUSH1 0x60 SWAP2 DUP8 SWAP2 PUSH3 0x1542 JUMPI JUMPDEST POP PUSH1 0x40 MLOAD PUSH4 0x240BC6B PUSH1 0xE2 SHL DUP2 MSTORE SWAP5 DUP6 SWAP2 DUP3 SWAP1 PUSH1 0x1 PUSH1 0x1 PUSH1 0xA0 SHL SUB AND GAS STATICCALL SWAP4 DUP5 ISZERO PUSH3 0x14EF JUMPI DUP6 SWAP2 DUP7 SWAP5 DUP8 SWAP7 PUSH3 0x14FA JUMPI JUMPDEST POP PUSH1 0x40 DUP1 MLOAD PUSH4 0x57F8D901 PUSH1 0xE0 SHL DUP2 MSTORE PUSH1 0x1 PUSH1 0x1 PUSH1 0xA0 SHL SUB DUP11 AND PUSH1 0x4 DUP3 ADD MSTORE PUSH1 0x24 DUP2 ADD SWAP3 SWAP1 SWAP3 MSTORE PUSH1 0x44 DUP3 ADD SWAP3 SWAP1 SWAP3 MSTORE SWAP3 DUP4 SWAP1 PUSH1 0x64 SWAP1 DUP3 SWAP1 CALLVALUE SWAP1 GAS CALL SWAP1 DUP2 ISZERO PUSH3 0x14EF JUMPI DUP6 SWAP3 DUP7 SWAP3 PUSH3 0x14B8 JUMPI JUMPDEST POP PUSH3 0x1238 DUP4 PUSH3 0x1231 PUSH3 0x123F SWAP5 DUP3 SWAP5 PUSH3 0x2C8D JUMP JUMPDEST SWAP6 PUSH3 0x2C69 JUMP JUMPDEST SWAP5 PUSH3 0x2C69 JUMP JUMPDEST PUSH1 0x1 PUSH1 0x1 PUSH1 0xA0 SHL SUB DUP7 AND DUP6 MSTORE PUSH1 0x9 PUSH1 0x20 MSTORE PUSH1 0x40 DUP6 KECCAK256 PUSH1 0xE ADD SLOAD SWAP1 SWAP2 SWAP1 PUSH3 0x1267 SWAP1 TIMESTAMP PUSH3 0x2C8D JUMP JUMPDEST SWAP3 DUP3 DUP1 PUSH1 0x1 SHL DIV PUSH1 0x2 EQ DUP4 ISZERO OR ISZERO PUSH3 0x14A4 JUMPI DUP5 DUP1 PUSH1 0x1 SHL DIV PUSH1 0x2 EQ DUP6 ISZERO OR ISZERO PUSH3 0x14A4 JUMPI PUSH1 0x1 DUP1 PUSH1 0xA0 SHL SUB DUP8 AND DUP7 MSTORE PUSH1 0x9 PUSH1 0x20 MSTORE PUSH3 0x12C6 DUP4 PUSH3 0x12BF DUP4 PUSH3 0x12B9 DUP4 PUSH1 0x6 PUSH1 0x40 DUP14 KECCAK256 ADD SLOAD PUSH3 0x2C9B JUMP JUMPDEST PUSH3 0x2CAF JUMP JUMPDEST SWAP3 PUSH3 0x2CAF JUMP JUMPDEST SWAP2 PUSH3 0x15180 DUP6 GT ISZERO PUSH3 0x1477 JUMPI DUP1 SWAP3 JUMPDEST PUSH1 0x1 DUP1 PUSH1 0xA0 SHL SUB DUP10 AND DUP9 MSTORE PUSH1 0x9 PUSH1 0x20 MSTORE PUSH1 0x40 DUP9 KECCAK256 SWAP5 PUSH3 0x131E DUP4 PUSH1 0xB PUSH1 0x7 DUP10 ADD SLOAD SWAP9 DUP6 PUSH1 0x7 DUP3 ADD SSTORE DUP8 PUSH1 0x8 DUP3 ADD SSTORE DUP12 PUSH1 0x1 SHL PUSH1 0x9 DUP3 ADD SSTORE DUP5 PUSH1 0x1 SHL PUSH1 0xA DUP3 ADD SSTORE ADD SLOAD PUSH3 0x2C69 JUMP JUMPDEST PUSH1 0x1 DUP1 PUSH1 0xA0 SHL SUB DUP12 AND DUP11 MSTORE PUSH1 0x9 PUSH1 0x20 MSTORE PUSH1 0x40 DUP11 KECCAK256 SWAP1 PUSH1 0xB DUP3 ADD SSTORE DUP6 PUSH1 0xC DUP3 ADD SSTORE DUP7 PUSH1 0xD DUP3 ADD SSTORE PUSH3 0x15180 DUP9 GT PUSH3 0x146A JUMPI JUMPDEST POP DUP9 JUMPDEST PUSH1 0xA SLOAD DUP2 LT ISZERO PUSH3 0x145F JUMPI DUP1 DUP11 DUP6 DUP14 DUP13 PUSH3 0x1370 PUSH1 0x1 SWAP7 PUSH3 0x2542 JUMP JUMPDEST POP DUP7 ADD SLOAD PUSH1 0xA0 DUP8 SWAP1 SHL DUP8 SWAP1 SUB DUP4 DUP2 AND SWAP2 AND EQ PUSH3 0x1393 JUMPI JUMPDEST POP POP POP POP ADD PUSH3 0x1353 JUMP JUMPDEST PUSH3 0x13FF SWAP4 PUSH1 0xB SWAP3 PUSH1 0x40 SWAP3 DUP11 PUSH1 0x7 PUSH3 0x13AC DUP11 PUSH3 0x2542 JUMP JUMPDEST POP ADD SSTORE DUP13 PUSH1 0x8 PUSH3 0x13BD DUP11 PUSH3 0x2542 JUMP JUMPDEST POP ADD SSTORE PUSH1 0x9 PUSH3 0x13CD DUP10 PUSH3 0x2542 JUMP JUMPDEST POP SWAP2 DUP11 SHL SWAP2 ADD SSTORE PUSH3 0x13DF DUP8 PUSH3 0x2542 JUMP JUMPDEST POP PUSH1 0xA DUP11 DUP11 SHL SWAP2 ADD SSTORE DUP8 DUP1 PUSH1 0xA0 SHL SUB AND DUP2 MSTORE PUSH1 0x9 PUSH1 0x20 MSTORE KECCAK256 ADD SLOAD PUSH3 0x2C69 JUMP JUMPDEST PUSH1 0xB PUSH3 0x140C DUP4 PUSH3 0x2542 JUMP JUMPDEST POP ADD SSTORE DUP7 PUSH1 0xC PUSH3 0x141D DUP4 PUSH3 0x2542 JUMP JUMPDEST POP ADD SSTORE DUP8 PUSH1 0xD PUSH3 0x142E DUP4 PUSH3 0x2542 JUMP JUMPDEST POP ADD SSTORE PUSH3 0x15180 DUP10 GT PUSH3 0x1447 JUMPI JUMPDEST DUP11 DUP6 DUP14 DUP13 PUSH3 0x1388 JUMP JUMPDEST PUSH3 0x1452 DUP2 PUSH3 0x2542 JUMP JUMPDEST POP PUSH1 0xE TIMESTAMP SWAP2 ADD SSTORE PUSH3 0x143D JUMP JUMPDEST PUSH1 0x20 PUSH1 0x40 MLOAD PUSH1 0x1 DUP2 MSTORE RETURN JUMPDEST PUSH1 0xE TIMESTAMP SWAP2 ADD SSTORE CODESIZE PUSH3 0x1350 JUMP JUMPDEST PUSH1 0x1 PUSH1 0x1 PUSH1 0xA0 SHL SUB DUP9 AND DUP8 MSTORE PUSH1 0x9 PUSH1 0x20 MSTORE PUSH1 0x40 DUP8 KECCAK256 PUSH1 0xC ADD SLOAD PUSH3 0x149D SWAP1 DUP3 SWAP1 PUSH3 0x2C69 JUMP JUMPDEST SWAP3 PUSH3 0x12D6 JUMP JUMPDEST PUSH4 0x4E487B71 PUSH1 0xE0 SHL DUP7 MSTORE PUSH1 0x11 PUSH1 0x4 MSTORE PUSH1 0x24 DUP7 REVERT JUMPDEST PUSH3 0x1231 SWAP4 POP PUSH3 0x123F SWAP3 POP PUSH3 0x14E4 PUSH3 0x1238 SWAP2 PUSH1 0x40 RETURNDATASIZE PUSH1 0x40 GT PUSH3 0x9F9 JUMPI PUSH3 0x9E9 DUP2 DUP4 PUSH3 0x260A JUMP JUMPDEST SWAP1 SWAP5 POP SWAP3 POP PUSH3 0x121A JUMP JUMPDEST PUSH1 0x40 MLOAD RETURNDATASIZE DUP8 DUP3 RETURNDATACOPY RETURNDATASIZE SWAP1 REVERT JUMPDEST PUSH3 0x152B SWAP2 SWAP7 POP PUSH1 0x40 SWAP3 SWAP6 POP PUSH1 0x64 SWAP4 POP PUSH1 0x60 RETURNDATASIZE PUSH1 0x60 GT PUSH3 0x153A JUMPI JUMPDEST PUSH3 0x1522 DUP2 DUP4 PUSH3 0x260A JUMP JUMPDEST DUP2 ADD SWAP1 PUSH3 0x2C4D JUMP JUMPDEST SWAP6 SWAP2 SWAP4 SWAP1 SWAP6 SWAP7 SWAP2 SWAP3 POP PUSH3 0x11CE JUMP JUMPDEST POP RETURNDATASIZE PUSH3 0x1516 JUMP JUMPDEST PUSH3 0x155F SWAP2 POP PUSH1 0x20 RETURNDATASIZE PUSH1 0x20 GT PUSH3 0xAAC JUMPI PUSH3 0xA9B DUP2 DUP4 PUSH3 0x260A JUMP JUMPDEST CODESIZE PUSH3 0x119C JUMP JUMPDEST PUSH3 0x1582 SWAP2 SWAP3 POP DUP4 RETURNDATASIZE DUP6 GT PUSH3 0xAAC JUMPI PUSH3 0xA9B DUP2 DUP4 PUSH3 0x260A JUMP JUMPDEST SWAP1 CODESIZE PUSH3 0x114A JUMP JUMPDEST POP CALLVALUE PUSH3 0x169 JUMPI PUSH1 0x80 CALLDATASIZE PUSH1 0x3 NOT ADD SLT PUSH3 0x169 JUMPI PUSH3 0x15A8 PUSH3 0x2514 JUMP JUMPDEST SWAP1 PUSH3 0x15B3 PUSH3 0x252B JUMP JUMPDEST PUSH1 0x64 CALLDATALOAD PUSH1 0x1 PUSH1 0x1 PUSH1 0xA0 SHL SUB DUP2 AND SWAP2 SWAP1 DUP3 SWAP1 SUB PUSH3 0x8B8 JUMPI PUSH3 0x15E0 PUSH1 0x1 PUSH1 0x1 PUSH1 0xA0 SHL SUB DUP6 AND ISZERO ISZERO PUSH3 0x2BAF JUMP JUMPDEST PUSH1 0x1 PUSH1 0x1 PUSH1 0xA0 SHL SUB AND PUSH3 0x15F6 DUP2 ISZERO ISZERO PUSH3 0x2BAF JUMP JUMPDEST PUSH3 0x1603 DUP3 ISZERO ISZERO PUSH3 0x2BAF JUMP JUMPDEST PUSH1 0x2 SLOAD PUSH1 0x3 SLOAD PUSH1 0x40 MLOAD PUSH4 0x15AB88C9 PUSH1 0xE3 SHL DUP2 MSTORE PUSH1 0x1 PUSH1 0x1 PUSH1 0xA0 SHL SUB SWAP2 DUP3 AND SWAP3 SWAP1 SWAP2 AND PUSH1 0x20 DUP3 PUSH1 0x4 DUP2 DUP7 GAS STATICCALL SWAP2 DUP3 ISZERO PUSH3 0xAD6 JUMPI SWAP2 PUSH1 0x20 SWAP2 PUSH3 0x167C SWAP4 DUP9 SWAP3 PUSH3 0x1566 JUMPI POP PUSH1 0x40 MLOAD PUSH4 0xE6A43905 PUSH1 0xE0 SHL DUP2 MSTORE PUSH1 0x1 PUSH1 0x1 PUSH1 0xA0 SHL SUB DUP1 DUP12 AND PUSH1 0x4 DUP4 ADD MSTORE SWAP1 SWAP3 AND PUSH1 0x24 DUP4 ADD MSTORE SWAP1 SWAP3 DUP4 SWAP2 SWAP1 DUP3 SWAP1 DUP2 SWAP1 PUSH1 0x44 DUP3 ADD SWAP1 JUMP JUMPDEST SUB SWAP2 GAS STATICCALL SWAP1 DUP2 ISZERO PUSH3 0x14EF JUMPI PUSH1 0x4 SWAP4 SWAP3 SWAP2 PUSH1 0x60 SWAP2 DUP8 SWAP2 PUSH3 0x19A2 JUMPI JUMPDEST POP PUSH1 0x40 MLOAD PUSH4 0x240BC6B PUSH1 0xE2 SHL DUP2 MSTORE SWAP5 DUP6 SWAP2 DUP3 SWAP1 PUSH1 0x1 PUSH1 0x1 PUSH1 0xA0 SHL SUB AND GAS STATICCALL SWAP4 DUP5 ISZERO PUSH3 0x14EF JUMPI DUP6 SWAP3 DUP7 SWAP5 DUP8 SWAP7 PUSH3 0x196C JUMPI JUMPDEST POP SWAP1 PUSH1 0x84 PUSH1 0x40 SWAP3 DUP9 DUP5 MLOAD SWAP6 DUP7 SWAP5 DUP6 SWAP4 PUSH4 0x28958F37 PUSH1 0xE1 SHL DUP6 MSTORE PUSH1 0x4 CALLDATALOAD PUSH1 0x4 DUP7 ADD MSTORE DUP14 PUSH1 0x1 DUP1 PUSH1 0xA0 SHL SUB AND PUSH1 0x24 DUP7 ADD MSTORE PUSH1 0x44 DUP6 ADD MSTORE PUSH1 0x64 DUP5 ADD MSTORE GAS CALL SWAP2 DUP3 ISZERO PUSH3 0x14EF JUMPI DUP6 SWAP2 DUP7 SWAP4 PUSH3 0x1936 JUMPI JUMPDEST POP PUSH3 0x1735 DUP4 PUSH3 0x172E PUSH3 0x173C SWAP5 DUP3 SWAP5 PUSH3 0x2C69 JUMP JUMPDEST SWAP6 PUSH3 0x2C8D JUMP JUMPDEST SWAP5 PUSH3 0x2C8D JUMP JUMPDEST PUSH1 0x1 PUSH1 0x1 PUSH1 0xA0 SHL SUB DUP7 AND DUP6 MSTORE PUSH1 0x9 PUSH1 0x20 MSTORE PUSH1 0x40 DUP6 KECCAK256 PUSH1 0xE ADD SLOAD SWAP1 SWAP2 SWAP1 PUSH3 0x1764 SWAP1 TIMESTAMP PUSH3 0x2C8D JUMP JUMPDEST SWAP3 DUP3 DUP1 PUSH1 0x1 SHL DIV PUSH1 0x2 EQ DUP4 ISZERO OR ISZERO PUSH3 0x14A4 JUMPI DUP5 DUP1 PUSH1 0x1 SHL DIV PUSH1 0x2 EQ DUP6 ISZERO OR ISZERO PUSH3 0x14A4 JUMPI PUSH1 0x1 DUP1 PUSH1 0xA0 SHL SUB DUP8 AND DUP7 MSTORE PUSH1 0x9 PUSH1 0x20 MSTORE PUSH3 0x17B6 DUP4 PUSH3 0x12BF DUP4 PUSH3 0x12B9 DUP4 PUSH1 0x6 PUSH1 0x40 DUP14 KECCAK256 ADD SLOAD PUSH3 0x2C9B JUMP JUMPDEST SWAP2 PUSH3 0x15180 DUP6 GT ISZERO PUSH3 0x1909 JUMPI DUP1 SWAP3 JUMPDEST PUSH1 0x1 DUP1 PUSH1 0xA0 SHL SUB DUP10 AND DUP9 MSTORE PUSH1 0x9 PUSH1 0x20 MSTORE PUSH1 0x40 DUP9 KECCAK256 SWAP5 PUSH3 0x180E DUP4 PUSH1 0xB PUSH1 0x7 DUP10 ADD SLOAD SWAP9 DUP6 PUSH1 0x7 DUP3 ADD SSTORE DUP8 PUSH1 0x8 DUP3 ADD SSTORE DUP12 PUSH1 0x1 SHL PUSH1 0x9 DUP3 ADD SSTORE DUP5 PUSH1 0x1 SHL PUSH1 0xA DUP3 ADD SSTORE ADD SLOAD PUSH3 0x2C69 JUMP JUMPDEST PUSH1 0x1 DUP1 PUSH1 0xA0 SHL SUB DUP12 AND DUP11 MSTORE PUSH1 0x9 PUSH1 0x20 MSTORE PUSH1 0x40 DUP11 KECCAK256 SWAP1 PUSH1 0xB DUP3 ADD SSTORE DUP6 PUSH1 0xC DUP3 ADD SSTORE DUP7 PUSH1 0xD DUP3 ADD SSTORE PUSH3 0x15180 DUP9 GT PUSH3 0x18FC JUMPI JUMPDEST POP DUP9 JUMPDEST PUSH1 0xA SLOAD DUP2 LT ISZERO PUSH3 0x145F JUMPI DUP1 DUP11 DUP6 DUP14 DUP13 PUSH3 0x1860 PUSH1 0x1 SWAP7 PUSH3 0x2542 JUMP JUMPDEST POP DUP7 ADD SLOAD PUSH1 0xA0 DUP8 SWAP1 SHL DUP8 SWAP1 SUB DUP4 DUP2 AND SWAP2 AND EQ PUSH3 0x1883 JUMPI JUMPDEST POP POP POP POP ADD PUSH3 0x1843 JUMP JUMPDEST PUSH3 0x189C SWAP4 PUSH1 0xB SWAP3 PUSH1 0x40 SWAP3 DUP11 PUSH1 0x7 PUSH3 0x13AC DUP11 PUSH3 0x2542 JUMP JUMPDEST PUSH1 0xB PUSH3 0x18A9 DUP4 PUSH3 0x2542 JUMP JUMPDEST POP ADD SSTORE DUP7 PUSH1 0xC PUSH3 0x18BA DUP4 PUSH3 0x2542 JUMP JUMPDEST POP ADD SSTORE DUP8 PUSH1 0xD PUSH3 0x18CB DUP4 PUSH3 0x2542 JUMP JUMPDEST POP ADD SSTORE PUSH3 0x15180 DUP10 GT PUSH3 0x18E4 JUMPI JUMPDEST DUP11 DUP6 DUP14 DUP13 PUSH3 0x1878 JUMP JUMPDEST PUSH3 0x18EF DUP2 PUSH3 0x2542 JUMP JUMPDEST POP PUSH1 0xE TIMESTAMP SWAP2 ADD SSTORE PUSH3 0x18DA JUMP JUMPDEST PUSH1 0xE TIMESTAMP SWAP2 ADD SSTORE CODESIZE PUSH3 0x1840 JUMP JUMPDEST PUSH1 0x1 PUSH1 0x1 PUSH1 0xA0 SHL SUB DUP9 AND DUP8 MSTORE PUSH1 0x9 PUSH1 0x20 MSTORE PUSH1 0x40 DUP8 KECCAK256 PUSH1 0xC ADD SLOAD PUSH3 0x192F SWAP1 DUP3 SWAP1 PUSH3 0x2C69 JUMP JUMPDEST SWAP3 PUSH3 0x17C6 JUMP JUMPDEST PUSH3 0x172E SWAP4 POP PUSH3 0x173C SWAP3 POP PUSH3 0x1962 PUSH3 0x1735 SWAP2 PUSH1 0x40 RETURNDATASIZE PUSH1 0x40 GT PUSH3 0x9F9 JUMPI PUSH3 0x9E9 DUP2 DUP4 PUSH3 0x260A JUMP JUMPDEST SWAP5 POP SWAP3 POP PUSH3 0x1717 JUMP JUMPDEST PUSH3 0x1993 SWAP2 SWAP7 POP PUSH1 0x40 SWAP3 SWAP6 POP PUSH1 0x84 SWAP5 POP PUSH1 0x60 RETURNDATASIZE PUSH1 0x60 GT PUSH3 0x153A JUMPI PUSH3 0x1522 DUP2 DUP4 PUSH3 0x260A JUMP JUMPDEST SWAP6 SWAP2 SWAP5 SWAP1 SWAP6 SWAP7 SWAP2 SWAP3 POP PUSH3 0x16CA JUMP JUMPDEST PUSH3 0x19BF SWAP2 POP PUSH1 0x20 RETURNDATASIZE PUSH1 0x20 GT PUSH3 0xAAC JUMPI PUSH3 0xA9B DUP2 DUP4 PUSH3 0x260A JUMP JUMPDEST CODESIZE PUSH3 0x1698 JUMP JUMPDEST POP CALLVALUE PUSH3 0x169 JUMPI PUSH1 0x20 CALLDATASIZE PUSH1 0x3 NOT ADD SLT PUSH3 0x169 JUMPI PUSH1 0x4 CALLDATALOAD PUSH1 0xA SLOAD DUP2 LT ISZERO PUSH3 0x1A25 JUMPI PUSH3 0x19F3 SWAP1 PUSH3 0x2542 JUMP JUMPDEST POP DUP1 SLOAD PUSH1 0x1 DUP3 ADD SLOAD PUSH1 0x2 DUP4 ADD SLOAD PUSH1 0x1 PUSH1 0x1 PUSH1 0xA0 SHL SUB SWAP1 DUP2 AND SWAP4 SWAP2 DUP2 AND SWAP3 PUSH3 0xC06 SWAP3 SWAP2 AND PUSH3 0xFCD PUSH1 0x3 DUP4 ADD PUSH3 0x26DD JUMP JUMPDEST POP DUP1 REVERT JUMPDEST POP CALLVALUE PUSH3 0x169 JUMPI PUSH1 0x20 CALLDATASIZE PUSH1 0x3 NOT ADD SLT PUSH3 0x169 JUMPI PUSH3 0x1A47 PUSH3 0x24FD JUMP JUMPDEST SWAP1 PUSH3 0x1A5F PUSH1 0x1 DUP1 PUSH1 0xA0 SHL SUB PUSH1 0x1 SLOAD AND CALLER EQ PUSH3 0x2B53 JUMP JUMPDEST PUSH3 0x1A69 PUSH3 0x36C9 JUMP JUMPDEST PUSH3 0x1A7F PUSH1 0x1 PUSH1 0x1 PUSH1 0xA0 SHL SUB DUP4 AND ISZERO ISZERO PUSH3 0x2BAF JUMP JUMPDEST PUSH1 0x3 SLOAD PUSH1 0x40 MLOAD PUSH4 0x15AB88C9 PUSH1 0xE3 SHL DUP2 MSTORE SWAP1 PUSH1 0x20 SWAP1 DUP3 SWAP1 PUSH1 0x4 SWAP1 DUP3 SWAP1 PUSH1 0x1 PUSH1 0x1 PUSH1 0xA0 SHL SUB AND GAS STATICCALL SWAP1 DUP2 ISZERO PUSH3 0x23D9 JUMPI PUSH3 0x1AF8 SWAP2 PUSH1 0x20 SWAP2 DUP5 SWAP2 PUSH3 0x2408 JUMPI JUMPDEST POP PUSH1 0x2 SLOAD PUSH1 0x40 MLOAD PUSH4 0xE6A43905 PUSH1 0xE0 SHL DUP2 MSTORE PUSH1 0x1 PUSH1 0x1 PUSH1 0xA0 SHL SUB DUP8 DUP2 AND PUSH1 0x4 DUP4 ADD MSTORE SWAP3 DUP4 AND PUSH1 0x24 DUP3 ADD MSTORE SWAP4 DUP5 SWAP3 SWAP1 SWAP2 AND SWAP1 DUP3 SWAP1 DUP2 SWAP1 PUSH1 0x44 DUP3 ADD SWAP1 JUMP JUMPDEST SUB SWAP2 GAS STATICCALL SWAP1 DUP2 ISZERO PUSH3 0x23D9 JUMPI DUP3 SWAP2 PUSH3 0x23E4 JUMPI JUMPDEST POP PUSH1 0x1 PUSH1 0x1 PUSH1 0xA0 SHL SUB DUP4 AND EXTCODESIZE ISZERO PUSH3 0x1A25 JUMPI PUSH1 0x40 MLOAD PUSH4 0x6DA678F PUSH1 0xE5 SHL DUP2 MSTORE PUSH1 0x1 PUSH1 0x1 PUSH1 0xA0 SHL SUB SWAP2 DUP3 AND PUSH1 0x4 DUP3 ADD MSTORE SWAP1 DUP3 SWAP1 DUP3 SWAP1 PUSH1 0x24 SWAP1 DUP3 SWAP1 DUP5 SWAP1 DUP9 AND GAS CALL DUP1 ISZERO PUSH3 0x23D9 JUMPI PUSH3 0x23AC JUMPI JUMPDEST POP PUSH1 0x1 PUSH1 0x1 PUSH1 0xA0 SHL SUB DUP1 DUP4 AND DUP1 DUP4 MSTORE PUSH1 0x9 PUSH1 0x20 MSTORE PUSH1 0x40 DUP1 DUP5 KECCAK256 PUSH1 0x3 SLOAD DUP3 MLOAD PUSH4 0xE79A4089 PUSH1 0xE0 SHL DUP2 MSTORE PUSH1 0x4 DUP2 ADD SWAP5 SWAP1 SWAP5 MSTORE PUSH1 0x64 PUSH1 0x24 DUP6 ADD DUP2 SWAP1 MSTORE ADDRESS PUSH1 0x44 DUP7 ADD MSTORE SWAP6 SWAP7 SWAP4 SWAP6 SWAP2 SWAP5 DUP7 SWAP3 SWAP2 DUP4 SWAP2 DUP10 SWAP2 AND GAS CALL SWAP1 DUP2 ISZERO PUSH3 0x23A1 JUMPI DUP5 SWAP4 DUP6 SWAP3 PUSH3 0x2378 JUMPI JUMPDEST POP PUSH1 0x1 DUP1 PUSH1 0xA0 SHL SUB DUP2 AND DUP6 MSTORE PUSH1 0x9 PUSH1 0x20 MSTORE PUSH1 0x40 DUP6 KECCAK256 PUSH1 0x6 DUP2 ADD SLOAD PUSH3 0x1C0E PUSH1 0x5 PUSH1 0x40 MLOAD SWAP4 PUSH3 0x1BE8 DUP6 PUSH3 0x25D1 JUMP JUMPDEST PUSH1 0x1 PUSH1 0x1 PUSH1 0xA0 SHL SUB DUP7 AND DUP6 MSTORE PUSH3 0x1C02 PUSH1 0x4 DUP3 ADD PUSH3 0x262C JUMP JUMPDEST PUSH1 0x20 DUP7 ADD MSTORE ADD PUSH3 0x262C JUMP JUMPDEST PUSH1 0x40 DUP4 ADD MSTORE PUSH1 0x60 DUP3 ADD MSTORE DUP6 PUSH1 0x80 DUP3 ADD MSTORE DUP6 PUSH1 0xA0 DUP3 ADD MSTORE DUP6 PUSH1 0xC0 DUP3 ADD MSTORE DUP6 PUSH1 0xE0 DUP3 ADD MSTORE DUP6 PUSH2 0x100 DUP3 ADD MSTORE DUP6 PUSH2 0x120 DUP3 ADD MSTORE DUP6 PUSH2 0x140 DUP3 ADD MSTORE TIMESTAMP PUSH2 0x160 DUP3 ADD MSTORE PUSH1 0x3 DUP5 ADD PUSH1 0x1 DUP1 PUSH1 0xA0 SHL SUB DUP3 MLOAD AND PUSH1 0x1 PUSH1 0x1 PUSH1 0x60 SHL SUB PUSH1 0xA0 SHL DUP3 SLOAD AND OR SWAP1 SSTORE PUSH1 0x20 DUP2 ADD MLOAD DUP1 MLOAD SWAP1 PUSH1 0x1 PUSH1 0x1 PUSH1 0x40 SHL SUB DUP3 GT PUSH3 0x22B9 JUMPI PUSH3 0x1C91 PUSH1 0x4 DUP8 ADD SLOAD PUSH3 0x2594 JUMP JUMPDEST PUSH1 0x1F DUP2 GT PUSH3 0x2341 JUMPI JUMPDEST POP PUSH1 0x20 SWAP1 PUSH1 0x1F DUP4 GT PUSH1 0x1 EQ PUSH3 0x22CD JUMPI PUSH3 0x1CCF SWAP3 SWAP2 DUP10 SWAP2 DUP4 PUSH3 0x21F4 JUMPI JUMPDEST POP POP DUP2 PUSH1 0x1 SHL SWAP2 PUSH1 0x0 NOT SWAP1 PUSH1 0x3 SHL SHR NOT AND OR SWAP1 JUMP JUMPDEST PUSH1 0x4 DUP6 ADD SSTORE JUMPDEST PUSH1 0x40 DUP2 ADD MLOAD DUP1 MLOAD SWAP1 PUSH1 0x1 PUSH1 0x1 PUSH1 0x40 SHL SUB DUP3 GT PUSH3 0x22B9 JUMPI PUSH3 0x1CFB PUSH1 0x5 DUP8 ADD SLOAD PUSH3 0x2594 JUMP JUMPDEST PUSH1 0x1F DUP2 GT PUSH3 0x2276 JUMPI JUMPDEST POP PUSH1 0x20 SWAP1 PUSH1 0x1F DUP4 GT PUSH1 0x1 EQ PUSH3 0x2200 JUMPI SWAP2 DUP1 PUSH3 0x1D3D SWAP3 PUSH2 0x160 SWAP6 SWAP5 DUP12 SWAP3 PUSH3 0x21F4 JUMPI POP POP DUP2 PUSH1 0x1 SHL SWAP2 PUSH1 0x0 NOT SWAP1 PUSH1 0x3 SHL SHR NOT AND OR SWAP1 JUMP JUMPDEST PUSH1 0x5 DUP7 ADD SSTORE JUMPDEST PUSH1 0x60 DUP2 ADD MLOAD PUSH1 0x6 DUP7 ADD SSTORE PUSH1 0x80 DUP2 ADD MLOAD PUSH1 0x7 DUP7 ADD SSTORE PUSH1 0xA0 DUP2 ADD MLOAD PUSH1 0x8 DUP7 ADD SSTORE PUSH1 0xC0 DUP2 ADD MLOAD PUSH1 0x9 DUP7 ADD SSTORE PUSH1 0xE0 DUP2 ADD MLOAD PUSH1 0xA DUP7 ADD SSTORE PUSH2 0x100 DUP2 ADD MLOAD PUSH1 0xB DUP7 ADD SSTORE PUSH2 0x120 DUP2 ADD MLOAD PUSH1 0xC DUP7 ADD SSTORE PUSH2 0x140 DUP2 ADD MLOAD PUSH1 0xD DUP7 ADD SSTORE ADD MLOAD PUSH1 0xE DUP5 ADD SSTORE PUSH3 0x1DB3 PUSH1 0x1 PUSH1 0x1 PUSH1 0xA0 SHL SUB DUP3 AND ISZERO ISZERO PUSH3 0x2BAF JUMP JUMPDEST PUSH1 0x1 PUSH1 0x1 PUSH1 0xA0 SHL SUB DUP2 AND DUP6 MSTORE PUSH1 0x9 PUSH1 0x20 MSTORE PUSH1 0x40 DUP6 KECCAK256 PUSH1 0x15 ADD SLOAD PUSH1 0xFF DUP2 AND SWAP1 DUP2 PUSH3 0x21E4 JUMPI JUMPDEST POP ISZERO PUSH3 0x219F JUMPI PUSH1 0x6 SLOAD PUSH1 0x40 MLOAD PUSH4 0x70A08231 PUSH1 0xE0 SHL DUP1 DUP3 MSTORE ADDRESS PUSH1 0x4 DUP4 ADD MSTORE SWAP4 SWAP2 PUSH1 0x1 PUSH1 0x1 PUSH1 0xA0 SHL SUB SWAP1 DUP2 AND SWAP1 PUSH1 0x20 SWAP1 DUP4 SWAP1 PUSH1 0x24 SWAP1 DUP3 SWAP1 DUP9 AND GAS STATICCALL SWAP1 DUP2 ISZERO PUSH3 0x8C6 JUMPI DUP5 SWAP1 DUP10 SWAP3 PUSH3 0x2160 JUMPI JUMPDEST PUSH3 0x1E30 SWAP4 POP PUSH3 0x3707 JUMP JUMPDEST ISZERO PUSH3 0x212B JUMPI PUSH1 0x6 SLOAD PUSH1 0x40 MLOAD PUSH4 0xC45A0155 PUSH1 0xE0 SHL DUP2 MSTORE DUP8 SWAP5 SWAP2 PUSH1 0x1 PUSH1 0x1 PUSH1 0xA0 SHL SUB AND PUSH1 0x20 DUP3 PUSH1 0x4 DUP2 DUP5 GAS STATICCALL SWAP2 DUP3 ISZERO PUSH3 0xAD6 JUMPI DUP7 SWAP3 PUSH3 0x2101 JUMPI JUMPDEST POP PUSH1 0x20 PUSH1 0x4 SWAP2 PUSH1 0x40 MLOAD SWAP3 DUP4 DUP1 SWAP3 PUSH4 0x15AB88C9 PUSH1 0xE3 SHL DUP3 MSTORE GAS STATICCALL SWAP1 DUP2 ISZERO PUSH3 0xAD6 JUMPI DUP7 SWAP3 PUSH1 0x20 SWAP3 PUSH3 0x1ED3 SWAP3 DUP6 SWAP2 PUSH3 0x20DF JUMPI JUMPDEST POP PUSH1 0x40 MLOAD PUSH4 0x64E329CB PUSH1 0xE1 SHL DUP2 MSTORE PUSH1 0x1 PUSH1 0x1 PUSH1 0xA0 SHL SUB DUP1 DUP11 AND PUSH1 0x4 DUP4 ADD MSTORE SWAP1 SWAP2 AND PUSH1 0x24 DUP3 ADD MSTORE SWAP4 DUP5 SWAP3 DUP4 SWAP2 SWAP1 DUP3 SWAP1 PUSH1 0x44 DUP3 ADD SWAP1 JUMP JUMPDEST SUB SWAP3 PUSH1 0x1 PUSH1 0x1 PUSH1 0xA0 SHL SUB AND GAS CALL SWAP1 DUP2 ISZERO PUSH3 0x14EF JUMPI DUP6 SWAP2 PUSH3 0x20BB JUMPI JUMPDEST POP PUSH1 0x6 SLOAD PUSH1 0x40 MLOAD SWAP3 DUP4 MSTORE ADDRESS PUSH1 0x4 DUP5 ADD MSTORE SELFBALANCE SWAP3 PUSH1 0x1 PUSH1 0x1 PUSH1 0xA0 SHL SUB SWAP2 DUP3 AND SWAP2 PUSH1 0x20 SWAP1 DUP3 SWAP1 PUSH1 0x24 SWAP1 DUP3 SWAP1 DUP11 AND GAS STATICCALL SWAP1 DUP2 ISZERO PUSH3 0x20B0 JUMPI DUP8 SWAP2 PUSH3 0x2072 JUMPI JUMPDEST POP SWAP1 PUSH1 0xC4 PUSH1 0x60 SWAP3 PUSH1 0x40 MLOAD SWAP6 DUP7 SWAP4 DUP5 SWAP3 PUSH4 0xF305D719 PUSH1 0xE0 SHL DUP5 MSTORE PUSH1 0x1 DUP1 PUSH1 0xA0 SHL SUB DUP12 AND PUSH1 0x4 DUP6 ADD MSTORE PUSH1 0x24 DUP5 ADD MSTORE DUP11 PUSH1 0x44 DUP5 ADD MSTORE DUP11 PUSH1 0x64 DUP5 ADD MSTORE ADDRESS PUSH1 0x84 DUP5 ADD MSTORE TIMESTAMP PUSH1 0xA4 DUP5 ADD MSTORE GAS CALL SWAP2 DUP3 ISZERO PUSH3 0x14EF JUMPI PUSH1 0x20 SWAP3 PUSH3 0x204E JUMPI JUMPDEST POP PUSH1 0x6 SLOAD PUSH1 0x40 MLOAD PUSH4 0x95EA7B3 PUSH1 0xE0 SHL DUP2 MSTORE PUSH1 0x1 PUSH1 0x1 PUSH1 0xA0 SHL SUB SWAP2 DUP3 AND PUSH1 0x4 DUP3 ADD MSTORE PUSH1 0x0 NOT PUSH1 0x24 DUP3 ADD MSTORE SWAP6 DUP7 SWAP3 PUSH1 0x44 SWAP3 DUP5 SWAP3 SWAP2 AND GAS CALL DUP1 ISZERO PUSH3 0xAD6 JUMPI PUSH32 0x540BCEC33387745B2CED30977DCFE4A623A245511EB0A133989C27C8BB95B4A9 SWAP5 PUSH1 0x40 SWAP5 PUSH1 0x15 SWAP3 PUSH3 0x2018 JUMPI JUMPDEST POP ADD DUP1 SLOAD PUSH2 0xFFFF NOT AND PUSH2 0x100 OR SWAP1 SSTORE DUP3 MLOAD SWAP5 DUP6 MSTORE PUSH1 0x20 DUP6 ADD MSTORE PUSH1 0x1 PUSH1 0x1 PUSH1 0xA0 SHL SUB AND SWAP3 LOG2 PUSH1 0x1 DUP2 SSTORE DUP1 RETURN JUMPDEST PUSH3 0x203E SWAP1 PUSH1 0x20 RETURNDATASIZE PUSH1 0x20 GT PUSH3 0x2046 JUMPI JUMPDEST PUSH3 0x2035 DUP2 DUP4 PUSH3 0x260A JUMP JUMPDEST DUP2 ADD SWAP1 PUSH3 0x36ED JUMP JUMPDEST POP CODESIZE PUSH3 0x1FED JUMP JUMPDEST POP RETURNDATASIZE PUSH3 0x2029 JUMP JUMPDEST PUSH3 0x206A SWAP1 PUSH1 0x60 RETURNDATASIZE PUSH1 0x60 GT PUSH3 0x153A JUMPI PUSH3 0x1522 DUP2 DUP4 PUSH3 0x260A JUMP JUMPDEST POP POP PUSH3 0x1F83 JUMP JUMPDEST SWAP2 SWAP7 POP POP PUSH1 0x20 DUP2 RETURNDATASIZE PUSH1 0x20 GT PUSH3 0x20A7 JUMPI JUMPDEST DUP2 PUSH3 0x2092 PUSH1 0x20 SWAP4 DUP4 PUSH3 0x260A JUMP JUMPDEST DUP2 ADD SUB SLT PUSH3 0x8B8 JUMPI MLOAD DUP9 SWAP6 SWAP1 PUSH1 0xC4 PUSH3 0x1F2C JUMP JUMPDEST RETURNDATASIZE SWAP2 POP PUSH3 0x2083 JUMP JUMPDEST PUSH1 0x40 MLOAD RETURNDATASIZE DUP10 DUP3 RETURNDATACOPY RETURNDATASIZE SWAP1 REVERT JUMPDEST PUSH3 0x20D8 SWAP2 POP PUSH1 0x20 RETURNDATASIZE PUSH1 0x20 GT PUSH3 0xAAC JUMPI PUSH3 0xA9B DUP2 DUP4 PUSH3 0x260A JUMP JUMPDEST CODESIZE PUSH3 0x1EF0 JUMP JUMPDEST PUSH3 0x20FA SWAP2 POP DUP5 RETURNDATASIZE DUP7 GT PUSH3 0xAAC JUMPI PUSH3 0xA9B DUP2 DUP4 PUSH3 0x260A JUMP JUMPDEST CODESIZE PUSH3 0x1E9E JUMP JUMPDEST PUSH1 0x4 SWAP2 SWAP3 POP PUSH3 0x2122 PUSH1 0x20 SWAP2 DUP3 RETURNDATASIZE DUP5 GT PUSH3 0xAAC JUMPI PUSH3 0xA9B DUP2 DUP4 PUSH3 0x260A JUMP JUMPDEST SWAP3 SWAP2 POP PUSH3 0x1E6B JUMP JUMPDEST PUSH1 0x40 MLOAD PUSH3 0x461BCD PUSH1 0xE5 SHL DUP2 MSTORE PUSH1 0x20 PUSH1 0x4 DUP3 ADD MSTORE PUSH1 0xD PUSH1 0x24 DUP3 ADD MSTORE PUSH13 0x2737BA1030B8383937BB32B217 PUSH1 0x99 SHL PUSH1 0x44 DUP3 ADD MSTORE PUSH1 0x64 SWAP1 REVERT JUMPDEST SWAP2 POP POP PUSH1 0x20 DUP3 RETURNDATASIZE PUSH1 0x20 GT PUSH3 0x2196 JUMPI JUMPDEST DUP2 PUSH3 0x217F PUSH1 0x20 SWAP4 DUP4 PUSH3 0x260A JUMP JUMPDEST DUP2 ADD SUB SLT PUSH3 0x8B8 JUMPI DUP4 PUSH3 0x1E30 SWAP3 MLOAD SWAP2 PUSH3 0x1E24 JUMP JUMPDEST RETURNDATASIZE SWAP2 POP PUSH3 0x2170 JUMP JUMPDEST PUSH1 0x40 MLOAD PUSH3 0x461BCD PUSH1 0xE5 SHL DUP2 MSTORE PUSH1 0x20 PUSH1 0x4 DUP3 ADD MSTORE PUSH1 0x17 PUSH1 0x24 DUP3 ADD MSTORE PUSH32 0x74726164696E6720697320616C7265616479206F70656E000000000000000000 PUSH1 0x44 DUP3 ADD MSTORE PUSH1 0x64 SWAP1 REVERT JUMPDEST PUSH1 0xFF SWAP2 POP PUSH1 0x8 SHR AND ISZERO CODESIZE PUSH3 0x1DD8 JUMP JUMPDEST ADD MLOAD SWAP1 POP CODESIZE DUP1 PUSH3 0x1CBA JUMP JUMPDEST SWAP1 PUSH1 0x5 DUP8 ADD DUP10 MSTORE PUSH1 0x20 DUP10 KECCAK256 SWAP2 DUP10 JUMPDEST PUSH1 0x1F NOT DUP6 AND DUP2 LT PUSH3 0x225D JUMPI POP SWAP2 DUP4 SWAP2 PUSH1 0x1 SWAP4 PUSH2 0x160 SWAP7 SWAP6 PUSH1 0x1F NOT DUP2 AND LT PUSH3 0x2243 JUMPI JUMPDEST POP POP POP DUP2 SHL ADD PUSH1 0x5 DUP7 ADD SSTORE PUSH3 0x1D43 JUMP JUMPDEST ADD MLOAD PUSH1 0x0 NOT PUSH1 0xF8 DUP5 PUSH1 0x3 SHL AND SHR NOT AND SWAP1 SSTORE CODESIZE DUP1 DUP1 PUSH3 0x2232 JUMP JUMPDEST SWAP2 SWAP3 PUSH1 0x20 PUSH1 0x1 DUP2 SWAP3 DUP7 DUP6 ADD MLOAD DUP2 SSTORE ADD SWAP5 ADD SWAP3 ADD PUSH3 0x220E JUMP JUMPDEST PUSH3 0x22A7 SWAP1 PUSH1 0x5 DUP9 ADD DUP11 MSTORE PUSH1 0x20 DUP11 KECCAK256 PUSH1 0x1F DUP6 ADD PUSH1 0x5 SHR DUP2 ADD SWAP2 PUSH1 0x20 DUP7 LT PUSH3 0x22AE JUMPI JUMPDEST PUSH1 0x1F ADD PUSH1 0x5 SHR ADD SWAP1 PUSH3 0x2C34 JUMP JUMPDEST CODESIZE PUSH3 0x1D05 JUMP JUMPDEST SWAP1 SWAP2 POP DUP2 SWAP1 PUSH3 0x2299 JUMP JUMPDEST PUSH4 0x4E487B71 PUSH1 0xE0 SHL DUP9 MSTORE PUSH1 0x41 PUSH1 0x4 MSTORE PUSH1 0x24 DUP9 REVERT JUMPDEST SWAP2 SWAP1 PUSH1 0x4 DUP8 ADD DUP10 MSTORE PUSH1 0x20 DUP10 KECCAK256 SWAP1 DUP10 SWAP4 JUMPDEST PUSH1 0x1F NOT DUP5 AND DUP6 LT PUSH3 0x2325 JUMPI PUSH1 0x1 SWAP5 POP DUP4 PUSH1 0x1F NOT DUP2 AND LT PUSH3 0x230B JUMPI JUMPDEST POP POP POP DUP2 SHL ADD PUSH1 0x4 DUP6 ADD SSTORE PUSH3 0x1CD5 JUMP JUMPDEST ADD MLOAD PUSH1 0x0 NOT PUSH1 0xF8 DUP5 PUSH1 0x3 SHL AND SHR NOT AND SWAP1 SSTORE CODESIZE DUP1 DUP1 PUSH3 0x22FA JUMP JUMPDEST DUP2 DUP2 ADD MLOAD DUP4 SSTORE PUSH1 0x20 SWAP5 DUP6 ADD SWAP5 PUSH1 0x1 SWAP1 SWAP4 ADD SWAP3 SWAP1 SWAP2 ADD SWAP1 PUSH3 0x22DD JUMP JUMPDEST PUSH3 0x2371 SWAP1 PUSH1 0x4 DUP9 ADD DUP11 MSTORE PUSH1 0x20 DUP11 KECCAK256 PUSH1 0x1F DUP6 ADD PUSH1 0x5 SHR DUP2 ADD SWAP2 PUSH1 0x20 DUP7 LT PUSH3 0x22AE JUMPI PUSH1 0x1F ADD PUSH1 0x5 SHR ADD SWAP1 PUSH3 0x2C34 JUMP JUMPDEST CODESIZE PUSH3 0x1C9B JUMP JUMPDEST SWAP1 SWAP4 POP PUSH3 0x2398 SWAP2 POP PUSH1 0x40 RETURNDATASIZE PUSH1 0x40 GT PUSH3 0x9F9 JUMPI PUSH3 0x9E9 DUP2 DUP4 PUSH3 0x260A JUMP JUMPDEST SWAP1 SWAP3 CODESIZE PUSH3 0x1BB9 JUMP JUMPDEST PUSH1 0x40 MLOAD RETURNDATASIZE DUP7 DUP3 RETURNDATACOPY RETURNDATASIZE SWAP1 REVERT JUMPDEST PUSH1 0x1 PUSH1 0x1 PUSH1 0x40 SHL SUB DUP2 GT PUSH3 0x23C5 JUMPI PUSH1 0x40 MSTORE CODESIZE PUSH3 0x1B58 JUMP JUMPDEST PUSH4 0x4E487B71 PUSH1 0xE0 SHL DUP3 MSTORE PUSH1 0x41 PUSH1 0x4 MSTORE PUSH1 0x24 DUP3 REVERT JUMPDEST PUSH1 0x40 MLOAD RETURNDATASIZE DUP5 DUP3 RETURNDATACOPY RETURNDATASIZE SWAP1 REVERT JUMPDEST PUSH3 0x2401 SWAP2 POP PUSH1 0x20 RETURNDATASIZE PUSH1 0x20 GT PUSH3 0xAAC JUMPI PUSH3 0xA9B DUP2 DUP4 PUSH3 0x260A JUMP JUMPDEST CODESIZE PUSH3 0x1B0C JUMP JUMPDEST PUSH3 0x2423 SWAP2 POP DUP3 RETURNDATASIZE DUP5 GT PUSH3 0xAAC JUMPI PUSH3 0xA9B DUP2 DUP4 PUSH3 0x260A JUMP JUMPDEST CODESIZE PUSH3 0x1ABD JUMP JUMPDEST POP CALLVALUE PUSH3 0x169 JUMPI DUP1 PUSH1 0x3 NOT CALLDATASIZE ADD SLT PUSH3 0x169 JUMPI PUSH1 0x1 SLOAD DUP2 SWAP1 DUP2 SWAP1 DUP2 SWAP1 SELFBALANCE SWAP1 PUSH1 0x1 PUSH1 0x1 PUSH1 0xA0 SHL SUB AND GAS CALL PUSH3 0x245D PUSH3 0x2B1E JUMP JUMPDEST POP ISZERO PUSH3 0x246F JUMPI PUSH1 0x20 PUSH1 0x40 MLOAD PUSH1 0x1 DUP2 MSTORE RETURN JUMPDEST PUSH1 0x40 MLOAD PUSH3 0x461BCD PUSH1 0xE5 SHL DUP2 MSTORE PUSH1 0x20 PUSH1 0x4 DUP3 ADD MSTORE PUSH1 0x14 PUSH1 0x24 DUP3 ADD MSTORE PUSH20 0x2A3930B739B332B91022AA24102330B4B632B217 PUSH1 0x61 SHL PUSH1 0x44 DUP3 ADD MSTORE PUSH1 0x64 SWAP1 REVERT JUMPDEST POP CALLVALUE PUSH3 0x169 JUMPI DUP1 PUSH1 0x3 NOT CALLDATASIZE ADD SLT PUSH3 0x169 JUMPI PUSH1 0x1 SLOAD PUSH1 0x40 MLOAD PUSH1 0x1 PUSH1 0x1 PUSH1 0xA0 SHL SUB SWAP1 SWAP2 AND DUP2 MSTORE PUSH1 0x20 SWAP1 RETURN JUMPDEST SWAP1 POP CALLVALUE PUSH3 0x1A25 JUMPI DUP2 PUSH1 0x3 NOT CALLDATASIZE ADD SLT PUSH3 0x1A25 JUMPI PUSH1 0x4 SLOAD PUSH1 0x1 PUSH1 0x1 PUSH1 0xA0 SHL SUB AND DUP2 MSTORE PUSH1 0x20 SWAP1 RETURN JUMPDEST PUSH1 0x4 CALLDATALOAD SWAP1 PUSH1 0x1 PUSH1 0x1 PUSH1 0xA0 SHL SUB DUP3 AND DUP3 SUB PUSH3 0x8B8 JUMPI JUMP JUMPDEST PUSH1 0x24 CALLDATALOAD SWAP1 PUSH1 0x1 PUSH1 0x1 PUSH1 0xA0 SHL SUB DUP3 AND DUP3 SUB PUSH3 0x8B8 JUMPI JUMP JUMPDEST PUSH1 0x44 CALLDATALOAD SWAP1 PUSH1 0x1 PUSH1 0x1 PUSH1 0xA0 SHL SUB DUP3 AND DUP3 SUB PUSH3 0x8B8 JUMPI JUMP JUMPDEST PUSH1 0xA SLOAD DUP2 LT ISZERO PUSH3 0x257E JUMPI PUSH1 0x16 SWAP1 PUSH1 0xA PUSH1 0x0 MSTORE MUL PUSH32 0xC65A7BB8D6351C1CF70C95A316CC6A92839C986682D98BC35F958F4883F9D2A8 ADD SWAP1 PUSH1 0x0 SWAP1 JUMP JUMPDEST PUSH4 0x4E487B71 PUSH1 0xE0 SHL PUSH1 0x0 MSTORE PUSH1 0x32 PUSH1 0x4 MSTORE PUSH1 0x24 PUSH1 0x0 REVERT JUMPDEST SWAP1 PUSH1 0x1 DUP3 DUP2 SHR SWAP3 AND DUP1 ISZERO PUSH3 0x25C6 JUMPI JUMPDEST PUSH1 0x20 DUP4 LT EQ PUSH3 0x25B0 JUMPI JUMP JUMPDEST PUSH4 0x4E487B71 PUSH1 0xE0 SHL PUSH1 0x0 MSTORE PUSH1 0x22 PUSH1 0x4 MSTORE PUSH1 0x24 PUSH1 0x0 REVERT JUMPDEST SWAP2 PUSH1 0x7F AND SWAP2 PUSH3 0x25A4 JUMP JUMPDEST PUSH2 0x180 DUP2 ADD SWAP1 DUP2 LT PUSH1 0x1 PUSH1 0x1 PUSH1 0x40 SHL SUB DUP3 GT OR PUSH3 0x861 JUMPI PUSH1 0x40 MSTORE JUMP JUMPDEST PUSH1 0x40 DUP2 ADD SWAP1 DUP2 LT PUSH1 0x1 PUSH1 0x1 PUSH1 0x40 SHL SUB DUP3 GT OR PUSH3 0x861 JUMPI PUSH1 0x40 MSTORE JUMP JUMPDEST SWAP1 PUSH1 0x1F DUP1 NOT SWAP2 ADD AND DUP2 ADD SWAP1 DUP2 LT PUSH1 0x1 PUSH1 0x1 PUSH1 0x40 SHL SUB DUP3 GT OR PUSH3 0x861 JUMPI PUSH1 0x40 MSTORE JUMP JUMPDEST SWAP1 PUSH1 0x40 MLOAD SWAP2 DUP3 PUSH1 0x0 DUP3 SLOAD PUSH3 0x2641 DUP2 PUSH3 0x2594 JUMP JUMPDEST SWAP1 DUP2 DUP5 MSTORE PUSH1 0x20 SWAP5 PUSH1 0x1 SWAP2 PUSH1 0x1 DUP2 AND SWAP1 DUP2 PUSH1 0x0 EQ PUSH3 0x26B9 JUMPI POP PUSH1 0x1 EQ PUSH3 0x2676 JUMPI JUMPDEST POP POP POP PUSH3 0x2674 SWAP3 POP SUB DUP4 PUSH3 0x260A JUMP JUMPDEST JUMP JUMPDEST PUSH1 0x0 SWAP1 DUP2 MSTORE DUP6 DUP2 KECCAK256 SWAP6 SWAP4 POP SWAP2 SWAP1 JUMPDEST DUP2 DUP4 LT PUSH3 0x26A0 JUMPI POP POP PUSH3 0x2674 SWAP4 POP DUP3 ADD ADD CODESIZE DUP1 DUP1 PUSH3 0x2663 JUMP JUMPDEST DUP6 SLOAD DUP9 DUP5 ADD DUP6 ADD MSTORE SWAP5 DUP6 ADD SWAP5 DUP8 SWAP5 POP SWAP2 DUP4 ADD SWAP2 PUSH3 0x2684 JUMP JUMPDEST SWAP3 POP POP POP PUSH3 0x2674 SWAP5 SWAP3 POP PUSH1 0xFF NOT AND DUP3 DUP5 ADD MSTORE ISZERO ISZERO PUSH1 0x5 SHL DUP3 ADD ADD CODESIZE DUP1 DUP1 PUSH3 0x2663 JUMP JUMPDEST SWAP1 PUSH1 0x40 MLOAD PUSH3 0x26EC DUP2 PUSH3 0x25D1 JUMP JUMPDEST DUP3 SLOAD PUSH1 0x1 PUSH1 0x1 PUSH1 0xA0 SHL SUB AND DUP2 MSTORE SWAP2 DUP3 SWAP1 PUSH2 0x160 SWAP1 PUSH1 0xB SWAP1 PUSH3 0x2711 PUSH1 0x1 DUP3 ADD PUSH3 0x262C JUMP JUMPDEST PUSH1 0x20 DUP6 ADD MSTORE PUSH3 0x2724 PUSH1 0x2 DUP3 ADD PUSH3 0x262C JUMP JUMPDEST PUSH1 0x40 DUP6 ADD MSTORE PUSH1 0x3 DUP2 ADD SLOAD PUSH1 0x60 DUP6 ADD MSTORE PUSH1 0x4 DUP2 ADD SLOAD PUSH1 0x80 DUP6 ADD MSTORE PUSH1 0x5 DUP2 ADD SLOAD PUSH1 0xA0 DUP6 ADD MSTORE PUSH1 0x6 DUP2 ADD SLOAD PUSH1 0xC0 DUP6 ADD MSTORE PUSH1 0x7 DUP2 ADD SLOAD PUSH1 0xE0 DUP6 ADD MSTORE PUSH1 0x8 DUP2 ADD SLOAD PUSH2 0x100 DUP6 ADD MSTORE PUSH1 0x9 DUP2 ADD SLOAD PUSH2 0x120 DUP6 ADD MSTORE PUSH1 0xA DUP2 ADD SLOAD PUSH2 0x140 DUP6 ADD MSTORE ADD SLOAD SWAP2 ADD MSTORE JUMP JUMPDEST SWAP2 SWAP1 DUP3 MLOAD SWAP3 DUP4 DUP3 MSTORE PUSH1 0x0 JUMPDEST DUP5 DUP2 LT PUSH3 0x27B0 JUMPI POP POP DUP3 PUSH1 0x0 PUSH1 0x20 DUP1 SWAP5 SWAP6 DUP5 ADD ADD MSTORE PUSH1 0x1F DUP1 NOT SWAP2 ADD AND ADD ADD SWAP1 JUMP JUMPDEST PUSH1 0x20 DUP2 DUP4 ADD DUP2 ADD MLOAD DUP5 DUP4 ADD DUP3 ADD MSTORE ADD PUSH3 0x278E JUMP JUMPDEST SWAP1 PUSH3 0x2805 PUSH3 0x27F2 PUSH2 0x180 PUSH1 0x1 DUP1 PUSH1 0xA0 SHL SUB DUP6 MLOAD AND DUP5 MSTORE PUSH1 0x20 DUP6 ADD MLOAD SWAP1 DUP1 PUSH1 0x20 DUP7 ADD MSTORE DUP5 ADD SWAP1 PUSH3 0x2783 JUMP JUMPDEST PUSH1 0x40 DUP5 ADD MLOAD DUP4 DUP3 SUB PUSH1 0x40 DUP6 ADD MSTORE PUSH3 0x2783 JUMP JUMPDEST SWAP2 PUSH1 0x60 DUP2 ADD MLOAD PUSH1 0x60 DUP4 ADD MSTORE PUSH1 0x80 DUP2 ADD MLOAD PUSH1 0x80 DUP4 ADD MSTORE PUSH1 0xA0 DUP2 ADD MLOAD PUSH1 0xA0 DUP4 ADD MSTORE PUSH1 0xC0 DUP2 ADD MLOAD PUSH1 0xC0 DUP4 ADD MSTORE PUSH1 0xE0 DUP2 ADD MLOAD PUSH1 0xE0 DUP4 ADD MSTORE PUSH2 0x100 DUP1 DUP3 ADD MLOAD SWAP1 DUP4 ADD MSTORE PUSH2 0x120 DUP1 DUP3 ADD MLOAD SWAP1 DUP4 ADD MSTORE PUSH2 0x140 DUP1 DUP3 ADD MLOAD SWAP1 DUP4 ADD MSTORE PUSH2 0x160 DUP1 SWAP2 ADD MLOAD SWAP2 ADD MSTORE SWAP1 JUMP JUMPDEST SWAP11 SWAP13 SWAP12 SWAP9 SWAP5 PUSH3 0x290F SWAP7 PUSH3 0x28D2 DUP14 PUSH3 0x28E1 SWAP4 PUSH3 0x28C3 PUSH2 0x160 SWAP16 SWAP13 SWAP7 SWAP10 PUSH3 0x28FF SWAP11 PUSH3 0x291F SWAP16 SWAP11 SWAP10 PUSH3 0x28F0 SWAP11 PUSH2 0x180 SWAP3 PUSH1 0x1 DUP1 PUSH1 0xA0 SHL SUB SWAP3 DUP4 DUP1 SWAP3 AND DUP10 MSTORE AND PUSH1 0x20 DUP9 ADD MSTORE AND PUSH1 0x40 DUP7 ADD MSTORE DUP1 PUSH1 0x60 DUP7 ADD MSTORE DUP5 ADD SWAP1 PUSH3 0x27C5 JUMP JUMPDEST SWAP2 PUSH1 0x80 DUP2 DUP5 SUB SWAP2 ADD MSTORE PUSH3 0x2783 JUMP JUMPDEST DUP14 DUP2 SUB PUSH1 0xA0 DUP16 ADD MSTORE SWAP1 PUSH3 0x2783 JUMP JUMPDEST SWAP1 DUP12 DUP3 SUB PUSH1 0xC0 DUP14 ADD MSTORE PUSH3 0x2783 JUMP JUMPDEST SWAP1 DUP10 DUP3 SUB PUSH1 0xE0 DUP12 ADD MSTORE PUSH3 0x2783 JUMP JUMPDEST SWAP1 DUP8 DUP3 SUB PUSH2 0x100 DUP10 ADD MSTORE PUSH3 0x2783 JUMP JUMPDEST SWAP1 DUP6 DUP3 SUB PUSH2 0x120 DUP8 ADD MSTORE PUSH3 0x2783 JUMP JUMPDEST SWAP5 ISZERO ISZERO PUSH2 0x140 DUP5 ADD MSTORE ISZERO ISZERO SWAP2 ADD MSTORE JUMP JUMPDEST PUSH1 0x20 DUP1 DUP3 ADD SWAP1 DUP1 DUP4 MSTORE DUP4 MLOAD DUP1 SWAP3 MSTORE PUSH1 0x40 SWAP3 PUSH1 0x40 DUP2 ADD DUP3 PUSH1 0x40 DUP6 PUSH1 0x5 SHL DUP5 ADD ADD SWAP7 ADD SWAP5 PUSH1 0x0 SWAP3 JUMPDEST DUP6 DUP5 LT PUSH3 0x2967 JUMPI POP POP POP POP POP POP POP SWAP1 JUMP JUMPDEST SWAP1 SWAP2 SWAP3 SWAP4 SWAP5 SWAP6 SWAP7 DUP6 DUP1 PUSH1 0x1 SWAP3 PUSH1 0x3F NOT DUP6 DUP3 SUB ADD DUP8 MSTORE DUP11 MLOAD SWAP1 PUSH3 0x2A4E PUSH3 0x2A39 PUSH3 0x2A24 PUSH3 0x2A10 PUSH3 0x29FC PUSH3 0x29E8 PUSH3 0x29D4 DUP14 PUSH2 0x180 SWAP1 DUP14 DUP1 PUSH1 0xA0 SHL SUB DUP1 DUP13 MLOAD AND DUP12 MSTORE DUP1 DUP14 DUP14 ADD MLOAD AND DUP14 DUP13 ADD MSTORE DUP2 DUP13 ADD MLOAD AND SWAP1 DUP11 ADD MSTORE PUSH1 0x60 SWAP1 DUP1 DUP3 DUP13 ADD MLOAD SWAP3 DUP12 ADD MSTORE DUP10 ADD SWAP1 PUSH3 0x27C5 JUMP JUMPDEST PUSH1 0x80 DUP1 DUP11 ADD MLOAD SWAP1 DUP10 DUP4 SUB SWAP1 DUP11 ADD MSTORE PUSH3 0x2783 JUMP JUMPDEST PUSH1 0xA0 DUP1 DUP10 ADD MLOAD SWAP1 DUP9 DUP4 SUB SWAP1 DUP10 ADD MSTORE PUSH3 0x2783 JUMP JUMPDEST PUSH1 0xC0 DUP1 DUP9 ADD MLOAD SWAP1 DUP8 DUP4 SUB SWAP1 DUP9 ADD MSTORE PUSH3 0x2783 JUMP JUMPDEST PUSH1 0xE0 DUP1 DUP8 ADD MLOAD SWAP1 DUP7 DUP4 SUB SWAP1 DUP8 ADD MSTORE PUSH3 0x2783 JUMP JUMPDEST PUSH2 0x100 DUP1 DUP7 ADD MLOAD SWAP1 DUP6 DUP4 SUB SWAP1 DUP7 ADD MSTORE PUSH3 0x2783 JUMP JUMPDEST PUSH2 0x120 DUP1 DUP6 ADD MLOAD SWAP1 DUP5 DUP4 SUB SWAP1 DUP6 ADD MSTORE PUSH3 0x2783 JUMP JUMPDEST SWAP2 PUSH2 0x140 DUP1 DUP3 ADD MLOAD ISZERO ISZERO SWAP1 DUP4 ADD MSTORE PUSH2 0x160 DUP1 SWAP2 ADD MLOAD ISZERO ISZERO SWAP2 ADD MSTORE SWAP10 ADD SWAP5 ADD SWAP5 ADD SWAP3 SWAP6 SWAP5 SWAP4 SWAP2 SWAP1 PUSH3 0x2955 JUMP JUMPDEST PUSH1 0x1 PUSH1 0x1 PUSH1 0x40 SHL SUB DUP2 GT PUSH3 0x861 JUMPI PUSH1 0x1F ADD PUSH1 0x1F NOT AND PUSH1 0x20 ADD SWAP1 JUMP JUMPDEST DUP2 PUSH1 0x1F DUP3 ADD SLT ISZERO PUSH3 0x8B8 JUMPI DUP1 CALLDATALOAD SWAP1 PUSH3 0x2AB0 DUP3 PUSH3 0x2A7A JUMP JUMPDEST SWAP3 PUSH3 0x2AC0 PUSH1 0x40 MLOAD SWAP5 DUP6 PUSH3 0x260A JUMP JUMPDEST DUP3 DUP5 MSTORE PUSH1 0x20 DUP4 DUP4 ADD ADD GT PUSH3 0x8B8 JUMPI DUP2 PUSH1 0x0 SWAP3 PUSH1 0x20 DUP1 SWAP4 ADD DUP4 DUP7 ADD CALLDATACOPY DUP4 ADD ADD MSTORE SWAP1 JUMP JUMPDEST PUSH1 0x8 SLOAD DUP2 LT ISZERO PUSH3 0x257E JUMPI PUSH1 0x8 PUSH1 0x0 MSTORE PUSH1 0x1 SHL PUSH32 0xF3F7A9FE364FAAB93B216DA50A3214154F22A0A2B415B23A84C8169E8B636EE3 ADD SWAP1 PUSH1 0x0 SWAP1 JUMP JUMPDEST RETURNDATASIZE ISZERO PUSH3 0x2B4E JUMPI RETURNDATASIZE SWAP1 PUSH3 0x2B32 DUP3 PUSH3 0x2A7A JUMP JUMPDEST SWAP2 PUSH3 0x2B42 PUSH1 0x40 MLOAD SWAP4 DUP5 PUSH3 0x260A JUMP JUMPDEST DUP3 MSTORE RETURNDATASIZE PUSH1 0x0 PUSH1 0x20 DUP5 ADD RETURNDATACOPY JUMP JUMPDEST PUSH1 0x60 SWAP1 JUMP JUMPDEST ISZERO PUSH3 0x2B5B JUMPI JUMP JUMPDEST PUSH1 0x40 MLOAD PUSH3 0x461BCD PUSH1 0xE5 SHL DUP2 MSTORE PUSH1 0x20 PUSH1 0x4 DUP3 ADD MSTORE PUSH1 0x26 PUSH1 0x24 DUP3 ADD MSTORE PUSH32 0x4F6E6C7920746865206F776E65722063616E2063616C6C20746869732066756E PUSH1 0x44 DUP3 ADD MSTORE PUSH6 0x31BA34B7B717 PUSH1 0xD1 SHL PUSH1 0x64 DUP3 ADD MSTORE PUSH1 0x84 SWAP1 REVERT JUMPDEST ISZERO PUSH3 0x2BB7 JUMPI JUMP JUMPDEST PUSH1 0x40 MLOAD PUSH3 0x461BCD PUSH1 0xE5 SHL DUP2 MSTORE PUSH1 0x20 PUSH1 0x4 DUP3 ADD MSTORE PUSH1 0x1F PUSH1 0x24 DUP3 ADD MSTORE PUSH32 0x5A65726F2061646472657373657320617265206E6F7420616C6C6F7765642E00 PUSH1 0x44 DUP3 ADD MSTORE PUSH1 0x64 SWAP1 REVERT JUMPDEST SWAP1 DUP2 PUSH1 0x20 SWAP2 SUB SLT PUSH3 0x8B8 JUMPI MLOAD PUSH1 0x1 PUSH1 0x1 PUSH1 0xA0 SHL SUB DUP2 AND DUP2 SUB PUSH3 0x8B8 JUMPI SWAP1 JUMP JUMPDEST SWAP2 SWAP1 DUP3 PUSH1 0x40 SWAP2 SUB SLT PUSH3 0x8B8 JUMPI PUSH1 0x20 DUP3 MLOAD SWAP3 ADD MLOAD SWAP1 JUMP JUMPDEST DUP2 DUP2 LT PUSH3 0x2C40 JUMPI POP POP JUMP JUMPDEST PUSH1 0x0 DUP2 SSTORE PUSH1 0x1 ADD PUSH3 0x2C34 JUMP JUMPDEST SWAP1 DUP2 PUSH1 0x60 SWAP2 SUB SLT PUSH3 0x8B8 JUMPI DUP1 MLOAD SWAP2 PUSH1 0x40 PUSH1 0x20 DUP4 ADD MLOAD SWAP3 ADD MLOAD SWAP1 JUMP JUMPDEST SWAP2 SWAP1 DUP3 ADD DUP1 SWAP3 GT PUSH3 0x2C77 JUMPI JUMP JUMPDEST PUSH4 0x4E487B71 PUSH1 0xE0 SHL PUSH1 0x0 MSTORE PUSH1 0x11 PUSH1 0x4 MSTORE PUSH1 0x24 PUSH1 0x0 REVERT JUMPDEST SWAP2 SWAP1 DUP3 SUB SWAP2 DUP3 GT PUSH3 0x2C77 JUMPI JUMP JUMPDEST DUP2 DUP2 MUL SWAP3 SWAP2 DUP2 ISZERO SWAP2 DUP5 DIV EQ OR ISZERO PUSH3 0x2C77 JUMPI JUMP JUMPDEST DUP2 ISZERO PUSH3 0x2CBA JUMPI DIV SWAP1 JUMP JUMPDEST PUSH4 0x4E487B71 PUSH1 0xE0 SHL PUSH1 0x0 MSTORE PUSH1 0x12 PUSH1 0x4 MSTORE PUSH1 0x24 PUSH1 0x0 REVERT JUMPDEST SWAP1 PUSH1 0x1 DUP1 PUSH1 0xA0 SHL SUB SWAP1 DUP2 DUP2 MLOAD AND PUSH1 0x1 PUSH1 0x1 PUSH1 0x60 SHL SUB PUSH1 0xA0 SHL SWAP1 DUP2 DUP6 SLOAD AND OR DUP5 SSTORE PUSH1 0x1 DUP5 ADD DUP4 PUSH1 0x20 DUP5 ADD MLOAD AND DUP3 DUP3 SLOAD AND OR SWAP1 SSTORE PUSH1 0x2 DUP5 ADD DUP4 PUSH1 0x40 DUP5 ADD MLOAD AND DUP3 DUP3 SLOAD AND OR SWAP1 SSTORE PUSH1 0x3 DUP5 ADD SWAP1 PUSH1 0x60 DUP4 ADD MLOAD SWAP4 DUP5 MLOAD AND SWAP1 DUP3 SLOAD AND OR SWAP1 SSTORE PUSH1 0x4 SWAP3 DUP4 DUP2 ADD PUSH1 0x20 DUP5 ADD MLOAD DUP1 MLOAD SWAP1 PUSH1 0x1 PUSH1 0x1 PUSH1 0x40 SHL SUB DUP3 GT PUSH3 0x367D JUMPI PUSH3 0x2D52 DUP4 SLOAD PUSH3 0x2594 JUMP JUMPDEST PUSH1 0x1F DUP2 GT PUSH3 0x3647 JUMPI JUMPDEST POP PUSH1 0x20 SWAP1 PUSH1 0x1F DUP4 GT PUSH1 0x1 EQ PUSH3 0x35DA JUMPI PUSH3 0x2D90 SWAP3 SWAP2 PUSH1 0x0 SWAP2 DUP4 PUSH3 0x21F4 JUMPI POP POP DUP2 PUSH1 0x1 SHL SWAP2 PUSH1 0x0 NOT SWAP1 PUSH1 0x3 SHL SHR NOT AND OR SWAP1 JUMP JUMPDEST SWAP1 SSTORE JUMPDEST PUSH1 0x40 DUP4 ADD MLOAD DUP1 MLOAD SWAP1 PUSH1 0x1 PUSH1 0x1 PUSH1 0x40 SHL SUB DUP3 GT PUSH3 0x35C5 JUMPI PUSH3 0x2DB9 PUSH1 0x5 DUP5 ADD SLOAD PUSH3 0x2594 JUMP JUMPDEST PUSH1 0x1F DUP2 GT PUSH3 0x358C JUMPI JUMPDEST POP PUSH1 0x20 SWAP1 PUSH1 0x1F DUP4 GT PUSH1 0x1 EQ PUSH3 0x3515 JUMPI PUSH3 0x2DF7 SWAP3 SWAP2 PUSH1 0x0 SWAP2 DUP4 PUSH3 0x21F4 JUMPI POP POP DUP2 PUSH1 0x1 SHL SWAP2 PUSH1 0x0 NOT SWAP1 PUSH1 0x3 SHL SHR NOT AND OR SWAP1 JUMP JUMPDEST PUSH1 0x5 DUP3 ADD SSTORE JUMPDEST PUSH1 0x60 DUP4 ADD MLOAD PUSH1 0x6 DUP3 ADD SSTORE PUSH1 0x80 DUP4 ADD MLOAD PUSH1 0x7 DUP3 ADD SSTORE PUSH1 0xA0 DUP4 ADD MLOAD PUSH1 0x8 DUP3 ADD SSTORE PUSH1 0xC0 DUP4 ADD MLOAD PUSH1 0x9 DUP3 ADD SSTORE PUSH1 0xE0 DUP4 ADD MLOAD PUSH1 0xA DUP3 ADD SSTORE PUSH2 0x100 SWAP4 DUP5 DUP5 ADD MLOAD PUSH1 0xB DUP4 ADD SSTORE PUSH2 0x120 SWAP1 DUP2 DUP6 ADD MLOAD PUSH1 0xC DUP5 ADD SSTORE PUSH2 0x140 SWAP6 DUP7 DUP7 ADD MLOAD PUSH1 0xD DUP6 ADD SSTORE PUSH2 0x160 DUP1 SWAP7 ADD MLOAD PUSH1 0xE DUP6 ADD SSTORE PUSH1 0xF DUP5 ADD PUSH1 0x80 DUP7 ADD MLOAD DUP1 MLOAD SWAP1 PUSH1 0x1 PUSH1 0x1 PUSH1 0x40 SHL SUB DUP3 GT PUSH3 0x3317 JUMPI PUSH3 0x2E89 DUP4 SLOAD PUSH3 0x2594 JUMP JUMPDEST PUSH1 0x1F DUP2 GT PUSH3 0x34DF JUMPI JUMPDEST POP PUSH1 0x20 SWAP1 PUSH1 0x1F DUP4 GT PUSH1 0x1 EQ PUSH3 0x3472 JUMPI PUSH3 0x2EC7 SWAP3 SWAP2 PUSH1 0x0 SWAP2 DUP4 PUSH3 0x21F4 JUMPI POP POP DUP2 PUSH1 0x1 SHL SWAP2 PUSH1 0x0 NOT SWAP1 PUSH1 0x3 SHL SHR NOT AND OR SWAP1 JUMP JUMPDEST SWAP1 SSTORE JUMPDEST PUSH1 0x10 DUP5 ADD PUSH1 0xA0 DUP7 ADD MLOAD DUP1 MLOAD SWAP1 PUSH1 0x1 PUSH1 0x1 PUSH1 0x40 SHL SUB DUP3 GT PUSH3 0x3317 JUMPI PUSH3 0x2EF1 DUP4 SLOAD PUSH3 0x2594 JUMP JUMPDEST PUSH1 0x1F DUP2 GT PUSH3 0x343C JUMPI JUMPDEST POP PUSH1 0x20 SWAP1 PUSH1 0x1F DUP4 GT PUSH1 0x1 EQ PUSH3 0x33CF JUMPI PUSH3 0x2F2F SWAP3 SWAP2 PUSH1 0x0 SWAP2 DUP4 PUSH3 0x21F4 JUMPI POP POP DUP2 PUSH1 0x1 SHL SWAP2 PUSH1 0x0 NOT SWAP1 PUSH1 0x3 SHL SHR NOT AND OR SWAP1 JUMP JUMPDEST SWAP1 SSTORE JUMPDEST PUSH1 0x11 DUP5 ADD PUSH1 0xC0 DUP7 ADD MLOAD DUP1 MLOAD SWAP1 PUSH1 0x1 PUSH1 0x1 PUSH1 0x40 SHL SUB DUP3 GT PUSH3 0x3317 JUMPI PUSH3 0x2F59 DUP4 SLOAD PUSH3 0x2594 JUMP JUMPDEST PUSH1 0x1F DUP2 GT PUSH3 0x3399 JUMPI JUMPDEST POP PUSH1 0x20 SWAP1 PUSH1 0x1F DUP4 GT PUSH1 0x1 EQ PUSH3 0x332C JUMPI PUSH3 0x2F97 SWAP3 SWAP2 PUSH1 0x0 SWAP2 DUP4 PUSH3 0x21F4 JUMPI POP POP DUP2 PUSH1 0x1 SHL SWAP2 PUSH1 0x0 NOT SWAP1 PUSH1 0x3 SHL SHR NOT AND OR SWAP1 JUMP JUMPDEST SWAP1 SSTORE JUMPDEST PUSH1 0x12 DUP5 ADD PUSH1 0xE0 DUP7 ADD MLOAD DUP1 MLOAD SWAP1 PUSH1 0x1 PUSH1 0x1 PUSH1 0x40 SHL SUB DUP3 GT PUSH3 0x3317 JUMPI PUSH3 0x2FC1 DUP4 SLOAD PUSH3 0x2594 JUMP JUMPDEST PUSH1 0x1F DUP2 GT PUSH3 0x32E1 JUMPI JUMPDEST POP PUSH1 0x20 SWAP1 PUSH1 0x1F DUP4 GT PUSH1 0x1 EQ PUSH3 0x3274 JUMPI PUSH3 0x2FFF SWAP3 SWAP2 PUSH1 0x0 SWAP2 DUP4 PUSH3 0x21F4 JUMPI POP POP DUP2 PUSH1 0x1 SHL SWAP2 PUSH1 0x0 NOT SWAP1 PUSH1 0x3 SHL SHR NOT AND OR SWAP1 JUMP JUMPDEST SWAP1 SSTORE JUMPDEST DUP5 ADD MLOAD DUP1 MLOAD PUSH1 0x13 DUP6 ADD SWAP2 PUSH1 0x1 PUSH1 0x1 PUSH1 0x40 SHL SUB DUP3 GT PUSH3 0x325F JUMPI PUSH3 0x3027 DUP4 SLOAD PUSH3 0x2594 JUMP JUMPDEST PUSH1 0x1F DUP2 GT PUSH3 0x3229 JUMPI JUMPDEST POP PUSH1 0x20 SWAP1 PUSH1 0x1F DUP4 GT PUSH1 0x1 EQ PUSH3 0x31BC JUMPI PUSH3 0x3065 SWAP3 SWAP2 PUSH1 0x0 SWAP2 DUP4 PUSH3 0x21F4 JUMPI POP POP DUP2 PUSH1 0x1 SHL SWAP2 PUSH1 0x0 NOT SWAP1 PUSH1 0x3 SHL SHR NOT AND OR SWAP1 JUMP JUMPDEST SWAP1 SSTORE JUMPDEST PUSH1 0x14 DUP4 ADD SWAP2 DUP5 ADD MLOAD DUP1 MLOAD SWAP2 PUSH1 0x1 PUSH1 0x1 PUSH1 0x40 SHL SUB DUP4 GT PUSH3 0x31A7 JUMPI POP PUSH3 0x308F DUP4 SLOAD PUSH3 0x2594 JUMP JUMPDEST PUSH1 0x1F DUP2 GT PUSH3 0x3171 JUMPI JUMPDEST POP PUSH1 0x20 SWAP1 PUSH1 0x1F DUP4 GT PUSH1 0x1 EQ PUSH3 0x30FB JUMPI SWAP3 PUSH3 0x30D7 DUP4 PUSH1 0x15 SWAP5 PUSH1 0xFF SWAP8 SWAP5 PUSH2 0xFF00 SWAP8 PUSH1 0x0 SWAP3 PUSH3 0x21F4 JUMPI POP POP DUP2 PUSH1 0x1 SHL SWAP2 PUSH1 0x0 NOT SWAP1 PUSH1 0x3 SHL SHR NOT AND OR SWAP1 JUMP JUMPDEST SWAP1 SSTORE JUMPDEST ADD SWAP5 DUP4 ADD MLOAD ISZERO ISZERO SWAP4 DUP6 SLOAD SWAP4 ADD MLOAD ISZERO ISZERO PUSH1 0x8 SHL AND SWAP3 AND SWAP1 PUSH2 0xFFFF NOT AND OR OR SWAP1 SSTORE JUMP JUMPDEST SWAP1 PUSH1 0x1F NOT DUP4 AND SWAP2 DUP5 PUSH1 0x0 MSTORE PUSH1 0x20 PUSH1 0x0 KECCAK256 SWAP3 PUSH1 0x0 JUMPDEST DUP2 DUP2 LT PUSH3 0x3158 JUMPI POP SWAP4 PUSH1 0xFF SWAP7 SWAP4 PUSH2 0xFF00 SWAP7 SWAP4 PUSH1 0x1 SWAP4 DUP4 PUSH1 0x15 SWAP9 LT PUSH3 0x313E JUMPI JUMPDEST POP POP POP DUP2 SHL ADD SWAP1 SSTORE PUSH3 0x30DA JUMP JUMPDEST ADD MLOAD PUSH1 0x0 NOT PUSH1 0xF8 DUP5 PUSH1 0x3 SHL AND SHR NOT AND SWAP1 SSTORE CODESIZE DUP1 DUP1 PUSH3 0x3130 JUMP JUMPDEST SWAP3 SWAP4 PUSH1 0x20 PUSH1 0x1 DUP2 SWAP3 DUP8 DUP7 ADD MLOAD DUP2 SSTORE ADD SWAP6 ADD SWAP4 ADD PUSH3 0x310F JUMP JUMPDEST PUSH3 0x31A0 SWAP1 DUP5 PUSH1 0x0 MSTORE PUSH1 0x20 PUSH1 0x0 KECCAK256 PUSH1 0x1F DUP6 ADD PUSH1 0x5 SHR DUP2 ADD SWAP2 PUSH1 0x20 DUP7 LT PUSH3 0x22AE JUMPI PUSH1 0x1F ADD PUSH1 0x5 SHR ADD SWAP1 PUSH3 0x2C34 JUMP JUMPDEST CODESIZE PUSH3 0x3099 JUMP JUMPDEST PUSH1 0x41 SWAP1 PUSH4 0x4E487B71 PUSH1 0xE0 SHL PUSH1 0x0 MSTORE MSTORE PUSH1 0x24 PUSH1 0x0 REVERT JUMPDEST SWAP1 PUSH1 0x1F NOT DUP4 AND SWAP2 DUP5 PUSH1 0x0 MSTORE PUSH1 0x20 PUSH1 0x0 KECCAK256 SWAP3 PUSH1 0x0 JUMPDEST DUP2 DUP2 LT PUSH3 0x3210 JUMPI POP SWAP1 DUP5 PUSH1 0x1 SWAP6 SWAP5 SWAP4 SWAP3 LT PUSH3 0x31F6 JUMPI JUMPDEST POP POP POP DUP2 SHL ADD SWAP1 SSTORE PUSH3 0x3068 JUMP JUMPDEST ADD MLOAD PUSH1 0x0 NOT PUSH1 0xF8 DUP5 PUSH1 0x3 SHL AND SHR NOT AND SWAP1 SSTORE CODESIZE DUP1 DUP1 PUSH3 0x31E8 JUMP JUMPDEST SWAP3 SWAP4 PUSH1 0x20 PUSH1 0x1 DUP2 SWAP3 DUP8 DUP7 ADD MLOAD DUP2 SSTORE ADD SWAP6 ADD SWAP4 ADD PUSH3 0x31D0 JUMP JUMPDEST PUSH3 0x3258 SWAP1 DUP5 PUSH1 0x0 MSTORE PUSH1 0x20 PUSH1 0x0 KECCAK256 PUSH1 0x1F DUP6 ADD PUSH1 0x5 SHR DUP2 ADD SWAP2 PUSH1 0x20 DUP7 LT PUSH3 0x22AE JUMPI PUSH1 0x1F ADD PUSH1 0x5 SHR ADD SWAP1 PUSH3 0x2C34 JUMP JUMPDEST CODESIZE PUSH3 0x3031 JUMP JUMPDEST PUSH1 0x41 DUP5 PUSH4 0x4E487B71 PUSH1 0xE0 SHL PUSH1 0x0 MSTORE MSTORE PUSH1 0x24 PUSH1 0x0 REVERT JUMPDEST SWAP1 PUSH1 0x1F NOT DUP4 AND SWAP2 DUP5 PUSH1 0x0 MSTORE PUSH1 0x20 PUSH1 0x0 KECCAK256 SWAP3 PUSH1 0x0 JUMPDEST DUP2 DUP2 LT PUSH3 0x32C8 JUMPI POP SWAP1 DUP5 PUSH1 0x1 SWAP6 SWAP5 SWAP4 SWAP3 LT PUSH3 0x32AE JUMPI JUMPDEST POP POP POP DUP2 SHL ADD SWAP1 SSTORE PUSH3 0x3002 JUMP JUMPDEST ADD MLOAD PUSH1 0x0 NOT PUSH1 0xF8 DUP5 PUSH1 0x3 SHL AND SHR NOT AND SWAP1 SSTORE CODESIZE DUP1 DUP1 PUSH3 0x32A0 JUMP JUMPDEST SWAP3 SWAP4 PUSH1 0x20 PUSH1 0x1 DUP2 SWAP3 DUP8 DUP7 ADD MLOAD DUP2 SSTORE ADD SWAP6 ADD SWAP4 ADD PUSH3 0x3288 JUMP JUMPDEST PUSH3 0x3310 SWAP1 DUP5 PUSH1 0x0 MSTORE PUSH1 0x20 PUSH1 0x0 KECCAK256 PUSH1 0x1F DUP6 ADD PUSH1 0x5 SHR DUP2 ADD SWAP2 PUSH1 0x20 DUP7 LT PUSH3 0x22AE JUMPI PUSH1 0x1F ADD PUSH1 0x5 SHR ADD SWAP1 PUSH3 0x2C34 JUMP JUMPDEST CODESIZE PUSH3 0x2FCB JUMP JUMPDEST PUSH1 0x41 DUP6 PUSH4 0x4E487B71 PUSH1 0xE0 SHL PUSH1 0x0 MSTORE MSTORE PUSH1 0x24 PUSH1 0x0 REVERT JUMPDEST SWAP1 PUSH1 0x1F NOT DUP4 AND SWAP2 DUP5 PUSH1 0x0 MSTORE PUSH1 0x20 PUSH1 0x0 KECCAK256 SWAP3 PUSH1 0x0 JUMPDEST DUP2 DUP2 LT PUSH3 0x3380 JUMPI POP SWAP1 DUP5 PUSH1 0x1 SWAP6 SWAP5 SWAP4 SWAP3 LT PUSH3 0x3366 JUMPI JUMPDEST POP POP POP DUP2 SHL ADD SWAP1 SSTORE PUSH3 0x2F9A JUMP JUMPDEST ADD MLOAD PUSH1 0x0 NOT PUSH1 0xF8 DUP5 PUSH1 0x3 SHL AND SHR NOT AND SWAP1 SSTORE CODESIZE DUP1 DUP1 PUSH3 0x3358 JUMP JUMPDEST SWAP3 SWAP4 PUSH1 0x20 PUSH1 0x1 DUP2 SWAP3 DUP8 DUP7 ADD MLOAD DUP2 SSTORE ADD SWAP6 ADD SWAP4 ADD PUSH3 0x3340 JUMP JUMPDEST PUSH3 0x33C8 SWAP1 DUP5 PUSH1 0x0 MSTORE PUSH1 0x20 PUSH1 0x0 KECCAK256 PUSH1 0x1F DUP6 ADD PUSH1 0x5 SHR DUP2 ADD SWAP2 PUSH1 0x20 DUP7 LT PUSH3 0x22AE JUMPI PUSH1 0x1F ADD PUSH1 0x5 SHR ADD SWAP1 PUSH3 0x2C34 JUMP JUMPDEST CODESIZE PUSH3 0x2F63 JUMP JUMPDEST SWAP1 PUSH1 0x1F NOT DUP4 AND SWAP2 DUP5 PUSH1 0x0 MSTORE PUSH1 0x20 PUSH1 0x0 KECCAK256 SWAP3 PUSH1 0x0 JUMPDEST DUP2 DUP2 LT PUSH3 0x3423 JUMPI POP SWAP1 DUP5 PUSH1 0x1 SWAP6 SWAP5 SWAP4 SWAP3 LT PUSH3 0x3409 JUMPI JUMPDEST POP POP POP DUP2 SHL ADD SWAP1 SSTORE PUSH3 0x2F32 JUMP JUMPDEST ADD MLOAD PUSH1 0x0 NOT PUSH1 0xF8 DUP5 PUSH1 0x3 SHL AND SHR NOT AND SWAP1 SSTORE CODESIZE DUP1 DUP1 PUSH3 0x33FB JUMP JUMPDEST SWAP3 SWAP4 PUSH1 0x20 PUSH1 0x1 DUP2 SWAP3 DUP8 DUP7 ADD MLOAD DUP2 SSTORE ADD SWAP6 ADD SWAP4 ADD PUSH3 0x33E3 JUMP JUMPDEST PUSH3 0x346B SWAP1 DUP5 PUSH1 0x0 MSTORE PUSH1 0x20 PUSH1 0x0 KECCAK256 PUSH1 0x1F DUP6 ADD PUSH1 0x5 SHR DUP2 ADD SWAP2 PUSH1 0x20 DUP7 LT PUSH3 0x22AE JUMPI PUSH1 0x1F ADD PUSH1 0x5 SHR ADD SWAP1 PUSH3 0x2C34 JUMP JUMPDEST CODESIZE PUSH3 0x2EFB JUMP JUMPDEST SWAP1 PUSH1 0x1F NOT DUP4 AND SWAP2 DUP5 PUSH1 0x0 MSTORE PUSH1 0x20 PUSH1 0x0 KECCAK256 SWAP3 PUSH1 0x0 JUMPDEST DUP2 DUP2 LT PUSH3 0x34C6 JUMPI POP SWAP1 DUP5 PUSH1 0x1 SWAP6 SWAP5 SWAP4 SWAP3 LT PUSH3 0x34AC JUMPI JUMPDEST POP POP POP DUP2 SHL ADD SWAP1 SSTORE PUSH3 0x2ECA JUMP JUMPDEST ADD MLOAD PUSH1 0x0 NOT PUSH1 0xF8 DUP5 PUSH1 0x3 SHL AND SHR NOT AND SWAP1 SSTORE CODESIZE DUP1 DUP1 PUSH3 0x349E JUMP JUMPDEST SWAP3 SWAP4 PUSH1 0x20 PUSH1 0x1 DUP2 SWAP3 DUP8 DUP7 ADD MLOAD DUP2 SSTORE ADD SWAP6 ADD SWAP4 ADD PUSH3 0x3486 JUMP JUMPDEST PUSH3 0x350E SWAP1 DUP5 PUSH1 0x0 MSTORE PUSH1 0x20 PUSH1 0x0 KECCAK256 PUSH1 0x1F DUP6 ADD PUSH1 0x5 SHR DUP2 ADD SWAP2 PUSH1 0x20 DUP7 LT PUSH3 0x22AE JUMPI PUSH1 0x1F ADD PUSH1 0x5 SHR ADD SWAP1 PUSH3 0x2C34 JUMP JUMPDEST CODESIZE PUSH3 0x2E93 JUMP JUMPDEST SWAP2 SWAP1 PUSH1 0x5 DUP5 ADD PUSH1 0x0 MSTORE PUSH1 0x20 PUSH1 0x0 KECCAK256 SWAP1 PUSH1 0x0 SWAP4 JUMPDEST PUSH1 0x1F NOT DUP5 AND DUP6 LT PUSH3 0x3570 JUMPI PUSH1 0x1 SWAP5 POP DUP4 PUSH1 0x1F NOT DUP2 AND LT PUSH3 0x3556 JUMPI JUMPDEST POP POP POP DUP2 SHL ADD PUSH1 0x5 DUP3 ADD SSTORE PUSH3 0x2DFD JUMP JUMPDEST ADD MLOAD PUSH1 0x0 NOT PUSH1 0xF8 DUP5 PUSH1 0x3 SHL AND SHR NOT AND SWAP1 SSTORE CODESIZE DUP1 DUP1 PUSH3 0x3545 JUMP JUMPDEST DUP2 DUP2 ADD MLOAD DUP4 SSTORE PUSH1 0x20 SWAP5 DUP6 ADD SWAP5 PUSH1 0x1 SWAP1 SWAP4 ADD SWAP3 SWAP1 SWAP2 ADD SWAP1 PUSH3 0x3528 JUMP JUMPDEST PUSH3 0x35BE SWAP1 PUSH1 0x5 DUP6 ADD PUSH1 0x0 MSTORE PUSH1 0x20 PUSH1 0x0 KECCAK256 PUSH1 0x1F DUP6 ADD PUSH1 0x5 SHR DUP2 ADD SWAP2 PUSH1 0x20 DUP7 LT PUSH3 0x22AE JUMPI PUSH1 0x1F ADD PUSH1 0x5 SHR ADD SWAP1 PUSH3 0x2C34 JUMP JUMPDEST CODESIZE PUSH3 0x2DC3 JUMP JUMPDEST PUSH1 0x41 DUP7 PUSH4 0x4E487B71 PUSH1 0xE0 SHL PUSH1 0x0 MSTORE MSTORE PUSH1 0x24 PUSH1 0x0 REVERT JUMPDEST SWAP1 PUSH1 0x1F NOT DUP4 AND SWAP2 DUP5 PUSH1 0x0 MSTORE PUSH1 0x20 PUSH1 0x0 KECCAK256 SWAP3 PUSH1 0x0 JUMPDEST DUP2 DUP2 LT PUSH3 0x362E JUMPI POP SWAP1 DUP5 PUSH1 0x1 SWAP6 SWAP5 SWAP4 SWAP3 LT PUSH3 0x3614 JUMPI JUMPDEST POP POP POP DUP2 SHL ADD SWAP1 SSTORE PUSH3 0x2D93 JUMP JUMPDEST ADD MLOAD PUSH1 0x0 NOT PUSH1 0xF8 DUP5 PUSH1 0x3 SHL AND SHR NOT AND SWAP1 SSTORE CODESIZE DUP1 DUP1 PUSH3 0x3606 JUMP JUMPDEST SWAP3 SWAP4 PUSH1 0x20 PUSH1 0x1 DUP2 SWAP3 DUP8 DUP7 ADD MLOAD DUP2 SSTORE ADD SWAP6 ADD SWAP4 ADD PUSH3 0x35EE JUMP JUMPDEST PUSH3 0x3676 SWAP1 DUP5 PUSH1 0x0 MSTORE PUSH1 0x20 PUSH1 0x0 KECCAK256 PUSH1 0x1F DUP6 ADD PUSH1 0x5 SHR DUP2 ADD SWAP2 PUSH1 0x20 DUP7 LT PUSH3 0x22AE JUMPI PUSH1 0x1F ADD PUSH1 0x5 SHR ADD SWAP1 PUSH3 0x2C34 JUMP JUMPDEST CODESIZE PUSH3 0x2D5C JUMP JUMPDEST PUSH1 0x41 DUP8 PUSH4 0x4E487B71 PUSH1 0xE0 SHL PUSH1 0x0 MSTORE MSTORE PUSH1 0x24 PUSH1 0x0 REVERT JUMPDEST SWAP1 DUP2 SLOAD PUSH1 0x1 PUSH1 0x40 SHL DUP2 LT ISZERO PUSH3 0x861 JUMPI PUSH1 0x1 DUP2 ADD DUP1 DUP5 SSTORE DUP2 LT ISZERO PUSH3 0x257E JUMPI PUSH3 0x2674 SWAP3 PUSH1 0x0 MSTORE PUSH1 0x16 PUSH1 0x20 PUSH1 0x0 KECCAK256 SWAP2 MUL ADD PUSH3 0x2CD0 JUMP JUMPDEST PUSH1 0x2 PUSH1 0x0 SLOAD EQ PUSH3 0x36DB JUMPI PUSH1 0x2 PUSH1 0x0 SSTORE JUMP JUMPDEST PUSH1 0x40 MLOAD PUSH4 0x3EE5AEB5 PUSH1 0xE0 SHL DUP2 MSTORE PUSH1 0x4 SWAP1 REVERT JUMPDEST SWAP1 DUP2 PUSH1 0x20 SWAP2 SUB SLT PUSH3 0x8B8 JUMPI MLOAD DUP1 ISZERO ISZERO DUP2 SUB PUSH3 0x8B8 JUMPI SWAP1 JUMP JUMPDEST PUSH3 0x3771 SWAP3 PUSH1 0x20 SWAP3 SWAP1 SWAP2 SWAP1 PUSH1 0x1 PUSH1 0x1 PUSH1 0xA0 SHL SUB SWAP1 PUSH3 0x372A DUP3 DUP5 AND ISZERO ISZERO PUSH3 0x2BAF JUMP JUMPDEST AND SWAP1 PUSH3 0x3739 DUP3 ISZERO ISZERO PUSH3 0x2BAF JUMP JUMPDEST PUSH1 0x40 MLOAD PUSH4 0x95EA7B3 PUSH1 0xE0 SHL DUP2 MSTORE PUSH1 0x1 PUSH1 0x1 PUSH1 0xA0 SHL SUB SWAP1 SWAP2 AND PUSH1 0x4 DUP3 ADD MSTORE PUSH1 0x24 DUP2 ADD SWAP3 SWAP1 SWAP3 MSTORE SWAP1 SWAP3 DUP4 SWAP2 SWAP1 DUP3 SWAP1 PUSH1 0x0 SWAP1 DUP3 SWAP1 PUSH1 0x44 DUP3 ADD SWAP1 JUMP JUMPDEST SUB SWAP3 GAS CALL DUP1 ISZERO PUSH3 0x37AC JUMPI PUSH3 0x3788 JUMPI JUMPDEST POP PUSH1 0x1 SWAP1 JUMP JUMPDEST PUSH3 0x37A4 SWAP1 PUSH1 0x20 RETURNDATASIZE PUSH1 0x20 GT PUSH3 0x2046 JUMPI PUSH3 0x2035 DUP2 DUP4 PUSH3 0x260A JUMP JUMPDEST POP CODESIZE PUSH3 0x3782 JUMP JUMPDEST PUSH1 0x40 MLOAD RETURNDATASIZE PUSH1 0x0 DUP3 RETURNDATACOPY RETURNDATASIZE SWAP1 REVERT JUMPDEST PUSH1 0x1 PUSH1 0x1 PUSH1 0xA0 SHL SUB SWAP1 DUP2 AND PUSH3 0x37D0 DUP2 ISZERO ISZERO PUSH3 0x2BAF JUMP JUMPDEST PUSH1 0x8 SLOAD SWAP2 PUSH1 0x0 JUMPDEST DUP4 DUP2 LT PUSH3 0x37E8 JUMPI POP POP POP POP PUSH1 0x0 SWAP1 JUMP JUMPDEST DUP3 DUP3 PUSH3 0x37F5 DUP4 PUSH3 0x2AE3 JUMP JUMPDEST POP SLOAD AND EQ PUSH3 0x3807 JUMPI PUSH1 0x1 ADD PUSH3 0x37D7 JUMP JUMPDEST POP POP POP POP PUSH1 0x1 SWAP1 JUMP JUMPDEST PUSH3 0x381C DUP2 SLOAD PUSH3 0x2594 JUMP JUMPDEST SWAP1 DUP2 PUSH3 0x3827 JUMPI POP POP JUMP JUMPDEST DUP2 PUSH1 0x1F PUSH1 0x0 SWAP4 GT PUSH1 0x1 EQ PUSH3 0x383A JUMPI POP SSTORE JUMP JUMPDEST SWAP1 DUP1 DUP4 SWAP2 DUP3 MSTORE PUSH3 0x385B PUSH1 0x1F PUSH1 0x20 DUP5 KECCAK256 SWAP5 ADD PUSH1 0x5 SHR DUP5 ADD PUSH1 0x1 DUP6 ADD PUSH3 0x2C34 JUMP JUMPDEST SSTORE SSTORE JUMP JUMPDEST DUP2 MLOAD DUP2 SLOAD PUSH1 0x1 PUSH1 0x1 PUSH1 0xA0 SHL SUB NOT AND PUSH1 0x1 PUSH1 0x1 PUSH1 0xA0 SHL SUB SWAP2 SWAP1 SWAP2 AND OR DUP2 SSTORE PUSH1 0x20 SWAP2 DUP3 ADD MLOAD DUP1 MLOAD PUSH1 0x1 SWAP4 SWAP1 SWAP3 DUP5 ADD SWAP2 PUSH1 0x1 PUSH1 0x40 SHL DUP5 GT PUSH3 0x861 JUMPI DUP3 SLOAD DUP5 DUP5 SSTORE DUP1 DUP6 LT PUSH3 0x38E6 JUMPI JUMPDEST POP PUSH1 0x20 ADD SWAP2 PUSH1 0x0 MSTORE PUSH1 0x20 PUSH1 0x0 KECCAK256 PUSH1 0x0 SWAP3 JUMPDEST DUP5 DUP5 LT PUSH3 0x38C7 JUMPI POP POP POP POP POP POP JUMP JUMPDEST PUSH1 0x16 DUP4 DUP3 PUSH3 0x38D9 DUP10 SWAP5 MLOAD DUP7 PUSH3 0x2CD0 JUMP JUMPDEST ADD SWAP3 ADD SWAP4 ADD SWAP3 SWAP1 PUSH3 0x38B7 JUMP JUMPDEST PUSH1 0x16 SWAP1 DUP1 PUSH1 0x16 MUL SWAP1 PUSH1 0x16 DUP3 DIV SUB PUSH3 0x2C77 JUMPI DUP6 PUSH1 0x16 MUL PUSH1 0x16 DUP2 DIV DUP8 SUB PUSH3 0x2C77 JUMPI PUSH1 0x0 SWAP1 DUP7 DUP3 MSTORE PUSH1 0x20 DUP3 KECCAK256 SWAP3 DUP4 ADD SWAP3 ADD JUMPDEST DUP3 DUP2 LT PUSH3 0x3928 JUMPI POP POP POP PUSH3 0x38A6 JUMP JUMPDEST DUP1 DUP3 DUP6 SWAP3 SSTORE DUP3 DUP11 DUP3 ADD SSTORE DUP3 PUSH1 0x2 DUP3 ADD SSTORE DUP3 PUSH1 0x3 DUP3 ADD SSTORE PUSH3 0x394C PUSH1 0x4 DUP3 ADD PUSH3 0x3810 JUMP JUMPDEST PUSH3 0x395A PUSH1 0x5 DUP3 ADD PUSH3 0x3810 JUMP JUMPDEST DUP3 PUSH1 0x6 DUP3 ADD SSTORE DUP3 PUSH1 0x7 DUP3 ADD SSTORE DUP3 PUSH1 0x8 DUP3 ADD SSTORE DUP3 PUSH1 0x9 DUP3 ADD SSTORE DUP3 PUSH1 0xA DUP3 ADD SSTORE DUP3 PUSH1 0xB DUP3 ADD SSTORE DUP3 PUSH1 0xC DUP3 ADD SSTORE DUP3 PUSH1 0xD DUP3 ADD SSTORE DUP3 PUSH1 0xE DUP3 ADD SSTORE PUSH3 0x399E PUSH1 0xF DUP3 ADD PUSH3 0x3810 JUMP JUMPDEST PUSH3 0x39AC PUSH1 0x10 DUP3 ADD PUSH3 0x3810 JUMP JUMPDEST PUSH3 0x39BA PUSH1 0x11 DUP3 ADD PUSH3 0x3810 JUMP JUMPDEST PUSH3 0x39C8 PUSH1 0x12 DUP3 ADD PUSH3 0x3810 JUMP JUMPDEST PUSH3 0x39D6 PUSH1 0x13 DUP3 ADD PUSH3 0x3810 JUMP JUMPDEST PUSH3 0x39E4 PUSH1 0x14 DUP3 ADD PUSH3 0x3810 JUMP JUMPDEST DUP3 PUSH1 0x15 DUP3 ADD SSTORE ADD PUSH3 0x3917 JUMP INVALID PUSH1 0x40 PUSH1 0x80 DUP2 MSTORE CALLVALUE PUSH3 0x429 JUMPI PUSH3 0x10AB DUP1 CODESIZE SUB DUP1 PUSH3 0x1E DUP2 PUSH3 0x42E JUMP JUMPDEST SWAP3 DUP4 CODECOPY DUP2 ADD SWAP1 PUSH1 0x80 DUP2 DUP4 SUB SLT PUSH3 0x429 JUMPI DUP1 MLOAD PUSH1 0x1 PUSH1 0x1 PUSH1 0x40 SHL SUB SWAP2 SWAP1 DUP3 DUP2 GT PUSH3 0x429 JUMPI DUP4 PUSH3 0x51 SWAP2 DUP4 ADD PUSH3 0x46A JUMP JUMPDEST SWAP1 PUSH1 0x20 SWAP4 DUP5 DUP3 ADD MLOAD SWAP1 DUP5 DUP3 GT PUSH3 0x429 JUMPI PUSH3 0x6F SWAP2 DUP4 ADD PUSH3 0x46A JUMP JUMPDEST PUSH1 0x60 DUP7 DUP4 ADD MLOAD SWAP3 ADD MLOAD SWAP1 PUSH1 0x0 SWAP5 CALLER PUSH1 0x1 DUP1 PUSH1 0xA0 SHL SUB NOT DUP8 SLOAD AND OR DUP7 SSTORE CALLER DUP7 PUSH32 0x8BE0079C531659141344CD1FD0A4F28419497F9722A3DAAFE3B4186F6B6457E0 DUP2 DUP1 LOG3 DUP5 MLOAD DUP2 DUP2 GT PUSH3 0x343 JUMPI PUSH1 0x2 SLOAD SWAP1 PUSH1 0x1 SWAP7 DUP8 DUP4 DUP2 SHR SWAP4 AND DUP1 ISZERO PUSH3 0x41E JUMPI JUMPDEST DUP11 DUP5 LT EQ PUSH3 0x324 JUMPI DUP2 SWAP1 PUSH1 0x1F SWAP4 DUP5 DUP2 GT PUSH3 0x3CA JUMPI JUMPDEST POP DUP11 SWAP1 DUP5 DUP4 GT PUSH1 0x1 EQ PUSH3 0x363 JUMPI DUP11 SWAP3 PUSH3 0x357 JUMPI JUMPDEST POP POP PUSH1 0x0 NOT PUSH1 0x3 DUP4 SWAP1 SHL SHR NOT AND SWAP1 DUP8 SHL OR PUSH1 0x2 SSTORE JUMPDEST DUP3 MLOAD SWAP2 DUP3 GT PUSH3 0x343 JUMPI PUSH1 0x3 SWAP3 DUP4 SLOAD DUP8 DUP2 DUP2 SHR SWAP2 AND DUP1 ISZERO PUSH3 0x338 JUMPI JUMPDEST DUP11 DUP3 LT EQ PUSH3 0x324 JUMPI SWAP1 DUP2 DUP4 DUP6 SWAP5 SWAP4 GT PUSH3 0x2CF JUMPI JUMPDEST POP DUP10 SWAP2 DUP4 GT PUSH1 0x1 EQ PUSH3 0x26C JUMPI DUP9 SWAP3 PUSH3 0x260 JUMPI JUMPDEST POP POP PUSH1 0x0 NOT DUP3 DUP5 SHL SHR NOT AND SWAP1 DUP6 SHL OR SWAP1 SSTORE JUMPDEST PUSH8 0xDE0B6B3A7640000 SWAP2 DUP3 DUP2 MUL SWAP3 DUP2 DUP5 DIV EQ SWAP1 ISZERO OR ISZERO PUSH3 0x24C JUMPI DUP2 DUP4 SSTORE PUSH1 0x5 DUP2 GT PUSH3 0x1FE JUMPI SWAP1 PUSH32 0xDDF252AD1BE2C89B69C2B068FC378DAA952BA7F163C4A11628F55A4DF523B3EF SWAP3 SWAP2 PUSH1 0x4 SSTORE CALLER DUP5 MSTORE PUSH1 0x5 DUP6 MSTORE DUP6 DUP5 KECCAK256 SSTORE PUSH1 0x7 DUP5 MSTORE DUP5 DUP4 KECCAK256 PUSH1 0xFF NOT SWAP1 DUP3 DUP3 DUP3 SLOAD AND OR SWAP1 SSTORE ADDRESS DUP5 MSTORE DUP2 DUP7 DUP6 KECCAK256 SWAP2 DUP3 SLOAD AND OR SWAP1 SSTORE SLOAD SWAP3 DUP5 MLOAD SWAP4 DUP5 MSTORE CALLER SWAP4 LOG3 MLOAD PUSH2 0xBCE SWAP1 DUP2 PUSH3 0x4DD DUP3 CODECOPY RETURN JUMPDEST DUP6 MLOAD PUSH3 0x461BCD PUSH1 0xE5 SHL DUP2 MSTORE PUSH1 0x4 DUP2 ADD DUP7 SWAP1 MSTORE PUSH1 0x21 PUSH1 0x24 DUP3 ADD MSTORE PUSH32 0x4D6178205472616E73616374696F6E2063616E6E6F7420657863656564203525 PUSH1 0x44 DUP3 ADD MSTORE PUSH1 0x17 PUSH1 0xF9 SHL PUSH1 0x64 DUP3 ADD MSTORE PUSH1 0x84 SWAP1 REVERT JUMPDEST PUSH4 0x4E487B71 PUSH1 0xE0 SHL DUP5 MSTORE PUSH1 0x11 PUSH1 0x4 MSTORE PUSH1 0x24 DUP5 REVERT JUMPDEST ADD MLOAD SWAP1 POP CODESIZE DUP1 PUSH3 0x15A JUMP JUMPDEST DUP5 DUP10 MSTORE DUP10 DUP10 KECCAK256 DUP9 SWAP5 POP SWAP2 SWAP1 PUSH1 0x1F NOT DUP5 AND DUP11 JUMPDEST DUP13 DUP3 DUP3 LT PUSH3 0x2B8 JUMPI POP POP DUP5 GT PUSH3 0x29F JUMPI JUMPDEST POP POP POP DUP2 SHL ADD SWAP1 SSTORE PUSH3 0x16C JUMP JUMPDEST ADD MLOAD PUSH1 0x0 NOT DUP4 DUP7 SHL PUSH1 0xF8 AND SHR NOT AND SWAP1 SSTORE CODESIZE DUP1 DUP1 PUSH3 0x291 JUMP JUMPDEST DUP4 DUP6 ADD MLOAD DUP7 SSTORE DUP12 SWAP8 SWAP1 SWAP6 ADD SWAP5 SWAP4 DUP5 ADD SWAP4 ADD PUSH3 0x27E JUMP JUMPDEST SWAP1 SWAP2 SWAP3 POP DUP5 DUP10 MSTORE DUP10 DUP10 KECCAK256 DUP4 DUP1 DUP7 ADD PUSH1 0x5 SHR DUP3 ADD SWAP3 DUP13 DUP8 LT PUSH3 0x31A JUMPI JUMPDEST SWAP2 DUP7 SWAP6 DUP12 SWAP3 SWAP6 SWAP5 SWAP4 ADD PUSH1 0x5 SHR ADD SWAP2 JUMPDEST DUP3 DUP2 LT PUSH3 0x30B JUMPI POP POP PUSH3 0x145 JUMP JUMPDEST DUP12 DUP2 SSTORE DUP7 SWAP6 POP DUP11 SWAP2 ADD PUSH3 0x2FB JUMP JUMPDEST SWAP3 POP DUP2 SWAP3 PUSH3 0x2EC JUMP JUMPDEST PUSH4 0x4E487B71 PUSH1 0xE0 SHL DUP10 MSTORE PUSH1 0x22 PUSH1 0x4 MSTORE PUSH1 0x24 DUP10 REVERT JUMPDEST SWAP1 PUSH1 0x7F AND SWAP1 PUSH3 0x12F JUMP JUMPDEST PUSH4 0x4E487B71 PUSH1 0xE0 SHL DUP8 MSTORE PUSH1 0x41 PUSH1 0x4 MSTORE PUSH1 0x24 DUP8 REVERT JUMPDEST ADD MLOAD SWAP1 POP CODESIZE DUP1 PUSH3 0xFD JUMP JUMPDEST PUSH1 0x2 DUP12 MSTORE DUP12 DUP12 KECCAK256 DUP11 SWAP5 POP SWAP2 SWAP1 PUSH1 0x1F NOT DUP5 AND DUP13 DUP15 JUMPDEST DUP3 DUP3 LT PUSH3 0x3B2 JUMPI POP POP DUP5 GT PUSH3 0x398 JUMPI JUMPDEST POP POP POP DUP2 SHL ADD PUSH1 0x2 SSTORE PUSH3 0x112 JUMP JUMPDEST ADD MLOAD PUSH1 0x0 NOT PUSH1 0xF8 DUP5 PUSH1 0x3 SHL AND SHR NOT AND SWAP1 SSTORE CODESIZE DUP1 DUP1 PUSH3 0x389 JUMP JUMPDEST DUP4 DUP6 ADD MLOAD DUP7 SSTORE DUP14 SWAP8 SWAP1 SWAP6 ADD SWAP5 SWAP4 DUP5 ADD SWAP4 ADD DUP15 PUSH3 0x377 JUMP JUMPDEST SWAP1 SWAP2 POP PUSH1 0x2 DUP11 MSTORE DUP11 DUP11 KECCAK256 DUP5 DUP1 DUP6 ADD PUSH1 0x5 SHR DUP3 ADD SWAP3 DUP14 DUP7 LT PUSH3 0x414 JUMPI JUMPDEST SWAP2 DUP12 SWAP2 DUP7 SWAP6 SWAP5 SWAP4 ADD PUSH1 0x5 SHR ADD SWAP2 JUMPDEST DUP3 DUP2 LT PUSH3 0x405 JUMPI POP POP PUSH3 0xE7 JUMP JUMPDEST DUP13 DUP2 SSTORE DUP6 SWAP5 POP DUP12 SWAP2 ADD PUSH3 0x3F5 JUMP JUMPDEST SWAP3 POP DUP2 SWAP3 PUSH3 0x3E7 JUMP JUMPDEST SWAP3 PUSH1 0x7F AND SWAP3 PUSH3 0xD0 JUMP JUMPDEST PUSH1 0x0 DUP1 REVERT JUMPDEST PUSH1 0x40 MLOAD SWAP2 SWAP1 PUSH1 0x1F ADD PUSH1 0x1F NOT AND DUP3 ADD PUSH1 0x1 PUSH1 0x1 PUSH1 0x40 SHL SUB DUP2 GT DUP4 DUP3 LT OR PUSH3 0x454 JUMPI PUSH1 0x40 MSTORE JUMP JUMPDEST PUSH4 0x4E487B71 PUSH1 0xE0 SHL PUSH1 0x0 MSTORE PUSH1 0x41 PUSH1 0x4 MSTORE PUSH1 0x24 PUSH1 0x0 REVERT JUMPDEST SWAP2 SWAP1 DUP1 PUSH1 0x1F DUP5 ADD SLT ISZERO PUSH3 0x429 JUMPI DUP3 MLOAD PUSH1 0x1 PUSH1 0x1 PUSH1 0x40 SHL SUB DUP2 GT PUSH3 0x454 JUMPI PUSH1 0x20 SWAP1 PUSH3 0x4A0 PUSH1 0x1F DUP3 ADD PUSH1 0x1F NOT AND DUP4 ADD PUSH3 0x42E JUMP JUMPDEST SWAP3 DUP2 DUP5 MSTORE DUP3 DUP3 DUP8 ADD ADD GT PUSH3 0x429 JUMPI PUSH1 0x0 JUMPDEST DUP2 DUP2 LT PUSH3 0x4C8 JUMPI POP DUP3 PUSH1 0x0 SWAP4 SWAP5 SWAP6 POP ADD ADD MSTORE SWAP1 JUMP JUMPDEST DUP6 DUP2 ADD DUP4 ADD MLOAD DUP5 DUP3 ADD DUP5 ADD MSTORE DUP3 ADD PUSH3 0x4B2 JUMP INVALID PUSH1 0x80 PUSH1 0x40 DUP2 DUP2 MSTORE PUSH1 0x4 SWAP2 DUP3 CALLDATASIZE LT ISZERO PUSH2 0x16 JUMPI PUSH1 0x0 DUP1 REVERT JUMPDEST PUSH1 0x0 SWAP3 DUP4 CALLDATALOAD PUSH1 0xE0 SHR SWAP2 DUP3 PUSH4 0x6FDDE03 EQ PUSH2 0x5B5 JUMPI POP DUP2 PUSH4 0x95EA7B3 EQ PUSH2 0x58B JUMPI DUP2 PUSH4 0x18160DDD EQ PUSH2 0x56C JUMPI DUP2 PUSH4 0x23B872DD EQ PUSH2 0x497 JUMPI DUP2 PUSH4 0x313CE567 EQ PUSH2 0x47B JUMPI DUP2 PUSH4 0x70A08231 EQ PUSH2 0x443 JUMPI DUP2 PUSH4 0x715018A6 EQ PUSH2 0x3E4 JUMPI DUP2 PUSH4 0x7437681E EQ PUSH2 0x3C6 JUMPI DUP2 PUSH4 0x8DA5CB5B EQ PUSH2 0x39E JUMPI DUP2 PUSH4 0x95D89B41 EQ PUSH2 0x299 JUMPI DUP2 PUSH4 0xA9059CBB EQ PUSH2 0x268 JUMPI DUP2 PUSH4 0xC2D0FFCA EQ PUSH2 0x1B9 JUMPI DUP2 PUSH4 0xDB4CF1E0 EQ PUSH2 0x10A JUMPI POP PUSH4 0xDD62ED3E EQ PUSH2 0xBF JUMPI PUSH1 0x0 DUP1 REVERT JUMPDEST CALLVALUE PUSH2 0x106 JUMPI DUP1 PUSH1 0x3 NOT CALLDATASIZE ADD SLT PUSH2 0x106 JUMPI DUP1 PUSH1 0x20 SWAP3 PUSH2 0xDB PUSH2 0x6BD JUMP JUMPDEST PUSH2 0xE3 PUSH2 0x6D8 JUMP JUMPDEST PUSH1 0x1 PUSH1 0x1 PUSH1 0xA0 SHL SUB SWAP2 DUP3 AND DUP4 MSTORE PUSH1 0x6 DUP7 MSTORE DUP4 DUP4 KECCAK256 SWAP2 AND DUP3 MSTORE DUP5 MSTORE KECCAK256 SLOAD SWAP1 MLOAD SWAP1 DUP2 MSTORE RETURN JUMPDEST POP DUP1 REVERT JUMPDEST SWAP1 POP CALLVALUE PUSH2 0x1B5 JUMPI PUSH1 0x20 CALLDATASIZE PUSH1 0x3 NOT ADD SLT PUSH2 0x1B5 JUMPI PUSH2 0x125 PUSH2 0x6BD JUMP JUMPDEST DUP4 SLOAD PUSH1 0x1 PUSH1 0x1 PUSH1 0xA0 SHL SUB SWAP2 SWAP1 PUSH2 0x13E SWAP1 DUP4 AND CALLER EQ PUSH2 0x726 JUMP JUMPDEST AND SWAP1 DUP2 ISZERO PUSH2 0x15E JUMPI POP DUP3 MSTORE PUSH1 0x7 PUSH1 0x20 MSTORE DUP2 KECCAK256 DUP1 SLOAD PUSH1 0xFF NOT AND PUSH1 0x1 OR SWAP1 SSTORE DUP1 RETURN JUMPDEST PUSH1 0x84 SWAP1 PUSH1 0x20 DUP5 MLOAD SWAP2 PUSH3 0x461BCD PUSH1 0xE5 SHL DUP4 MSTORE DUP3 ADD MSTORE PUSH1 0x2B PUSH1 0x24 DUP3 ADD MSTORE PUSH32 0x45524332303A204578636C756465204D61782054782066726F6D20746865207A PUSH1 0x44 DUP3 ADD MSTORE PUSH11 0x65726F2061646472657373 PUSH1 0xA8 SHL PUSH1 0x64 DUP3 ADD MSTORE REVERT JUMPDEST DUP3 DUP1 REVERT JUMPDEST SWAP2 SWAP1 POP CALLVALUE PUSH2 0x1B5 JUMPI PUSH1 0x20 CALLDATASIZE PUSH1 0x3 NOT ADD SLT PUSH2 0x1B5 JUMPI DUP2 CALLDATALOAD SWAP2 PUSH2 0x1E4 PUSH1 0x1 DUP1 PUSH1 0xA0 SHL SUB DUP6 SLOAD AND CALLER EQ PUSH2 0x726 JUMP JUMPDEST PUSH1 0x5 DUP4 GT PUSH2 0x21C JUMPI SWAP2 PUSH1 0x20 SWAP2 DUP2 PUSH32 0xFF3DD5E80294197918C284BBFC3DADD97D0B40CE92106110946329088F80068A SWAP5 SSTORE MLOAD SWAP1 DUP2 MSTORE LOG1 DUP1 RETURN JUMPDEST PUSH1 0x20 PUSH1 0x84 SWAP3 MLOAD SWAP2 PUSH3 0x461BCD PUSH1 0xE5 SHL DUP4 MSTORE DUP3 ADD MSTORE PUSH1 0x21 PUSH1 0x24 DUP3 ADD MSTORE PUSH32 0x4D6178205472616E73616374696F6E2063616E6E6F7420657863656564203525 PUSH1 0x44 DUP3 ADD MSTORE PUSH1 0x17 PUSH1 0xF9 SHL PUSH1 0x64 DUP3 ADD MSTORE REVERT JUMPDEST POP POP CALLVALUE PUSH2 0x106 JUMPI DUP1 PUSH1 0x3 NOT CALLDATASIZE ADD SLT PUSH2 0x106 JUMPI PUSH1 0x20 SWAP1 PUSH2 0x292 PUSH2 0x288 PUSH2 0x6BD JUMP JUMPDEST PUSH1 0x24 CALLDATALOAD SWAP1 CALLER PUSH2 0x873 JUMP JUMPDEST MLOAD PUSH1 0x1 DUP2 MSTORE RETURN JUMPDEST SWAP2 SWAP1 POP CALLVALUE PUSH2 0x1B5 JUMPI DUP3 PUSH1 0x3 NOT CALLDATASIZE ADD SLT PUSH2 0x1B5 JUMPI DUP1 MLOAD SWAP2 DUP4 PUSH1 0x3 SLOAD SWAP1 PUSH1 0x1 SWAP1 DUP3 PUSH1 0x1 SHR SWAP3 PUSH1 0x1 DUP2 AND DUP1 ISZERO PUSH2 0x394 JUMPI JUMPDEST PUSH1 0x20 SWAP6 DUP7 DUP7 LT DUP3 EQ PUSH2 0x381 JUMPI POP DUP5 DUP9 MSTORE SWAP1 DUP2 ISZERO PUSH2 0x35F JUMPI POP PUSH1 0x1 EQ PUSH2 0x306 JUMPI JUMPDEST PUSH2 0x302 DUP7 DUP7 PUSH2 0x2F8 DUP3 DUP12 SUB DUP4 PUSH2 0x6EE JUMP JUMPDEST MLOAD SWAP2 DUP3 SWAP2 DUP3 PUSH2 0x674 JUMP JUMPDEST SUB SWAP1 RETURN JUMPDEST SWAP3 SWAP6 POP PUSH1 0x3 DUP4 MSTORE PUSH32 0xC2575A0E9E593C00F959F8C92F12DB2869C3395A3B0502D05E2516446F71F85B JUMPDEST DUP3 DUP5 LT PUSH2 0x34C JUMPI POP POP POP DUP3 PUSH2 0x302 SWAP5 PUSH2 0x2F8 SWAP3 DUP3 ADD ADD SWAP5 CODESIZE PUSH2 0x2E7 JUMP JUMPDEST DUP1 SLOAD DUP7 DUP6 ADD DUP9 ADD MSTORE SWAP3 DUP7 ADD SWAP3 DUP2 ADD PUSH2 0x32F JUMP JUMPDEST PUSH1 0xFF NOT AND DUP8 DUP7 ADD MSTORE POP POP POP ISZERO ISZERO PUSH1 0x5 SHL DUP4 ADD ADD SWAP3 POP PUSH2 0x2F8 DUP3 PUSH2 0x302 CODESIZE PUSH2 0x2E7 JUMP JUMPDEST PUSH4 0x4E487B71 PUSH1 0xE0 SHL DUP5 MSTORE PUSH1 0x22 SWAP1 MSTORE PUSH1 0x24 DUP4 REVERT JUMPDEST SWAP4 PUSH1 0x7F AND SWAP4 PUSH2 0x2C7 JUMP JUMPDEST POP POP CALLVALUE PUSH2 0x106 JUMPI DUP2 PUSH1 0x3 NOT CALLDATASIZE ADD SLT PUSH2 0x106 JUMPI SWAP1 SLOAD SWAP1 MLOAD PUSH1 0x1 PUSH1 0x1 PUSH1 0xA0 SHL SUB SWAP1 SWAP2 AND DUP2 MSTORE PUSH1 0x20 SWAP1 RETURN JUMPDEST SWAP1 POP CALLVALUE PUSH2 0x1B5 JUMPI DUP3 PUSH1 0x3 NOT CALLDATASIZE ADD SLT PUSH2 0x1B5 JUMPI PUSH1 0x20 SWAP3 POP SLOAD SWAP1 MLOAD SWAP1 DUP2 MSTORE RETURN JUMPDEST DUP4 CALLVALUE PUSH2 0x440 JUMPI DUP1 PUSH1 0x3 NOT CALLDATASIZE ADD SLT PUSH2 0x440 JUMPI DUP1 SLOAD DUP2 PUSH1 0x1 PUSH1 0x1 PUSH1 0xA0 SHL SUB DUP3 AND PUSH2 0x40D CALLER DUP3 EQ PUSH2 0x726 JUMP JUMPDEST PUSH32 0x8BE0079C531659141344CD1FD0A4F28419497F9722A3DAAFE3B4186F6B6457E0 DUP3 DUP1 LOG3 PUSH1 0x1 PUSH1 0x1 PUSH1 0xA0 SHL SUB NOT AND DUP2 SSTORE DUP1 RETURN JUMPDEST DUP1 REVERT JUMPDEST POP POP CALLVALUE PUSH2 0x106 JUMPI PUSH1 0x20 CALLDATASIZE PUSH1 0x3 NOT ADD SLT PUSH2 0x106 JUMPI PUSH1 0x20 SWAP2 DUP2 SWAP1 PUSH1 0x1 PUSH1 0x1 PUSH1 0xA0 SHL SUB PUSH2 0x46B PUSH2 0x6BD JUMP JUMPDEST AND DUP2 MSTORE PUSH1 0x5 DUP5 MSTORE KECCAK256 SLOAD SWAP1 MLOAD SWAP1 DUP2 MSTORE RETURN JUMPDEST POP POP CALLVALUE PUSH2 0x106 JUMPI DUP2 PUSH1 0x3 NOT CALLDATASIZE ADD SLT PUSH2 0x106 JUMPI PUSH1 0x20 SWAP1 MLOAD PUSH1 0x12 DUP2 MSTORE RETURN JUMPDEST DUP3 DUP5 CALLVALUE PUSH2 0x440 JUMPI PUSH1 0x60 CALLDATASIZE PUSH1 0x3 NOT ADD SLT PUSH2 0x440 JUMPI PUSH2 0x4B2 PUSH2 0x6BD JUMP JUMPDEST SWAP1 PUSH2 0x4BB PUSH2 0x6D8 JUMP JUMPDEST PUSH2 0x4C9 PUSH1 0x44 CALLDATALOAD DUP1 SWAP3 DUP6 PUSH2 0x873 JUMP JUMPDEST PUSH1 0x1 PUSH1 0x1 PUSH1 0xA0 SHL SUB DUP4 AND DUP3 MSTORE PUSH1 0x6 PUSH1 0x20 SWAP1 DUP2 MSTORE DUP5 DUP4 KECCAK256 CALLER DUP5 MSTORE SWAP1 MSTORE DUP4 DUP3 KECCAK256 SLOAD DUP5 MLOAD SWAP3 PUSH1 0x60 DUP5 ADD SWAP1 PUSH8 0xFFFFFFFFFFFFFFFF DUP3 GT DUP6 DUP4 LT OR PUSH2 0x559 JUMPI PUSH1 0x20 DUP8 PUSH2 0x292 DUP9 PUSH2 0x551 DUP10 DUP10 DUP10 DUP10 DUP8 MSTORE PUSH1 0x28 DUP4 MSTORE PUSH32 0x45524332303A207472616E7366657220616D6F756E7420657863656564732061 DUP9 DUP5 ADD MSTORE PUSH8 0x6C6C6F77616E6365 PUSH1 0xC0 SHL DUP8 DUP5 ADD MSTORE PUSH2 0xB4D JUMP JUMPDEST SWAP1 CALLER SWAP1 PUSH2 0x771 JUMP JUMPDEST PUSH4 0x4E487B71 PUSH1 0xE0 SHL DUP2 MSTORE PUSH1 0x41 DUP9 MSTORE PUSH1 0x24 SWAP1 REVERT JUMPDEST POP POP CALLVALUE PUSH2 0x106 JUMPI DUP2 PUSH1 0x3 NOT CALLDATASIZE ADD SLT PUSH2 0x106 JUMPI PUSH1 0x20 SWAP1 PUSH1 0x1 SLOAD SWAP1 MLOAD SWAP1 DUP2 MSTORE RETURN JUMPDEST POP POP CALLVALUE PUSH2 0x106 JUMPI DUP1 PUSH1 0x3 NOT CALLDATASIZE ADD SLT PUSH2 0x106 JUMPI PUSH1 0x20 SWAP1 PUSH2 0x292 PUSH2 0x5AB PUSH2 0x6BD JUMP JUMPDEST PUSH1 0x24 CALLDATALOAD SWAP1 CALLER PUSH2 0x771 JUMP JUMPDEST SWAP3 SWAP2 POP CALLVALUE PUSH2 0x670 JUMPI DUP4 PUSH1 0x3 NOT CALLDATASIZE ADD SLT PUSH2 0x670 JUMPI PUSH1 0x2 SLOAD PUSH1 0x1 DUP2 DUP2 SHR SWAP2 DUP7 SWAP1 DUP3 DUP2 AND DUP1 ISZERO PUSH2 0x666 JUMPI JUMPDEST PUSH1 0x20 SWAP6 DUP7 DUP7 LT DUP3 EQ PUSH2 0x381 JUMPI POP DUP5 DUP9 MSTORE SWAP1 DUP2 ISZERO PUSH2 0x35F JUMPI POP PUSH1 0x1 EQ PUSH2 0x60D JUMPI PUSH2 0x302 DUP7 DUP7 PUSH2 0x2F8 DUP3 DUP12 SUB DUP4 PUSH2 0x6EE JUMP JUMPDEST SWAP3 SWAP6 POP PUSH1 0x2 DUP4 MSTORE PUSH32 0x405787FA12A823E0F2B7631CC41B3BA8828B3321CA811111FA75CD3AA3BB5ACE JUMPDEST DUP3 DUP5 LT PUSH2 0x653 JUMPI POP POP POP DUP3 PUSH2 0x302 SWAP5 PUSH2 0x2F8 SWAP3 DUP3 ADD ADD SWAP5 CODESIZE PUSH2 0x2E7 JUMP JUMPDEST DUP1 SLOAD DUP7 DUP6 ADD DUP9 ADD MSTORE SWAP3 DUP7 ADD SWAP3 DUP2 ADD PUSH2 0x636 JUMP JUMPDEST SWAP4 PUSH1 0x7F AND SWAP4 PUSH2 0x5DD JUMP JUMPDEST DUP4 DUP1 REVERT JUMPDEST PUSH1 0x20 DUP1 DUP3 MSTORE DUP3 MLOAD DUP2 DUP4 ADD DUP2 SWAP1 MSTORE SWAP1 SWAP4 SWAP3 PUSH1 0x0 JUMPDEST DUP3 DUP2 LT PUSH2 0x6A9 JUMPI POP POP PUSH1 0x40 SWAP3 SWAP4 POP PUSH1 0x0 DUP4 DUP3 DUP5 ADD ADD MSTORE PUSH1 0x1F DUP1 NOT SWAP2 ADD AND ADD ADD SWAP1 JUMP JUMPDEST DUP2 DUP2 ADD DUP7 ADD MLOAD DUP5 DUP3 ADD PUSH1 0x40 ADD MSTORE DUP6 ADD PUSH2 0x687 JUMP JUMPDEST PUSH1 0x4 CALLDATALOAD SWAP1 PUSH1 0x1 PUSH1 0x1 PUSH1 0xA0 SHL SUB DUP3 AND DUP3 SUB PUSH2 0x6D3 JUMPI JUMP JUMPDEST PUSH1 0x0 DUP1 REVERT JUMPDEST PUSH1 0x24 CALLDATALOAD SWAP1 PUSH1 0x1 PUSH1 0x1 PUSH1 0xA0 SHL SUB DUP3 AND DUP3 SUB PUSH2 0x6D3 JUMPI JUMP JUMPDEST SWAP1 PUSH1 0x1F DUP1 NOT SWAP2 ADD AND DUP2 ADD SWAP1 DUP2 LT PUSH8 0xFFFFFFFFFFFFFFFF DUP3 GT OR PUSH2 0x710 JUMPI PUSH1 0x40 MSTORE JUMP JUMPDEST PUSH4 0x4E487B71 PUSH1 0xE0 SHL PUSH1 0x0 MSTORE PUSH1 0x41 PUSH1 0x4 MSTORE PUSH1 0x24 PUSH1 0x0 REVERT JUMPDEST ISZERO PUSH2 0x72D JUMPI JUMP JUMPDEST PUSH1 0x64 PUSH1 0x40 MLOAD PUSH3 0x461BCD PUSH1 0xE5 SHL DUP2 MSTORE PUSH1 0x20 PUSH1 0x4 DUP3 ADD MSTORE PUSH1 0x20 PUSH1 0x24 DUP3 ADD MSTORE PUSH32 0x4F776E61626C653A2063616C6C6572206973206E6F7420746865206F776E6572 PUSH1 0x44 DUP3 ADD MSTORE REVERT JUMPDEST PUSH1 0x1 PUSH1 0x1 PUSH1 0xA0 SHL SUB SWAP1 DUP2 AND SWAP2 DUP3 ISZERO PUSH2 0x822 JUMPI AND SWAP2 DUP3 ISZERO PUSH2 0x7D2 JUMPI PUSH1 0x20 PUSH32 0x8C5BE1E5EBEC7D5BD14F71427D1E84F3DD0314C0F7B2291E5B200AC8C7C3B925 SWAP2 DUP4 PUSH1 0x0 MSTORE PUSH1 0x6 DUP3 MSTORE PUSH1 0x40 PUSH1 0x0 KECCAK256 DUP6 PUSH1 0x0 MSTORE DUP3 MSTORE DUP1 PUSH1 0x40 PUSH1 0x0 KECCAK256 SSTORE PUSH1 0x40 MLOAD SWAP1 DUP2 MSTORE LOG3 JUMP JUMPDEST PUSH1 0x40 MLOAD PUSH3 0x461BCD PUSH1 0xE5 SHL DUP2 MSTORE PUSH1 0x20 PUSH1 0x4 DUP3 ADD MSTORE PUSH1 0x22 PUSH1 0x24 DUP3 ADD MSTORE PUSH32 0x45524332303A20617070726F766520746F20746865207A65726F206164647265 PUSH1 0x44 DUP3 ADD MSTORE PUSH2 0x7373 PUSH1 0xF0 SHL PUSH1 0x64 DUP3 ADD MSTORE PUSH1 0x84 SWAP1 REVERT JUMPDEST PUSH1 0x40 MLOAD PUSH3 0x461BCD PUSH1 0xE5 SHL DUP2 MSTORE PUSH1 0x20 PUSH1 0x4 DUP3 ADD MSTORE PUSH1 0x24 DUP1 DUP3 ADD MSTORE PUSH32 0x45524332303A20617070726F76652066726F6D20746865207A65726F20616464 PUSH1 0x44 DUP3 ADD MSTORE PUSH4 0x72657373 PUSH1 0xE0 SHL PUSH1 0x64 DUP3 ADD MSTORE PUSH1 0x84 SWAP1 REVERT JUMPDEST SWAP2 SWAP3 SWAP2 PUSH1 0x1 PUSH1 0x1 PUSH1 0xA0 SHL SUB SWAP1 DUP2 AND SWAP2 DUP3 ISZERO PUSH2 0xAFA JUMPI AND SWAP1 DUP2 ISZERO PUSH2 0xAA9 JUMPI DUP4 ISZERO PUSH2 0xA52 JUMPI PUSH1 0x4 DUP1 SLOAD SWAP5 PUSH1 0x1 SLOAD SWAP6 DUP7 DUP2 MUL SWAP7 DUP2 DUP9 DIV EQ SWAP1 ISZERO OR ISZERO PUSH2 0xA3D JUMPI PUSH1 0x0 SWAP6 DUP4 DUP8 MSTORE PUSH1 0x20 SWAP3 PUSH1 0x7 DUP5 MSTORE PUSH1 0x40 SWAP2 PUSH1 0xFF DUP4 DUP11 KECCAK256 SLOAD AND ISZERO PUSH2 0x9EC JUMPI JUMPDEST POP DUP5 DUP9 MSTORE PUSH1 0x5 DUP5 MSTORE DUP2 DUP9 KECCAK256 SLOAD DUP3 MLOAD SWAP1 DUP4 DUP3 ADD DUP3 DUP2 LT PUSH8 0xFFFFFFFFFFFFFFFF DUP3 GT OR PUSH2 0x9D9 JUMPI PUSH2 0x928 SWAP3 SWAP2 DUP7 SWAP2 DUP7 MSTORE PUSH1 0x1E DUP4 MSTORE PUSH32 0x536166654D6174683A207375627472616374696F6E206F766572666C6F770000 DUP9 DUP5 ADD MSTORE PUSH2 0xB4D JUMP JUMPDEST DUP6 DUP10 MSTORE PUSH1 0x5 DUP6 MSTORE DUP3 DUP10 KECCAK256 SSTORE DUP6 DUP9 MSTORE DUP2 DUP9 KECCAK256 SLOAD SWAP1 DUP4 DUP3 ADD SWAP2 DUP3 DUP2 GT PUSH2 0x9C6 JUMPI DUP3 LT PUSH2 0x983 JUMPI POP DUP2 DUP9 DUP8 PUSH32 0xDDF252AD1BE2C89B69C2B068FC378DAA952BA7F163C4A11628F55A4DF523B3EF SWAP8 SWAP9 SWAP10 SWAP11 MSTORE PUSH1 0x5 DUP7 MSTORE KECCAK256 SSTORE MLOAD SWAP1 DUP2 MSTORE LOG3 JUMP JUMPDEST DUP3 MLOAD PUSH3 0x461BCD PUSH1 0xE5 SHL DUP2 MSTORE SWAP1 DUP2 ADD DUP6 SWAP1 MSTORE PUSH1 0x1B PUSH1 0x24 DUP3 ADD MSTORE PUSH32 0x536166654D6174683A206164646974696F6E206F766572666C6F770000000000 PUSH1 0x44 DUP3 ADD MSTORE PUSH1 0x64 SWAP1 REVERT JUMPDEST PUSH4 0x4E487B71 PUSH1 0xE0 SHL DUP11 MSTORE PUSH1 0x11 DUP3 MSTORE PUSH1 0x24 DUP11 REVERT JUMPDEST PUSH4 0x4E487B71 PUSH1 0xE0 SHL DUP12 MSTORE PUSH1 0x41 DUP5 MSTORE PUSH1 0x24 DUP12 REVERT JUMPDEST PUSH1 0x64 SWAP1 DIV DUP4 GT PUSH2 0x9FC JUMPI CODESIZE PUSH2 0x8CC JUMP JUMPDEST DUP4 PUSH1 0x64 SWAP3 MLOAD SWAP2 PUSH3 0x461BCD PUSH1 0xE5 SHL DUP4 MSTORE DUP3 ADD MSTORE PUSH1 0x18 PUSH1 0x24 DUP3 ADD MSTORE PUSH32 0x4578636565647320746865204D61785478416D6F756E742E0000000000000000 PUSH1 0x44 DUP3 ADD MSTORE REVERT JUMPDEST PUSH1 0x11 DUP3 PUSH4 0x4E487B71 PUSH1 0xE0 SHL PUSH1 0x0 MSTORE MSTORE PUSH1 0x24 PUSH1 0x0 REVERT JUMPDEST PUSH1 0x40 MLOAD PUSH3 0x461BCD PUSH1 0xE5 SHL DUP2 MSTORE PUSH1 0x20 PUSH1 0x4 DUP3 ADD MSTORE PUSH1 0x29 PUSH1 0x24 DUP3 ADD MSTORE PUSH32 0x5472616E7366657220616D6F756E74206D757374206265206772656174657220 PUSH1 0x44 DUP3 ADD MSTORE PUSH9 0x7468616E207A65726F PUSH1 0xB8 SHL PUSH1 0x64 DUP3 ADD MSTORE PUSH1 0x84 SWAP1 REVERT JUMPDEST PUSH1 0x40 MLOAD PUSH3 0x461BCD PUSH1 0xE5 SHL DUP2 MSTORE PUSH1 0x20 PUSH1 0x4 DUP3 ADD MSTORE PUSH1 0x23 PUSH1 0x24 DUP3 ADD MSTORE PUSH32 0x45524332303A207472616E7366657220746F20746865207A65726F2061646472 PUSH1 0x44 DUP3 ADD MSTORE PUSH3 0x657373 PUSH1 0xE8 SHL PUSH1 0x64 DUP3 ADD MSTORE PUSH1 0x84 SWAP1 REVERT JUMPDEST PUSH1 0x40 MLOAD PUSH3 0x461BCD PUSH1 0xE5 SHL DUP2 MSTORE PUSH1 0x20 PUSH1 0x4 DUP3 ADD MSTORE PUSH1 0x25 PUSH1 0x24 DUP3 ADD MSTORE PUSH32 0x45524332303A207472616E736665722066726F6D20746865207A65726F206164 PUSH1 0x44 DUP3 ADD MSTORE PUSH5 0x6472657373 PUSH1 0xD8 SHL PUSH1 0x64 DUP3 ADD MSTORE PUSH1 0x84 SWAP1 REVERT JUMPDEST SWAP2 DUP3 DUP3 GT PUSH2 0xB78 JUMPI POP DUP2 SUB SWAP1 DUP2 GT PUSH2 0xB62 JUMPI SWAP1 JUMP JUMPDEST PUSH4 0x4E487B71 PUSH1 0xE0 SHL PUSH1 0x0 MSTORE PUSH1 0x11 PUSH1 0x4 MSTORE PUSH1 0x24 PUSH1 0x0 REVERT JUMPDEST PUSH1 0x40 MLOAD PUSH3 0x461BCD PUSH1 0xE5 SHL DUP2 MSTORE SWAP1 DUP2 SWAP1 PUSH2 0xB94 SWAP1 PUSH1 0x4 DUP4 ADD PUSH2 0x674 JUMP JUMPDEST SUB SWAP1 REVERT INVALID LOG2 PUSH5 0x6970667358 0x22 SLT KECCAK256 0xC4 SWAP15 SSTORE SELFBALANCE BLOCKHASH 0xCB PUSH18 0xAA09A85B3746B1A934ACBFB9371A9F5EEFD2 PUSH27 0x7B626EA785F264736F6C63430008180033A2646970667358221220 CALLVALUE 0xC7 SSTORE OR DUP12 PUSH29 0x677AF06651F2979571C8E895828E0C15C81B2CD5B3CA43DBEEE064736F PUSH13 0x63430008180033000000000000 "
        },
        "methodIdentifiers": {
          "approval(address,address,uint256)": "5c52a5f2",
          "deploy(address)": "4c96a389",
          "feeTo()": "017e7e58",
          "feeToSetter()": "094b7415",
          "getTokens()": "aa6ca808",
          "getUserTokens()": "8a664ebc",
          "launch(string,string,string,string,string[4],uint256,uint256)": "ad256f7d",
          "launchFee()": "cf3cf573",
          "liquidityFee()": "98118cb4",
          "marketCapLimit()": "80997e47",
          "profile(address)": "9dd9d0fd",
          "profiles(uint256)": "c36fe3d6",
          "setFeeTo(address)": "f46901ed",
          "swapETHForTokens(address,address,address)": "57f8d901",
          "swapTokensForETH(uint256,address,address,address)": "512b1e6e",
          "token(address)": "6d46a1db",
          "tokens(uint256)": "4f64b2be",
          "updateLaunchFee(uint256)": "7660f44a",
          "withdraw()": "3ccfd60b"
        }
      }
    }
  }
}