{
  "contracts/Router.sol": {
    "Router": {
      "abi": [
        {
          "inputs": [
            {
              "internalType": "address",
              "name": "factory_",
              "type": "address"
            },
            {
              "internalType": "address",
              "name": "weth",
              "type": "address"
            },
            {
              "internalType": "uint256",
              "name": "refFee",
              "type": "uint256"
            }
          ],
          "stateMutability": "nonpayable",
          "type": "constructor"
        },
        {
          "inputs": [],
          "name": "ReentrancyGuardReentrantCall",
          "type": "error"
        },
        {
          "inputs": [],
          "name": "WETH",
          "outputs": [
            {
              "internalType": "address",
              "name": "",
              "type": "address"
            }
          ],
          "stateMutability": "view",
          "type": "function"
        },
        {
          "inputs": [
            {
              "internalType": "address",
              "name": "token",
              "type": "address"
            },
            {
              "internalType": "uint256",
              "name": "amountToken",
              "type": "uint256"
            }
          ],
          "name": "addLiquidityETH",
          "outputs": [
            {
              "internalType": "uint256",
              "name": "",
              "type": "uint256"
            },
            {
              "internalType": "uint256",
              "name": "",
              "type": "uint256"
            }
          ],
          "stateMutability": "payable",
          "type": "function"
        },
        {
          "inputs": [],
          "name": "factory",
          "outputs": [
            {
              "internalType": "address",
              "name": "",
              "type": "address"
            }
          ],
          "stateMutability": "view",
          "type": "function"
        },
        {
          "inputs": [
            {
              "internalType": "address",
              "name": "token",
              "type": "address"
            },
            {
              "internalType": "address",
              "name": "weth",
              "type": "address"
            },
            {
              "internalType": "uint256",
              "name": "amountIn",
              "type": "uint256"
            }
          ],
          "name": "getAmountsOut",
          "outputs": [
            {
              "internalType": "uint256",
              "name": "_amountOut",
              "type": "uint256"
            }
          ],
          "stateMutability": "nonpayable",
          "type": "function"
        },
        {
          "inputs": [],
          "name": "referralFee",
          "outputs": [
            {
              "internalType": "uint256",
              "name": "",
              "type": "uint256"
            }
          ],
          "stateMutability": "view",
          "type": "function"
        },
        {
          "inputs": [
            {
              "internalType": "address",
              "name": "token",
              "type": "address"
            },
            {
              "internalType": "uint256",
              "name": "liquidity",
              "type": "uint256"
            },
            {
              "internalType": "address",
              "name": "to",
              "type": "address"
            }
          ],
          "name": "removeLiquidityETH",
          "outputs": [
            {
              "internalType": "uint256",
              "name": "",
              "type": "uint256"
            },
            {
              "internalType": "uint256",
              "name": "",
              "type": "uint256"
            }
          ],
          "stateMutability": "nonpayable",
          "type": "function"
        },
        {
          "inputs": [
            {
              "internalType": "address",
              "name": "token",
              "type": "address"
            },
            {
              "internalType": "address",
              "name": "to",
              "type": "address"
            },
            {
              "internalType": "address",
              "name": "referree",
              "type": "address"
            }
          ],
          "name": "swapETHForTokens",
          "outputs": [
            {
              "internalType": "uint256",
              "name": "",
              "type": "uint256"
            },
            {
              "internalType": "uint256",
              "name": "",
              "type": "uint256"
            }
          ],
          "stateMutability": "payable",
          "type": "function"
        },
        {
          "inputs": [
            {
              "internalType": "uint256",
              "name": "amountIn",
              "type": "uint256"
            },
            {
              "internalType": "address",
              "name": "token",
              "type": "address"
            },
            {
              "internalType": "address",
              "name": "to",
              "type": "address"
            },
            {
              "internalType": "address",
              "name": "referree",
              "type": "address"
            }
          ],
          "name": "swapTokensForETH",
          "outputs": [
            {
              "internalType": "uint256",
              "name": "",
              "type": "uint256"
            },
            {
              "internalType": "uint256",
              "name": "",
              "type": "uint256"
            }
          ],
          "stateMutability": "nonpayable",
          "type": "function"
        }
      ],
      "evm": {
        "bytecode": {
          "linkReferences": {},
          "object": "6080346200010a57601f6200188b38819003918201601f19168301916001600160401b038311848410176200010f578084926060946040528339810103126200010a576200004d8162000125565b9060406200005e6020830162000125565b9101516001600055916001600160a01b0390811691620000808315156200013a565b16906200008f8215156200013a565b60018060a01b031990816001541617600155600254161760025560058111620000c5576003556040516117039081620001888239f35b60405162461bcd60e51b815260206004820152601e60248201527f526566657272616c204665652063616e6e6f74206578636565642035252e00006044820152606490fd5b600080fd5b634e487b7160e01b600052604160045260246000fd5b51906001600160a01b03821682036200010a57565b156200014257565b60405162461bcd60e51b815260206004820152601f60248201527f5a65726f2061646472657373657320617265206e6f7420616c6c6f7765642e006044820152606490fdfe6080604052600436101561001257600080fd5b60003560e01c806345608d0014611062578063512b1e6e14610a2257806357f8d9011461068b5780637282d548146104f857806384ae2bc6146104da578063ad5c4648146104b1578063c45a0155146104885763e79a40891461007457600080fd5b346103d55760603660031901126103d55761008d6110a6565b602435906100996110d2565b916100a2611377565b6001600160a01b039261011190838516906100be8215156110e8565b6100cb86821615156110e8565b60015460025460405163e6a4390560e01b81526001600160a01b038881166004830152918916909116602482015296602094909185918991841690829081906044820190565b03915afa9687156102f057600097610459575b50861695604051630240bc6b60e21b81526060816004818b5afa9081156102f057600091610428575b506040516316d3df1560e31b815285816004818c5afa80156102f05786916000916103f7575b5061018f6101c793606461018881948c6111bf565b04996111bf565b604051632e2952f960e11b81523060048201526001600160a01b03909a1660248b015204604489018190529791829081906064820190565b038160008c5af19081156102f0576000916103da575b50156103d557604051637b1a490960e01b81526001600160a01b038316600482015260248101869052848160448160008c5af19081156102f0576000916103b8575b5015610369576040516323b872dd60e01b81526001600160a01b0391821660048201529116602482015260448101859052908290829060649082906000905af19081156102f05760009161034c575b50156102fc57604051631d24e23160e21b81526004810184905260248101839052336044820152938190859060649082906000905af19384156102f0576040946102c3575b5060016000558351928352820152f35b6102e290823d84116102e9575b6102da8183611166565b8101906111a7565b50386102b3565b503d6102d0565b6040513d6000823e3d90fd5b6084906040519062461bcd60e51b82526004820152602360248201527f5472616e73666572206f6620746f6b656e20746f2063616c6c6572206661696c60448201526232b21760e91b6064820152fd5b6103639150823d84116102e9576102da8183611166565b3861026e565b60405162461bcd60e51b815260048101859052602160248201527f5472616e73666572206f662045544820746f2063616c6c6572206661696c65646044820152601760f91b6064820152608490fd5b6103cf9150853d87116102e9576102da8183611166565b3861021f565b600080fd5b6103f19150853d87116102e9576102da8183611166565b386101dd565b82819392503d8311610421575b61040e8183611166565b810103126103d55751859061018f610173565b503d610404565b61044a915060603d606011610452575b6104428183611166565b81019061139a565b50503861014d565b503d610438565b61047a919750843d8611610481575b6104728183611166565b810190611188565b9538610124565b503d610468565b346103d55760003660031901126103d5576001546040516001600160a01b039091168152602090f35b346103d55760003660031901126103d5576002546040516001600160a01b039091168152602090f35b346103d55760003660031901126103d5576020600354604051908152f35b60403660031901126103d55761050c6110a6565b602435610517611377565b6001600160a01b03828116929061052f8415156110e8565b60015460025460405163e6a4390560e01b81526001600160a01b0394851660048201529083169093166024840152602092919083908390604490829085165afa9182156102f05760009261066c575b5061059161058c348461159b565b6112d5565b6040516323b872dd60e01b81523360048201526001600160a01b038316602482015260448101859052948390869060649082906000905af19182156102f0576105e58493600097889161064f575b50611321565b60405163e7d3fe6b60e01b815260048101869052346024820152336044820152958692606492849291165af19283156102f057604093610632575b50600160005582519182523490820152f35b61064890823d84116102e9576102da8183611166565b5083610620565b6106669150853d87116102e9576102da8183611166565b886105df565b610684919250833d8511610481576104728183611166565b908561057e565b60603660031901126103d55761069f6110a6565b6106a76110bc565b906106b06110d2565b906106b9611377565b6001600160a01b03818116936106d08515156110e8565b6106dd82821615156110e8565b81841615156106eb816110e8565b60015460025460405163e6a4390560e01b81526001600160a01b03878116600483015291861691821660248201529760209591949092909190811690868a604481855afa998a156102f05760009a6109f9575b5086610752610789928c169734908b61140f565b604051632e2952f960e11b81523060048201526001600160a01b03909a1660248b015260448a018190529891829081906064820190565b038160008a5af19081156102f0576000916109dc575b50156109a75760405163cf82046160e01b81528681600481855afa9081156102f057600091610978575b506107d760649134906111bf565b0493156109615790856004939261081761081260646107f8346003546111bf565b0461080c610806828b611215565b34611208565b9c61159b565b611222565b604051622fcfcb60e31b815294859182905afa9384156102f05761089c9961086261085d6000938a988d8d99879261093a575b5061058c610858918761159b565b61159b565b61127a565b6040516323b872dd60e01b81526001600160a01b039182166004820152921660248301526044820193909352978892839182906064820190565b03925af19081156102f0576108bb839260009788916109235750611321565b608460405180978193635673b02d60e01b83528160048401528760248401528860448401528160648401525af19384156102f057604094610906575060016000558351928352820152f35b61091c90823d84116102e9576102da8183611166565b50846102b3565b6106669150843d86116102e9576102da8183611166565b61085891925061095961058c918d803d10610481576104728183611166565b92915061084a565b965090600491856109728534611208565b98610817565b90508681813d83116109a0575b61098f8183611166565b810103126103d557516107d76107c9565b503d610985565b60405162461bcd60e51b815260048101879052600d60248201526c2737ba1020b8383937bb32b21760991b6044820152606490fd5b6109f39150873d89116102e9576102da8183611166565b8a61079f565b610789919a50610752610a198992833d8511610481576104728183611166565b9b92505061073e565b346103d55760803660031901126103d557610a3b6110bc565b610a436110d2565b6064356001600160a01b0381169290918383036103d557610a62611377565b610a766001600160a01b03831615156110e8565b610a8a6001600160a01b03821615156110e8565b610a958415156110e8565b60015460025460405163e6a4390560e01b81526001600160a01b0385811660048301529182166024820181905290949190921691602085604481865afa9485156102f057600095611041575b50610af66001600160a01b03831615156110e8565b60405163e6a4390560e01b81526001600160a01b03838116600483015282166024820152602081604481875afa9081156102f057600091611022575b50604051630240bc6b60e21b81526001600160a01b039190911691606082600481865afa9081156102f057600493600093600093610ff8575b5060209060405195868092637464fc3d60e01b82525afa9384156102f057600094610fc4575b50610fa957610bdd92610baa610bc3926004359061160c565b90610bbe610bb66113b5565b831515611666565b6111e8565b90610bd8610bcf6113e0565b82841115611666565b611208565b905b6040516323b872dd60e01b81526001600160a01b038581166004808401919091528782166024840152356044830152909160209183916064918391600091165af19081156102f057600091610f8a575b5015610f465760405163cf82046160e01b8152602081600481865afa80156102f0578291600091610f10575b50606491610c68916111bf565b0495869015610ef9575090602082610c9c6064610c8a610cce966003546111bf565b0491610c96838b611215565b90611208565b604051637b1a490960e01b81526001600160a01b03909816600489015260248801919091529592839081906044820190565b038160006001600160a01b0389165af19081156102f057610cfc602092600494600091610edc575b50611222565b604051622fcfcb60e31b815292839182905afa9081156102f057600091610ebd575b50604051637b1a490960e01b8082526001600160a01b039093166004820152602481018590526020818060448101038160006001600160a01b0389165af19081156102f057600091610e9e575b5015610e59576040519182526001600160a01b0316600482015260248101939093526020838060448101038160006001600160a01b0386165af19081156102f057610dc26020926000958691610e3c575b5061127a565b608460405180958193635673b02d60e01b8352600435600484015281602484015281604484015286606484015260018060a01b03165af19182156102f057604092610e1d575b50600160005581519060043582526020820152f35b610e359060203d6020116102e9576102da8183611166565b5082610e08565b610e539150843d86116102e9576102da8183611166565b86610dbc565b60405162461bcd60e51b815260206004820152601f60248201527f5472616e73666572206f662045544820746f2075736572206661696c65642e006044820152606490fd5b610eb7915060203d6020116102e9576102da8183611166565b86610d6b565b610ed6915060203d602011610481576104728183611166565b85610d1e565b610ef39150843d86116102e9576102da8183611166565b89610cf6565b6004929550610f0a90602092611208565b94610cfc565b9150506020813d602011610f3e575b81610f2c60209383611166565b810103126103d5575181906064610c5b565b3d9150610f1f565b606460405162461bcd60e51b815260206004820152602060248201527f5472616e73666572206f6620746f6b656e20746f2070616972206661696c65646044820152fd5b610fa3915060203d6020116102e9576102da8183611166565b87610c2f565b90610fbe92610baa610bc3926004359061160c565b90610bdf565b9093506020813d602011610ff0575b81610fe060209383611166565b810103126103d55751928a610b91565b3d9150610fd3565b6020945061101691935060603d606011610452576104428183611166565b94919050939290610b6b565b61103b915060203d602011610481576104728183611166565b88610b32565b61105b91955060203d602011610481576104728183611166565b9387610ae1565b346103d55760603660031901126103d55760206110996110806110a6565b6110886110bc565b611090611377565b6044359161140f565b6001600055604051908152f35b600435906001600160a01b03821682036103d557565b602435906001600160a01b03821682036103d557565b604435906001600160a01b03821682036103d557565b156110ef57565b60405162461bcd60e51b815260206004820152601f60248201527f5a65726f2061646472657373657320617265206e6f7420616c6c6f7765642e006044820152606490fd5b6040810190811067ffffffffffffffff82111761115057604052565b634e487b7160e01b600052604160045260246000fd5b90601f8019910116810190811067ffffffffffffffff82111761115057604052565b908160209103126103d557516001600160a01b03811681036103d55790565b908160209103126103d5575180151581036103d55790565b818102929181159184041417156111d257565b634e487b7160e01b600052601160045260246000fd5b81156111f2570490565b634e487b7160e01b600052601260045260246000fd5b919082039182116111d257565b919082018092116111d257565b1561122957565b60405162461bcd60e51b815260206004820152602360248201527f5472616e73666572206f662045544820746f207265666572726565206661696c60448201526232b21760e91b6064820152608490fd5b1561128157565b60405162461bcd60e51b815260206004820152602660248201527f5472616e73666572206f662045544820746f206665652061646472657373206660448201526530b4b632b21760d11b6064820152608490fd5b156112dc57565b60405162461bcd60e51b815260206004820152601f60248201527f5472616e73666572206f662045544820746f2070616972206661696c65642e006044820152606490fd5b1561132857565b60405162461bcd60e51b815260206004820152602160248201527f5472616e73666572206f6620746f6b656e20746f2070616972206661696c65646044820152601760f91b6064820152608490fd5b600260005414611388576002600055565b604051633ee5aeb560e01b8152600490fd5b908160609103126103d5578051916040602083015192015190565b604051906113c282611134565b600f82526e111a5d9a5cda5bdb8819985a5b1959608a1b6020830152565b604051906113ed82611134565b601382527229bab13a3930b1ba34b7b7103330b4b632b21760691b6020830152565b6001600160a01b0392909161142784841615156110e8565b6001546002546040805163e6a4390560e01b81526001600160a01b039687166004820152918716958616602483015260209690959290919087908290604490829086165afa90811561159057908291600091611573575b501692855196630240bc6b60e21b8852606088600481885afa94851561156857600098600096611539575b509080600492895193848092637464fc3d60e01b82525afa97881561152f57506000976114ff575b505016036114ee5791610baa610bc3926114eb959461160c565b90565b91610baa610bc3926114eb9561160c565b9080929750813d8311611528575b6115178183611166565b810103126103d557519438806114d1565b503d61150d565b513d6000823e3d90fd5b82995060049291965061155a9060603d606011610452576104428183611166565b9a91905099969192506114a9565b87513d6000823e3d90fd5b61158a9150883d8a11610481576104728183611166565b3861147e565b86513d6000823e3d90fd5b6001600160a01b03166115af8115156110e8565b60008080809481945af1903d15611608573d9067ffffffffffffffff82116115f457604051916115e9601f8201601f191660200184611166565b825260203d92013e90565b634e487b7160e01b81526041600452602490fd5b5090565b906116179082611215565b9081106116215790565b60405162461bcd60e51b815260206004820152601b60248201527f536166654d6174683a206164646974696f6e206f766572666c6f7700000000006044820152606490fd5b1561166e5750565b6040519062461bcd60e51b82528160208060048301528251908160248401526000935b8285106116b4575050604492506000838284010152601f80199101168101030190fd5b848101820151868601604401529381019385935061169156fea26469706673582212200747326b2c0cd8e4577ea5aae08c8521b64ea0fd9ba426c4cef02fab760e8e8764736f6c63430008180033",
          "opcodes": "PUSH1 0x80 CALLVALUE PUSH3 0x10A JUMPI PUSH1 0x1F PUSH3 0x188B CODESIZE DUP2 SWAP1 SUB SWAP2 DUP3 ADD PUSH1 0x1F NOT AND DUP4 ADD SWAP2 PUSH1 0x1 PUSH1 0x1 PUSH1 0x40 SHL SUB DUP4 GT DUP5 DUP5 LT OR PUSH3 0x10F JUMPI DUP1 DUP5 SWAP3 PUSH1 0x60 SWAP5 PUSH1 0x40 MSTORE DUP4 CODECOPY DUP2 ADD SUB SLT PUSH3 0x10A JUMPI PUSH3 0x4D DUP2 PUSH3 0x125 JUMP JUMPDEST SWAP1 PUSH1 0x40 PUSH3 0x5E PUSH1 0x20 DUP4 ADD PUSH3 0x125 JUMP JUMPDEST SWAP2 ADD MLOAD PUSH1 0x1 PUSH1 0x0 SSTORE SWAP2 PUSH1 0x1 PUSH1 0x1 PUSH1 0xA0 SHL SUB SWAP1 DUP2 AND SWAP2 PUSH3 0x80 DUP4 ISZERO ISZERO PUSH3 0x13A JUMP JUMPDEST AND SWAP1 PUSH3 0x8F DUP3 ISZERO ISZERO PUSH3 0x13A JUMP JUMPDEST PUSH1 0x1 DUP1 PUSH1 0xA0 SHL SUB NOT SWAP1 DUP2 PUSH1 0x1 SLOAD AND OR PUSH1 0x1 SSTORE PUSH1 0x2 SLOAD AND OR PUSH1 0x2 SSTORE PUSH1 0x5 DUP2 GT PUSH3 0xC5 JUMPI PUSH1 0x3 SSTORE PUSH1 0x40 MLOAD PUSH2 0x1703 SWAP1 DUP2 PUSH3 0x188 DUP3 CODECOPY RETURN JUMPDEST PUSH1 0x40 MLOAD PUSH3 0x461BCD PUSH1 0xE5 SHL DUP2 MSTORE PUSH1 0x20 PUSH1 0x4 DUP3 ADD MSTORE PUSH1 0x1E PUSH1 0x24 DUP3 ADD MSTORE PUSH32 0x526566657272616C204665652063616E6E6F74206578636565642035252E0000 PUSH1 0x44 DUP3 ADD MSTORE PUSH1 0x64 SWAP1 REVERT JUMPDEST PUSH1 0x0 DUP1 REVERT JUMPDEST PUSH4 0x4E487B71 PUSH1 0xE0 SHL PUSH1 0x0 MSTORE PUSH1 0x41 PUSH1 0x4 MSTORE PUSH1 0x24 PUSH1 0x0 REVERT JUMPDEST MLOAD SWAP1 PUSH1 0x1 PUSH1 0x1 PUSH1 0xA0 SHL SUB DUP3 AND DUP3 SUB PUSH3 0x10A JUMPI JUMP JUMPDEST ISZERO PUSH3 0x142 JUMPI JUMP JUMPDEST PUSH1 0x40 MLOAD PUSH3 0x461BCD PUSH1 0xE5 SHL DUP2 MSTORE PUSH1 0x20 PUSH1 0x4 DUP3 ADD MSTORE PUSH1 0x1F PUSH1 0x24 DUP3 ADD MSTORE PUSH32 0x5A65726F2061646472657373657320617265206E6F7420616C6C6F7765642E00 PUSH1 0x44 DUP3 ADD MSTORE PUSH1 0x64 SWAP1 REVERT INVALID PUSH1 0x80 PUSH1 0x40 MSTORE PUSH1 0x4 CALLDATASIZE LT ISZERO PUSH2 0x12 JUMPI PUSH1 0x0 DUP1 REVERT JUMPDEST PUSH1 0x0 CALLDATALOAD PUSH1 0xE0 SHR DUP1 PUSH4 0x45608D00 EQ PUSH2 0x1062 JUMPI DUP1 PUSH4 0x512B1E6E EQ PUSH2 0xA22 JUMPI DUP1 PUSH4 0x57F8D901 EQ PUSH2 0x68B JUMPI DUP1 PUSH4 0x7282D548 EQ PUSH2 0x4F8 JUMPI DUP1 PUSH4 0x84AE2BC6 EQ PUSH2 0x4DA JUMPI DUP1 PUSH4 0xAD5C4648 EQ PUSH2 0x4B1 JUMPI DUP1 PUSH4 0xC45A0155 EQ PUSH2 0x488 JUMPI PUSH4 0xE79A4089 EQ PUSH2 0x74 JUMPI PUSH1 0x0 DUP1 REVERT JUMPDEST CALLVALUE PUSH2 0x3D5 JUMPI PUSH1 0x60 CALLDATASIZE PUSH1 0x3 NOT ADD SLT PUSH2 0x3D5 JUMPI PUSH2 0x8D PUSH2 0x10A6 JUMP JUMPDEST PUSH1 0x24 CALLDATALOAD SWAP1 PUSH2 0x99 PUSH2 0x10D2 JUMP JUMPDEST SWAP2 PUSH2 0xA2 PUSH2 0x1377 JUMP JUMPDEST PUSH1 0x1 PUSH1 0x1 PUSH1 0xA0 SHL SUB SWAP3 PUSH2 0x111 SWAP1 DUP4 DUP6 AND SWAP1 PUSH2 0xBE DUP3 ISZERO ISZERO PUSH2 0x10E8 JUMP JUMPDEST PUSH2 0xCB DUP7 DUP3 AND ISZERO ISZERO PUSH2 0x10E8 JUMP JUMPDEST PUSH1 0x1 SLOAD PUSH1 0x2 SLOAD PUSH1 0x40 MLOAD PUSH4 0xE6A43905 PUSH1 0xE0 SHL DUP2 MSTORE PUSH1 0x1 PUSH1 0x1 PUSH1 0xA0 SHL SUB DUP9 DUP2 AND PUSH1 0x4 DUP4 ADD MSTORE SWAP2 DUP10 AND SWAP1 SWAP2 AND PUSH1 0x24 DUP3 ADD MSTORE SWAP7 PUSH1 0x20 SWAP5 SWAP1 SWAP2 DUP6 SWAP2 DUP10 SWAP2 DUP5 AND SWAP1 DUP3 SWAP1 DUP2 SWAP1 PUSH1 0x44 DUP3 ADD SWAP1 JUMP JUMPDEST SUB SWAP2 GAS STATICCALL SWAP7 DUP8 ISZERO PUSH2 0x2F0 JUMPI PUSH1 0x0 SWAP8 PUSH2 0x459 JUMPI JUMPDEST POP DUP7 AND SWAP6 PUSH1 0x40 MLOAD PUSH4 0x240BC6B PUSH1 0xE2 SHL DUP2 MSTORE PUSH1 0x60 DUP2 PUSH1 0x4 DUP2 DUP12 GAS STATICCALL SWAP1 DUP2 ISZERO PUSH2 0x2F0 JUMPI PUSH1 0x0 SWAP2 PUSH2 0x428 JUMPI JUMPDEST POP PUSH1 0x40 MLOAD PUSH4 0x16D3DF15 PUSH1 0xE3 SHL DUP2 MSTORE DUP6 DUP2 PUSH1 0x4 DUP2 DUP13 GAS STATICCALL DUP1 ISZERO PUSH2 0x2F0 JUMPI DUP7 SWAP2 PUSH1 0x0 SWAP2 PUSH2 0x3F7 JUMPI JUMPDEST POP PUSH2 0x18F PUSH2 0x1C7 SWAP4 PUSH1 0x64 PUSH2 0x188 DUP2 SWAP5 DUP13 PUSH2 0x11BF JUMP JUMPDEST DIV SWAP10 PUSH2 0x11BF JUMP JUMPDEST PUSH1 0x40 MLOAD PUSH4 0x2E2952F9 PUSH1 0xE1 SHL DUP2 MSTORE ADDRESS PUSH1 0x4 DUP3 ADD MSTORE PUSH1 0x1 PUSH1 0x1 PUSH1 0xA0 SHL SUB SWAP1 SWAP11 AND PUSH1 0x24 DUP12 ADD MSTORE DIV PUSH1 0x44 DUP10 ADD DUP2 SWAP1 MSTORE SWAP8 SWAP2 DUP3 SWAP1 DUP2 SWAP1 PUSH1 0x64 DUP3 ADD SWAP1 JUMP JUMPDEST SUB DUP2 PUSH1 0x0 DUP13 GAS CALL SWAP1 DUP2 ISZERO PUSH2 0x2F0 JUMPI PUSH1 0x0 SWAP2 PUSH2 0x3DA JUMPI JUMPDEST POP ISZERO PUSH2 0x3D5 JUMPI PUSH1 0x40 MLOAD PUSH4 0x7B1A4909 PUSH1 0xE0 SHL DUP2 MSTORE PUSH1 0x1 PUSH1 0x1 PUSH1 0xA0 SHL SUB DUP4 AND PUSH1 0x4 DUP3 ADD MSTORE PUSH1 0x24 DUP2 ADD DUP7 SWAP1 MSTORE DUP5 DUP2 PUSH1 0x44 DUP2 PUSH1 0x0 DUP13 GAS CALL SWAP1 DUP2 ISZERO PUSH2 0x2F0 JUMPI PUSH1 0x0 SWAP2 PUSH2 0x3B8 JUMPI JUMPDEST POP ISZERO PUSH2 0x369 JUMPI PUSH1 0x40 MLOAD PUSH4 0x23B872DD PUSH1 0xE0 SHL DUP2 MSTORE PUSH1 0x1 PUSH1 0x1 PUSH1 0xA0 SHL SUB SWAP2 DUP3 AND PUSH1 0x4 DUP3 ADD MSTORE SWAP2 AND PUSH1 0x24 DUP3 ADD MSTORE PUSH1 0x44 DUP2 ADD DUP6 SWAP1 MSTORE SWAP1 DUP3 SWAP1 DUP3 SWAP1 PUSH1 0x64 SWAP1 DUP3 SWAP1 PUSH1 0x0 SWAP1 GAS CALL SWAP1 DUP2 ISZERO PUSH2 0x2F0 JUMPI PUSH1 0x0 SWAP2 PUSH2 0x34C JUMPI JUMPDEST POP ISZERO PUSH2 0x2FC JUMPI PUSH1 0x40 MLOAD PUSH4 0x1D24E231 PUSH1 0xE2 SHL DUP2 MSTORE PUSH1 0x4 DUP2 ADD DUP5 SWAP1 MSTORE PUSH1 0x24 DUP2 ADD DUP4 SWAP1 MSTORE CALLER PUSH1 0x44 DUP3 ADD MSTORE SWAP4 DUP2 SWAP1 DUP6 SWAP1 PUSH1 0x64 SWAP1 DUP3 SWAP1 PUSH1 0x0 SWAP1 GAS CALL SWAP4 DUP5 ISZERO PUSH2 0x2F0 JUMPI PUSH1 0x40 SWAP5 PUSH2 0x2C3 JUMPI JUMPDEST POP PUSH1 0x1 PUSH1 0x0 SSTORE DUP4 MLOAD SWAP3 DUP4 MSTORE DUP3 ADD MSTORE RETURN JUMPDEST PUSH2 0x2E2 SWAP1 DUP3 RETURNDATASIZE DUP5 GT PUSH2 0x2E9 JUMPI JUMPDEST PUSH2 0x2DA DUP2 DUP4 PUSH2 0x1166 JUMP JUMPDEST DUP2 ADD SWAP1 PUSH2 0x11A7 JUMP JUMPDEST POP CODESIZE PUSH2 0x2B3 JUMP JUMPDEST POP RETURNDATASIZE PUSH2 0x2D0 JUMP JUMPDEST PUSH1 0x40 MLOAD RETURNDATASIZE PUSH1 0x0 DUP3 RETURNDATACOPY RETURNDATASIZE SWAP1 REVERT JUMPDEST PUSH1 0x84 SWAP1 PUSH1 0x40 MLOAD SWAP1 PUSH3 0x461BCD PUSH1 0xE5 SHL DUP3 MSTORE PUSH1 0x4 DUP3 ADD MSTORE PUSH1 0x23 PUSH1 0x24 DUP3 ADD MSTORE PUSH32 0x5472616E73666572206F6620746F6B656E20746F2063616C6C6572206661696C PUSH1 0x44 DUP3 ADD MSTORE PUSH3 0x32B217 PUSH1 0xE9 SHL PUSH1 0x64 DUP3 ADD MSTORE REVERT JUMPDEST PUSH2 0x363 SWAP2 POP DUP3 RETURNDATASIZE DUP5 GT PUSH2 0x2E9 JUMPI PUSH2 0x2DA DUP2 DUP4 PUSH2 0x1166 JUMP JUMPDEST CODESIZE PUSH2 0x26E JUMP JUMPDEST PUSH1 0x40 MLOAD PUSH3 0x461BCD PUSH1 0xE5 SHL DUP2 MSTORE PUSH1 0x4 DUP2 ADD DUP6 SWAP1 MSTORE PUSH1 0x21 PUSH1 0x24 DUP3 ADD MSTORE PUSH32 0x5472616E73666572206F662045544820746F2063616C6C6572206661696C6564 PUSH1 0x44 DUP3 ADD MSTORE PUSH1 0x17 PUSH1 0xF9 SHL PUSH1 0x64 DUP3 ADD MSTORE PUSH1 0x84 SWAP1 REVERT JUMPDEST PUSH2 0x3CF SWAP2 POP DUP6 RETURNDATASIZE DUP8 GT PUSH2 0x2E9 JUMPI PUSH2 0x2DA DUP2 DUP4 PUSH2 0x1166 JUMP JUMPDEST CODESIZE PUSH2 0x21F JUMP JUMPDEST PUSH1 0x0 DUP1 REVERT JUMPDEST PUSH2 0x3F1 SWAP2 POP DUP6 RETURNDATASIZE DUP8 GT PUSH2 0x2E9 JUMPI PUSH2 0x2DA DUP2 DUP4 PUSH2 0x1166 JUMP JUMPDEST CODESIZE PUSH2 0x1DD JUMP JUMPDEST DUP3 DUP2 SWAP4 SWAP3 POP RETURNDATASIZE DUP4 GT PUSH2 0x421 JUMPI JUMPDEST PUSH2 0x40E DUP2 DUP4 PUSH2 0x1166 JUMP JUMPDEST DUP2 ADD SUB SLT PUSH2 0x3D5 JUMPI MLOAD DUP6 SWAP1 PUSH2 0x18F PUSH2 0x173 JUMP JUMPDEST POP RETURNDATASIZE PUSH2 0x404 JUMP JUMPDEST PUSH2 0x44A SWAP2 POP PUSH1 0x60 RETURNDATASIZE PUSH1 0x60 GT PUSH2 0x452 JUMPI JUMPDEST PUSH2 0x442 DUP2 DUP4 PUSH2 0x1166 JUMP JUMPDEST DUP2 ADD SWAP1 PUSH2 0x139A JUMP JUMPDEST POP POP CODESIZE PUSH2 0x14D JUMP JUMPDEST POP RETURNDATASIZE PUSH2 0x438 JUMP JUMPDEST PUSH2 0x47A SWAP2 SWAP8 POP DUP5 RETURNDATASIZE DUP7 GT PUSH2 0x481 JUMPI JUMPDEST PUSH2 0x472 DUP2 DUP4 PUSH2 0x1166 JUMP JUMPDEST DUP2 ADD SWAP1 PUSH2 0x1188 JUMP JUMPDEST SWAP6 CODESIZE PUSH2 0x124 JUMP JUMPDEST POP RETURNDATASIZE PUSH2 0x468 JUMP JUMPDEST CALLVALUE PUSH2 0x3D5 JUMPI PUSH1 0x0 CALLDATASIZE PUSH1 0x3 NOT ADD SLT PUSH2 0x3D5 JUMPI PUSH1 0x1 SLOAD PUSH1 0x40 MLOAD PUSH1 0x1 PUSH1 0x1 PUSH1 0xA0 SHL SUB SWAP1 SWAP2 AND DUP2 MSTORE PUSH1 0x20 SWAP1 RETURN JUMPDEST CALLVALUE PUSH2 0x3D5 JUMPI PUSH1 0x0 CALLDATASIZE PUSH1 0x3 NOT ADD SLT PUSH2 0x3D5 JUMPI PUSH1 0x2 SLOAD PUSH1 0x40 MLOAD PUSH1 0x1 PUSH1 0x1 PUSH1 0xA0 SHL SUB SWAP1 SWAP2 AND DUP2 MSTORE PUSH1 0x20 SWAP1 RETURN JUMPDEST CALLVALUE PUSH2 0x3D5 JUMPI PUSH1 0x0 CALLDATASIZE PUSH1 0x3 NOT ADD SLT PUSH2 0x3D5 JUMPI PUSH1 0x20 PUSH1 0x3 SLOAD PUSH1 0x40 MLOAD SWAP1 DUP2 MSTORE RETURN JUMPDEST PUSH1 0x40 CALLDATASIZE PUSH1 0x3 NOT ADD SLT PUSH2 0x3D5 JUMPI PUSH2 0x50C PUSH2 0x10A6 JUMP JUMPDEST PUSH1 0x24 CALLDATALOAD PUSH2 0x517 PUSH2 0x1377 JUMP JUMPDEST PUSH1 0x1 PUSH1 0x1 PUSH1 0xA0 SHL SUB DUP3 DUP2 AND SWAP3 SWAP1 PUSH2 0x52F DUP5 ISZERO ISZERO PUSH2 0x10E8 JUMP JUMPDEST PUSH1 0x1 SLOAD PUSH1 0x2 SLOAD PUSH1 0x40 MLOAD PUSH4 0xE6A43905 PUSH1 0xE0 SHL DUP2 MSTORE PUSH1 0x1 PUSH1 0x1 PUSH1 0xA0 SHL SUB SWAP5 DUP6 AND PUSH1 0x4 DUP3 ADD MSTORE SWAP1 DUP4 AND SWAP1 SWAP4 AND PUSH1 0x24 DUP5 ADD MSTORE PUSH1 0x20 SWAP3 SWAP2 SWAP1 DUP4 SWAP1 DUP4 SWAP1 PUSH1 0x44 SWAP1 DUP3 SWAP1 DUP6 AND GAS STATICCALL SWAP2 DUP3 ISZERO PUSH2 0x2F0 JUMPI PUSH1 0x0 SWAP3 PUSH2 0x66C JUMPI JUMPDEST POP PUSH2 0x591 PUSH2 0x58C CALLVALUE DUP5 PUSH2 0x159B JUMP JUMPDEST PUSH2 0x12D5 JUMP JUMPDEST PUSH1 0x40 MLOAD PUSH4 0x23B872DD PUSH1 0xE0 SHL DUP2 MSTORE CALLER PUSH1 0x4 DUP3 ADD MSTORE PUSH1 0x1 PUSH1 0x1 PUSH1 0xA0 SHL SUB DUP4 AND PUSH1 0x24 DUP3 ADD MSTORE PUSH1 0x44 DUP2 ADD DUP6 SWAP1 MSTORE SWAP5 DUP4 SWAP1 DUP7 SWAP1 PUSH1 0x64 SWAP1 DUP3 SWAP1 PUSH1 0x0 SWAP1 GAS CALL SWAP2 DUP3 ISZERO PUSH2 0x2F0 JUMPI PUSH2 0x5E5 DUP5 SWAP4 PUSH1 0x0 SWAP8 DUP9 SWAP2 PUSH2 0x64F JUMPI JUMPDEST POP PUSH2 0x1321 JUMP JUMPDEST PUSH1 0x40 MLOAD PUSH4 0xE7D3FE6B PUSH1 0xE0 SHL DUP2 MSTORE PUSH1 0x4 DUP2 ADD DUP7 SWAP1 MSTORE CALLVALUE PUSH1 0x24 DUP3 ADD MSTORE CALLER PUSH1 0x44 DUP3 ADD MSTORE SWAP6 DUP7 SWAP3 PUSH1 0x64 SWAP3 DUP5 SWAP3 SWAP2 AND GAS CALL SWAP3 DUP4 ISZERO PUSH2 0x2F0 JUMPI PUSH1 0x40 SWAP4 PUSH2 0x632 JUMPI JUMPDEST POP PUSH1 0x1 PUSH1 0x0 SSTORE DUP3 MLOAD SWAP2 DUP3 MSTORE CALLVALUE SWAP1 DUP3 ADD MSTORE RETURN JUMPDEST PUSH2 0x648 SWAP1 DUP3 RETURNDATASIZE DUP5 GT PUSH2 0x2E9 JUMPI PUSH2 0x2DA DUP2 DUP4 PUSH2 0x1166 JUMP JUMPDEST POP DUP4 PUSH2 0x620 JUMP JUMPDEST PUSH2 0x666 SWAP2 POP DUP6 RETURNDATASIZE DUP8 GT PUSH2 0x2E9 JUMPI PUSH2 0x2DA DUP2 DUP4 PUSH2 0x1166 JUMP JUMPDEST DUP9 PUSH2 0x5DF JUMP JUMPDEST PUSH2 0x684 SWAP2 SWAP3 POP DUP4 RETURNDATASIZE DUP6 GT PUSH2 0x481 JUMPI PUSH2 0x472 DUP2 DUP4 PUSH2 0x1166 JUMP JUMPDEST SWAP1 DUP6 PUSH2 0x57E JUMP JUMPDEST PUSH1 0x60 CALLDATASIZE PUSH1 0x3 NOT ADD SLT PUSH2 0x3D5 JUMPI PUSH2 0x69F PUSH2 0x10A6 JUMP JUMPDEST PUSH2 0x6A7 PUSH2 0x10BC JUMP JUMPDEST SWAP1 PUSH2 0x6B0 PUSH2 0x10D2 JUMP JUMPDEST SWAP1 PUSH2 0x6B9 PUSH2 0x1377 JUMP JUMPDEST PUSH1 0x1 PUSH1 0x1 PUSH1 0xA0 SHL SUB DUP2 DUP2 AND SWAP4 PUSH2 0x6D0 DUP6 ISZERO ISZERO PUSH2 0x10E8 JUMP JUMPDEST PUSH2 0x6DD DUP3 DUP3 AND ISZERO ISZERO PUSH2 0x10E8 JUMP JUMPDEST DUP2 DUP5 AND ISZERO ISZERO PUSH2 0x6EB DUP2 PUSH2 0x10E8 JUMP JUMPDEST PUSH1 0x1 SLOAD PUSH1 0x2 SLOAD PUSH1 0x40 MLOAD PUSH4 0xE6A43905 PUSH1 0xE0 SHL DUP2 MSTORE PUSH1 0x1 PUSH1 0x1 PUSH1 0xA0 SHL SUB DUP8 DUP2 AND PUSH1 0x4 DUP4 ADD MSTORE SWAP2 DUP7 AND SWAP2 DUP3 AND PUSH1 0x24 DUP3 ADD MSTORE SWAP8 PUSH1 0x20 SWAP6 SWAP2 SWAP5 SWAP1 SWAP3 SWAP1 SWAP2 SWAP1 DUP2 AND SWAP1 DUP7 DUP11 PUSH1 0x44 DUP2 DUP6 GAS STATICCALL SWAP10 DUP11 ISZERO PUSH2 0x2F0 JUMPI PUSH1 0x0 SWAP11 PUSH2 0x9F9 JUMPI JUMPDEST POP DUP7 PUSH2 0x752 PUSH2 0x789 SWAP3 DUP13 AND SWAP8 CALLVALUE SWAP1 DUP12 PUSH2 0x140F JUMP JUMPDEST PUSH1 0x40 MLOAD PUSH4 0x2E2952F9 PUSH1 0xE1 SHL DUP2 MSTORE ADDRESS PUSH1 0x4 DUP3 ADD MSTORE PUSH1 0x1 PUSH1 0x1 PUSH1 0xA0 SHL SUB SWAP1 SWAP11 AND PUSH1 0x24 DUP12 ADD MSTORE PUSH1 0x44 DUP11 ADD DUP2 SWAP1 MSTORE SWAP9 SWAP2 DUP3 SWAP1 DUP2 SWAP1 PUSH1 0x64 DUP3 ADD SWAP1 JUMP JUMPDEST SUB DUP2 PUSH1 0x0 DUP11 GAS CALL SWAP1 DUP2 ISZERO PUSH2 0x2F0 JUMPI PUSH1 0x0 SWAP2 PUSH2 0x9DC JUMPI JUMPDEST POP ISZERO PUSH2 0x9A7 JUMPI PUSH1 0x40 MLOAD PUSH4 0xCF820461 PUSH1 0xE0 SHL DUP2 MSTORE DUP7 DUP2 PUSH1 0x4 DUP2 DUP6 GAS STATICCALL SWAP1 DUP2 ISZERO PUSH2 0x2F0 JUMPI PUSH1 0x0 SWAP2 PUSH2 0x978 JUMPI JUMPDEST POP PUSH2 0x7D7 PUSH1 0x64 SWAP2 CALLVALUE SWAP1 PUSH2 0x11BF JUMP JUMPDEST DIV SWAP4 ISZERO PUSH2 0x961 JUMPI SWAP1 DUP6 PUSH1 0x4 SWAP4 SWAP3 PUSH2 0x817 PUSH2 0x812 PUSH1 0x64 PUSH2 0x7F8 CALLVALUE PUSH1 0x3 SLOAD PUSH2 0x11BF JUMP JUMPDEST DIV PUSH2 0x80C PUSH2 0x806 DUP3 DUP12 PUSH2 0x1215 JUMP JUMPDEST CALLVALUE PUSH2 0x1208 JUMP JUMPDEST SWAP13 PUSH2 0x159B JUMP JUMPDEST PUSH2 0x1222 JUMP JUMPDEST PUSH1 0x40 MLOAD PUSH3 0x2FCFCB PUSH1 0xE3 SHL DUP2 MSTORE SWAP5 DUP6 SWAP2 DUP3 SWAP1 GAS STATICCALL SWAP4 DUP5 ISZERO PUSH2 0x2F0 JUMPI PUSH2 0x89C SWAP10 PUSH2 0x862 PUSH2 0x85D PUSH1 0x0 SWAP4 DUP11 SWAP9 DUP14 DUP14 SWAP10 DUP8 SWAP3 PUSH2 0x93A JUMPI JUMPDEST POP PUSH2 0x58C PUSH2 0x858 SWAP2 DUP8 PUSH2 0x159B JUMP JUMPDEST PUSH2 0x159B JUMP JUMPDEST PUSH2 0x127A JUMP JUMPDEST PUSH1 0x40 MLOAD PUSH4 0x23B872DD PUSH1 0xE0 SHL DUP2 MSTORE PUSH1 0x1 PUSH1 0x1 PUSH1 0xA0 SHL SUB SWAP2 DUP3 AND PUSH1 0x4 DUP3 ADD MSTORE SWAP3 AND PUSH1 0x24 DUP4 ADD MSTORE PUSH1 0x44 DUP3 ADD SWAP4 SWAP1 SWAP4 MSTORE SWAP8 DUP9 SWAP3 DUP4 SWAP2 DUP3 SWAP1 PUSH1 0x64 DUP3 ADD SWAP1 JUMP JUMPDEST SUB SWAP3 GAS CALL SWAP1 DUP2 ISZERO PUSH2 0x2F0 JUMPI PUSH2 0x8BB DUP4 SWAP3 PUSH1 0x0 SWAP8 DUP9 SWAP2 PUSH2 0x923 JUMPI POP PUSH2 0x1321 JUMP JUMPDEST PUSH1 0x84 PUSH1 0x40 MLOAD DUP1 SWAP8 DUP2 SWAP4 PUSH4 0x5673B02D PUSH1 0xE0 SHL DUP4 MSTORE DUP2 PUSH1 0x4 DUP5 ADD MSTORE DUP8 PUSH1 0x24 DUP5 ADD MSTORE DUP9 PUSH1 0x44 DUP5 ADD MSTORE DUP2 PUSH1 0x64 DUP5 ADD MSTORE GAS CALL SWAP4 DUP5 ISZERO PUSH2 0x2F0 JUMPI PUSH1 0x40 SWAP5 PUSH2 0x906 JUMPI POP PUSH1 0x1 PUSH1 0x0 SSTORE DUP4 MLOAD SWAP3 DUP4 MSTORE DUP3 ADD MSTORE RETURN JUMPDEST PUSH2 0x91C SWAP1 DUP3 RETURNDATASIZE DUP5 GT PUSH2 0x2E9 JUMPI PUSH2 0x2DA DUP2 DUP4 PUSH2 0x1166 JUMP JUMPDEST POP DUP5 PUSH2 0x2B3 JUMP JUMPDEST PUSH2 0x666 SWAP2 POP DUP5 RETURNDATASIZE DUP7 GT PUSH2 0x2E9 JUMPI PUSH2 0x2DA DUP2 DUP4 PUSH2 0x1166 JUMP JUMPDEST PUSH2 0x858 SWAP2 SWAP3 POP PUSH2 0x959 PUSH2 0x58C SWAP2 DUP14 DUP1 RETURNDATASIZE LT PUSH2 0x481 JUMPI PUSH2 0x472 DUP2 DUP4 PUSH2 0x1166 JUMP JUMPDEST SWAP3 SWAP2 POP PUSH2 0x84A JUMP JUMPDEST SWAP7 POP SWAP1 PUSH1 0x4 SWAP2 DUP6 PUSH2 0x972 DUP6 CALLVALUE PUSH2 0x1208 JUMP JUMPDEST SWAP9 PUSH2 0x817 JUMP JUMPDEST SWAP1 POP DUP7 DUP2 DUP2 RETURNDATASIZE DUP4 GT PUSH2 0x9A0 JUMPI JUMPDEST PUSH2 0x98F DUP2 DUP4 PUSH2 0x1166 JUMP JUMPDEST DUP2 ADD SUB SLT PUSH2 0x3D5 JUMPI MLOAD PUSH2 0x7D7 PUSH2 0x7C9 JUMP JUMPDEST POP RETURNDATASIZE PUSH2 0x985 JUMP JUMPDEST PUSH1 0x40 MLOAD PUSH3 0x461BCD PUSH1 0xE5 SHL DUP2 MSTORE PUSH1 0x4 DUP2 ADD DUP8 SWAP1 MSTORE PUSH1 0xD PUSH1 0x24 DUP3 ADD MSTORE PUSH13 0x2737BA1020B8383937BB32B217 PUSH1 0x99 SHL PUSH1 0x44 DUP3 ADD MSTORE PUSH1 0x64 SWAP1 REVERT JUMPDEST PUSH2 0x9F3 SWAP2 POP DUP8 RETURNDATASIZE DUP10 GT PUSH2 0x2E9 JUMPI PUSH2 0x2DA DUP2 DUP4 PUSH2 0x1166 JUMP JUMPDEST DUP11 PUSH2 0x79F JUMP JUMPDEST PUSH2 0x789 SWAP2 SWAP11 POP PUSH2 0x752 PUSH2 0xA19 DUP10 SWAP3 DUP4 RETURNDATASIZE DUP6 GT PUSH2 0x481 JUMPI PUSH2 0x472 DUP2 DUP4 PUSH2 0x1166 JUMP JUMPDEST SWAP12 SWAP3 POP POP PUSH2 0x73E JUMP JUMPDEST CALLVALUE PUSH2 0x3D5 JUMPI PUSH1 0x80 CALLDATASIZE PUSH1 0x3 NOT ADD SLT PUSH2 0x3D5 JUMPI PUSH2 0xA3B PUSH2 0x10BC JUMP JUMPDEST PUSH2 0xA43 PUSH2 0x10D2 JUMP JUMPDEST PUSH1 0x64 CALLDATALOAD PUSH1 0x1 PUSH1 0x1 PUSH1 0xA0 SHL SUB DUP2 AND SWAP3 SWAP1 SWAP2 DUP4 DUP4 SUB PUSH2 0x3D5 JUMPI PUSH2 0xA62 PUSH2 0x1377 JUMP JUMPDEST PUSH2 0xA76 PUSH1 0x1 PUSH1 0x1 PUSH1 0xA0 SHL SUB DUP4 AND ISZERO ISZERO PUSH2 0x10E8 JUMP JUMPDEST PUSH2 0xA8A PUSH1 0x1 PUSH1 0x1 PUSH1 0xA0 SHL SUB DUP3 AND ISZERO ISZERO PUSH2 0x10E8 JUMP JUMPDEST PUSH2 0xA95 DUP5 ISZERO ISZERO PUSH2 0x10E8 JUMP JUMPDEST PUSH1 0x1 SLOAD PUSH1 0x2 SLOAD PUSH1 0x40 MLOAD PUSH4 0xE6A43905 PUSH1 0xE0 SHL DUP2 MSTORE PUSH1 0x1 PUSH1 0x1 PUSH1 0xA0 SHL SUB DUP6 DUP2 AND PUSH1 0x4 DUP4 ADD MSTORE SWAP2 DUP3 AND PUSH1 0x24 DUP3 ADD DUP2 SWAP1 MSTORE SWAP1 SWAP5 SWAP2 SWAP1 SWAP3 AND SWAP2 PUSH1 0x20 DUP6 PUSH1 0x44 DUP2 DUP7 GAS STATICCALL SWAP5 DUP6 ISZERO PUSH2 0x2F0 JUMPI PUSH1 0x0 SWAP6 PUSH2 0x1041 JUMPI JUMPDEST POP PUSH2 0xAF6 PUSH1 0x1 PUSH1 0x1 PUSH1 0xA0 SHL SUB DUP4 AND ISZERO ISZERO PUSH2 0x10E8 JUMP JUMPDEST PUSH1 0x40 MLOAD PUSH4 0xE6A43905 PUSH1 0xE0 SHL DUP2 MSTORE PUSH1 0x1 PUSH1 0x1 PUSH1 0xA0 SHL SUB DUP4 DUP2 AND PUSH1 0x4 DUP4 ADD MSTORE DUP3 AND PUSH1 0x24 DUP3 ADD MSTORE PUSH1 0x20 DUP2 PUSH1 0x44 DUP2 DUP8 GAS STATICCALL SWAP1 DUP2 ISZERO PUSH2 0x2F0 JUMPI PUSH1 0x0 SWAP2 PUSH2 0x1022 JUMPI JUMPDEST POP PUSH1 0x40 MLOAD PUSH4 0x240BC6B PUSH1 0xE2 SHL DUP2 MSTORE PUSH1 0x1 PUSH1 0x1 PUSH1 0xA0 SHL SUB SWAP2 SWAP1 SWAP2 AND SWAP2 PUSH1 0x60 DUP3 PUSH1 0x4 DUP2 DUP7 GAS STATICCALL SWAP1 DUP2 ISZERO PUSH2 0x2F0 JUMPI PUSH1 0x4 SWAP4 PUSH1 0x0 SWAP4 PUSH1 0x0 SWAP4 PUSH2 0xFF8 JUMPI JUMPDEST POP PUSH1 0x20 SWAP1 PUSH1 0x40 MLOAD SWAP6 DUP7 DUP1 SWAP3 PUSH4 0x7464FC3D PUSH1 0xE0 SHL DUP3 MSTORE GAS STATICCALL SWAP4 DUP5 ISZERO PUSH2 0x2F0 JUMPI PUSH1 0x0 SWAP5 PUSH2 0xFC4 JUMPI JUMPDEST POP PUSH2 0xFA9 JUMPI PUSH2 0xBDD SWAP3 PUSH2 0xBAA PUSH2 0xBC3 SWAP3 PUSH1 0x4 CALLDATALOAD SWAP1 PUSH2 0x160C JUMP JUMPDEST SWAP1 PUSH2 0xBBE PUSH2 0xBB6 PUSH2 0x13B5 JUMP JUMPDEST DUP4 ISZERO ISZERO PUSH2 0x1666 JUMP JUMPDEST PUSH2 0x11E8 JUMP JUMPDEST SWAP1 PUSH2 0xBD8 PUSH2 0xBCF PUSH2 0x13E0 JUMP JUMPDEST DUP3 DUP5 GT ISZERO PUSH2 0x1666 JUMP JUMPDEST PUSH2 0x1208 JUMP JUMPDEST SWAP1 JUMPDEST PUSH1 0x40 MLOAD PUSH4 0x23B872DD PUSH1 0xE0 SHL DUP2 MSTORE PUSH1 0x1 PUSH1 0x1 PUSH1 0xA0 SHL SUB DUP6 DUP2 AND PUSH1 0x4 DUP1 DUP5 ADD SWAP2 SWAP1 SWAP2 MSTORE DUP8 DUP3 AND PUSH1 0x24 DUP5 ADD MSTORE CALLDATALOAD PUSH1 0x44 DUP4 ADD MSTORE SWAP1 SWAP2 PUSH1 0x20 SWAP2 DUP4 SWAP2 PUSH1 0x64 SWAP2 DUP4 SWAP2 PUSH1 0x0 SWAP2 AND GAS CALL SWAP1 DUP2 ISZERO PUSH2 0x2F0 JUMPI PUSH1 0x0 SWAP2 PUSH2 0xF8A JUMPI JUMPDEST POP ISZERO PUSH2 0xF46 JUMPI PUSH1 0x40 MLOAD PUSH4 0xCF820461 PUSH1 0xE0 SHL DUP2 MSTORE PUSH1 0x20 DUP2 PUSH1 0x4 DUP2 DUP7 GAS STATICCALL DUP1 ISZERO PUSH2 0x2F0 JUMPI DUP3 SWAP2 PUSH1 0x0 SWAP2 PUSH2 0xF10 JUMPI JUMPDEST POP PUSH1 0x64 SWAP2 PUSH2 0xC68 SWAP2 PUSH2 0x11BF JUMP JUMPDEST DIV SWAP6 DUP7 SWAP1 ISZERO PUSH2 0xEF9 JUMPI POP SWAP1 PUSH1 0x20 DUP3 PUSH2 0xC9C PUSH1 0x64 PUSH2 0xC8A PUSH2 0xCCE SWAP7 PUSH1 0x3 SLOAD PUSH2 0x11BF JUMP JUMPDEST DIV SWAP2 PUSH2 0xC96 DUP4 DUP12 PUSH2 0x1215 JUMP JUMPDEST SWAP1 PUSH2 0x1208 JUMP JUMPDEST PUSH1 0x40 MLOAD PUSH4 0x7B1A4909 PUSH1 0xE0 SHL DUP2 MSTORE PUSH1 0x1 PUSH1 0x1 PUSH1 0xA0 SHL SUB SWAP1 SWAP9 AND PUSH1 0x4 DUP10 ADD MSTORE PUSH1 0x24 DUP9 ADD SWAP2 SWAP1 SWAP2 MSTORE SWAP6 SWAP3 DUP4 SWAP1 DUP2 SWAP1 PUSH1 0x44 DUP3 ADD SWAP1 JUMP JUMPDEST SUB DUP2 PUSH1 0x0 PUSH1 0x1 PUSH1 0x1 PUSH1 0xA0 SHL SUB DUP10 AND GAS CALL SWAP1 DUP2 ISZERO PUSH2 0x2F0 JUMPI PUSH2 0xCFC PUSH1 0x20 SWAP3 PUSH1 0x4 SWAP5 PUSH1 0x0 SWAP2 PUSH2 0xEDC JUMPI JUMPDEST POP PUSH2 0x1222 JUMP JUMPDEST PUSH1 0x40 MLOAD PUSH3 0x2FCFCB PUSH1 0xE3 SHL DUP2 MSTORE SWAP3 DUP4 SWAP2 DUP3 SWAP1 GAS STATICCALL SWAP1 DUP2 ISZERO PUSH2 0x2F0 JUMPI PUSH1 0x0 SWAP2 PUSH2 0xEBD JUMPI JUMPDEST POP PUSH1 0x40 MLOAD PUSH4 0x7B1A4909 PUSH1 0xE0 SHL DUP1 DUP3 MSTORE PUSH1 0x1 PUSH1 0x1 PUSH1 0xA0 SHL SUB SWAP1 SWAP4 AND PUSH1 0x4 DUP3 ADD MSTORE PUSH1 0x24 DUP2 ADD DUP6 SWAP1 MSTORE PUSH1 0x20 DUP2 DUP1 PUSH1 0x44 DUP2 ADD SUB DUP2 PUSH1 0x0 PUSH1 0x1 PUSH1 0x1 PUSH1 0xA0 SHL SUB DUP10 AND GAS CALL SWAP1 DUP2 ISZERO PUSH2 0x2F0 JUMPI PUSH1 0x0 SWAP2 PUSH2 0xE9E JUMPI JUMPDEST POP ISZERO PUSH2 0xE59 JUMPI PUSH1 0x40 MLOAD SWAP2 DUP3 MSTORE PUSH1 0x1 PUSH1 0x1 PUSH1 0xA0 SHL SUB AND PUSH1 0x4 DUP3 ADD MSTORE PUSH1 0x24 DUP2 ADD SWAP4 SWAP1 SWAP4 MSTORE PUSH1 0x20 DUP4 DUP1 PUSH1 0x44 DUP2 ADD SUB DUP2 PUSH1 0x0 PUSH1 0x1 PUSH1 0x1 PUSH1 0xA0 SHL SUB DUP7 AND GAS CALL SWAP1 DUP2 ISZERO PUSH2 0x2F0 JUMPI PUSH2 0xDC2 PUSH1 0x20 SWAP3 PUSH1 0x0 SWAP6 DUP7 SWAP2 PUSH2 0xE3C JUMPI JUMPDEST POP PUSH2 0x127A JUMP JUMPDEST PUSH1 0x84 PUSH1 0x40 MLOAD DUP1 SWAP6 DUP2 SWAP4 PUSH4 0x5673B02D PUSH1 0xE0 SHL DUP4 MSTORE PUSH1 0x4 CALLDATALOAD PUSH1 0x4 DUP5 ADD MSTORE DUP2 PUSH1 0x24 DUP5 ADD MSTORE DUP2 PUSH1 0x44 DUP5 ADD MSTORE DUP7 PUSH1 0x64 DUP5 ADD MSTORE PUSH1 0x1 DUP1 PUSH1 0xA0 SHL SUB AND GAS CALL SWAP2 DUP3 ISZERO PUSH2 0x2F0 JUMPI PUSH1 0x40 SWAP3 PUSH2 0xE1D JUMPI JUMPDEST POP PUSH1 0x1 PUSH1 0x0 SSTORE DUP2 MLOAD SWAP1 PUSH1 0x4 CALLDATALOAD DUP3 MSTORE PUSH1 0x20 DUP3 ADD MSTORE RETURN JUMPDEST PUSH2 0xE35 SWAP1 PUSH1 0x20 RETURNDATASIZE PUSH1 0x20 GT PUSH2 0x2E9 JUMPI PUSH2 0x2DA DUP2 DUP4 PUSH2 0x1166 JUMP JUMPDEST POP DUP3 PUSH2 0xE08 JUMP JUMPDEST PUSH2 0xE53 SWAP2 POP DUP5 RETURNDATASIZE DUP7 GT PUSH2 0x2E9 JUMPI PUSH2 0x2DA DUP2 DUP4 PUSH2 0x1166 JUMP JUMPDEST DUP7 PUSH2 0xDBC JUMP JUMPDEST PUSH1 0x40 MLOAD PUSH3 0x461BCD PUSH1 0xE5 SHL DUP2 MSTORE PUSH1 0x20 PUSH1 0x4 DUP3 ADD MSTORE PUSH1 0x1F PUSH1 0x24 DUP3 ADD MSTORE PUSH32 0x5472616E73666572206F662045544820746F2075736572206661696C65642E00 PUSH1 0x44 DUP3 ADD MSTORE PUSH1 0x64 SWAP1 REVERT JUMPDEST PUSH2 0xEB7 SWAP2 POP PUSH1 0x20 RETURNDATASIZE PUSH1 0x20 GT PUSH2 0x2E9 JUMPI PUSH2 0x2DA DUP2 DUP4 PUSH2 0x1166 JUMP JUMPDEST DUP7 PUSH2 0xD6B JUMP JUMPDEST PUSH2 0xED6 SWAP2 POP PUSH1 0x20 RETURNDATASIZE PUSH1 0x20 GT PUSH2 0x481 JUMPI PUSH2 0x472 DUP2 DUP4 PUSH2 0x1166 JUMP JUMPDEST DUP6 PUSH2 0xD1E JUMP JUMPDEST PUSH2 0xEF3 SWAP2 POP DUP5 RETURNDATASIZE DUP7 GT PUSH2 0x2E9 JUMPI PUSH2 0x2DA DUP2 DUP4 PUSH2 0x1166 JUMP JUMPDEST DUP10 PUSH2 0xCF6 JUMP JUMPDEST PUSH1 0x4 SWAP3 SWAP6 POP PUSH2 0xF0A SWAP1 PUSH1 0x20 SWAP3 PUSH2 0x1208 JUMP JUMPDEST SWAP5 PUSH2 0xCFC JUMP JUMPDEST SWAP2 POP POP PUSH1 0x20 DUP2 RETURNDATASIZE PUSH1 0x20 GT PUSH2 0xF3E JUMPI JUMPDEST DUP2 PUSH2 0xF2C PUSH1 0x20 SWAP4 DUP4 PUSH2 0x1166 JUMP JUMPDEST DUP2 ADD SUB SLT PUSH2 0x3D5 JUMPI MLOAD DUP2 SWAP1 PUSH1 0x64 PUSH2 0xC5B JUMP JUMPDEST RETURNDATASIZE SWAP2 POP PUSH2 0xF1F JUMP JUMPDEST PUSH1 0x64 PUSH1 0x40 MLOAD PUSH3 0x461BCD PUSH1 0xE5 SHL DUP2 MSTORE PUSH1 0x20 PUSH1 0x4 DUP3 ADD MSTORE PUSH1 0x20 PUSH1 0x24 DUP3 ADD MSTORE PUSH32 0x5472616E73666572206F6620746F6B656E20746F2070616972206661696C6564 PUSH1 0x44 DUP3 ADD MSTORE REVERT JUMPDEST PUSH2 0xFA3 SWAP2 POP PUSH1 0x20 RETURNDATASIZE PUSH1 0x20 GT PUSH2 0x2E9 JUMPI PUSH2 0x2DA DUP2 DUP4 PUSH2 0x1166 JUMP JUMPDEST DUP8 PUSH2 0xC2F JUMP JUMPDEST SWAP1 PUSH2 0xFBE SWAP3 PUSH2 0xBAA PUSH2 0xBC3 SWAP3 PUSH1 0x4 CALLDATALOAD SWAP1 PUSH2 0x160C JUMP JUMPDEST SWAP1 PUSH2 0xBDF JUMP JUMPDEST SWAP1 SWAP4 POP PUSH1 0x20 DUP2 RETURNDATASIZE PUSH1 0x20 GT PUSH2 0xFF0 JUMPI JUMPDEST DUP2 PUSH2 0xFE0 PUSH1 0x20 SWAP4 DUP4 PUSH2 0x1166 JUMP JUMPDEST DUP2 ADD SUB SLT PUSH2 0x3D5 JUMPI MLOAD SWAP3 DUP11 PUSH2 0xB91 JUMP JUMPDEST RETURNDATASIZE SWAP2 POP PUSH2 0xFD3 JUMP JUMPDEST PUSH1 0x20 SWAP5 POP PUSH2 0x1016 SWAP2 SWAP4 POP PUSH1 0x60 RETURNDATASIZE PUSH1 0x60 GT PUSH2 0x452 JUMPI PUSH2 0x442 DUP2 DUP4 PUSH2 0x1166 JUMP JUMPDEST SWAP5 SWAP2 SWAP1 POP SWAP4 SWAP3 SWAP1 PUSH2 0xB6B JUMP JUMPDEST PUSH2 0x103B SWAP2 POP PUSH1 0x20 RETURNDATASIZE PUSH1 0x20 GT PUSH2 0x481 JUMPI PUSH2 0x472 DUP2 DUP4 PUSH2 0x1166 JUMP JUMPDEST DUP9 PUSH2 0xB32 JUMP JUMPDEST PUSH2 0x105B SWAP2 SWAP6 POP PUSH1 0x20 RETURNDATASIZE PUSH1 0x20 GT PUSH2 0x481 JUMPI PUSH2 0x472 DUP2 DUP4 PUSH2 0x1166 JUMP JUMPDEST SWAP4 DUP8 PUSH2 0xAE1 JUMP JUMPDEST CALLVALUE PUSH2 0x3D5 JUMPI PUSH1 0x60 CALLDATASIZE PUSH1 0x3 NOT ADD SLT PUSH2 0x3D5 JUMPI PUSH1 0x20 PUSH2 0x1099 PUSH2 0x1080 PUSH2 0x10A6 JUMP JUMPDEST PUSH2 0x1088 PUSH2 0x10BC JUMP JUMPDEST PUSH2 0x1090 PUSH2 0x1377 JUMP JUMPDEST PUSH1 0x44 CALLDATALOAD SWAP2 PUSH2 0x140F JUMP JUMPDEST PUSH1 0x1 PUSH1 0x0 SSTORE PUSH1 0x40 MLOAD SWAP1 DUP2 MSTORE RETURN JUMPDEST PUSH1 0x4 CALLDATALOAD SWAP1 PUSH1 0x1 PUSH1 0x1 PUSH1 0xA0 SHL SUB DUP3 AND DUP3 SUB PUSH2 0x3D5 JUMPI JUMP JUMPDEST PUSH1 0x24 CALLDATALOAD SWAP1 PUSH1 0x1 PUSH1 0x1 PUSH1 0xA0 SHL SUB DUP3 AND DUP3 SUB PUSH2 0x3D5 JUMPI JUMP JUMPDEST PUSH1 0x44 CALLDATALOAD SWAP1 PUSH1 0x1 PUSH1 0x1 PUSH1 0xA0 SHL SUB DUP3 AND DUP3 SUB PUSH2 0x3D5 JUMPI JUMP JUMPDEST ISZERO PUSH2 0x10EF JUMPI JUMP JUMPDEST PUSH1 0x40 MLOAD PUSH3 0x461BCD PUSH1 0xE5 SHL DUP2 MSTORE PUSH1 0x20 PUSH1 0x4 DUP3 ADD MSTORE PUSH1 0x1F PUSH1 0x24 DUP3 ADD MSTORE PUSH32 0x5A65726F2061646472657373657320617265206E6F7420616C6C6F7765642E00 PUSH1 0x44 DUP3 ADD MSTORE PUSH1 0x64 SWAP1 REVERT JUMPDEST PUSH1 0x40 DUP2 ADD SWAP1 DUP2 LT PUSH8 0xFFFFFFFFFFFFFFFF DUP3 GT OR PUSH2 0x1150 JUMPI PUSH1 0x40 MSTORE JUMP JUMPDEST PUSH4 0x4E487B71 PUSH1 0xE0 SHL PUSH1 0x0 MSTORE PUSH1 0x41 PUSH1 0x4 MSTORE PUSH1 0x24 PUSH1 0x0 REVERT JUMPDEST SWAP1 PUSH1 0x1F DUP1 NOT SWAP2 ADD AND DUP2 ADD SWAP1 DUP2 LT PUSH8 0xFFFFFFFFFFFFFFFF DUP3 GT OR PUSH2 0x1150 JUMPI PUSH1 0x40 MSTORE JUMP JUMPDEST SWAP1 DUP2 PUSH1 0x20 SWAP2 SUB SLT PUSH2 0x3D5 JUMPI MLOAD PUSH1 0x1 PUSH1 0x1 PUSH1 0xA0 SHL SUB DUP2 AND DUP2 SUB PUSH2 0x3D5 JUMPI SWAP1 JUMP JUMPDEST SWAP1 DUP2 PUSH1 0x20 SWAP2 SUB SLT PUSH2 0x3D5 JUMPI MLOAD DUP1 ISZERO ISZERO DUP2 SUB PUSH2 0x3D5 JUMPI SWAP1 JUMP JUMPDEST DUP2 DUP2 MUL SWAP3 SWAP2 DUP2 ISZERO SWAP2 DUP5 DIV EQ OR ISZERO PUSH2 0x11D2 JUMPI JUMP JUMPDEST PUSH4 0x4E487B71 PUSH1 0xE0 SHL PUSH1 0x0 MSTORE PUSH1 0x11 PUSH1 0x4 MSTORE PUSH1 0x24 PUSH1 0x0 REVERT JUMPDEST DUP2 ISZERO PUSH2 0x11F2 JUMPI DIV SWAP1 JUMP JUMPDEST PUSH4 0x4E487B71 PUSH1 0xE0 SHL PUSH1 0x0 MSTORE PUSH1 0x12 PUSH1 0x4 MSTORE PUSH1 0x24 PUSH1 0x0 REVERT JUMPDEST SWAP2 SWAP1 DUP3 SUB SWAP2 DUP3 GT PUSH2 0x11D2 JUMPI JUMP JUMPDEST SWAP2 SWAP1 DUP3 ADD DUP1 SWAP3 GT PUSH2 0x11D2 JUMPI JUMP JUMPDEST ISZERO PUSH2 0x1229 JUMPI JUMP JUMPDEST PUSH1 0x40 MLOAD PUSH3 0x461BCD PUSH1 0xE5 SHL DUP2 MSTORE PUSH1 0x20 PUSH1 0x4 DUP3 ADD MSTORE PUSH1 0x23 PUSH1 0x24 DUP3 ADD MSTORE PUSH32 0x5472616E73666572206F662045544820746F207265666572726565206661696C PUSH1 0x44 DUP3 ADD MSTORE PUSH3 0x32B217 PUSH1 0xE9 SHL PUSH1 0x64 DUP3 ADD MSTORE PUSH1 0x84 SWAP1 REVERT JUMPDEST ISZERO PUSH2 0x1281 JUMPI JUMP JUMPDEST PUSH1 0x40 MLOAD PUSH3 0x461BCD PUSH1 0xE5 SHL DUP2 MSTORE PUSH1 0x20 PUSH1 0x4 DUP3 ADD MSTORE PUSH1 0x26 PUSH1 0x24 DUP3 ADD MSTORE PUSH32 0x5472616E73666572206F662045544820746F2066656520616464726573732066 PUSH1 0x44 DUP3 ADD MSTORE PUSH6 0x30B4B632B217 PUSH1 0xD1 SHL PUSH1 0x64 DUP3 ADD MSTORE PUSH1 0x84 SWAP1 REVERT JUMPDEST ISZERO PUSH2 0x12DC JUMPI JUMP JUMPDEST PUSH1 0x40 MLOAD PUSH3 0x461BCD PUSH1 0xE5 SHL DUP2 MSTORE PUSH1 0x20 PUSH1 0x4 DUP3 ADD MSTORE PUSH1 0x1F PUSH1 0x24 DUP3 ADD MSTORE PUSH32 0x5472616E73666572206F662045544820746F2070616972206661696C65642E00 PUSH1 0x44 DUP3 ADD MSTORE PUSH1 0x64 SWAP1 REVERT JUMPDEST ISZERO PUSH2 0x1328 JUMPI JUMP JUMPDEST PUSH1 0x40 MLOAD PUSH3 0x461BCD PUSH1 0xE5 SHL DUP2 MSTORE PUSH1 0x20 PUSH1 0x4 DUP3 ADD MSTORE PUSH1 0x21 PUSH1 0x24 DUP3 ADD MSTORE PUSH32 0x5472616E73666572206F6620746F6B656E20746F2070616972206661696C6564 PUSH1 0x44 DUP3 ADD MSTORE PUSH1 0x17 PUSH1 0xF9 SHL PUSH1 0x64 DUP3 ADD MSTORE PUSH1 0x84 SWAP1 REVERT JUMPDEST PUSH1 0x2 PUSH1 0x0 SLOAD EQ PUSH2 0x1388 JUMPI PUSH1 0x2 PUSH1 0x0 SSTORE JUMP JUMPDEST PUSH1 0x40 MLOAD PUSH4 0x3EE5AEB5 PUSH1 0xE0 SHL DUP2 MSTORE PUSH1 0x4 SWAP1 REVERT JUMPDEST SWAP1 DUP2 PUSH1 0x60 SWAP2 SUB SLT PUSH2 0x3D5 JUMPI DUP1 MLOAD SWAP2 PUSH1 0x40 PUSH1 0x20 DUP4 ADD MLOAD SWAP3 ADD MLOAD SWAP1 JUMP JUMPDEST PUSH1 0x40 MLOAD SWAP1 PUSH2 0x13C2 DUP3 PUSH2 0x1134 JUMP JUMPDEST PUSH1 0xF DUP3 MSTORE PUSH15 0x111A5D9A5CDA5BDB8819985A5B1959 PUSH1 0x8A SHL PUSH1 0x20 DUP4 ADD MSTORE JUMP JUMPDEST PUSH1 0x40 MLOAD SWAP1 PUSH2 0x13ED DUP3 PUSH2 0x1134 JUMP JUMPDEST PUSH1 0x13 DUP3 MSTORE PUSH19 0x29BAB13A3930B1BA34B7B7103330B4B632B217 PUSH1 0x69 SHL PUSH1 0x20 DUP4 ADD MSTORE JUMP JUMPDEST PUSH1 0x1 PUSH1 0x1 PUSH1 0xA0 SHL SUB SWAP3 SWAP1 SWAP2 PUSH2 0x1427 DUP5 DUP5 AND ISZERO ISZERO PUSH2 0x10E8 JUMP JUMPDEST PUSH1 0x1 SLOAD PUSH1 0x2 SLOAD PUSH1 0x40 DUP1 MLOAD PUSH4 0xE6A43905 PUSH1 0xE0 SHL DUP2 MSTORE PUSH1 0x1 PUSH1 0x1 PUSH1 0xA0 SHL SUB SWAP7 DUP8 AND PUSH1 0x4 DUP3 ADD MSTORE SWAP2 DUP8 AND SWAP6 DUP7 AND PUSH1 0x24 DUP4 ADD MSTORE PUSH1 0x20 SWAP7 SWAP1 SWAP6 SWAP3 SWAP1 SWAP2 SWAP1 DUP8 SWAP1 DUP3 SWAP1 PUSH1 0x44 SWAP1 DUP3 SWAP1 DUP7 AND GAS STATICCALL SWAP1 DUP2 ISZERO PUSH2 0x1590 JUMPI SWAP1 DUP3 SWAP2 PUSH1 0x0 SWAP2 PUSH2 0x1573 JUMPI JUMPDEST POP AND SWAP3 DUP6 MLOAD SWAP7 PUSH4 0x240BC6B PUSH1 0xE2 SHL DUP9 MSTORE PUSH1 0x60 DUP9 PUSH1 0x4 DUP2 DUP9 GAS STATICCALL SWAP5 DUP6 ISZERO PUSH2 0x1568 JUMPI PUSH1 0x0 SWAP9 PUSH1 0x0 SWAP7 PUSH2 0x1539 JUMPI JUMPDEST POP SWAP1 DUP1 PUSH1 0x4 SWAP3 DUP10 MLOAD SWAP4 DUP5 DUP1 SWAP3 PUSH4 0x7464FC3D PUSH1 0xE0 SHL DUP3 MSTORE GAS STATICCALL SWAP8 DUP9 ISZERO PUSH2 0x152F JUMPI POP PUSH1 0x0 SWAP8 PUSH2 0x14FF JUMPI JUMPDEST POP POP AND SUB PUSH2 0x14EE JUMPI SWAP2 PUSH2 0xBAA PUSH2 0xBC3 SWAP3 PUSH2 0x14EB SWAP6 SWAP5 PUSH2 0x160C JUMP JUMPDEST SWAP1 JUMP JUMPDEST SWAP2 PUSH2 0xBAA PUSH2 0xBC3 SWAP3 PUSH2 0x14EB SWAP6 PUSH2 0x160C JUMP JUMPDEST SWAP1 DUP1 SWAP3 SWAP8 POP DUP2 RETURNDATASIZE DUP4 GT PUSH2 0x1528 JUMPI JUMPDEST PUSH2 0x1517 DUP2 DUP4 PUSH2 0x1166 JUMP JUMPDEST DUP2 ADD SUB SLT PUSH2 0x3D5 JUMPI MLOAD SWAP5 CODESIZE DUP1 PUSH2 0x14D1 JUMP JUMPDEST POP RETURNDATASIZE PUSH2 0x150D JUMP JUMPDEST MLOAD RETURNDATASIZE PUSH1 0x0 DUP3 RETURNDATACOPY RETURNDATASIZE SWAP1 REVERT JUMPDEST DUP3 SWAP10 POP PUSH1 0x4 SWAP3 SWAP2 SWAP7 POP PUSH2 0x155A SWAP1 PUSH1 0x60 RETURNDATASIZE PUSH1 0x60 GT PUSH2 0x452 JUMPI PUSH2 0x442 DUP2 DUP4 PUSH2 0x1166 JUMP JUMPDEST SWAP11 SWAP2 SWAP1 POP SWAP10 SWAP7 SWAP2 SWAP3 POP PUSH2 0x14A9 JUMP JUMPDEST DUP8 MLOAD RETURNDATASIZE PUSH1 0x0 DUP3 RETURNDATACOPY RETURNDATASIZE SWAP1 REVERT JUMPDEST PUSH2 0x158A SWAP2 POP DUP9 RETURNDATASIZE DUP11 GT PUSH2 0x481 JUMPI PUSH2 0x472 DUP2 DUP4 PUSH2 0x1166 JUMP JUMPDEST CODESIZE PUSH2 0x147E JUMP JUMPDEST DUP7 MLOAD RETURNDATASIZE PUSH1 0x0 DUP3 RETURNDATACOPY RETURNDATASIZE SWAP1 REVERT JUMPDEST PUSH1 0x1 PUSH1 0x1 PUSH1 0xA0 SHL SUB AND PUSH2 0x15AF DUP2 ISZERO ISZERO PUSH2 0x10E8 JUMP JUMPDEST PUSH1 0x0 DUP1 DUP1 DUP1 SWAP5 DUP2 SWAP5 GAS CALL SWAP1 RETURNDATASIZE ISZERO PUSH2 0x1608 JUMPI RETURNDATASIZE SWAP1 PUSH8 0xFFFFFFFFFFFFFFFF DUP3 GT PUSH2 0x15F4 JUMPI PUSH1 0x40 MLOAD SWAP2 PUSH2 0x15E9 PUSH1 0x1F DUP3 ADD PUSH1 0x1F NOT AND PUSH1 0x20 ADD DUP5 PUSH2 0x1166 JUMP JUMPDEST DUP3 MSTORE PUSH1 0x20 RETURNDATASIZE SWAP3 ADD RETURNDATACOPY SWAP1 JUMP JUMPDEST PUSH4 0x4E487B71 PUSH1 0xE0 SHL DUP2 MSTORE PUSH1 0x41 PUSH1 0x4 MSTORE PUSH1 0x24 SWAP1 REVERT JUMPDEST POP SWAP1 JUMP JUMPDEST SWAP1 PUSH2 0x1617 SWAP1 DUP3 PUSH2 0x1215 JUMP JUMPDEST SWAP1 DUP2 LT PUSH2 0x1621 JUMPI SWAP1 JUMP JUMPDEST PUSH1 0x40 MLOAD PUSH3 0x461BCD PUSH1 0xE5 SHL DUP2 MSTORE PUSH1 0x20 PUSH1 0x4 DUP3 ADD MSTORE PUSH1 0x1B PUSH1 0x24 DUP3 ADD MSTORE PUSH32 0x536166654D6174683A206164646974696F6E206F766572666C6F770000000000 PUSH1 0x44 DUP3 ADD MSTORE PUSH1 0x64 SWAP1 REVERT JUMPDEST ISZERO PUSH2 0x166E JUMPI POP JUMP JUMPDEST PUSH1 0x40 MLOAD SWAP1 PUSH3 0x461BCD PUSH1 0xE5 SHL DUP3 MSTORE DUP2 PUSH1 0x20 DUP1 PUSH1 0x4 DUP4 ADD MSTORE DUP3 MLOAD SWAP1 DUP2 PUSH1 0x24 DUP5 ADD MSTORE PUSH1 0x0 SWAP4 JUMPDEST DUP3 DUP6 LT PUSH2 0x16B4 JUMPI POP POP PUSH1 0x44 SWAP3 POP PUSH1 0x0 DUP4 DUP3 DUP5 ADD ADD MSTORE PUSH1 0x1F DUP1 NOT SWAP2 ADD AND DUP2 ADD SUB ADD SWAP1 REVERT JUMPDEST DUP5 DUP2 ADD DUP3 ADD MLOAD DUP7 DUP7 ADD PUSH1 0x44 ADD MSTORE SWAP4 DUP2 ADD SWAP4 DUP6 SWAP4 POP PUSH2 0x1691 JUMP INVALID LOG2 PUSH5 0x6970667358 0x22 SLT KECCAK256 SMOD SELFBALANCE ORIGIN PUSH12 0x2C0CD8E4577EA5AAE08C8521 0xB6 0x4E LOG0 REVERT SWAP12 LOG4 0x26 0xC4 0xCE CREATE 0x2F 0xAB PUSH23 0xE8E8764736F6C63430008180033000000000000000000 "
        },
        "methodIdentifiers": {
          "WETH()": "ad5c4648",
          "addLiquidityETH(address,uint256)": "7282d548",
          "factory()": "c45a0155",
          "getAmountsOut(address,address,uint256)": "45608d00",
          "referralFee()": "84ae2bc6",
          "removeLiquidityETH(address,uint256,address)": "e79a4089",
          "swapETHForTokens(address,address,address)": "57f8d901",
          "swapTokensForETH(uint256,address,address,address)": "512b1e6e"
        }
      }
    }
  }
}