{
  "contracts/PumpFun.sol": {
    "PumpFun": {
      "abi": [
        {
          "inputs": [
            {
              "internalType": "address",
              "name": "factory_",
              "type": "address"
            },
            {
              "internalType": "address",
              "name": "router_",
              "type": "address"
            },
            {
              "internalType": "address",
              "name": "fee_to",
              "type": "address"
            },
            {
              "internalType": "uint256",
              "name": "_fee",
              "type": "uint256"
            }
          ],
          "stateMutability": "nonpayable",
          "type": "constructor"
        },
        {
          "inputs": [],
          "name": "ReentrancyGuardReentrantCall",
          "type": "error"
        },
        {
          "anonymous": false,
          "inputs": [
            {
              "indexed": true,
              "internalType": "address",
              "name": "token",
              "type": "address"
            },
            {
              "indexed": false,
              "internalType": "uint256",
              "name": "amount0",
              "type": "uint256"
            },
            {
              "indexed": false,
              "internalType": "uint256",
              "name": "amount1",
              "type": "uint256"
            }
          ],
          "name": "Deployed",
          "type": "event"
        },
        {
          "anonymous": false,
          "inputs": [
            {
              "indexed": true,
              "internalType": "address",
              "name": "token",
              "type": "address"
            },
            {
              "indexed": true,
              "internalType": "address",
              "name": "pair",
              "type": "address"
            },
            {
              "indexed": false,
              "internalType": "uint256",
              "name": "",
              "type": "uint256"
            }
          ],
          "name": "Launched",
          "type": "event"
        },
        {
          "inputs": [
            {
              "internalType": "address",
              "name": "_user",
              "type": "address"
            },
            {
              "internalType": "address",
              "name": "_token",
              "type": "address"
            },
            {
              "internalType": "uint256",
              "name": "amount",
              "type": "uint256"
            }
          ],
          "name": "approval",
          "outputs": [
            {
              "internalType": "bool",
              "name": "",
              "type": "bool"
            }
          ],
          "stateMutability": "nonpayable",
          "type": "function"
        },
        {
          "inputs": [
            {
              "internalType": "address",
              "name": "tk",
              "type": "address"
            }
          ],
          "name": "deploy",
          "outputs": [],
          "stateMutability": "nonpayable",
          "type": "function"
        },
        {
          "inputs": [],
          "name": "feeTo",
          "outputs": [
            {
              "internalType": "address",
              "name": "",
              "type": "address"
            }
          ],
          "stateMutability": "view",
          "type": "function"
        },
        {
          "inputs": [],
          "name": "feeToSetter",
          "outputs": [
            {
              "internalType": "address",
              "name": "",
              "type": "address"
            }
          ],
          "stateMutability": "view",
          "type": "function"
        },
        {
          "inputs": [],
          "name": "getTokens",
          "outputs": [
            {
              "components": [
                {
                  "internalType": "address",
                  "name": "creator",
                  "type": "address"
                },
                {
                  "internalType": "address",
                  "name": "token",
                  "type": "address"
                },
                {
                  "internalType": "address",
                  "name": "pair",
                  "type": "address"
                },
                {
                  "components": [
                    {
                      "internalType": "address",
                      "name": "token",
                      "type": "address"
                    },
                    {
                      "internalType": "string",
                      "name": "name",
                      "type": "string"
                    },
                    {
                      "internalType": "string",
                      "name": "ticker",
                      "type": "string"
                    },
                    {
                      "internalType": "uint256",
                      "name": "supply",
                      "type": "uint256"
                    },
                    {
                      "internalType": "uint256",
                      "name": "price",
                      "type": "uint256"
                    },
                    {
                      "internalType": "uint256",
                      "name": "marketCap",
                      "type": "uint256"
                    },
                    {
                      "internalType": "uint256",
                      "name": "liquidity",
                      "type": "uint256"
                    },
                    {
                      "internalType": "uint256",
                      "name": "_liquidity",
                      "type": "uint256"
                    },
                    {
                      "internalType": "uint256",
                      "name": "volume",
                      "type": "uint256"
                    },
                    {
                      "internalType": "uint256",
                      "name": "volume24H",
                      "type": "uint256"
                    },
                    {
                      "internalType": "uint256",
                      "name": "prevPrice",
                      "type": "uint256"
                    },
                    {
                      "internalType": "uint256",
                      "name": "lastUpdated",
                      "type": "uint256"
                    }
                  ],
                  "internalType": "struct PumpFun.Data",
                  "name": "data",
                  "type": "tuple"
                },
                {
                  "internalType": "string",
                  "name": "description",
                  "type": "string"
                },
                {
                  "internalType": "string",
                  "name": "image",
                  "type": "string"
                },
                {
                  "internalType": "string",
                  "name": "twitter",
                  "type": "string"
                },
                {
                  "internalType": "string",
                  "name": "telegram",
                  "type": "string"
                },
                {
                  "internalType": "string",
                  "name": "youtube",
                  "type": "string"
                },
                {
                  "internalType": "string",
                  "name": "website",
                  "type": "string"
                },
                {
                  "internalType": "bool",
                  "name": "trading",
                  "type": "bool"
                },
                {
                  "internalType": "bool",
                  "name": "tradingOnUniswap",
                  "type": "bool"
                }
              ],
              "internalType": "struct PumpFun.Token[]",
              "name": "",
              "type": "tuple[]"
            }
          ],
          "stateMutability": "view",
          "type": "function"
        },
        {
          "inputs": [],
          "name": "getUserTokens",
          "outputs": [
            {
              "components": [
                {
                  "internalType": "address",
                  "name": "creator",
                  "type": "address"
                },
                {
                  "internalType": "address",
                  "name": "token",
                  "type": "address"
                },
                {
                  "internalType": "address",
                  "name": "pair",
                  "type": "address"
                },
                {
                  "components": [
                    {
                      "internalType": "address",
                      "name": "token",
                      "type": "address"
                    },
                    {
                      "internalType": "string",
                      "name": "name",
                      "type": "string"
                    },
                    {
                      "internalType": "string",
                      "name": "ticker",
                      "type": "string"
                    },
                    {
                      "internalType": "uint256",
                      "name": "supply",
                      "type": "uint256"
                    },
                    {
                      "internalType": "uint256",
                      "name": "price",
                      "type": "uint256"
                    },
                    {
                      "internalType": "uint256",
                      "name": "marketCap",
                      "type": "uint256"
                    },
                    {
                      "internalType": "uint256",
                      "name": "liquidity",
                      "type": "uint256"
                    },
                    {
                      "internalType": "uint256",
                      "name": "_liquidity",
                      "type": "uint256"
                    },
                    {
                      "internalType": "uint256",
                      "name": "volume",
                      "type": "uint256"
                    },
                    {
                      "internalType": "uint256",
                      "name": "volume24H",
                      "type": "uint256"
                    },
                    {
                      "internalType": "uint256",
                      "name": "prevPrice",
                      "type": "uint256"
                    },
                    {
                      "internalType": "uint256",
                      "name": "lastUpdated",
                      "type": "uint256"
                    }
                  ],
                  "internalType": "struct PumpFun.Data",
                  "name": "data",
                  "type": "tuple"
                },
                {
                  "internalType": "string",
                  "name": "description",
                  "type": "string"
                },
                {
                  "internalType": "string",
                  "name": "image",
                  "type": "string"
                },
                {
                  "internalType": "string",
                  "name": "twitter",
                  "type": "string"
                },
                {
                  "internalType": "string",
                  "name": "telegram",
                  "type": "string"
                },
                {
                  "internalType": "string",
                  "name": "youtube",
                  "type": "string"
                },
                {
                  "internalType": "string",
                  "name": "website",
                  "type": "string"
                },
                {
                  "internalType": "bool",
                  "name": "trading",
                  "type": "bool"
                },
                {
                  "internalType": "bool",
                  "name": "tradingOnUniswap",
                  "type": "bool"
                }
              ],
              "internalType": "struct PumpFun.Token[]",
              "name": "",
              "type": "tuple[]"
            }
          ],
          "stateMutability": "view",
          "type": "function"
        },
        {
          "inputs": [
            {
              "internalType": "string",
              "name": "_name",
              "type": "string"
            },
            {
              "internalType": "string",
              "name": "_ticker",
              "type": "string"
            },
            {
              "internalType": "string",
              "name": "desc",
              "type": "string"
            },
            {
              "internalType": "string",
              "name": "img",
              "type": "string"
            },
            {
              "internalType": "string[4]",
              "name": "urls",
              "type": "string[4]"
            },
            {
              "internalType": "uint256",
              "name": "_supply",
              "type": "uint256"
            },
            {
              "internalType": "uint256",
              "name": "maxTx",
              "type": "uint256"
            }
          ],
          "name": "launch",
          "outputs": [
            {
              "internalType": "address",
              "name": "",
              "type": "address"
            },
            {
              "internalType": "address",
              "name": "",
              "type": "address"
            },
            {
              "internalType": "uint256",
              "name": "",
              "type": "uint256"
            }
          ],
          "stateMutability": "payable",
          "type": "function"
        },
        {
          "inputs": [],
          "name": "launchFee",
          "outputs": [
            {
              "internalType": "uint256",
              "name": "",
              "type": "uint256"
            }
          ],
          "stateMutability": "view",
          "type": "function"
        },
        {
          "inputs": [],
          "name": "liquidityFee",
          "outputs": [
            {
              "internalType": "uint256",
              "name": "",
              "type": "uint256"
            }
          ],
          "stateMutability": "pure",
          "type": "function"
        },
        {
          "inputs": [],
          "name": "marketCapLimit",
          "outputs": [
            {
              "internalType": "uint256",
              "name": "",
              "type": "uint256"
            }
          ],
          "stateMutability": "pure",
          "type": "function"
        },
        {
          "inputs": [
            {
              "internalType": "address",
              "name": "",
              "type": "address"
            }
          ],
          "name": "profile",
          "outputs": [
            {
              "internalType": "address",
              "name": "user",
              "type": "address"
            }
          ],
          "stateMutability": "view",
          "type": "function"
        },
        {
          "inputs": [
            {
              "internalType": "uint256",
              "name": "",
              "type": "uint256"
            }
          ],
          "name": "profiles",
          "outputs": [
            {
              "internalType": "address",
              "name": "user",
              "type": "address"
            }
          ],
          "stateMutability": "view",
          "type": "function"
        },
        {
          "inputs": [
            {
              "internalType": "address",
              "name": "fee_to",
              "type": "address"
            }
          ],
          "name": "setFeeTo",
          "outputs": [],
          "stateMutability": "nonpayable",
          "type": "function"
        },
        {
          "inputs": [
            {
              "internalType": "address",
              "name": "tk",
              "type": "address"
            },
            {
              "internalType": "address",
              "name": "to",
              "type": "address"
            },
            {
              "internalType": "address",
              "name": "referree",
              "type": "address"
            }
          ],
          "name": "swapETHForTokens",
          "outputs": [
            {
              "internalType": "bool",
              "name": "",
              "type": "bool"
            }
          ],
          "stateMutability": "payable",
          "type": "function"
        },
        {
          "inputs": [
            {
              "internalType": "uint256",
              "name": "amountIn",
              "type": "uint256"
            },
            {
              "internalType": "address",
              "name": "tk",
              "type": "address"
            },
            {
              "internalType": "address",
              "name": "to",
              "type": "address"
            },
            {
              "internalType": "address",
              "name": "referree",
              "type": "address"
            }
          ],
          "name": "swapTokensForETH",
          "outputs": [
            {
              "internalType": "bool",
              "name": "",
              "type": "bool"
            }
          ],
          "stateMutability": "nonpayable",
          "type": "function"
        },
        {
          "inputs": [
            {
              "internalType": "address",
              "name": "",
              "type": "address"
            }
          ],
          "name": "token",
          "outputs": [
            {
              "internalType": "address",
              "name": "creator",
              "type": "address"
            },
            {
              "internalType": "address",
              "name": "token",
              "type": "address"
            },
            {
              "internalType": "address",
              "name": "pair",
              "type": "address"
            },
            {
              "components": [
                {
                  "internalType": "address",
                  "name": "token",
                  "type": "address"
                },
                {
                  "internalType": "string",
                  "name": "name",
                  "type": "string"
                },
                {
                  "internalType": "string",
                  "name": "ticker",
                  "type": "string"
                },
                {
                  "internalType": "uint256",
                  "name": "supply",
                  "type": "uint256"
                },
                {
                  "internalType": "uint256",
                  "name": "price",
                  "type": "uint256"
                },
                {
                  "internalType": "uint256",
                  "name": "marketCap",
                  "type": "uint256"
                },
                {
                  "internalType": "uint256",
                  "name": "liquidity",
                  "type": "uint256"
                },
                {
                  "internalType": "uint256",
                  "name": "_liquidity",
                  "type": "uint256"
                },
                {
                  "internalType": "uint256",
                  "name": "volume",
                  "type": "uint256"
                },
                {
                  "internalType": "uint256",
                  "name": "volume24H",
                  "type": "uint256"
                },
                {
                  "internalType": "uint256",
                  "name": "prevPrice",
                  "type": "uint256"
                },
                {
                  "internalType": "uint256",
                  "name": "lastUpdated",
                  "type": "uint256"
                }
              ],
              "internalType": "struct PumpFun.Data",
              "name": "data",
              "type": "tuple"
            },
            {
              "internalType": "string",
              "name": "description",
              "type": "string"
            },
            {
              "internalType": "string",
              "name": "image",
              "type": "string"
            },
            {
              "internalType": "string",
              "name": "twitter",
              "type": "string"
            },
            {
              "internalType": "string",
              "name": "telegram",
              "type": "string"
            },
            {
              "internalType": "string",
              "name": "youtube",
              "type": "string"
            },
            {
              "internalType": "string",
              "name": "website",
              "type": "string"
            },
            {
              "internalType": "bool",
              "name": "trading",
              "type": "bool"
            },
            {
              "internalType": "bool",
              "name": "tradingOnUniswap",
              "type": "bool"
            }
          ],
          "stateMutability": "view",
          "type": "function"
        },
        {
          "inputs": [
            {
              "internalType": "uint256",
              "name": "",
              "type": "uint256"
            }
          ],
          "name": "tokens",
          "outputs": [
            {
              "internalType": "address",
              "name": "creator",
              "type": "address"
            },
            {
              "internalType": "address",
              "name": "token",
              "type": "address"
            },
            {
              "internalType": "address",
              "name": "pair",
              "type": "address"
            },
            {
              "components": [
                {
                  "internalType": "address",
                  "name": "token",
                  "type": "address"
                },
                {
                  "internalType": "string",
                  "name": "name",
                  "type": "string"
                },
                {
                  "internalType": "string",
                  "name": "ticker",
                  "type": "string"
                },
                {
                  "internalType": "uint256",
                  "name": "supply",
                  "type": "uint256"
                },
                {
                  "internalType": "uint256",
                  "name": "price",
                  "type": "uint256"
                },
                {
                  "internalType": "uint256",
                  "name": "marketCap",
                  "type": "uint256"
                },
                {
                  "internalType": "uint256",
                  "name": "liquidity",
                  "type": "uint256"
                },
                {
                  "internalType": "uint256",
                  "name": "_liquidity",
                  "type": "uint256"
                },
                {
                  "internalType": "uint256",
                  "name": "volume",
                  "type": "uint256"
                },
                {
                  "internalType": "uint256",
                  "name": "volume24H",
                  "type": "uint256"
                },
                {
                  "internalType": "uint256",
                  "name": "prevPrice",
                  "type": "uint256"
                },
                {
                  "internalType": "uint256",
                  "name": "lastUpdated",
                  "type": "uint256"
                }
              ],
              "internalType": "struct PumpFun.Data",
              "name": "data",
              "type": "tuple"
            },
            {
              "internalType": "string",
              "name": "description",
              "type": "string"
            },
            {
              "internalType": "string",
              "name": "image",
              "type": "string"
            },
            {
              "internalType": "string",
              "name": "twitter",
              "type": "string"
            },
            {
              "internalType": "string",
              "name": "telegram",
              "type": "string"
            },
            {
              "internalType": "string",
              "name": "youtube",
              "type": "string"
            },
            {
              "internalType": "string",
              "name": "website",
              "type": "string"
            },
            {
              "internalType": "bool",
              "name": "trading",
              "type": "bool"
            },
            {
              "internalType": "bool",
              "name": "tradingOnUniswap",
              "type": "bool"
            }
          ],
          "stateMutability": "view",
          "type": "function"
        },
        {
          "inputs": [
            {
              "internalType": "uint256",
              "name": "_fee",
              "type": "uint256"
            }
          ],
          "name": "updateLaunchFee",
          "outputs": [
            {
              "internalType": "uint256",
              "name": "",
              "type": "uint256"
            }
          ],
          "stateMutability": "nonpayable",
          "type": "function"
        },
        {
          "stateMutability": "payable",
          "type": "receive"
        }
      ],
      "evm": {
        "bytecode": {
          "linkReferences": {},
          "object": "6080346200014657601f62004f8f38819003918201601f19168301916001600160401b038311848410176200014b5780849260809460405283398101031262000146576200004d8162000161565b6200005b6020830162000161565b60606200006b6040850162000161565b9301516001600081905580546001600160a01b03199081163317909155909390926001600160a01b03908116928190620000a785151562000176565b1691620000b683151562000176565b1691620000c583151562000176565b836002541617600255826003541617600355816004541617600455670de0b6b3a76400009182810292818404149015171562000130576103e8734752ba5dbc23f44d87826276bf6fd6b1c372ad2492046005556006541617600655604051614dcb9081620001c48239f35b634e487b7160e01b600052601160045260246000fd5b600080fd5b634e487b7160e01b600052604160045260246000fd5b51906001600160a01b03821682036200014657565b156200017e57565b60405162461bcd60e51b815260206004820152601f60248201527f5a65726f2061646472657373657320617265206e6f7420616c6c6f7765642e006044820152606490fdfe60808060405260043610156200001f575b5036156200001d57600080fd5b005b600090813560e01c908163017e7e58146200280457508063094b741514620027d95780634c96a3891462001ac55780634f64b2be1462001a62578063512b1e6e14620015e657806357f8d90114620010af5780635c52a5f2146200105e5780636d46a1db1462000f8e5780637660f44a1462000f6957806380997e471462000f425780638a664ebc1462000d6e57806398118cb41462000d505780639dd9d0fd1462000d10578063aa6ca8081462000b9a578063ad256f7d14620001c4578063c36fe3d61462000180578063cf3cf57314620001605763f46901ed036200001057346200015d5760203660031901126200015d576200011d6200282b565b6001546001600160a01b03919062000139908316331462002e4c565b166200014781151562002ea8565b6001600160601b0360a01b600454161760045580f35b80fd5b50346200015d57806003193601126200015d576020600554604051908152f35b50346200015d5760203660031901126200015d57600435906008548210156200015d576020620001b08362002e11565b50546040516001600160a01b039091168152f35b5060e03660031901126200015d576001600160401b03600435818111620007a157620001f590369060040162002dc4565b60243582811162000b96576200021090369060040162002dc4565b9060443583811162000b92576200022c90369060040162002dc4565b9160643584811162000b8e576200024890369060040162002dc4565b926084359480861162000b8a573660238701121562000b8a576040519560808701878110838211176200087d57604052608481018736821162000b865782600401905b82821062000b565750505050620002a1620039c2565b600554341062000b1157604051906110ab8083019182118383101762000afd5790829162003ceb833960808152620002f0620002e1608083018862002ab1565b82810360208401528662002ab1565b9060a4356040820152606060c435910152039087f094851562000af2576003546040516315ab88c960e31b81529590602090879060049082906001600160a01b03165afa958615620008e25762000389966020918a9162000ad0575b506002546040516364e329cb60e11b81526001600160a01b038b8116600483015292831660248201529889929091169082908c9082906044820190565b03925af1958615620008e257889662000a98575b5060405163313ce56760e01b81526020816004816001600160a01b038c165afa801562000a8d57899062000a49575b60ff915016604d811162000a3557620003eb90600a0a60a43562002f94565b600354620004089082906001600160a01b038b8116911662003a00565b1562000a3157346005029060058204340362000a1d576200042d606483043462002f86565b60035460408051630e505aa960e31b81526001600160a01b038d8116600483015260248201869052939a9390928391604491839160648a0491165af18015620009dd57620009e8575b50604051635d4d3d2b60e11b8152916020836004816001600160a01b038e165afa928315620009dd578c93620009a0575b50620004b66004938262002fa8565b604051635d4d3d2b60e11b8152939092906020908590816001600160a01b038f165afa93841562000995578d946200095b575b50606485046064860460011b04600214606486041517156200094757908c94939291600460208d60405192838092635d4d3d2b60e11b825260018060a01b03165afa9687156200093b579662000901575b50858060011b0460021486151715620008ed57908d9594939291600460208e60405192838092635d4d3d2b60e11b825260018060a01b03165afa908115620008e2578f989162000893575b509a82916200059e620005aa9d60649897969562002fa8565b986040519d8e620028ff565b60018060a01b03168d5260208d015260408c015260608b015260808a015260a08901520460011b60c087015260011b60e086015288610100860152886101208601526101408501524261016085015281516020830151916060604085015194015194604051966200061b88620028ff565b33885260018060a01b038b16602089015260018060a01b038a1660408901526060880152608087015260a086015260c085015260e084015261010083015261012082015260016101408201528461016082015260018060a01b038416855260096020526200068d816040872062002fc9565b600a5490600160401b91828110156200087d57806001620006b29201600a5562002870565b9290926200086757620006c782889462002fc9565b620006d23362003ab1565b15620007ab5750818093620006f782933384526007602052600160408520016200398b565b6004546001600160a01b03165af13d15620007a5573d620007188162002da8565b9062000728604051928362002938565b81528460203d92013e5b15620007a157600a546040518181526060949192916001916001600160a01b0380851691908716907f714aa39317ad9a7a7a99db52b44490da5d068a0b2710fffb1a1282ad3cadae1f90602090a355604080516001600160a01b03948516815291909316602082015291820152f35b8280fd5b62000732565b909150620007bb33151562002ea8565b60405190620007ca826200291c565b338252606060208301523387526007602052620007eb826040892062003b58565b60085490811015620008535780600162000809920160085562002e11565b6200083f578693620008398594620008248695869562003b58565b3384526007602052600160408520016200398b565b620006f7565b634e487b7160e01b87526004879052602487fd5b634e487b7160e01b87526041600452602487fd5b634e487b7160e01b600052600060045260246000fd5b634e487b7160e01b600052604160045260246000fd5b95949392919750506020853d602011620008d9575b81620008b76020938362002938565b81010312620008d45793518d969394929391929190606462000585565b600080fd5b3d9150620008a8565b6040513d8a823e3d90fd5b634e487b7160e01b8e52601160045260248efd5b9095506020813d60201162000932575b81620009206020938362002938565b81010312620008d4575194386200053a565b3d915062000911565b604051903d90823e3d90fd5b634e487b7160e01b8d52601160045260248dfd5b9093506020813d6020116200098c575b816200097a6020938362002938565b81010312620008d457519238620004e9565b3d91506200096b565b6040513d8f823e3d90fd5b92506020833d602011620009d4575b81620009be6020938362002938565b81010312620008d457915191620004b6620004a7565b3d9150620009af565b6040513d8e823e3d90fd5b62000a0e9060403d60401162000a15575b62000a05818362002938565b81019062002f16565b5062000476565b503d620009f9565b634e487b7160e01b8a52601160045260248afd5b8880fd5b634e487b7160e01b89526011600452602489fd5b506020813d60201162000a84575b8162000a666020938362002938565b8101031262000a31575160ff8116810362000a315760ff90620003cc565b3d915062000a57565b6040513d8b823e3d90fd5b62000ac091965060203d60201162000ac8575b62000ab7818362002938565b81019062002ef5565b94386200039d565b503d62000aab565b62000aeb9150823d841162000ac85762000ab7818362002938565b386200034c565b6040513d88823e3d90fd5b634e487b7160e01b89526041600452602489fd5b60405162461bcd60e51b815260206004820152601960248201527f496e73756666696369656e7420616d6f756e742073656e742e000000000000006044820152606490fd5b813585811162000b825760209162000b7683926004369189010162002dc4565b8152019101906200028b565b8b80fd5b8980fd5b8680fd5b8580fd5b8480fd5b8380fd5b50346200015d57806003193601126200015d57600a546001600160401b0381116200087d576020906040519062000bd860208260051b018362002938565b80825260208201600a6000527fc65a7bb8d6351c1cf70c95a316cc6a92839c986682d98bc35f958f4883f9d2a8936000915b83831062000c26576040518062000c22878262002c5d565b0390f35b60168260019260405162000c3a81620028ff565b848060a01b03808b5416825280868c0154168483015260028b015416604082015262000c6960038b0162002a0b565b606082015262000c7c600f8b016200295a565b608082015262000c8f60108b016200295a565b60a082015262000ca260118b016200295a565b60c082015262000cb560128b016200295a565b60e082015262000cc860138b016200295a565b61010082015262000cdc60148b016200295a565b61012082015260158a015460ff90818116151561014084015260081c16151561016082015281520196019201919462000c0a565b50346200015d5760203660031901126200015d576020906001600160a01b03906040908262000d3e6200282b565b16815260078452205416604051908152f35b50346200015d57806003193601126200015d57602060405160058152f35b50346200015d57806003193601126200015d5762000d8c3362003ab1565b1562000efd573381526040602091600783522060405162000dad816200291c565b81546001600160a01b039081168252600192830180549093916001600160401b0382116200087d57936040519462000deb878460051b018762002938565b8286526000918252868220908787015b84841062000e19578689018890526040518062000c228a8262002c5d565b601689879260405162000e2c81620028ff565b8587541681528585880154168382015285600288015416604082015262000e566003880162002a0b565b606082015262000e69600f88016200295a565b608082015262000e7c601088016200295a565b60a082015262000e8f601188016200295a565b60c082015262000ea2601288016200295a565b60e082015262000eb5601388016200295a565b61010082015262000ec9601488016200295a565b610120820152601587015460ff90818116151561014084015260081c16151561016082015281520193019301929162000dfb565b60405162461bcd60e51b815260206004820152601c60248201527f557365722050726f66696c6520646f7365206e6f742065786973742e000000006044820152606490fd5b50346200015d57806003193601126200015d57602060405169152d02c7e14af68000008152f35b50346200015d5760203660031901126200015d57602060043580600555604051908152f35b50346200015d5760203660031901126200015d576001600160a01b03906040908262000fb96200282b565b1681526009602052209062000c22818354169282600182015416926002820154169362000fe96003830162002a0b565b9162000ff8600f82016200295a565b62001006601083016200295a565b62001014601184016200295a565b62001022601285016200295a565b9162001031601386016200295a565b93601562001042601488016200295a565b960154976040519b8c9b60ff808c60081c169b16998d62002b94565b50346200015d5760603660031901126200015d576020906001620010a3620010856200282b565b6200108f62002842565b62001099620039c2565b6044359162003a00565b91556040519015158152f35b5060603660031901126200015d57620010c76200282b565b90620010d262002842565b620010dc62002859565b90620010f36001600160a01b038516151562002ea8565b6001600160a01b0316906200110a82151562002ea8565b6001600160a01b0316906200112182151562002ea8565b6002546003546040516315ab88c960e31b81526001600160a01b039182169392909116602082600481875afa91821562000af257916020916200119c938892620015c2575b5060405163e6a4390560e01b81526001600160a01b03808b16600483015290921660248301529092839190829081906044820190565b03915afa9081156200154b57600493929160609187916200159e575b50604051630240bc6b60e21b815294859182906001600160a01b03165afa9384156200154b5785918694879662001556575b50604080516357f8d90160e01b81526001600160a01b038a16600482015260248101929092526044820192909252928390606490829034905af19081156200154b578592869262001514575b5062001254836200124d6200125b94829462002f86565b9562002f62565b9462002f62565b6001600160a01b0386168552600960205260408520600e015490919062001283904262002f86565b92828060011b04600214831517156200150057848060011b0460021485151715620015005760018060a01b03871686526009602052620012e283620012db83620012d583600660408d20015462002f94565b62002fa8565b9262002fa8565b9162015180851115620014d35780925b62015180861115620014b3576001600160a01b038916885260096020526040882060070154945b60018060a01b038a16895260096020526200135a83600b60408c208560078201558760088201558b60011b60098201558460011b600a820155015462002f62565b60018060a01b038b168a52600960205260408a2090600b82015585600c82015586600d820155620151808811620014a6575b50885b600a548110156200149b57808a858d8c620013ac60019662002870565b5086015460a087901b879003838116911614620013cf575b50505050016200138f565b6200143b93600b926040928a6007620013e88a62002870565b5001558c6008620013f98a62002870565b5001556009620014098962002870565b50918a1b9101556200141b8762002870565b50600a8a8a1b910155878060a01b03168152600960205220015462002f62565b600b620014488362002870565b50015586600c620014598362002870565b50015587600d6200146a8362002870565b50015562015180891162001483575b8a858d8c620013c4565b6200148e8162002870565b50600e4291015562001479565b602060405160018152f35b600e42910155386200138c565b6001600160a01b0389168852600960205260408820600d01549462001319565b6001600160a01b0388168752600960205260408720600c0154620014f990829062002f62565b92620012f2565b634e487b7160e01b86526011600452602486fd5b6200124d93506200125b925062001540620012549160403d60401162000a155762000a05818362002938565b909450925062001236565b6040513d87823e3d90fd5b6200158791965060409295506064935060603d60601162001596575b6200157e818362002938565b81019062002f46565b959193909596919250620011ea565b503d62001572565b620015bb915060203d60201162000ac85762000ab7818362002938565b38620011b8565b620015de919250833d851162000ac85762000ab7818362002938565b903862001166565b50346200015d5760803660031901126200015d576200160462002842565b906200160f62002859565b6064356001600160a01b0381169190829003620008d4576200163c6001600160a01b038516151562002ea8565b6001600160a01b03166200165281151562002ea8565b6200165f82151562002ea8565b6002546003546040516315ab88c960e31b81526001600160a01b0391821692909116602082600481865afa91821562000af25791602091620016d8938892620015c2575060405163e6a4390560e01b81526001600160a01b03808b16600483015290921660248301529092839190829081906044820190565b03915afa9081156200154b576004939291606091879162001a3e575b50604051630240bc6b60e21b815294859182906001600160a01b03165afa9384156200154b5785928694879662001a08575b5090608460409288845195869485936328958f3760e11b855260043560048601528d60018060a01b03166024860152604485015260648401525af19182156200154b5785918693620019d2575b5062001791836200178a6200179894829462002f62565b9562002f86565b9462002f86565b6001600160a01b0386168552600960205260408520600e0154909190620017c0904262002f86565b92828060011b04600214831517156200150057848060011b0460021485151715620015005760018060a01b038716865260096020526200181283620012db83620012d583600660408d20015462002f94565b9162015180851115620019a55780925b6201518086111562001985576001600160a01b038916885260096020526040882060070154945b60018060a01b038a16895260096020526200188a83600b60408c208560078201558760088201558b60011b60098201558460011b600a820155015462002f62565b60018060a01b038b168a52600960205260408a2090600b82015585600c82015586600d82015562015180881162001978575b50885b600a548110156200149b57808a858d8c620018dc60019662002870565b5086015460a087901b879003838116911614620018ff575b5050505001620018bf565b6200191893600b926040928a6007620013e88a62002870565b600b620019258362002870565b50015586600c620019368362002870565b50015587600d620019478362002870565b50015562015180891162001960575b8a858d8c620018f4565b6200196b8162002870565b50600e4291015562001956565b600e4291015538620018bc565b6001600160a01b0389168852600960205260408820600d01549462001849565b6001600160a01b0388168752600960205260408720600c0154620019cb90829062002f62565b9262001822565b6200178a9350620017989250620019fe620017919160403d60401162000a155762000a05818362002938565b9450925062001773565b62001a2f91965060409295506084945060603d60601162001596576200157e818362002938565b95919490959691925062001726565b62001a5b915060203d60201162000ac85762000ab7818362002938565b38620016f4565b50346200015d5760203660031901126200015d57600435600a5481101562001ac15762001a8f9062002870565b508054600182015460028301546001600160a01b03908116939181169262000c2292911662000fe96003830162002a0b565b5080fd5b50346200015d5760203660031901126200015d5762001ae36200282b565b9062001afb60018060a01b0360015416331462002e4c565b62001b05620039c2565b62001b1b6001600160a01b038316151562002ea8565b6003546040516315ab88c960e31b815290602090829060049082906001600160a01b03165afa908115620027885762001b94916020918491620027b7575b5060025460405163e6a4390560e01b81526001600160a01b038781166004830152928316602482015293849290911690829081906044820190565b03915afa9081156200278857829162002793575b506001600160a01b0383163b1562001ac1576040516306da678f60e51b81526001600160a01b03918216600482015290829082906024908290849088165af1801562002788576200275b575b506001600160a01b0380831680835260096020526040808420600354825163e79a408960e01b8152600481019490945260646024850181905230604486015295969395919486929183918991165af192831562002750578490859462002727575b5060018060a01b038216855260096020526040852092600684015462001cab60056040519662001c8588620028ff565b6001600160a01b038716885262001c9f600482016200295a565b6020890152016200295a565b604086015260608501528560808501528560a08501528560c08501528560e08501528561010085015285610120850152856101408501524261016085015260018060a01b038451166001600160601b0360a01b60038301541617600382015560208401518051906001600160401b038211620026685762001d306004840154620028c2565b601f8111620026f0575b50602090601f83116001146200267c5762001d6e929189918362001fdd575b50508160011b916000199060031b1c19161790565b60048201555b60408401518051906001600160401b038211620026685762001d9a6005840154620028c2565b601f811162002631575b50602090601f8311600114620025bd5762001dd7929189918362001fdd5750508160011b916000199060031b1c19161790565b60058201555b606084015160068201556080840151600782015560a0840151600882015560c0840151600982015560e0840151600a820155610100840151600b820155610120840151600c820155610140840151600d820155610160840151600e820155855b600a54811015620021615762001e538162002870565b50600101546001600160a01b0385811691161462001e75575b60010162001e3d565b62001e808162002870565b506003810160018060a01b038751166001600160601b0360a01b82541617905560208601518051906001600160401b038211620020a25762001ec66004840154620028c2565b601f81116200212a575b50602090601f8311600114620020b65762001f0392918b918362001fdd5750508160011b916000199060031b1c19161790565b60048201555b60408601518051906001600160401b038211620020a25762001f2f6005840154620028c2565b601f81116200205f575b50602090601f831160011462001fe957918062001f719260019695948d9262001fdd5750508160011b916000199060031b1c19161790565b60058201555b606087015160068201556080870151600782015560a0870151600882015560c0870151600982015560e0870151600a820155610100870151600b820155610120870151600c820155610140870151600d820155600e610160880151910155905062001e6c565b01519050388062001d59565b90600584018b5260208b20918b5b601f19851681106200204657509183916001969594938794601f198116106200202c575b505050811b01600582015562001f77565b015160001960f88460031b161c191690553880806200201b565b9192602060018192868501518155019401920162001ff7565b6200209090600585018c5260208c20601f850160051c8101916020861062002097575b601f0160051c019062002f2d565b3862001f39565b909150819062002082565b634e487b7160e01b8a52604160045260248afd5b9190600484018b5260208b20908b935b601f19841685106200210e576001945083601f19811610620020f4575b505050811b01600482015562001f09565b015160001960f88460031b161c19169055388080620020e3565b81810151835560209485019460019093019290910190620020c6565b6200215a90600485018c5260208c20601f850160051c810191602086106200209757601f0160051c019062002f2d565b3862001ed0565b50859285906200217c6001600160a01b038216151562002ea8565b6001600160a01b03811685526009602052604085206015015460ff81169081620025ad575b501562002568576006546040516370a0823160e01b80825230600483015293916001600160a01b03908116906020908390602490829088165afa908115620008e2578490899262002529575b620021f9935062003a00565b15620024f45760065460405163c45a015560e01b81528794916001600160a01b0316602082600481845afa91821562000af2578692620024ca575b506020600491604051928380926315ab88c960e31b82525afa90811562000af25786926020926200229c928591620024a8575b506040516364e329cb60e11b81526001600160a01b03808a166004830152909116602482015293849283919082906044820190565b03926001600160a01b03165af19081156200154b57859162002484575b5060065460405192835230600484015247926001600160a01b0391821691602090829060249082908a165afa908115620024795787916200243b575b509060c4606092604051958693849263f305d71960e01b845260018060a01b038b16600485015260248401528a60448401528a60648401523060848401524260a48401525af19182156200154b5760209262002417575b5060065460405163095ea7b360e01b81526001600160a01b0391821660048201526000196024820152958692604492849291165af1801562000af2577f540bcec33387745b2ced30977dcfe4a623a245511eb0a133989c27c8bb95b4a994604094601592620023e1575b5001805461ffff1916610100179055825194855260208501526001600160a01b031692a26001815580f35b620024079060203d6020116200240f575b620023fe818362002938565b810190620039e6565b5088620023b6565b503d620023f2565b620024339060603d60601162001596576200157e818362002938565b50506200234c565b919650506020813d60201162002470575b816200245b6020938362002938565b81010312620008d4575188959060c4620022f5565b3d91506200244c565b6040513d89823e3d90fd5b620024a1915060203d60201162000ac85762000ab7818362002938565b88620022b9565b620024c39150843d861162000ac85762000ab7818362002938565b8c62002267565b6004919250620024eb602091823d841162000ac85762000ab7818362002938565b92915062002234565b60405162461bcd60e51b815260206004820152600d60248201526c2737ba1030b8383937bb32b21760991b6044820152606490fd5b9150506020823d6020116200255f575b81620025486020938362002938565b81010312620008d45783620021f9925191620021ed565b3d915062002539565b60405162461bcd60e51b815260206004820152601760248201527f74726164696e6720697320616c7265616479206f70656e0000000000000000006044820152606490fd5b60ff915060081c161586620021a1565b9190600584018952602089209089935b601f198416851062002615576001945083601f19811610620025fb575b505050811b01600582015562001ddd565b015160001960f88460031b161c19169055388080620025ea565b81810151835560209485019460019093019290910190620025cd565b6200266190600585018a5260208a20601f850160051c810191602086106200209757601f0160051c019062002f2d565b3862001da4565b634e487b7160e01b88526041600452602488fd5b9190600484018952602089209089935b601f1984168510620026d4576001945083601f19811610620026ba575b505050811b01600482015562001d74565b015160001960f88460031b161c19169055388080620026a9565b818101518355602094850194600190930192909101906200268c565b6200272090600485018a5260208a20601f850160051c810191602086106200209757601f0160051c019062002f2d565b3862001d3a565b90506200274791935060403d60401162000a155762000a05818362002938565b92903862001c55565b6040513d86823e3d90fd5b6001600160401b03811162002774576040523862001bf4565b634e487b7160e01b82526041600452602482fd5b6040513d84823e3d90fd5b620027b0915060203d60201162000ac85762000ab7818362002938565b3862001ba8565b620027d29150823d841162000ac85762000ab7818362002938565b3862001b59565b50346200015d57806003193601126200015d576001546040516001600160a01b039091168152602090f35b90503462001ac1578160031936011262001ac1576004546001600160a01b03168152602090f35b600435906001600160a01b0382168203620008d457565b602435906001600160a01b0382168203620008d457565b604435906001600160a01b0382168203620008d457565b600a54811015620028ac57601690600a600052027fc65a7bb8d6351c1cf70c95a316cc6a92839c986682d98bc35f958f4883f9d2a80190600090565b634e487b7160e01b600052603260045260246000fd5b90600182811c92168015620028f4575b6020831014620028de57565b634e487b7160e01b600052602260045260246000fd5b91607f1691620028d2565b61018081019081106001600160401b038211176200087d57604052565b604081019081106001600160401b038211176200087d57604052565b90601f801991011681019081106001600160401b038211176200087d57604052565b906040519182600082546200296f81620028c2565b90818452602094600191600181169081600014620029e75750600114620029a4575b505050620029a29250038362002938565b565b600090815285812095935091905b818310620029ce575050620029a2935082010138808062002991565b85548884018501529485019487945091830191620029b2565b92505050620029a294925060ff191682840152151560051b82010138808062002991565b9060405162002a1a81620028ff565b82546001600160a01b0316815291829061016090600b9062002a3f600182016200295a565b602085015262002a52600282016200295a565b60408501526003810154606085015260048101546080850152600581015460a0850152600681015460c0850152600781015460e085015260088101546101008501526009810154610120850152600a8101546101408501520154910152565b919082519283825260005b84811062002ade575050826000602080949584010152601f8019910116010190565b60208183018101518483018201520162002abc565b9062002b3362002b2061018060018060a01b03855116845260208501519080602086015284019062002ab1565b6040840151838203604085015262002ab1565b91606081015160608301526080810151608083015260a081015160a083015260c081015160c083015260e081015160e08301526101008082015190830152610120808201519083015261014080820151908301526101608091015191015290565b9a9c9b989462002c3d9662002c008d62002c0f9362002bf16101609f9c969962002c2d9a62002c4d9f9a9962002c1e9a6101809260018060a01b039283809216895216602088015216604086015280606086015284019062002af3565b91608081840391015262002ab1565b8d810360a08f01529062002ab1565b908b820360c08d015262002ab1565b9089820360e08b015262002ab1565b9087820361010089015262002ab1565b9085820361012087015262002ab1565b9415156101408401521515910152565b6020808201908083528351809252604092604081018260408560051b8401019601946000925b85841062002c95575050505050505090565b909192939495968580600192603f198582030187528a519062002d7c62002d6762002d5262002d3e62002d2a62002d1662002d028d610180908d8060a01b03808c51168b52808d8d0151168d8c0152818c015116908a015260609080828c0151928b015289019062002af3565b6080808a015190898303908a015262002ab1565b60a080890151908883039089015262002ab1565b60c080880151908783039088015262002ab1565b60e080870151908683039087015262002ab1565b61010080860151908583039086015262002ab1565b61012080850151908483039085015262002ab1565b916101408082015115159083015261016080910151151591015299019401940192959493919062002c83565b6001600160401b0381116200087d57601f01601f191660200190565b81601f82011215620008d45780359062002dde8262002da8565b9262002dee604051948562002938565b82845260208383010111620008d457816000926020809301838601378301015290565b600854811015620028ac57600860005260011b7ff3f7a9fe364faab93b216da50a3214154f22a0a2b415b23a84c8169e8b636ee30190600090565b1562002e5457565b60405162461bcd60e51b815260206004820152602660248201527f4f6e6c7920746865206f776e65722063616e2063616c6c20746869732066756e60448201526531ba34b7b71760d11b6064820152608490fd5b1562002eb057565b60405162461bcd60e51b815260206004820152601f60248201527f5a65726f2061646472657373657320617265206e6f7420616c6c6f7765642e006044820152606490fd5b90816020910312620008d457516001600160a01b0381168103620008d45790565b9190826040910312620008d4576020825192015190565b81811062002f39575050565b6000815560010162002f2d565b90816060910312620008d4578051916040602083015192015190565b9190820180921162002f7057565b634e487b7160e01b600052601160045260246000fd5b9190820391821162002f7057565b8181029291811591840414171562002f7057565b811562002fb3570490565b634e487b7160e01b600052601260045260246000fd5b9060018060a01b0390818151166001600160601b0360a01b908185541617845560018401836020840151168282541617905560028401836040840151168282541617905560038401906060830151938451169082541617905560049283810160208401518051906001600160401b03821162003976576200304b8354620028c2565b601f811162003940575b50602090601f8311600114620038d3576200308992916000918362001fdd5750508160011b916000199060031b1c19161790565b90555b60408301518051906001600160401b038211620038be57620030b26005840154620028c2565b601f811162003885575b50602090601f83116001146200380e57620030f092916000918362001fdd5750508160011b916000199060031b1c19161790565b60058201555b606083015160068201556080830151600782015560a0830151600882015560c0830151600982015560e0830151600a8201556101009384840151600b8301556101209081850151600c8401556101409586860151600d85015561016080960151600e850155600f840160808601518051906001600160401b0382116200361057620031828354620028c2565b601f8111620037d8575b50602090601f83116001146200376b57620031c092916000918362001fdd5750508160011b916000199060031b1c19161790565b90555b6010840160a08601518051906001600160401b0382116200361057620031ea8354620028c2565b601f811162003735575b50602090601f8311600114620036c8576200322892916000918362001fdd5750508160011b916000199060031b1c19161790565b90555b6011840160c08601518051906001600160401b0382116200361057620032528354620028c2565b601f811162003692575b50602090601f831160011462003625576200329092916000918362001fdd5750508160011b916000199060031b1c19161790565b90555b6012840160e08601518051906001600160401b0382116200361057620032ba8354620028c2565b601f8111620035da575b50602090601f83116001146200356d57620032f892916000918362001fdd5750508160011b916000199060031b1c19161790565b90555b840151805160138501916001600160401b0382116200355857620033208354620028c2565b601f811162003522575b50602090601f8311600114620034b5576200335e92916000918362001fdd5750508160011b916000199060031b1c19161790565b90555b60148301918401518051916001600160401b038311620034a05750620033888354620028c2565b601f81116200346a575b50602090601f8311600114620033f45792620033d08360159460ff979461ff009760009262001fdd5750508160011b916000199060031b1c19161790565b90555b01948301511515938554930151151560081b1692169061ffff191617179055565b90601f198316918460005260206000209260005b8181106200345157509360ff969361ff009693600193836015981062003437575b505050811b019055620033d3565b015160001960f88460031b161c1916905538808062003429565b9293602060018192878601518155019501930162003408565b6200349990846000526020600020601f850160051c810191602086106200209757601f0160051c019062002f2d565b3862003392565b604190634e487b7160e01b6000525260246000fd5b90601f198316918460005260206000209260005b818110620035095750908460019594939210620034ef575b505050811b01905562003361565b015160001960f88460031b161c19169055388080620034e1565b92936020600181928786015181550195019301620034c9565b6200355190846000526020600020601f850160051c810191602086106200209757601f0160051c019062002f2d565b386200332a565b604184634e487b7160e01b6000525260246000fd5b90601f198316918460005260206000209260005b818110620035c15750908460019594939210620035a7575b505050811b019055620032fb565b015160001960f88460031b161c1916905538808062003599565b9293602060018192878601518155019501930162003581565b6200360990846000526020600020601f850160051c810191602086106200209757601f0160051c019062002f2d565b38620032c4565b604185634e487b7160e01b6000525260246000fd5b90601f198316918460005260206000209260005b8181106200367957509084600195949392106200365f575b505050811b01905562003293565b015160001960f88460031b161c1916905538808062003651565b9293602060018192878601518155019501930162003639565b620036c190846000526020600020601f850160051c810191602086106200209757601f0160051c019062002f2d565b386200325c565b90601f198316918460005260206000209260005b8181106200371c575090846001959493921062003702575b505050811b0190556200322b565b015160001960f88460031b161c19169055388080620036f4565b92936020600181928786015181550195019301620036dc565b6200376490846000526020600020601f850160051c810191602086106200209757601f0160051c019062002f2d565b38620031f4565b90601f198316918460005260206000209260005b818110620037bf5750908460019594939210620037a5575b505050811b019055620031c3565b015160001960f88460031b161c1916905538808062003797565b929360206001819287860151815501950193016200377f565b6200380790846000526020600020601f850160051c810191602086106200209757601f0160051c019062002f2d565b386200318c565b9190600584016000526020600020906000935b601f198416851062003869576001945083601f198116106200384f575b505050811b016005820155620030f6565b015160001960f88460031b161c191690553880806200383e565b8181015183556020948501946001909301929091019062003821565b620038b790600585016000526020600020601f850160051c810191602086106200209757601f0160051c019062002f2d565b38620030bc565b604186634e487b7160e01b6000525260246000fd5b90601f198316918460005260206000209260005b8181106200392757509084600195949392106200390d575b505050811b0190556200308c565b015160001960f88460031b161c19169055388080620038ff565b92936020600181928786015181550195019301620038e7565b6200396f90846000526020600020601f850160051c810191602086106200209757601f0160051c019062002f2d565b3862003055565b604187634e487b7160e01b6000525260246000fd5b908154600160401b8110156200087d5760018101808455811015620028ac57620029a2926000526016602060002091020162002fc9565b600260005414620039d4576002600055565b604051633ee5aeb560e01b8152600490fd5b90816020910312620008d457518015158103620008d45790565b62003a6a926020929091906001600160a01b039062003a23828416151562002ea8565b169062003a3282151562002ea8565b60405163095ea7b360e01b81526001600160a01b03909116600482015260248101929092529092839190829060009082906044820190565b03925af1801562003aa55762003a81575b50600190565b62003a9d9060203d6020116200240f57620023fe818362002938565b503862003a7b565b6040513d6000823e3d90fd5b6001600160a01b0390811662003ac981151562002ea8565b6008549160005b83811062003ae15750505050600090565b828262003aee8362002e11565b5054161462003b005760010162003ad0565b50505050600190565b62003b158154620028c2565b908162003b20575050565b81601f6000931160011462003b33575055565b90808391825262003b54601f60208420940160051c84016001850162002f2d565b5555565b815181546001600160a01b0319166001600160a01b039190911617815560209182015180516001939092840191600160401b84116200087d57825484845580851062003bdf575b506020019160005260206000206000925b84841062003bc057505050505050565b6016838262003bd28994518662002fc9565b0192019301929062003bb0565b6016908060160290601682040362002f70578560160260168104870362002f70576000908682526020822092830192015b82811062003c215750505062003b9f565b8082859255828a82015582600282015582600382015562003c456004820162003b09565b62003c536005820162003b09565b82600682015582600782015582600882015582600982015582600a82015582600b82015582600c82015582600d82015582600e82015562003c97600f820162003b09565b62003ca56010820162003b09565b62003cb36011820162003b09565b62003cc16012820162003b09565b62003ccf6013820162003b09565b62003cdd6014820162003b09565b8260158201550162003c1056fe604060808152346200042957620010ab803803806200001e816200042e565b928339810190608081830312620004295780516001600160401b039190828111620004295783620000519183016200046a565b90602093848201519084821162000429576200006f9183016200046a565b606086830151920151906000943360018060a01b031987541617865533867f8be0079c531659141344cd1fd0a4f28419497f9722a3daafe3b4186f6b6457e08180a384518181116200034357600254906001968783811c931680156200041e575b8a84101462000324578190601f93848111620003ca575b508a9084831160011462000363578a9262000357575b5050600019600383901b1c191690871b176002555b8251918211620003435760039283548781811c9116801562000338575b8a821014620003245790818385949311620002cf575b50899183116001146200026c57889262000260575b505060001982841b1c191690851b1790555b670de0b6b3a7640000918281029281840414901517156200024c5781835560058111620001fe57907fddf252ad1be2c89b69c2b068fc378daa952ba7f163c4a11628f55a4df523b3ef929160045533845260058552858420556007845284832060ff199082828254161790553084528186852091825416179055549284519384523393a351610bce9081620004dd8239f35b855162461bcd60e51b815260048101869052602160248201527f4d6178205472616e73616374696f6e2063616e6e6f74206578636565642035256044820152601760f91b6064820152608490fd5b634e487b7160e01b84526011600452602484fd5b0151905038806200015a565b8489528989208894509190601f1984168a5b8c828210620002b857505084116200029f575b505050811b0190556200016c565b015160001983861b60f8161c1916905538808062000291565b8385015186558b979095019493840193016200027e565b909192508489528989208380860160051c8201928c87106200031a575b9186958b929594930160051c01915b8281106200030b57505062000145565b8b81558695508a9101620002fb565b92508192620002ec565b634e487b7160e01b89526022600452602489fd5b90607f16906200012f565b634e487b7160e01b87526041600452602487fd5b015190503880620000fd565b60028b528b8b208a94509190601f1984168c8e5b828210620003b2575050841162000398575b505050811b0160025562000112565b015160001960f88460031b161c1916905538808062000389565b8385015186558d979095019493840193018e62000377565b90915060028a528a8a208480850160051c8201928d861062000414575b918b91869594930160051c01915b82811062000405575050620000e7565b8c81558594508b9101620003f5565b92508192620003e7565b92607f1692620000d0565b600080fd5b6040519190601f01601f191682016001600160401b038111838210176200045457604052565b634e487b7160e01b600052604160045260246000fd5b919080601f84011215620004295782516001600160401b0381116200045457602090620004a0601f8201601f191683016200042e565b92818452828287010111620004295760005b818110620004c857508260009394955001015290565b8581018301518482018401528201620004b256fe608060408181526004918236101561001657600080fd5b600092833560e01c91826306fdde03146105b557508163095ea7b31461058b57816318160ddd1461056c57816323b872dd14610497578163313ce5671461047b57816370a0823114610443578163715018a6146103e45781637437681e146103c65781638da5cb5b1461039e57816395d89b4114610299578163a9059cbb14610268578163c2d0ffca146101b9578163db4cf1e01461010a575063dd62ed3e146100bf57600080fd5b34610106578060031936011261010657806020926100db6106bd565b6100e36106d8565b6001600160a01b0391821683526006865283832091168252845220549051908152f35b5080fd5b9050346101b55760203660031901126101b5576101256106bd565b83546001600160a01b03919061013e9083163314610726565b1690811561015e5750825260076020528120805460ff1916600117905580f35b608490602084519162461bcd60e51b8352820152602b60248201527f45524332303a204578636c756465204d61782054782066726f6d20746865207a60448201526a65726f206164647265737360a81b6064820152fd5b8280fd5b919050346101b55760203660031901126101b5578135916101e460018060a01b038554163314610726565b6005831161021c5791602091817fff3dd5e80294197918c284bbfc3dadd97d0b40ce92106110946329088f80068a945551908152a180f35b6020608492519162461bcd60e51b8352820152602160248201527f4d6178205472616e73616374696f6e2063616e6e6f74206578636565642035256044820152601760f91b6064820152fd5b5050346101065780600319360112610106576020906102926102886106bd565b6024359033610873565b5160018152f35b919050346101b557826003193601126101b55780519183600354906001908260011c92600181168015610394575b6020958686108214610381575084885290811561035f5750600114610306575b61030286866102f8828b03836106ee565b5191829182610674565b0390f35b929550600383527fc2575a0e9e593c00f959f8c92f12db2869c3395a3b0502d05e2516446f71f85b5b82841061034c5750505082610302946102f89282010194386102e7565b805486850188015292860192810161032f565b60ff191687860152505050151560051b83010192506102f882610302386102e7565b634e487b7160e01b845260229052602483fd5b93607f16936102c7565b505034610106578160031936011261010657905490516001600160a01b039091168152602090f35b9050346101b557826003193601126101b55760209250549051908152f35b83346104405780600319360112610440578054816001600160a01b03821661040d338214610726565b7f8be0079c531659141344cd1fd0a4f28419497f9722a3daafe3b4186f6b6457e08280a36001600160a01b031916815580f35b80fd5b5050346101065760203660031901126101065760209181906001600160a01b0361046b6106bd565b1681526005845220549051908152f35b5050346101065781600319360112610106576020905160128152f35b828434610440576060366003190112610440576104b26106bd565b906104bb6106d8565b6104c9604435809285610873565b6001600160a01b038316825260066020908152848320338452905283822054845192606084019067ffffffffffffffff8211858310176105595760208761029288610551898989898752602883527f45524332303a207472616e7366657220616d6f756e742065786365656473206188840152676c6c6f77616e636560c01b87840152610b4d565b903390610771565b634e487b7160e01b815260418852602490fd5b5050346101065781600319360112610106576020906001549051908152f35b5050346101065780600319360112610106576020906102926105ab6106bd565b6024359033610771565b92915034610670578360031936011261067057600254600181811c9186908281168015610666575b6020958686108214610381575084885290811561035f575060011461060d5761030286866102f8828b03836106ee565b929550600283527f405787fa12a823e0f2b7631cc41b3ba8828b3321ca811111fa75cd3aa3bb5ace5b8284106106535750505082610302946102f89282010194386102e7565b8054868501880152928601928101610636565b93607f16936105dd565b8380fd5b6020808252825181830181905290939260005b8281106106a957505060409293506000838284010152601f8019910116010190565b818101860151848201604001528501610687565b600435906001600160a01b03821682036106d357565b600080fd5b602435906001600160a01b03821682036106d357565b90601f8019910116810190811067ffffffffffffffff82111761071057604052565b634e487b7160e01b600052604160045260246000fd5b1561072d57565b606460405162461bcd60e51b815260206004820152602060248201527f4f776e61626c653a2063616c6c6572206973206e6f7420746865206f776e65726044820152fd5b6001600160a01b0390811691821561082257169182156107d25760207f8c5be1e5ebec7d5bd14f71427d1e84f3dd0314c0f7b2291e5b200ac8c7c3b925918360005260068252604060002085600052825280604060002055604051908152a3565b60405162461bcd60e51b815260206004820152602260248201527f45524332303a20617070726f766520746f20746865207a65726f206164647265604482015261737360f01b6064820152608490fd5b60405162461bcd60e51b8152602060048201526024808201527f45524332303a20617070726f76652066726f6d20746865207a65726f206164646044820152637265737360e01b6064820152608490fd5b9192916001600160a01b03908116918215610afa5716908115610aa9578315610a5257600480549460015495868102968188041490151715610a3d576000958387526020926007845260409160ff838a205416156109ec575b50848852600584528188205482519083820182811067ffffffffffffffff8211176109d957610928929186918652601e83527f536166654d6174683a207375627472616374696f6e206f766572666c6f77000088840152610b4d565b85895260058552828920558588528188205490838201918281116109c657821061098357508188877fddf252ad1be2c89b69c2b068fc378daa952ba7f163c4a11628f55a4df523b3ef9798999a5260058652205551908152a3565b825162461bcd60e51b8152908101859052601b60248201527f536166654d6174683a206164646974696f6e206f766572666c6f7700000000006044820152606490fd5b634e487b7160e01b8a526011825260248afd5b634e487b7160e01b8b526041845260248bfd5b6064900483116109fc57386108cc565b83606492519162461bcd60e51b8352820152601860248201527f4578636565647320746865204d61785478416d6f756e742e00000000000000006044820152fd5b601182634e487b7160e01b6000525260246000fd5b60405162461bcd60e51b815260206004820152602960248201527f5472616e7366657220616d6f756e74206d7573742062652067726561746572206044820152687468616e207a65726f60b81b6064820152608490fd5b60405162461bcd60e51b815260206004820152602360248201527f45524332303a207472616e7366657220746f20746865207a65726f206164647260448201526265737360e81b6064820152608490fd5b60405162461bcd60e51b815260206004820152602560248201527f45524332303a207472616e736665722066726f6d20746865207a65726f206164604482015264647265737360d81b6064820152608490fd5b91828211610b7857508103908111610b625790565b634e487b7160e01b600052601160045260246000fd5b60405162461bcd60e51b8152908190610b949060048301610674565b0390fdfea2646970667358221220c49e554740cb71aa09a85b3746b1a934acbfb9371a9f5eefd27a7b626ea785f264736f6c63430008180033a2646970667358221220ab92ae205b8b630e9d939ba73302e6b4b81af7da47e1634d00be172162e86ed664736f6c63430008180033",
          "opcodes": "PUSH1 0x80 CALLVALUE PUSH3 0x146 JUMPI PUSH1 0x1F PUSH3 0x4F8F CODESIZE DUP2 SWAP1 SUB SWAP2 DUP3 ADD PUSH1 0x1F NOT AND DUP4 ADD SWAP2 PUSH1 0x1 PUSH1 0x1 PUSH1 0x40 SHL SUB DUP4 GT DUP5 DUP5 LT OR PUSH3 0x14B JUMPI DUP1 DUP5 SWAP3 PUSH1 0x80 SWAP5 PUSH1 0x40 MSTORE DUP4 CODECOPY DUP2 ADD SUB SLT PUSH3 0x146 JUMPI PUSH3 0x4D DUP2 PUSH3 0x161 JUMP JUMPDEST PUSH3 0x5B PUSH1 0x20 DUP4 ADD PUSH3 0x161 JUMP JUMPDEST PUSH1 0x60 PUSH3 0x6B PUSH1 0x40 DUP6 ADD PUSH3 0x161 JUMP JUMPDEST SWAP4 ADD MLOAD PUSH1 0x1 PUSH1 0x0 DUP2 SWAP1 SSTORE DUP1 SLOAD PUSH1 0x1 PUSH1 0x1 PUSH1 0xA0 SHL SUB NOT SWAP1 DUP2 AND CALLER OR SWAP1 SWAP2 SSTORE SWAP1 SWAP4 SWAP1 SWAP3 PUSH1 0x1 PUSH1 0x1 PUSH1 0xA0 SHL SUB SWAP1 DUP2 AND SWAP3 DUP2 SWAP1 PUSH3 0xA7 DUP6 ISZERO ISZERO PUSH3 0x176 JUMP JUMPDEST AND SWAP2 PUSH3 0xB6 DUP4 ISZERO ISZERO PUSH3 0x176 JUMP JUMPDEST AND SWAP2 PUSH3 0xC5 DUP4 ISZERO ISZERO PUSH3 0x176 JUMP JUMPDEST DUP4 PUSH1 0x2 SLOAD AND OR PUSH1 0x2 SSTORE DUP3 PUSH1 0x3 SLOAD AND OR PUSH1 0x3 SSTORE DUP2 PUSH1 0x4 SLOAD AND OR PUSH1 0x4 SSTORE PUSH8 0xDE0B6B3A7640000 SWAP2 DUP3 DUP2 MUL SWAP3 DUP2 DUP5 DIV EQ SWAP1 ISZERO OR ISZERO PUSH3 0x130 JUMPI PUSH2 0x3E8 PUSH20 0x4752BA5DBC23F44D87826276BF6FD6B1C372AD24 SWAP3 DIV PUSH1 0x5 SSTORE PUSH1 0x6 SLOAD AND OR PUSH1 0x6 SSTORE PUSH1 0x40 MLOAD PUSH2 0x4DCB SWAP1 DUP2 PUSH3 0x1C4 DUP3 CODECOPY RETURN JUMPDEST PUSH4 0x4E487B71 PUSH1 0xE0 SHL PUSH1 0x0 MSTORE PUSH1 0x11 PUSH1 0x4 MSTORE PUSH1 0x24 PUSH1 0x0 REVERT JUMPDEST PUSH1 0x0 DUP1 REVERT JUMPDEST PUSH4 0x4E487B71 PUSH1 0xE0 SHL PUSH1 0x0 MSTORE PUSH1 0x41 PUSH1 0x4 MSTORE PUSH1 0x24 PUSH1 0x0 REVERT JUMPDEST MLOAD SWAP1 PUSH1 0x1 PUSH1 0x1 PUSH1 0xA0 SHL SUB DUP3 AND DUP3 SUB PUSH3 0x146 JUMPI JUMP JUMPDEST ISZERO PUSH3 0x17E JUMPI JUMP JUMPDEST PUSH1 0x40 MLOAD PUSH3 0x461BCD PUSH1 0xE5 SHL DUP2 MSTORE PUSH1 0x20 PUSH1 0x4 DUP3 ADD MSTORE PUSH1 0x1F PUSH1 0x24 DUP3 ADD MSTORE PUSH32 0x5A65726F2061646472657373657320617265206E6F7420616C6C6F7765642E00 PUSH1 0x44 DUP3 ADD MSTORE PUSH1 0x64 SWAP1 REVERT INVALID PUSH1 0x80 DUP1 PUSH1 0x40 MSTORE PUSH1 0x4 CALLDATASIZE LT ISZERO PUSH3 0x1F JUMPI JUMPDEST POP CALLDATASIZE ISZERO PUSH3 0x1D JUMPI PUSH1 0x0 DUP1 REVERT JUMPDEST STOP JUMPDEST PUSH1 0x0 SWAP1 DUP2 CALLDATALOAD PUSH1 0xE0 SHR SWAP1 DUP2 PUSH4 0x17E7E58 EQ PUSH3 0x2804 JUMPI POP DUP1 PUSH4 0x94B7415 EQ PUSH3 0x27D9 JUMPI DUP1 PUSH4 0x4C96A389 EQ PUSH3 0x1AC5 JUMPI DUP1 PUSH4 0x4F64B2BE EQ PUSH3 0x1A62 JUMPI DUP1 PUSH4 0x512B1E6E EQ PUSH3 0x15E6 JUMPI DUP1 PUSH4 0x57F8D901 EQ PUSH3 0x10AF JUMPI DUP1 PUSH4 0x5C52A5F2 EQ PUSH3 0x105E JUMPI DUP1 PUSH4 0x6D46A1DB EQ PUSH3 0xF8E JUMPI DUP1 PUSH4 0x7660F44A EQ PUSH3 0xF69 JUMPI DUP1 PUSH4 0x80997E47 EQ PUSH3 0xF42 JUMPI DUP1 PUSH4 0x8A664EBC EQ PUSH3 0xD6E JUMPI DUP1 PUSH4 0x98118CB4 EQ PUSH3 0xD50 JUMPI DUP1 PUSH4 0x9DD9D0FD EQ PUSH3 0xD10 JUMPI DUP1 PUSH4 0xAA6CA808 EQ PUSH3 0xB9A JUMPI DUP1 PUSH4 0xAD256F7D EQ PUSH3 0x1C4 JUMPI DUP1 PUSH4 0xC36FE3D6 EQ PUSH3 0x180 JUMPI DUP1 PUSH4 0xCF3CF573 EQ PUSH3 0x160 JUMPI PUSH4 0xF46901ED SUB PUSH3 0x10 JUMPI CALLVALUE PUSH3 0x15D JUMPI PUSH1 0x20 CALLDATASIZE PUSH1 0x3 NOT ADD SLT PUSH3 0x15D JUMPI PUSH3 0x11D PUSH3 0x282B JUMP JUMPDEST PUSH1 0x1 SLOAD PUSH1 0x1 PUSH1 0x1 PUSH1 0xA0 SHL SUB SWAP2 SWAP1 PUSH3 0x139 SWAP1 DUP4 AND CALLER EQ PUSH3 0x2E4C JUMP JUMPDEST AND PUSH3 0x147 DUP2 ISZERO ISZERO PUSH3 0x2EA8 JUMP JUMPDEST PUSH1 0x1 PUSH1 0x1 PUSH1 0x60 SHL SUB PUSH1 0xA0 SHL PUSH1 0x4 SLOAD AND OR PUSH1 0x4 SSTORE DUP1 RETURN JUMPDEST DUP1 REVERT JUMPDEST POP CALLVALUE PUSH3 0x15D JUMPI DUP1 PUSH1 0x3 NOT CALLDATASIZE ADD SLT PUSH3 0x15D JUMPI PUSH1 0x20 PUSH1 0x5 SLOAD PUSH1 0x40 MLOAD SWAP1 DUP2 MSTORE RETURN JUMPDEST POP CALLVALUE PUSH3 0x15D JUMPI PUSH1 0x20 CALLDATASIZE PUSH1 0x3 NOT ADD SLT PUSH3 0x15D JUMPI PUSH1 0x4 CALLDATALOAD SWAP1 PUSH1 0x8 SLOAD DUP3 LT ISZERO PUSH3 0x15D JUMPI PUSH1 0x20 PUSH3 0x1B0 DUP4 PUSH3 0x2E11 JUMP JUMPDEST POP SLOAD PUSH1 0x40 MLOAD PUSH1 0x1 PUSH1 0x1 PUSH1 0xA0 SHL SUB SWAP1 SWAP2 AND DUP2 MSTORE RETURN JUMPDEST POP PUSH1 0xE0 CALLDATASIZE PUSH1 0x3 NOT ADD SLT PUSH3 0x15D JUMPI PUSH1 0x1 PUSH1 0x1 PUSH1 0x40 SHL SUB PUSH1 0x4 CALLDATALOAD DUP2 DUP2 GT PUSH3 0x7A1 JUMPI PUSH3 0x1F5 SWAP1 CALLDATASIZE SWAP1 PUSH1 0x4 ADD PUSH3 0x2DC4 JUMP JUMPDEST PUSH1 0x24 CALLDATALOAD DUP3 DUP2 GT PUSH3 0xB96 JUMPI PUSH3 0x210 SWAP1 CALLDATASIZE SWAP1 PUSH1 0x4 ADD PUSH3 0x2DC4 JUMP JUMPDEST SWAP1 PUSH1 0x44 CALLDATALOAD DUP4 DUP2 GT PUSH3 0xB92 JUMPI PUSH3 0x22C SWAP1 CALLDATASIZE SWAP1 PUSH1 0x4 ADD PUSH3 0x2DC4 JUMP JUMPDEST SWAP2 PUSH1 0x64 CALLDATALOAD DUP5 DUP2 GT PUSH3 0xB8E JUMPI PUSH3 0x248 SWAP1 CALLDATASIZE SWAP1 PUSH1 0x4 ADD PUSH3 0x2DC4 JUMP JUMPDEST SWAP3 PUSH1 0x84 CALLDATALOAD SWAP5 DUP1 DUP7 GT PUSH3 0xB8A JUMPI CALLDATASIZE PUSH1 0x23 DUP8 ADD SLT ISZERO PUSH3 0xB8A JUMPI PUSH1 0x40 MLOAD SWAP6 PUSH1 0x80 DUP8 ADD DUP8 DUP2 LT DUP4 DUP3 GT OR PUSH3 0x87D JUMPI PUSH1 0x40 MSTORE PUSH1 0x84 DUP2 ADD DUP8 CALLDATASIZE DUP3 GT PUSH3 0xB86 JUMPI DUP3 PUSH1 0x4 ADD SWAP1 JUMPDEST DUP3 DUP3 LT PUSH3 0xB56 JUMPI POP POP POP POP PUSH3 0x2A1 PUSH3 0x39C2 JUMP JUMPDEST PUSH1 0x5 SLOAD CALLVALUE LT PUSH3 0xB11 JUMPI PUSH1 0x40 MLOAD SWAP1 PUSH2 0x10AB DUP1 DUP4 ADD SWAP2 DUP3 GT DUP4 DUP4 LT OR PUSH3 0xAFD JUMPI SWAP1 DUP3 SWAP2 PUSH3 0x3CEB DUP4 CODECOPY PUSH1 0x80 DUP2 MSTORE PUSH3 0x2F0 PUSH3 0x2E1 PUSH1 0x80 DUP4 ADD DUP9 PUSH3 0x2AB1 JUMP JUMPDEST DUP3 DUP2 SUB PUSH1 0x20 DUP5 ADD MSTORE DUP7 PUSH3 0x2AB1 JUMP JUMPDEST SWAP1 PUSH1 0xA4 CALLDATALOAD PUSH1 0x40 DUP3 ADD MSTORE PUSH1 0x60 PUSH1 0xC4 CALLDATALOAD SWAP2 ADD MSTORE SUB SWAP1 DUP8 CREATE SWAP5 DUP6 ISZERO PUSH3 0xAF2 JUMPI PUSH1 0x3 SLOAD PUSH1 0x40 MLOAD PUSH4 0x15AB88C9 PUSH1 0xE3 SHL DUP2 MSTORE SWAP6 SWAP1 PUSH1 0x20 SWAP1 DUP8 SWAP1 PUSH1 0x4 SWAP1 DUP3 SWAP1 PUSH1 0x1 PUSH1 0x1 PUSH1 0xA0 SHL SUB AND GAS STATICCALL SWAP6 DUP7 ISZERO PUSH3 0x8E2 JUMPI PUSH3 0x389 SWAP7 PUSH1 0x20 SWAP2 DUP11 SWAP2 PUSH3 0xAD0 JUMPI JUMPDEST POP PUSH1 0x2 SLOAD PUSH1 0x40 MLOAD PUSH4 0x64E329CB PUSH1 0xE1 SHL DUP2 MSTORE PUSH1 0x1 PUSH1 0x1 PUSH1 0xA0 SHL SUB DUP12 DUP2 AND PUSH1 0x4 DUP4 ADD MSTORE SWAP3 DUP4 AND PUSH1 0x24 DUP3 ADD MSTORE SWAP9 DUP10 SWAP3 SWAP1 SWAP2 AND SWAP1 DUP3 SWAP1 DUP13 SWAP1 DUP3 SWAP1 PUSH1 0x44 DUP3 ADD SWAP1 JUMP JUMPDEST SUB SWAP3 GAS CALL SWAP6 DUP7 ISZERO PUSH3 0x8E2 JUMPI DUP9 SWAP7 PUSH3 0xA98 JUMPI JUMPDEST POP PUSH1 0x40 MLOAD PUSH4 0x313CE567 PUSH1 0xE0 SHL DUP2 MSTORE PUSH1 0x20 DUP2 PUSH1 0x4 DUP2 PUSH1 0x1 PUSH1 0x1 PUSH1 0xA0 SHL SUB DUP13 AND GAS STATICCALL DUP1 ISZERO PUSH3 0xA8D JUMPI DUP10 SWAP1 PUSH3 0xA49 JUMPI JUMPDEST PUSH1 0xFF SWAP2 POP AND PUSH1 0x4D DUP2 GT PUSH3 0xA35 JUMPI PUSH3 0x3EB SWAP1 PUSH1 0xA EXP PUSH1 0xA4 CALLDATALOAD PUSH3 0x2F94 JUMP JUMPDEST PUSH1 0x3 SLOAD PUSH3 0x408 SWAP1 DUP3 SWAP1 PUSH1 0x1 PUSH1 0x1 PUSH1 0xA0 SHL SUB DUP12 DUP2 AND SWAP2 AND PUSH3 0x3A00 JUMP JUMPDEST ISZERO PUSH3 0xA31 JUMPI CALLVALUE PUSH1 0x5 MUL SWAP1 PUSH1 0x5 DUP3 DIV CALLVALUE SUB PUSH3 0xA1D JUMPI PUSH3 0x42D PUSH1 0x64 DUP4 DIV CALLVALUE PUSH3 0x2F86 JUMP JUMPDEST PUSH1 0x3 SLOAD PUSH1 0x40 DUP1 MLOAD PUSH4 0xE505AA9 PUSH1 0xE3 SHL DUP2 MSTORE PUSH1 0x1 PUSH1 0x1 PUSH1 0xA0 SHL SUB DUP14 DUP2 AND PUSH1 0x4 DUP4 ADD MSTORE PUSH1 0x24 DUP3 ADD DUP7 SWAP1 MSTORE SWAP4 SWAP11 SWAP4 SWAP1 SWAP3 DUP4 SWAP2 PUSH1 0x44 SWAP2 DUP4 SWAP2 PUSH1 0x64 DUP11 DIV SWAP2 AND GAS CALL DUP1 ISZERO PUSH3 0x9DD JUMPI PUSH3 0x9E8 JUMPI JUMPDEST POP PUSH1 0x40 MLOAD PUSH4 0x5D4D3D2B PUSH1 0xE1 SHL DUP2 MSTORE SWAP2 PUSH1 0x20 DUP4 PUSH1 0x4 DUP2 PUSH1 0x1 PUSH1 0x1 PUSH1 0xA0 SHL SUB DUP15 AND GAS STATICCALL SWAP3 DUP4 ISZERO PUSH3 0x9DD JUMPI DUP13 SWAP4 PUSH3 0x9A0 JUMPI JUMPDEST POP PUSH3 0x4B6 PUSH1 0x4 SWAP4 DUP3 PUSH3 0x2FA8 JUMP JUMPDEST PUSH1 0x40 MLOAD PUSH4 0x5D4D3D2B PUSH1 0xE1 SHL DUP2 MSTORE SWAP4 SWAP1 SWAP3 SWAP1 PUSH1 0x20 SWAP1 DUP6 SWAP1 DUP2 PUSH1 0x1 PUSH1 0x1 PUSH1 0xA0 SHL SUB DUP16 AND GAS STATICCALL SWAP4 DUP5 ISZERO PUSH3 0x995 JUMPI DUP14 SWAP5 PUSH3 0x95B JUMPI JUMPDEST POP PUSH1 0x64 DUP6 DIV PUSH1 0x64 DUP7 DIV PUSH1 0x1 SHL DIV PUSH1 0x2 EQ PUSH1 0x64 DUP7 DIV ISZERO OR ISZERO PUSH3 0x947 JUMPI SWAP1 DUP13 SWAP5 SWAP4 SWAP3 SWAP2 PUSH1 0x4 PUSH1 0x20 DUP14 PUSH1 0x40 MLOAD SWAP3 DUP4 DUP1 SWAP3 PUSH4 0x5D4D3D2B PUSH1 0xE1 SHL DUP3 MSTORE PUSH1 0x1 DUP1 PUSH1 0xA0 SHL SUB AND GAS STATICCALL SWAP7 DUP8 ISZERO PUSH3 0x93B JUMPI SWAP7 PUSH3 0x901 JUMPI JUMPDEST POP DUP6 DUP1 PUSH1 0x1 SHL DIV PUSH1 0x2 EQ DUP7 ISZERO OR ISZERO PUSH3 0x8ED JUMPI SWAP1 DUP14 SWAP6 SWAP5 SWAP4 SWAP3 SWAP2 PUSH1 0x4 PUSH1 0x20 DUP15 PUSH1 0x40 MLOAD SWAP3 DUP4 DUP1 SWAP3 PUSH4 0x5D4D3D2B PUSH1 0xE1 SHL DUP3 MSTORE PUSH1 0x1 DUP1 PUSH1 0xA0 SHL SUB AND GAS STATICCALL SWAP1 DUP2 ISZERO PUSH3 0x8E2 JUMPI DUP16 SWAP9 SWAP2 PUSH3 0x893 JUMPI JUMPDEST POP SWAP11 DUP3 SWAP2 PUSH3 0x59E PUSH3 0x5AA SWAP14 PUSH1 0x64 SWAP9 SWAP8 SWAP7 SWAP6 PUSH3 0x2FA8 JUMP JUMPDEST SWAP9 PUSH1 0x40 MLOAD SWAP14 DUP15 PUSH3 0x28FF JUMP JUMPDEST PUSH1 0x1 DUP1 PUSH1 0xA0 SHL SUB AND DUP14 MSTORE PUSH1 0x20 DUP14 ADD MSTORE PUSH1 0x40 DUP13 ADD MSTORE PUSH1 0x60 DUP12 ADD MSTORE PUSH1 0x80 DUP11 ADD MSTORE PUSH1 0xA0 DUP10 ADD MSTORE DIV PUSH1 0x1 SHL PUSH1 0xC0 DUP8 ADD MSTORE PUSH1 0x1 SHL PUSH1 0xE0 DUP7 ADD MSTORE DUP9 PUSH2 0x100 DUP7 ADD MSTORE DUP9 PUSH2 0x120 DUP7 ADD MSTORE PUSH2 0x140 DUP6 ADD MSTORE TIMESTAMP PUSH2 0x160 DUP6 ADD MSTORE DUP2 MLOAD PUSH1 0x20 DUP4 ADD MLOAD SWAP2 PUSH1 0x60 PUSH1 0x40 DUP6 ADD MLOAD SWAP5 ADD MLOAD SWAP5 PUSH1 0x40 MLOAD SWAP7 PUSH3 0x61B DUP9 PUSH3 0x28FF JUMP JUMPDEST CALLER DUP9 MSTORE PUSH1 0x1 DUP1 PUSH1 0xA0 SHL SUB DUP12 AND PUSH1 0x20 DUP10 ADD MSTORE PUSH1 0x1 DUP1 PUSH1 0xA0 SHL SUB DUP11 AND PUSH1 0x40 DUP10 ADD MSTORE PUSH1 0x60 DUP9 ADD MSTORE PUSH1 0x80 DUP8 ADD MSTORE PUSH1 0xA0 DUP7 ADD MSTORE PUSH1 0xC0 DUP6 ADD MSTORE PUSH1 0xE0 DUP5 ADD MSTORE PUSH2 0x100 DUP4 ADD MSTORE PUSH2 0x120 DUP3 ADD MSTORE PUSH1 0x1 PUSH2 0x140 DUP3 ADD MSTORE DUP5 PUSH2 0x160 DUP3 ADD MSTORE PUSH1 0x1 DUP1 PUSH1 0xA0 SHL SUB DUP5 AND DUP6 MSTORE PUSH1 0x9 PUSH1 0x20 MSTORE PUSH3 0x68D DUP2 PUSH1 0x40 DUP8 KECCAK256 PUSH3 0x2FC9 JUMP JUMPDEST PUSH1 0xA SLOAD SWAP1 PUSH1 0x1 PUSH1 0x40 SHL SWAP2 DUP3 DUP2 LT ISZERO PUSH3 0x87D JUMPI DUP1 PUSH1 0x1 PUSH3 0x6B2 SWAP3 ADD PUSH1 0xA SSTORE PUSH3 0x2870 JUMP JUMPDEST SWAP3 SWAP1 SWAP3 PUSH3 0x867 JUMPI PUSH3 0x6C7 DUP3 DUP9 SWAP5 PUSH3 0x2FC9 JUMP JUMPDEST PUSH3 0x6D2 CALLER PUSH3 0x3AB1 JUMP JUMPDEST ISZERO PUSH3 0x7AB JUMPI POP DUP2 DUP1 SWAP4 PUSH3 0x6F7 DUP3 SWAP4 CALLER DUP5 MSTORE PUSH1 0x7 PUSH1 0x20 MSTORE PUSH1 0x1 PUSH1 0x40 DUP6 KECCAK256 ADD PUSH3 0x398B JUMP JUMPDEST PUSH1 0x4 SLOAD PUSH1 0x1 PUSH1 0x1 PUSH1 0xA0 SHL SUB AND GAS CALL RETURNDATASIZE ISZERO PUSH3 0x7A5 JUMPI RETURNDATASIZE PUSH3 0x718 DUP2 PUSH3 0x2DA8 JUMP JUMPDEST SWAP1 PUSH3 0x728 PUSH1 0x40 MLOAD SWAP3 DUP4 PUSH3 0x2938 JUMP JUMPDEST DUP2 MSTORE DUP5 PUSH1 0x20 RETURNDATASIZE SWAP3 ADD RETURNDATACOPY JUMPDEST ISZERO PUSH3 0x7A1 JUMPI PUSH1 0xA SLOAD PUSH1 0x40 MLOAD DUP2 DUP2 MSTORE PUSH1 0x60 SWAP5 SWAP2 SWAP3 SWAP2 PUSH1 0x1 SWAP2 PUSH1 0x1 PUSH1 0x1 PUSH1 0xA0 SHL SUB DUP1 DUP6 AND SWAP2 SWAP1 DUP8 AND SWAP1 PUSH32 0x714AA39317AD9A7A7A99DB52B44490DA5D068A0B2710FFFB1A1282AD3CADAE1F SWAP1 PUSH1 0x20 SWAP1 LOG3 SSTORE PUSH1 0x40 DUP1 MLOAD PUSH1 0x1 PUSH1 0x1 PUSH1 0xA0 SHL SUB SWAP5 DUP6 AND DUP2 MSTORE SWAP2 SWAP1 SWAP4 AND PUSH1 0x20 DUP3 ADD MSTORE SWAP2 DUP3 ADD MSTORE RETURN JUMPDEST DUP3 DUP1 REVERT JUMPDEST PUSH3 0x732 JUMP JUMPDEST SWAP1 SWAP2 POP PUSH3 0x7BB CALLER ISZERO ISZERO PUSH3 0x2EA8 JUMP JUMPDEST PUSH1 0x40 MLOAD SWAP1 PUSH3 0x7CA DUP3 PUSH3 0x291C JUMP JUMPDEST CALLER DUP3 MSTORE PUSH1 0x60 PUSH1 0x20 DUP4 ADD MSTORE CALLER DUP8 MSTORE PUSH1 0x7 PUSH1 0x20 MSTORE PUSH3 0x7EB DUP3 PUSH1 0x40 DUP10 KECCAK256 PUSH3 0x3B58 JUMP JUMPDEST PUSH1 0x8 SLOAD SWAP1 DUP2 LT ISZERO PUSH3 0x853 JUMPI DUP1 PUSH1 0x1 PUSH3 0x809 SWAP3 ADD PUSH1 0x8 SSTORE PUSH3 0x2E11 JUMP JUMPDEST PUSH3 0x83F JUMPI DUP7 SWAP4 PUSH3 0x839 DUP6 SWAP5 PUSH3 0x824 DUP7 SWAP6 DUP7 SWAP6 PUSH3 0x3B58 JUMP JUMPDEST CALLER DUP5 MSTORE PUSH1 0x7 PUSH1 0x20 MSTORE PUSH1 0x1 PUSH1 0x40 DUP6 KECCAK256 ADD PUSH3 0x398B JUMP JUMPDEST PUSH3 0x6F7 JUMP JUMPDEST PUSH4 0x4E487B71 PUSH1 0xE0 SHL DUP8 MSTORE PUSH1 0x4 DUP8 SWAP1 MSTORE PUSH1 0x24 DUP8 REVERT JUMPDEST PUSH4 0x4E487B71 PUSH1 0xE0 SHL DUP8 MSTORE PUSH1 0x41 PUSH1 0x4 MSTORE PUSH1 0x24 DUP8 REVERT JUMPDEST PUSH4 0x4E487B71 PUSH1 0xE0 SHL PUSH1 0x0 MSTORE PUSH1 0x0 PUSH1 0x4 MSTORE PUSH1 0x24 PUSH1 0x0 REVERT JUMPDEST PUSH4 0x4E487B71 PUSH1 0xE0 SHL PUSH1 0x0 MSTORE PUSH1 0x41 PUSH1 0x4 MSTORE PUSH1 0x24 PUSH1 0x0 REVERT JUMPDEST SWAP6 SWAP5 SWAP4 SWAP3 SWAP2 SWAP8 POP POP PUSH1 0x20 DUP6 RETURNDATASIZE PUSH1 0x20 GT PUSH3 0x8D9 JUMPI JUMPDEST DUP2 PUSH3 0x8B7 PUSH1 0x20 SWAP4 DUP4 PUSH3 0x2938 JUMP JUMPDEST DUP2 ADD SUB SLT PUSH3 0x8D4 JUMPI SWAP4 MLOAD DUP14 SWAP7 SWAP4 SWAP5 SWAP3 SWAP4 SWAP2 SWAP3 SWAP2 SWAP1 PUSH1 0x64 PUSH3 0x585 JUMP JUMPDEST PUSH1 0x0 DUP1 REVERT JUMPDEST RETURNDATASIZE SWAP2 POP PUSH3 0x8A8 JUMP JUMPDEST PUSH1 0x40 MLOAD RETURNDATASIZE DUP11 DUP3 RETURNDATACOPY RETURNDATASIZE SWAP1 REVERT JUMPDEST PUSH4 0x4E487B71 PUSH1 0xE0 SHL DUP15 MSTORE PUSH1 0x11 PUSH1 0x4 MSTORE PUSH1 0x24 DUP15 REVERT JUMPDEST SWAP1 SWAP6 POP PUSH1 0x20 DUP2 RETURNDATASIZE PUSH1 0x20 GT PUSH3 0x932 JUMPI JUMPDEST DUP2 PUSH3 0x920 PUSH1 0x20 SWAP4 DUP4 PUSH3 0x2938 JUMP JUMPDEST DUP2 ADD SUB SLT PUSH3 0x8D4 JUMPI MLOAD SWAP5 CODESIZE PUSH3 0x53A JUMP JUMPDEST RETURNDATASIZE SWAP2 POP PUSH3 0x911 JUMP JUMPDEST PUSH1 0x40 MLOAD SWAP1 RETURNDATASIZE SWAP1 DUP3 RETURNDATACOPY RETURNDATASIZE SWAP1 REVERT JUMPDEST PUSH4 0x4E487B71 PUSH1 0xE0 SHL DUP14 MSTORE PUSH1 0x11 PUSH1 0x4 MSTORE PUSH1 0x24 DUP14 REVERT JUMPDEST SWAP1 SWAP4 POP PUSH1 0x20 DUP2 RETURNDATASIZE PUSH1 0x20 GT PUSH3 0x98C JUMPI JUMPDEST DUP2 PUSH3 0x97A PUSH1 0x20 SWAP4 DUP4 PUSH3 0x2938 JUMP JUMPDEST DUP2 ADD SUB SLT PUSH3 0x8D4 JUMPI MLOAD SWAP3 CODESIZE PUSH3 0x4E9 JUMP JUMPDEST RETURNDATASIZE SWAP2 POP PUSH3 0x96B JUMP JUMPDEST PUSH1 0x40 MLOAD RETURNDATASIZE DUP16 DUP3 RETURNDATACOPY RETURNDATASIZE SWAP1 REVERT JUMPDEST SWAP3 POP PUSH1 0x20 DUP4 RETURNDATASIZE PUSH1 0x20 GT PUSH3 0x9D4 JUMPI JUMPDEST DUP2 PUSH3 0x9BE PUSH1 0x20 SWAP4 DUP4 PUSH3 0x2938 JUMP JUMPDEST DUP2 ADD SUB SLT PUSH3 0x8D4 JUMPI SWAP2 MLOAD SWAP2 PUSH3 0x4B6 PUSH3 0x4A7 JUMP JUMPDEST RETURNDATASIZE SWAP2 POP PUSH3 0x9AF JUMP JUMPDEST PUSH1 0x40 MLOAD RETURNDATASIZE DUP15 DUP3 RETURNDATACOPY RETURNDATASIZE SWAP1 REVERT JUMPDEST PUSH3 0xA0E SWAP1 PUSH1 0x40 RETURNDATASIZE PUSH1 0x40 GT PUSH3 0xA15 JUMPI JUMPDEST PUSH3 0xA05 DUP2 DUP4 PUSH3 0x2938 JUMP JUMPDEST DUP2 ADD SWAP1 PUSH3 0x2F16 JUMP JUMPDEST POP PUSH3 0x476 JUMP JUMPDEST POP RETURNDATASIZE PUSH3 0x9F9 JUMP JUMPDEST PUSH4 0x4E487B71 PUSH1 0xE0 SHL DUP11 MSTORE PUSH1 0x11 PUSH1 0x4 MSTORE PUSH1 0x24 DUP11 REVERT JUMPDEST DUP9 DUP1 REVERT JUMPDEST PUSH4 0x4E487B71 PUSH1 0xE0 SHL DUP10 MSTORE PUSH1 0x11 PUSH1 0x4 MSTORE PUSH1 0x24 DUP10 REVERT JUMPDEST POP PUSH1 0x20 DUP2 RETURNDATASIZE PUSH1 0x20 GT PUSH3 0xA84 JUMPI JUMPDEST DUP2 PUSH3 0xA66 PUSH1 0x20 SWAP4 DUP4 PUSH3 0x2938 JUMP JUMPDEST DUP2 ADD SUB SLT PUSH3 0xA31 JUMPI MLOAD PUSH1 0xFF DUP2 AND DUP2 SUB PUSH3 0xA31 JUMPI PUSH1 0xFF SWAP1 PUSH3 0x3CC JUMP JUMPDEST RETURNDATASIZE SWAP2 POP PUSH3 0xA57 JUMP JUMPDEST PUSH1 0x40 MLOAD RETURNDATASIZE DUP12 DUP3 RETURNDATACOPY RETURNDATASIZE SWAP1 REVERT JUMPDEST PUSH3 0xAC0 SWAP2 SWAP7 POP PUSH1 0x20 RETURNDATASIZE PUSH1 0x20 GT PUSH3 0xAC8 JUMPI JUMPDEST PUSH3 0xAB7 DUP2 DUP4 PUSH3 0x2938 JUMP JUMPDEST DUP2 ADD SWAP1 PUSH3 0x2EF5 JUMP JUMPDEST SWAP5 CODESIZE PUSH3 0x39D JUMP JUMPDEST POP RETURNDATASIZE PUSH3 0xAAB JUMP JUMPDEST PUSH3 0xAEB SWAP2 POP DUP3 RETURNDATASIZE DUP5 GT PUSH3 0xAC8 JUMPI PUSH3 0xAB7 DUP2 DUP4 PUSH3 0x2938 JUMP JUMPDEST CODESIZE PUSH3 0x34C JUMP JUMPDEST PUSH1 0x40 MLOAD RETURNDATASIZE DUP9 DUP3 RETURNDATACOPY RETURNDATASIZE SWAP1 REVERT JUMPDEST PUSH4 0x4E487B71 PUSH1 0xE0 SHL DUP10 MSTORE PUSH1 0x41 PUSH1 0x4 MSTORE PUSH1 0x24 DUP10 REVERT JUMPDEST PUSH1 0x40 MLOAD PUSH3 0x461BCD PUSH1 0xE5 SHL DUP2 MSTORE PUSH1 0x20 PUSH1 0x4 DUP3 ADD MSTORE PUSH1 0x19 PUSH1 0x24 DUP3 ADD MSTORE PUSH32 0x496E73756666696369656E7420616D6F756E742073656E742E00000000000000 PUSH1 0x44 DUP3 ADD MSTORE PUSH1 0x64 SWAP1 REVERT JUMPDEST DUP2 CALLDATALOAD DUP6 DUP2 GT PUSH3 0xB82 JUMPI PUSH1 0x20 SWAP2 PUSH3 0xB76 DUP4 SWAP3 PUSH1 0x4 CALLDATASIZE SWAP2 DUP10 ADD ADD PUSH3 0x2DC4 JUMP JUMPDEST DUP2 MSTORE ADD SWAP2 ADD SWAP1 PUSH3 0x28B JUMP JUMPDEST DUP12 DUP1 REVERT JUMPDEST DUP10 DUP1 REVERT JUMPDEST DUP7 DUP1 REVERT JUMPDEST DUP6 DUP1 REVERT JUMPDEST DUP5 DUP1 REVERT JUMPDEST DUP4 DUP1 REVERT JUMPDEST POP CALLVALUE PUSH3 0x15D JUMPI DUP1 PUSH1 0x3 NOT CALLDATASIZE ADD SLT PUSH3 0x15D JUMPI PUSH1 0xA SLOAD PUSH1 0x1 PUSH1 0x1 PUSH1 0x40 SHL SUB DUP2 GT PUSH3 0x87D JUMPI PUSH1 0x20 SWAP1 PUSH1 0x40 MLOAD SWAP1 PUSH3 0xBD8 PUSH1 0x20 DUP3 PUSH1 0x5 SHL ADD DUP4 PUSH3 0x2938 JUMP JUMPDEST DUP1 DUP3 MSTORE PUSH1 0x20 DUP3 ADD PUSH1 0xA PUSH1 0x0 MSTORE PUSH32 0xC65A7BB8D6351C1CF70C95A316CC6A92839C986682D98BC35F958F4883F9D2A8 SWAP4 PUSH1 0x0 SWAP2 JUMPDEST DUP4 DUP4 LT PUSH3 0xC26 JUMPI PUSH1 0x40 MLOAD DUP1 PUSH3 0xC22 DUP8 DUP3 PUSH3 0x2C5D JUMP JUMPDEST SUB SWAP1 RETURN JUMPDEST PUSH1 0x16 DUP3 PUSH1 0x1 SWAP3 PUSH1 0x40 MLOAD PUSH3 0xC3A DUP2 PUSH3 0x28FF JUMP JUMPDEST DUP5 DUP1 PUSH1 0xA0 SHL SUB DUP1 DUP12 SLOAD AND DUP3 MSTORE DUP1 DUP7 DUP13 ADD SLOAD AND DUP5 DUP4 ADD MSTORE PUSH1 0x2 DUP12 ADD SLOAD AND PUSH1 0x40 DUP3 ADD MSTORE PUSH3 0xC69 PUSH1 0x3 DUP12 ADD PUSH3 0x2A0B JUMP JUMPDEST PUSH1 0x60 DUP3 ADD MSTORE PUSH3 0xC7C PUSH1 0xF DUP12 ADD PUSH3 0x295A JUMP JUMPDEST PUSH1 0x80 DUP3 ADD MSTORE PUSH3 0xC8F PUSH1 0x10 DUP12 ADD PUSH3 0x295A JUMP JUMPDEST PUSH1 0xA0 DUP3 ADD MSTORE PUSH3 0xCA2 PUSH1 0x11 DUP12 ADD PUSH3 0x295A JUMP JUMPDEST PUSH1 0xC0 DUP3 ADD MSTORE PUSH3 0xCB5 PUSH1 0x12 DUP12 ADD PUSH3 0x295A JUMP JUMPDEST PUSH1 0xE0 DUP3 ADD MSTORE PUSH3 0xCC8 PUSH1 0x13 DUP12 ADD PUSH3 0x295A JUMP JUMPDEST PUSH2 0x100 DUP3 ADD MSTORE PUSH3 0xCDC PUSH1 0x14 DUP12 ADD PUSH3 0x295A JUMP JUMPDEST PUSH2 0x120 DUP3 ADD MSTORE PUSH1 0x15 DUP11 ADD SLOAD PUSH1 0xFF SWAP1 DUP2 DUP2 AND ISZERO ISZERO PUSH2 0x140 DUP5 ADD MSTORE PUSH1 0x8 SHR AND ISZERO ISZERO PUSH2 0x160 DUP3 ADD MSTORE DUP2 MSTORE ADD SWAP7 ADD SWAP3 ADD SWAP2 SWAP5 PUSH3 0xC0A JUMP JUMPDEST POP CALLVALUE PUSH3 0x15D JUMPI PUSH1 0x20 CALLDATASIZE PUSH1 0x3 NOT ADD SLT PUSH3 0x15D JUMPI PUSH1 0x20 SWAP1 PUSH1 0x1 PUSH1 0x1 PUSH1 0xA0 SHL SUB SWAP1 PUSH1 0x40 SWAP1 DUP3 PUSH3 0xD3E PUSH3 0x282B JUMP JUMPDEST AND DUP2 MSTORE PUSH1 0x7 DUP5 MSTORE KECCAK256 SLOAD AND PUSH1 0x40 MLOAD SWAP1 DUP2 MSTORE RETURN JUMPDEST POP CALLVALUE PUSH3 0x15D JUMPI DUP1 PUSH1 0x3 NOT CALLDATASIZE ADD SLT PUSH3 0x15D JUMPI PUSH1 0x20 PUSH1 0x40 MLOAD PUSH1 0x5 DUP2 MSTORE RETURN JUMPDEST POP CALLVALUE PUSH3 0x15D JUMPI DUP1 PUSH1 0x3 NOT CALLDATASIZE ADD SLT PUSH3 0x15D JUMPI PUSH3 0xD8C CALLER PUSH3 0x3AB1 JUMP JUMPDEST ISZERO PUSH3 0xEFD JUMPI CALLER DUP2 MSTORE PUSH1 0x40 PUSH1 0x20 SWAP2 PUSH1 0x7 DUP4 MSTORE KECCAK256 PUSH1 0x40 MLOAD PUSH3 0xDAD DUP2 PUSH3 0x291C JUMP JUMPDEST DUP2 SLOAD PUSH1 0x1 PUSH1 0x1 PUSH1 0xA0 SHL SUB SWAP1 DUP2 AND DUP3 MSTORE PUSH1 0x1 SWAP3 DUP4 ADD DUP1 SLOAD SWAP1 SWAP4 SWAP2 PUSH1 0x1 PUSH1 0x1 PUSH1 0x40 SHL SUB DUP3 GT PUSH3 0x87D JUMPI SWAP4 PUSH1 0x40 MLOAD SWAP5 PUSH3 0xDEB DUP8 DUP5 PUSH1 0x5 SHL ADD DUP8 PUSH3 0x2938 JUMP JUMPDEST DUP3 DUP7 MSTORE PUSH1 0x0 SWAP2 DUP3 MSTORE DUP7 DUP3 KECCAK256 SWAP1 DUP8 DUP8 ADD JUMPDEST DUP5 DUP5 LT PUSH3 0xE19 JUMPI DUP7 DUP10 ADD DUP9 SWAP1 MSTORE PUSH1 0x40 MLOAD DUP1 PUSH3 0xC22 DUP11 DUP3 PUSH3 0x2C5D JUMP JUMPDEST PUSH1 0x16 DUP10 DUP8 SWAP3 PUSH1 0x40 MLOAD PUSH3 0xE2C DUP2 PUSH3 0x28FF JUMP JUMPDEST DUP6 DUP8 SLOAD AND DUP2 MSTORE DUP6 DUP6 DUP9 ADD SLOAD AND DUP4 DUP3 ADD MSTORE DUP6 PUSH1 0x2 DUP9 ADD SLOAD AND PUSH1 0x40 DUP3 ADD MSTORE PUSH3 0xE56 PUSH1 0x3 DUP9 ADD PUSH3 0x2A0B JUMP JUMPDEST PUSH1 0x60 DUP3 ADD MSTORE PUSH3 0xE69 PUSH1 0xF DUP9 ADD PUSH3 0x295A JUMP JUMPDEST PUSH1 0x80 DUP3 ADD MSTORE PUSH3 0xE7C PUSH1 0x10 DUP9 ADD PUSH3 0x295A JUMP JUMPDEST PUSH1 0xA0 DUP3 ADD MSTORE PUSH3 0xE8F PUSH1 0x11 DUP9 ADD PUSH3 0x295A JUMP JUMPDEST PUSH1 0xC0 DUP3 ADD MSTORE PUSH3 0xEA2 PUSH1 0x12 DUP9 ADD PUSH3 0x295A JUMP JUMPDEST PUSH1 0xE0 DUP3 ADD MSTORE PUSH3 0xEB5 PUSH1 0x13 DUP9 ADD PUSH3 0x295A JUMP JUMPDEST PUSH2 0x100 DUP3 ADD MSTORE PUSH3 0xEC9 PUSH1 0x14 DUP9 ADD PUSH3 0x295A JUMP JUMPDEST PUSH2 0x120 DUP3 ADD MSTORE PUSH1 0x15 DUP8 ADD SLOAD PUSH1 0xFF SWAP1 DUP2 DUP2 AND ISZERO ISZERO PUSH2 0x140 DUP5 ADD MSTORE PUSH1 0x8 SHR AND ISZERO ISZERO PUSH2 0x160 DUP3 ADD MSTORE DUP2 MSTORE ADD SWAP4 ADD SWAP4 ADD SWAP3 SWAP2 PUSH3 0xDFB JUMP JUMPDEST PUSH1 0x40 MLOAD PUSH3 0x461BCD PUSH1 0xE5 SHL DUP2 MSTORE PUSH1 0x20 PUSH1 0x4 DUP3 ADD MSTORE PUSH1 0x1C PUSH1 0x24 DUP3 ADD MSTORE PUSH32 0x557365722050726F66696C6520646F7365206E6F742065786973742E00000000 PUSH1 0x44 DUP3 ADD MSTORE PUSH1 0x64 SWAP1 REVERT JUMPDEST POP CALLVALUE PUSH3 0x15D JUMPI DUP1 PUSH1 0x3 NOT CALLDATASIZE ADD SLT PUSH3 0x15D JUMPI PUSH1 0x20 PUSH1 0x40 MLOAD PUSH10 0x152D02C7E14AF6800000 DUP2 MSTORE RETURN JUMPDEST POP CALLVALUE PUSH3 0x15D JUMPI PUSH1 0x20 CALLDATASIZE PUSH1 0x3 NOT ADD SLT PUSH3 0x15D JUMPI PUSH1 0x20 PUSH1 0x4 CALLDATALOAD DUP1 PUSH1 0x5 SSTORE PUSH1 0x40 MLOAD SWAP1 DUP2 MSTORE RETURN JUMPDEST POP CALLVALUE PUSH3 0x15D JUMPI PUSH1 0x20 CALLDATASIZE PUSH1 0x3 NOT ADD SLT PUSH3 0x15D JUMPI PUSH1 0x1 PUSH1 0x1 PUSH1 0xA0 SHL SUB SWAP1 PUSH1 0x40 SWAP1 DUP3 PUSH3 0xFB9 PUSH3 0x282B JUMP JUMPDEST AND DUP2 MSTORE PUSH1 0x9 PUSH1 0x20 MSTORE KECCAK256 SWAP1 PUSH3 0xC22 DUP2 DUP4 SLOAD AND SWAP3 DUP3 PUSH1 0x1 DUP3 ADD SLOAD AND SWAP3 PUSH1 0x2 DUP3 ADD SLOAD AND SWAP4 PUSH3 0xFE9 PUSH1 0x3 DUP4 ADD PUSH3 0x2A0B JUMP JUMPDEST SWAP2 PUSH3 0xFF8 PUSH1 0xF DUP3 ADD PUSH3 0x295A JUMP JUMPDEST PUSH3 0x1006 PUSH1 0x10 DUP4 ADD PUSH3 0x295A JUMP JUMPDEST PUSH3 0x1014 PUSH1 0x11 DUP5 ADD PUSH3 0x295A JUMP JUMPDEST PUSH3 0x1022 PUSH1 0x12 DUP6 ADD PUSH3 0x295A JUMP JUMPDEST SWAP2 PUSH3 0x1031 PUSH1 0x13 DUP7 ADD PUSH3 0x295A JUMP JUMPDEST SWAP4 PUSH1 0x15 PUSH3 0x1042 PUSH1 0x14 DUP9 ADD PUSH3 0x295A JUMP JUMPDEST SWAP7 ADD SLOAD SWAP8 PUSH1 0x40 MLOAD SWAP12 DUP13 SWAP12 PUSH1 0xFF DUP1 DUP13 PUSH1 0x8 SHR AND SWAP12 AND SWAP10 DUP14 PUSH3 0x2B94 JUMP JUMPDEST POP CALLVALUE PUSH3 0x15D JUMPI PUSH1 0x60 CALLDATASIZE PUSH1 0x3 NOT ADD SLT PUSH3 0x15D JUMPI PUSH1 0x20 SWAP1 PUSH1 0x1 PUSH3 0x10A3 PUSH3 0x1085 PUSH3 0x282B JUMP JUMPDEST PUSH3 0x108F PUSH3 0x2842 JUMP JUMPDEST PUSH3 0x1099 PUSH3 0x39C2 JUMP JUMPDEST PUSH1 0x44 CALLDATALOAD SWAP2 PUSH3 0x3A00 JUMP JUMPDEST SWAP2 SSTORE PUSH1 0x40 MLOAD SWAP1 ISZERO ISZERO DUP2 MSTORE RETURN JUMPDEST POP PUSH1 0x60 CALLDATASIZE PUSH1 0x3 NOT ADD SLT PUSH3 0x15D JUMPI PUSH3 0x10C7 PUSH3 0x282B JUMP JUMPDEST SWAP1 PUSH3 0x10D2 PUSH3 0x2842 JUMP JUMPDEST PUSH3 0x10DC PUSH3 0x2859 JUMP JUMPDEST SWAP1 PUSH3 0x10F3 PUSH1 0x1 PUSH1 0x1 PUSH1 0xA0 SHL SUB DUP6 AND ISZERO ISZERO PUSH3 0x2EA8 JUMP JUMPDEST PUSH1 0x1 PUSH1 0x1 PUSH1 0xA0 SHL SUB AND SWAP1 PUSH3 0x110A DUP3 ISZERO ISZERO PUSH3 0x2EA8 JUMP JUMPDEST PUSH1 0x1 PUSH1 0x1 PUSH1 0xA0 SHL SUB AND SWAP1 PUSH3 0x1121 DUP3 ISZERO ISZERO PUSH3 0x2EA8 JUMP JUMPDEST PUSH1 0x2 SLOAD PUSH1 0x3 SLOAD PUSH1 0x40 MLOAD PUSH4 0x15AB88C9 PUSH1 0xE3 SHL DUP2 MSTORE PUSH1 0x1 PUSH1 0x1 PUSH1 0xA0 SHL SUB SWAP2 DUP3 AND SWAP4 SWAP3 SWAP1 SWAP2 AND PUSH1 0x20 DUP3 PUSH1 0x4 DUP2 DUP8 GAS STATICCALL SWAP2 DUP3 ISZERO PUSH3 0xAF2 JUMPI SWAP2 PUSH1 0x20 SWAP2 PUSH3 0x119C SWAP4 DUP9 SWAP3 PUSH3 0x15C2 JUMPI JUMPDEST POP PUSH1 0x40 MLOAD PUSH4 0xE6A43905 PUSH1 0xE0 SHL DUP2 MSTORE PUSH1 0x1 PUSH1 0x1 PUSH1 0xA0 SHL SUB DUP1 DUP12 AND PUSH1 0x4 DUP4 ADD MSTORE SWAP1 SWAP3 AND PUSH1 0x24 DUP4 ADD MSTORE SWAP1 SWAP3 DUP4 SWAP2 SWAP1 DUP3 SWAP1 DUP2 SWAP1 PUSH1 0x44 DUP3 ADD SWAP1 JUMP JUMPDEST SUB SWAP2 GAS STATICCALL SWAP1 DUP2 ISZERO PUSH3 0x154B JUMPI PUSH1 0x4 SWAP4 SWAP3 SWAP2 PUSH1 0x60 SWAP2 DUP8 SWAP2 PUSH3 0x159E JUMPI JUMPDEST POP PUSH1 0x40 MLOAD PUSH4 0x240BC6B PUSH1 0xE2 SHL DUP2 MSTORE SWAP5 DUP6 SWAP2 DUP3 SWAP1 PUSH1 0x1 PUSH1 0x1 PUSH1 0xA0 SHL SUB AND GAS STATICCALL SWAP4 DUP5 ISZERO PUSH3 0x154B JUMPI DUP6 SWAP2 DUP7 SWAP5 DUP8 SWAP7 PUSH3 0x1556 JUMPI JUMPDEST POP PUSH1 0x40 DUP1 MLOAD PUSH4 0x57F8D901 PUSH1 0xE0 SHL DUP2 MSTORE PUSH1 0x1 PUSH1 0x1 PUSH1 0xA0 SHL SUB DUP11 AND PUSH1 0x4 DUP3 ADD MSTORE PUSH1 0x24 DUP2 ADD SWAP3 SWAP1 SWAP3 MSTORE PUSH1 0x44 DUP3 ADD SWAP3 SWAP1 SWAP3 MSTORE SWAP3 DUP4 SWAP1 PUSH1 0x64 SWAP1 DUP3 SWAP1 CALLVALUE SWAP1 GAS CALL SWAP1 DUP2 ISZERO PUSH3 0x154B JUMPI DUP6 SWAP3 DUP7 SWAP3 PUSH3 0x1514 JUMPI JUMPDEST POP PUSH3 0x1254 DUP4 PUSH3 0x124D PUSH3 0x125B SWAP5 DUP3 SWAP5 PUSH3 0x2F86 JUMP JUMPDEST SWAP6 PUSH3 0x2F62 JUMP JUMPDEST SWAP5 PUSH3 0x2F62 JUMP JUMPDEST PUSH1 0x1 PUSH1 0x1 PUSH1 0xA0 SHL SUB DUP7 AND DUP6 MSTORE PUSH1 0x9 PUSH1 0x20 MSTORE PUSH1 0x40 DUP6 KECCAK256 PUSH1 0xE ADD SLOAD SWAP1 SWAP2 SWAP1 PUSH3 0x1283 SWAP1 TIMESTAMP PUSH3 0x2F86 JUMP JUMPDEST SWAP3 DUP3 DUP1 PUSH1 0x1 SHL DIV PUSH1 0x2 EQ DUP4 ISZERO OR ISZERO PUSH3 0x1500 JUMPI DUP5 DUP1 PUSH1 0x1 SHL DIV PUSH1 0x2 EQ DUP6 ISZERO OR ISZERO PUSH3 0x1500 JUMPI PUSH1 0x1 DUP1 PUSH1 0xA0 SHL SUB DUP8 AND DUP7 MSTORE PUSH1 0x9 PUSH1 0x20 MSTORE PUSH3 0x12E2 DUP4 PUSH3 0x12DB DUP4 PUSH3 0x12D5 DUP4 PUSH1 0x6 PUSH1 0x40 DUP14 KECCAK256 ADD SLOAD PUSH3 0x2F94 JUMP JUMPDEST PUSH3 0x2FA8 JUMP JUMPDEST SWAP3 PUSH3 0x2FA8 JUMP JUMPDEST SWAP2 PUSH3 0x15180 DUP6 GT ISZERO PUSH3 0x14D3 JUMPI DUP1 SWAP3 JUMPDEST PUSH3 0x15180 DUP7 GT ISZERO PUSH3 0x14B3 JUMPI PUSH1 0x1 PUSH1 0x1 PUSH1 0xA0 SHL SUB DUP10 AND DUP9 MSTORE PUSH1 0x9 PUSH1 0x20 MSTORE PUSH1 0x40 DUP9 KECCAK256 PUSH1 0x7 ADD SLOAD SWAP5 JUMPDEST PUSH1 0x1 DUP1 PUSH1 0xA0 SHL SUB DUP11 AND DUP10 MSTORE PUSH1 0x9 PUSH1 0x20 MSTORE PUSH3 0x135A DUP4 PUSH1 0xB PUSH1 0x40 DUP13 KECCAK256 DUP6 PUSH1 0x7 DUP3 ADD SSTORE DUP8 PUSH1 0x8 DUP3 ADD SSTORE DUP12 PUSH1 0x1 SHL PUSH1 0x9 DUP3 ADD SSTORE DUP5 PUSH1 0x1 SHL PUSH1 0xA DUP3 ADD SSTORE ADD SLOAD PUSH3 0x2F62 JUMP JUMPDEST PUSH1 0x1 DUP1 PUSH1 0xA0 SHL SUB DUP12 AND DUP11 MSTORE PUSH1 0x9 PUSH1 0x20 MSTORE PUSH1 0x40 DUP11 KECCAK256 SWAP1 PUSH1 0xB DUP3 ADD SSTORE DUP6 PUSH1 0xC DUP3 ADD SSTORE DUP7 PUSH1 0xD DUP3 ADD SSTORE PUSH3 0x15180 DUP9 GT PUSH3 0x14A6 JUMPI JUMPDEST POP DUP9 JUMPDEST PUSH1 0xA SLOAD DUP2 LT ISZERO PUSH3 0x149B JUMPI DUP1 DUP11 DUP6 DUP14 DUP13 PUSH3 0x13AC PUSH1 0x1 SWAP7 PUSH3 0x2870 JUMP JUMPDEST POP DUP7 ADD SLOAD PUSH1 0xA0 DUP8 SWAP1 SHL DUP8 SWAP1 SUB DUP4 DUP2 AND SWAP2 AND EQ PUSH3 0x13CF JUMPI JUMPDEST POP POP POP POP ADD PUSH3 0x138F JUMP JUMPDEST PUSH3 0x143B SWAP4 PUSH1 0xB SWAP3 PUSH1 0x40 SWAP3 DUP11 PUSH1 0x7 PUSH3 0x13E8 DUP11 PUSH3 0x2870 JUMP JUMPDEST POP ADD SSTORE DUP13 PUSH1 0x8 PUSH3 0x13F9 DUP11 PUSH3 0x2870 JUMP JUMPDEST POP ADD SSTORE PUSH1 0x9 PUSH3 0x1409 DUP10 PUSH3 0x2870 JUMP JUMPDEST POP SWAP2 DUP11 SHL SWAP2 ADD SSTORE PUSH3 0x141B DUP8 PUSH3 0x2870 JUMP JUMPDEST POP PUSH1 0xA DUP11 DUP11 SHL SWAP2 ADD SSTORE DUP8 DUP1 PUSH1 0xA0 SHL SUB AND DUP2 MSTORE PUSH1 0x9 PUSH1 0x20 MSTORE KECCAK256 ADD SLOAD PUSH3 0x2F62 JUMP JUMPDEST PUSH1 0xB PUSH3 0x1448 DUP4 PUSH3 0x2870 JUMP JUMPDEST POP ADD SSTORE DUP7 PUSH1 0xC PUSH3 0x1459 DUP4 PUSH3 0x2870 JUMP JUMPDEST POP ADD SSTORE DUP8 PUSH1 0xD PUSH3 0x146A DUP4 PUSH3 0x2870 JUMP JUMPDEST POP ADD SSTORE PUSH3 0x15180 DUP10 GT PUSH3 0x1483 JUMPI JUMPDEST DUP11 DUP6 DUP14 DUP13 PUSH3 0x13C4 JUMP JUMPDEST PUSH3 0x148E DUP2 PUSH3 0x2870 JUMP JUMPDEST POP PUSH1 0xE TIMESTAMP SWAP2 ADD SSTORE PUSH3 0x1479 JUMP JUMPDEST PUSH1 0x20 PUSH1 0x40 MLOAD PUSH1 0x1 DUP2 MSTORE RETURN JUMPDEST PUSH1 0xE TIMESTAMP SWAP2 ADD SSTORE CODESIZE PUSH3 0x138C JUMP JUMPDEST PUSH1 0x1 PUSH1 0x1 PUSH1 0xA0 SHL SUB DUP10 AND DUP9 MSTORE PUSH1 0x9 PUSH1 0x20 MSTORE PUSH1 0x40 DUP9 KECCAK256 PUSH1 0xD ADD SLOAD SWAP5 PUSH3 0x1319 JUMP JUMPDEST PUSH1 0x1 PUSH1 0x1 PUSH1 0xA0 SHL SUB DUP9 AND DUP8 MSTORE PUSH1 0x9 PUSH1 0x20 MSTORE PUSH1 0x40 DUP8 KECCAK256 PUSH1 0xC ADD SLOAD PUSH3 0x14F9 SWAP1 DUP3 SWAP1 PUSH3 0x2F62 JUMP JUMPDEST SWAP3 PUSH3 0x12F2 JUMP JUMPDEST PUSH4 0x4E487B71 PUSH1 0xE0 SHL DUP7 MSTORE PUSH1 0x11 PUSH1 0x4 MSTORE PUSH1 0x24 DUP7 REVERT JUMPDEST PUSH3 0x124D SWAP4 POP PUSH3 0x125B SWAP3 POP PUSH3 0x1540 PUSH3 0x1254 SWAP2 PUSH1 0x40 RETURNDATASIZE PUSH1 0x40 GT PUSH3 0xA15 JUMPI PUSH3 0xA05 DUP2 DUP4 PUSH3 0x2938 JUMP JUMPDEST SWAP1 SWAP5 POP SWAP3 POP PUSH3 0x1236 JUMP JUMPDEST PUSH1 0x40 MLOAD RETURNDATASIZE DUP8 DUP3 RETURNDATACOPY RETURNDATASIZE SWAP1 REVERT JUMPDEST PUSH3 0x1587 SWAP2 SWAP7 POP PUSH1 0x40 SWAP3 SWAP6 POP PUSH1 0x64 SWAP4 POP PUSH1 0x60 RETURNDATASIZE PUSH1 0x60 GT PUSH3 0x1596 JUMPI JUMPDEST PUSH3 0x157E DUP2 DUP4 PUSH3 0x2938 JUMP JUMPDEST DUP2 ADD SWAP1 PUSH3 0x2F46 JUMP JUMPDEST SWAP6 SWAP2 SWAP4 SWAP1 SWAP6 SWAP7 SWAP2 SWAP3 POP PUSH3 0x11EA JUMP JUMPDEST POP RETURNDATASIZE PUSH3 0x1572 JUMP JUMPDEST PUSH3 0x15BB SWAP2 POP PUSH1 0x20 RETURNDATASIZE PUSH1 0x20 GT PUSH3 0xAC8 JUMPI PUSH3 0xAB7 DUP2 DUP4 PUSH3 0x2938 JUMP JUMPDEST CODESIZE PUSH3 0x11B8 JUMP JUMPDEST PUSH3 0x15DE SWAP2 SWAP3 POP DUP4 RETURNDATASIZE DUP6 GT PUSH3 0xAC8 JUMPI PUSH3 0xAB7 DUP2 DUP4 PUSH3 0x2938 JUMP JUMPDEST SWAP1 CODESIZE PUSH3 0x1166 JUMP JUMPDEST POP CALLVALUE PUSH3 0x15D JUMPI PUSH1 0x80 CALLDATASIZE PUSH1 0x3 NOT ADD SLT PUSH3 0x15D JUMPI PUSH3 0x1604 PUSH3 0x2842 JUMP JUMPDEST SWAP1 PUSH3 0x160F PUSH3 0x2859 JUMP JUMPDEST PUSH1 0x64 CALLDATALOAD PUSH1 0x1 PUSH1 0x1 PUSH1 0xA0 SHL SUB DUP2 AND SWAP2 SWAP1 DUP3 SWAP1 SUB PUSH3 0x8D4 JUMPI PUSH3 0x163C PUSH1 0x1 PUSH1 0x1 PUSH1 0xA0 SHL SUB DUP6 AND ISZERO ISZERO PUSH3 0x2EA8 JUMP JUMPDEST PUSH1 0x1 PUSH1 0x1 PUSH1 0xA0 SHL SUB AND PUSH3 0x1652 DUP2 ISZERO ISZERO PUSH3 0x2EA8 JUMP JUMPDEST PUSH3 0x165F DUP3 ISZERO ISZERO PUSH3 0x2EA8 JUMP JUMPDEST PUSH1 0x2 SLOAD PUSH1 0x3 SLOAD PUSH1 0x40 MLOAD PUSH4 0x15AB88C9 PUSH1 0xE3 SHL DUP2 MSTORE PUSH1 0x1 PUSH1 0x1 PUSH1 0xA0 SHL SUB SWAP2 DUP3 AND SWAP3 SWAP1 SWAP2 AND PUSH1 0x20 DUP3 PUSH1 0x4 DUP2 DUP7 GAS STATICCALL SWAP2 DUP3 ISZERO PUSH3 0xAF2 JUMPI SWAP2 PUSH1 0x20 SWAP2 PUSH3 0x16D8 SWAP4 DUP9 SWAP3 PUSH3 0x15C2 JUMPI POP PUSH1 0x40 MLOAD PUSH4 0xE6A43905 PUSH1 0xE0 SHL DUP2 MSTORE PUSH1 0x1 PUSH1 0x1 PUSH1 0xA0 SHL SUB DUP1 DUP12 AND PUSH1 0x4 DUP4 ADD MSTORE SWAP1 SWAP3 AND PUSH1 0x24 DUP4 ADD MSTORE SWAP1 SWAP3 DUP4 SWAP2 SWAP1 DUP3 SWAP1 DUP2 SWAP1 PUSH1 0x44 DUP3 ADD SWAP1 JUMP JUMPDEST SUB SWAP2 GAS STATICCALL SWAP1 DUP2 ISZERO PUSH3 0x154B JUMPI PUSH1 0x4 SWAP4 SWAP3 SWAP2 PUSH1 0x60 SWAP2 DUP8 SWAP2 PUSH3 0x1A3E JUMPI JUMPDEST POP PUSH1 0x40 MLOAD PUSH4 0x240BC6B PUSH1 0xE2 SHL DUP2 MSTORE SWAP5 DUP6 SWAP2 DUP3 SWAP1 PUSH1 0x1 PUSH1 0x1 PUSH1 0xA0 SHL SUB AND GAS STATICCALL SWAP4 DUP5 ISZERO PUSH3 0x154B JUMPI DUP6 SWAP3 DUP7 SWAP5 DUP8 SWAP7 PUSH3 0x1A08 JUMPI JUMPDEST POP SWAP1 PUSH1 0x84 PUSH1 0x40 SWAP3 DUP9 DUP5 MLOAD SWAP6 DUP7 SWAP5 DUP6 SWAP4 PUSH4 0x28958F37 PUSH1 0xE1 SHL DUP6 MSTORE PUSH1 0x4 CALLDATALOAD PUSH1 0x4 DUP7 ADD MSTORE DUP14 PUSH1 0x1 DUP1 PUSH1 0xA0 SHL SUB AND PUSH1 0x24 DUP7 ADD MSTORE PUSH1 0x44 DUP6 ADD MSTORE PUSH1 0x64 DUP5 ADD MSTORE GAS CALL SWAP2 DUP3 ISZERO PUSH3 0x154B JUMPI DUP6 SWAP2 DUP7 SWAP4 PUSH3 0x19D2 JUMPI JUMPDEST POP PUSH3 0x1791 DUP4 PUSH3 0x178A PUSH3 0x1798 SWAP5 DUP3 SWAP5 PUSH3 0x2F62 JUMP JUMPDEST SWAP6 PUSH3 0x2F86 JUMP JUMPDEST SWAP5 PUSH3 0x2F86 JUMP JUMPDEST PUSH1 0x1 PUSH1 0x1 PUSH1 0xA0 SHL SUB DUP7 AND DUP6 MSTORE PUSH1 0x9 PUSH1 0x20 MSTORE PUSH1 0x40 DUP6 KECCAK256 PUSH1 0xE ADD SLOAD SWAP1 SWAP2 SWAP1 PUSH3 0x17C0 SWAP1 TIMESTAMP PUSH3 0x2F86 JUMP JUMPDEST SWAP3 DUP3 DUP1 PUSH1 0x1 SHL DIV PUSH1 0x2 EQ DUP4 ISZERO OR ISZERO PUSH3 0x1500 JUMPI DUP5 DUP1 PUSH1 0x1 SHL DIV PUSH1 0x2 EQ DUP6 ISZERO OR ISZERO PUSH3 0x1500 JUMPI PUSH1 0x1 DUP1 PUSH1 0xA0 SHL SUB DUP8 AND DUP7 MSTORE PUSH1 0x9 PUSH1 0x20 MSTORE PUSH3 0x1812 DUP4 PUSH3 0x12DB DUP4 PUSH3 0x12D5 DUP4 PUSH1 0x6 PUSH1 0x40 DUP14 KECCAK256 ADD SLOAD PUSH3 0x2F94 JUMP JUMPDEST SWAP2 PUSH3 0x15180 DUP6 GT ISZERO PUSH3 0x19A5 JUMPI DUP1 SWAP3 JUMPDEST PUSH3 0x15180 DUP7 GT ISZERO PUSH3 0x1985 JUMPI PUSH1 0x1 PUSH1 0x1 PUSH1 0xA0 SHL SUB DUP10 AND DUP9 MSTORE PUSH1 0x9 PUSH1 0x20 MSTORE PUSH1 0x40 DUP9 KECCAK256 PUSH1 0x7 ADD SLOAD SWAP5 JUMPDEST PUSH1 0x1 DUP1 PUSH1 0xA0 SHL SUB DUP11 AND DUP10 MSTORE PUSH1 0x9 PUSH1 0x20 MSTORE PUSH3 0x188A DUP4 PUSH1 0xB PUSH1 0x40 DUP13 KECCAK256 DUP6 PUSH1 0x7 DUP3 ADD SSTORE DUP8 PUSH1 0x8 DUP3 ADD SSTORE DUP12 PUSH1 0x1 SHL PUSH1 0x9 DUP3 ADD SSTORE DUP5 PUSH1 0x1 SHL PUSH1 0xA DUP3 ADD SSTORE ADD SLOAD PUSH3 0x2F62 JUMP JUMPDEST PUSH1 0x1 DUP1 PUSH1 0xA0 SHL SUB DUP12 AND DUP11 MSTORE PUSH1 0x9 PUSH1 0x20 MSTORE PUSH1 0x40 DUP11 KECCAK256 SWAP1 PUSH1 0xB DUP3 ADD SSTORE DUP6 PUSH1 0xC DUP3 ADD SSTORE DUP7 PUSH1 0xD DUP3 ADD SSTORE PUSH3 0x15180 DUP9 GT PUSH3 0x1978 JUMPI JUMPDEST POP DUP9 JUMPDEST PUSH1 0xA SLOAD DUP2 LT ISZERO PUSH3 0x149B JUMPI DUP1 DUP11 DUP6 DUP14 DUP13 PUSH3 0x18DC PUSH1 0x1 SWAP7 PUSH3 0x2870 JUMP JUMPDEST POP DUP7 ADD SLOAD PUSH1 0xA0 DUP8 SWAP1 SHL DUP8 SWAP1 SUB DUP4 DUP2 AND SWAP2 AND EQ PUSH3 0x18FF JUMPI JUMPDEST POP POP POP POP ADD PUSH3 0x18BF JUMP JUMPDEST PUSH3 0x1918 SWAP4 PUSH1 0xB SWAP3 PUSH1 0x40 SWAP3 DUP11 PUSH1 0x7 PUSH3 0x13E8 DUP11 PUSH3 0x2870 JUMP JUMPDEST PUSH1 0xB PUSH3 0x1925 DUP4 PUSH3 0x2870 JUMP JUMPDEST POP ADD SSTORE DUP7 PUSH1 0xC PUSH3 0x1936 DUP4 PUSH3 0x2870 JUMP JUMPDEST POP ADD SSTORE DUP8 PUSH1 0xD PUSH3 0x1947 DUP4 PUSH3 0x2870 JUMP JUMPDEST POP ADD SSTORE PUSH3 0x15180 DUP10 GT PUSH3 0x1960 JUMPI JUMPDEST DUP11 DUP6 DUP14 DUP13 PUSH3 0x18F4 JUMP JUMPDEST PUSH3 0x196B DUP2 PUSH3 0x2870 JUMP JUMPDEST POP PUSH1 0xE TIMESTAMP SWAP2 ADD SSTORE PUSH3 0x1956 JUMP JUMPDEST PUSH1 0xE TIMESTAMP SWAP2 ADD SSTORE CODESIZE PUSH3 0x18BC JUMP JUMPDEST PUSH1 0x1 PUSH1 0x1 PUSH1 0xA0 SHL SUB DUP10 AND DUP9 MSTORE PUSH1 0x9 PUSH1 0x20 MSTORE PUSH1 0x40 DUP9 KECCAK256 PUSH1 0xD ADD SLOAD SWAP5 PUSH3 0x1849 JUMP JUMPDEST PUSH1 0x1 PUSH1 0x1 PUSH1 0xA0 SHL SUB DUP9 AND DUP8 MSTORE PUSH1 0x9 PUSH1 0x20 MSTORE PUSH1 0x40 DUP8 KECCAK256 PUSH1 0xC ADD SLOAD PUSH3 0x19CB SWAP1 DUP3 SWAP1 PUSH3 0x2F62 JUMP JUMPDEST SWAP3 PUSH3 0x1822 JUMP JUMPDEST PUSH3 0x178A SWAP4 POP PUSH3 0x1798 SWAP3 POP PUSH3 0x19FE PUSH3 0x1791 SWAP2 PUSH1 0x40 RETURNDATASIZE PUSH1 0x40 GT PUSH3 0xA15 JUMPI PUSH3 0xA05 DUP2 DUP4 PUSH3 0x2938 JUMP JUMPDEST SWAP5 POP SWAP3 POP PUSH3 0x1773 JUMP JUMPDEST PUSH3 0x1A2F SWAP2 SWAP7 POP PUSH1 0x40 SWAP3 SWAP6 POP PUSH1 0x84 SWAP5 POP PUSH1 0x60 RETURNDATASIZE PUSH1 0x60 GT PUSH3 0x1596 JUMPI PUSH3 0x157E DUP2 DUP4 PUSH3 0x2938 JUMP JUMPDEST SWAP6 SWAP2 SWAP5 SWAP1 SWAP6 SWAP7 SWAP2 SWAP3 POP PUSH3 0x1726 JUMP JUMPDEST PUSH3 0x1A5B SWAP2 POP PUSH1 0x20 RETURNDATASIZE PUSH1 0x20 GT PUSH3 0xAC8 JUMPI PUSH3 0xAB7 DUP2 DUP4 PUSH3 0x2938 JUMP JUMPDEST CODESIZE PUSH3 0x16F4 JUMP JUMPDEST POP CALLVALUE PUSH3 0x15D JUMPI PUSH1 0x20 CALLDATASIZE PUSH1 0x3 NOT ADD SLT PUSH3 0x15D JUMPI PUSH1 0x4 CALLDATALOAD PUSH1 0xA SLOAD DUP2 LT ISZERO PUSH3 0x1AC1 JUMPI PUSH3 0x1A8F SWAP1 PUSH3 0x2870 JUMP JUMPDEST POP DUP1 SLOAD PUSH1 0x1 DUP3 ADD SLOAD PUSH1 0x2 DUP4 ADD SLOAD PUSH1 0x1 PUSH1 0x1 PUSH1 0xA0 SHL SUB SWAP1 DUP2 AND SWAP4 SWAP2 DUP2 AND SWAP3 PUSH3 0xC22 SWAP3 SWAP2 AND PUSH3 0xFE9 PUSH1 0x3 DUP4 ADD PUSH3 0x2A0B JUMP JUMPDEST POP DUP1 REVERT JUMPDEST POP CALLVALUE PUSH3 0x15D JUMPI PUSH1 0x20 CALLDATASIZE PUSH1 0x3 NOT ADD SLT PUSH3 0x15D JUMPI PUSH3 0x1AE3 PUSH3 0x282B JUMP JUMPDEST SWAP1 PUSH3 0x1AFB PUSH1 0x1 DUP1 PUSH1 0xA0 SHL SUB PUSH1 0x1 SLOAD AND CALLER EQ PUSH3 0x2E4C JUMP JUMPDEST PUSH3 0x1B05 PUSH3 0x39C2 JUMP JUMPDEST PUSH3 0x1B1B PUSH1 0x1 PUSH1 0x1 PUSH1 0xA0 SHL SUB DUP4 AND ISZERO ISZERO PUSH3 0x2EA8 JUMP JUMPDEST PUSH1 0x3 SLOAD PUSH1 0x40 MLOAD PUSH4 0x15AB88C9 PUSH1 0xE3 SHL DUP2 MSTORE SWAP1 PUSH1 0x20 SWAP1 DUP3 SWAP1 PUSH1 0x4 SWAP1 DUP3 SWAP1 PUSH1 0x1 PUSH1 0x1 PUSH1 0xA0 SHL SUB AND GAS STATICCALL SWAP1 DUP2 ISZERO PUSH3 0x2788 JUMPI PUSH3 0x1B94 SWAP2 PUSH1 0x20 SWAP2 DUP5 SWAP2 PUSH3 0x27B7 JUMPI JUMPDEST POP PUSH1 0x2 SLOAD PUSH1 0x40 MLOAD PUSH4 0xE6A43905 PUSH1 0xE0 SHL DUP2 MSTORE PUSH1 0x1 PUSH1 0x1 PUSH1 0xA0 SHL SUB DUP8 DUP2 AND PUSH1 0x4 DUP4 ADD MSTORE SWAP3 DUP4 AND PUSH1 0x24 DUP3 ADD MSTORE SWAP4 DUP5 SWAP3 SWAP1 SWAP2 AND SWAP1 DUP3 SWAP1 DUP2 SWAP1 PUSH1 0x44 DUP3 ADD SWAP1 JUMP JUMPDEST SUB SWAP2 GAS STATICCALL SWAP1 DUP2 ISZERO PUSH3 0x2788 JUMPI DUP3 SWAP2 PUSH3 0x2793 JUMPI JUMPDEST POP PUSH1 0x1 PUSH1 0x1 PUSH1 0xA0 SHL SUB DUP4 AND EXTCODESIZE ISZERO PUSH3 0x1AC1 JUMPI PUSH1 0x40 MLOAD PUSH4 0x6DA678F PUSH1 0xE5 SHL DUP2 MSTORE PUSH1 0x1 PUSH1 0x1 PUSH1 0xA0 SHL SUB SWAP2 DUP3 AND PUSH1 0x4 DUP3 ADD MSTORE SWAP1 DUP3 SWAP1 DUP3 SWAP1 PUSH1 0x24 SWAP1 DUP3 SWAP1 DUP5 SWAP1 DUP9 AND GAS CALL DUP1 ISZERO PUSH3 0x2788 JUMPI PUSH3 0x275B JUMPI JUMPDEST POP PUSH1 0x1 PUSH1 0x1 PUSH1 0xA0 SHL SUB DUP1 DUP4 AND DUP1 DUP4 MSTORE PUSH1 0x9 PUSH1 0x20 MSTORE PUSH1 0x40 DUP1 DUP5 KECCAK256 PUSH1 0x3 SLOAD DUP3 MLOAD PUSH4 0xE79A4089 PUSH1 0xE0 SHL DUP2 MSTORE PUSH1 0x4 DUP2 ADD SWAP5 SWAP1 SWAP5 MSTORE PUSH1 0x64 PUSH1 0x24 DUP6 ADD DUP2 SWAP1 MSTORE ADDRESS PUSH1 0x44 DUP7 ADD MSTORE SWAP6 SWAP7 SWAP4 SWAP6 SWAP2 SWAP5 DUP7 SWAP3 SWAP2 DUP4 SWAP2 DUP10 SWAP2 AND GAS CALL SWAP3 DUP4 ISZERO PUSH3 0x2750 JUMPI DUP5 SWAP1 DUP6 SWAP5 PUSH3 0x2727 JUMPI JUMPDEST POP PUSH1 0x1 DUP1 PUSH1 0xA0 SHL SUB DUP3 AND DUP6 MSTORE PUSH1 0x9 PUSH1 0x20 MSTORE PUSH1 0x40 DUP6 KECCAK256 SWAP3 PUSH1 0x6 DUP5 ADD SLOAD PUSH3 0x1CAB PUSH1 0x5 PUSH1 0x40 MLOAD SWAP7 PUSH3 0x1C85 DUP9 PUSH3 0x28FF JUMP JUMPDEST PUSH1 0x1 PUSH1 0x1 PUSH1 0xA0 SHL SUB DUP8 AND DUP9 MSTORE PUSH3 0x1C9F PUSH1 0x4 DUP3 ADD PUSH3 0x295A JUMP JUMPDEST PUSH1 0x20 DUP10 ADD MSTORE ADD PUSH3 0x295A JUMP JUMPDEST PUSH1 0x40 DUP7 ADD MSTORE PUSH1 0x60 DUP6 ADD MSTORE DUP6 PUSH1 0x80 DUP6 ADD MSTORE DUP6 PUSH1 0xA0 DUP6 ADD MSTORE DUP6 PUSH1 0xC0 DUP6 ADD MSTORE DUP6 PUSH1 0xE0 DUP6 ADD MSTORE DUP6 PUSH2 0x100 DUP6 ADD MSTORE DUP6 PUSH2 0x120 DUP6 ADD MSTORE DUP6 PUSH2 0x140 DUP6 ADD MSTORE TIMESTAMP PUSH2 0x160 DUP6 ADD MSTORE PUSH1 0x1 DUP1 PUSH1 0xA0 SHL SUB DUP5 MLOAD AND PUSH1 0x1 PUSH1 0x1 PUSH1 0x60 SHL SUB PUSH1 0xA0 SHL PUSH1 0x3 DUP4 ADD SLOAD AND OR PUSH1 0x3 DUP3 ADD SSTORE PUSH1 0x20 DUP5 ADD MLOAD DUP1 MLOAD SWAP1 PUSH1 0x1 PUSH1 0x1 PUSH1 0x40 SHL SUB DUP3 GT PUSH3 0x2668 JUMPI PUSH3 0x1D30 PUSH1 0x4 DUP5 ADD SLOAD PUSH3 0x28C2 JUMP JUMPDEST PUSH1 0x1F DUP2 GT PUSH3 0x26F0 JUMPI JUMPDEST POP PUSH1 0x20 SWAP1 PUSH1 0x1F DUP4 GT PUSH1 0x1 EQ PUSH3 0x267C JUMPI PUSH3 0x1D6E SWAP3 SWAP2 DUP10 SWAP2 DUP4 PUSH3 0x1FDD JUMPI JUMPDEST POP POP DUP2 PUSH1 0x1 SHL SWAP2 PUSH1 0x0 NOT SWAP1 PUSH1 0x3 SHL SHR NOT AND OR SWAP1 JUMP JUMPDEST PUSH1 0x4 DUP3 ADD SSTORE JUMPDEST PUSH1 0x40 DUP5 ADD MLOAD DUP1 MLOAD SWAP1 PUSH1 0x1 PUSH1 0x1 PUSH1 0x40 SHL SUB DUP3 GT PUSH3 0x2668 JUMPI PUSH3 0x1D9A PUSH1 0x5 DUP5 ADD SLOAD PUSH3 0x28C2 JUMP JUMPDEST PUSH1 0x1F DUP2 GT PUSH3 0x2631 JUMPI JUMPDEST POP PUSH1 0x20 SWAP1 PUSH1 0x1F DUP4 GT PUSH1 0x1 EQ PUSH3 0x25BD JUMPI PUSH3 0x1DD7 SWAP3 SWAP2 DUP10 SWAP2 DUP4 PUSH3 0x1FDD JUMPI POP POP DUP2 PUSH1 0x1 SHL SWAP2 PUSH1 0x0 NOT SWAP1 PUSH1 0x3 SHL SHR NOT AND OR SWAP1 JUMP JUMPDEST PUSH1 0x5 DUP3 ADD SSTORE JUMPDEST PUSH1 0x60 DUP5 ADD MLOAD PUSH1 0x6 DUP3 ADD SSTORE PUSH1 0x80 DUP5 ADD MLOAD PUSH1 0x7 DUP3 ADD SSTORE PUSH1 0xA0 DUP5 ADD MLOAD PUSH1 0x8 DUP3 ADD SSTORE PUSH1 0xC0 DUP5 ADD MLOAD PUSH1 0x9 DUP3 ADD SSTORE PUSH1 0xE0 DUP5 ADD MLOAD PUSH1 0xA DUP3 ADD SSTORE PUSH2 0x100 DUP5 ADD MLOAD PUSH1 0xB DUP3 ADD SSTORE PUSH2 0x120 DUP5 ADD MLOAD PUSH1 0xC DUP3 ADD SSTORE PUSH2 0x140 DUP5 ADD MLOAD PUSH1 0xD DUP3 ADD SSTORE PUSH2 0x160 DUP5 ADD MLOAD PUSH1 0xE DUP3 ADD SSTORE DUP6 JUMPDEST PUSH1 0xA SLOAD DUP2 LT ISZERO PUSH3 0x2161 JUMPI PUSH3 0x1E53 DUP2 PUSH3 0x2870 JUMP JUMPDEST POP PUSH1 0x1 ADD SLOAD PUSH1 0x1 PUSH1 0x1 PUSH1 0xA0 SHL SUB DUP6 DUP2 AND SWAP2 AND EQ PUSH3 0x1E75 JUMPI JUMPDEST PUSH1 0x1 ADD PUSH3 0x1E3D JUMP JUMPDEST PUSH3 0x1E80 DUP2 PUSH3 0x2870 JUMP JUMPDEST POP PUSH1 0x3 DUP2 ADD PUSH1 0x1 DUP1 PUSH1 0xA0 SHL SUB DUP8 MLOAD AND PUSH1 0x1 PUSH1 0x1 PUSH1 0x60 SHL SUB PUSH1 0xA0 SHL DUP3 SLOAD AND OR SWAP1 SSTORE PUSH1 0x20 DUP7 ADD MLOAD DUP1 MLOAD SWAP1 PUSH1 0x1 PUSH1 0x1 PUSH1 0x40 SHL SUB DUP3 GT PUSH3 0x20A2 JUMPI PUSH3 0x1EC6 PUSH1 0x4 DUP5 ADD SLOAD PUSH3 0x28C2 JUMP JUMPDEST PUSH1 0x1F DUP2 GT PUSH3 0x212A JUMPI JUMPDEST POP PUSH1 0x20 SWAP1 PUSH1 0x1F DUP4 GT PUSH1 0x1 EQ PUSH3 0x20B6 JUMPI PUSH3 0x1F03 SWAP3 SWAP2 DUP12 SWAP2 DUP4 PUSH3 0x1FDD JUMPI POP POP DUP2 PUSH1 0x1 SHL SWAP2 PUSH1 0x0 NOT SWAP1 PUSH1 0x3 SHL SHR NOT AND OR SWAP1 JUMP JUMPDEST PUSH1 0x4 DUP3 ADD SSTORE JUMPDEST PUSH1 0x40 DUP7 ADD MLOAD DUP1 MLOAD SWAP1 PUSH1 0x1 PUSH1 0x1 PUSH1 0x40 SHL SUB DUP3 GT PUSH3 0x20A2 JUMPI PUSH3 0x1F2F PUSH1 0x5 DUP5 ADD SLOAD PUSH3 0x28C2 JUMP JUMPDEST PUSH1 0x1F DUP2 GT PUSH3 0x205F JUMPI JUMPDEST POP PUSH1 0x20 SWAP1 PUSH1 0x1F DUP4 GT PUSH1 0x1 EQ PUSH3 0x1FE9 JUMPI SWAP2 DUP1 PUSH3 0x1F71 SWAP3 PUSH1 0x1 SWAP7 SWAP6 SWAP5 DUP14 SWAP3 PUSH3 0x1FDD JUMPI POP POP DUP2 PUSH1 0x1 SHL SWAP2 PUSH1 0x0 NOT SWAP1 PUSH1 0x3 SHL SHR NOT AND OR SWAP1 JUMP JUMPDEST PUSH1 0x5 DUP3 ADD SSTORE JUMPDEST PUSH1 0x60 DUP8 ADD MLOAD PUSH1 0x6 DUP3 ADD SSTORE PUSH1 0x80 DUP8 ADD MLOAD PUSH1 0x7 DUP3 ADD SSTORE PUSH1 0xA0 DUP8 ADD MLOAD PUSH1 0x8 DUP3 ADD SSTORE PUSH1 0xC0 DUP8 ADD MLOAD PUSH1 0x9 DUP3 ADD SSTORE PUSH1 0xE0 DUP8 ADD MLOAD PUSH1 0xA DUP3 ADD SSTORE PUSH2 0x100 DUP8 ADD MLOAD PUSH1 0xB DUP3 ADD SSTORE PUSH2 0x120 DUP8 ADD MLOAD PUSH1 0xC DUP3 ADD SSTORE PUSH2 0x140 DUP8 ADD MLOAD PUSH1 0xD DUP3 ADD SSTORE PUSH1 0xE PUSH2 0x160 DUP9 ADD MLOAD SWAP2 ADD SSTORE SWAP1 POP PUSH3 0x1E6C JUMP JUMPDEST ADD MLOAD SWAP1 POP CODESIZE DUP1 PUSH3 0x1D59 JUMP JUMPDEST SWAP1 PUSH1 0x5 DUP5 ADD DUP12 MSTORE PUSH1 0x20 DUP12 KECCAK256 SWAP2 DUP12 JUMPDEST PUSH1 0x1F NOT DUP6 AND DUP2 LT PUSH3 0x2046 JUMPI POP SWAP2 DUP4 SWAP2 PUSH1 0x1 SWAP7 SWAP6 SWAP5 SWAP4 DUP8 SWAP5 PUSH1 0x1F NOT DUP2 AND LT PUSH3 0x202C JUMPI JUMPDEST POP POP POP DUP2 SHL ADD PUSH1 0x5 DUP3 ADD SSTORE PUSH3 0x1F77 JUMP JUMPDEST ADD MLOAD PUSH1 0x0 NOT PUSH1 0xF8 DUP5 PUSH1 0x3 SHL AND SHR NOT AND SWAP1 SSTORE CODESIZE DUP1 DUP1 PUSH3 0x201B JUMP JUMPDEST SWAP2 SWAP3 PUSH1 0x20 PUSH1 0x1 DUP2 SWAP3 DUP7 DUP6 ADD MLOAD DUP2 SSTORE ADD SWAP5 ADD SWAP3 ADD PUSH3 0x1FF7 JUMP JUMPDEST PUSH3 0x2090 SWAP1 PUSH1 0x5 DUP6 ADD DUP13 MSTORE PUSH1 0x20 DUP13 KECCAK256 PUSH1 0x1F DUP6 ADD PUSH1 0x5 SHR DUP2 ADD SWAP2 PUSH1 0x20 DUP7 LT PUSH3 0x2097 JUMPI JUMPDEST PUSH1 0x1F ADD PUSH1 0x5 SHR ADD SWAP1 PUSH3 0x2F2D JUMP JUMPDEST CODESIZE PUSH3 0x1F39 JUMP JUMPDEST SWAP1 SWAP2 POP DUP2 SWAP1 PUSH3 0x2082 JUMP JUMPDEST PUSH4 0x4E487B71 PUSH1 0xE0 SHL DUP11 MSTORE PUSH1 0x41 PUSH1 0x4 MSTORE PUSH1 0x24 DUP11 REVERT JUMPDEST SWAP2 SWAP1 PUSH1 0x4 DUP5 ADD DUP12 MSTORE PUSH1 0x20 DUP12 KECCAK256 SWAP1 DUP12 SWAP4 JUMPDEST PUSH1 0x1F NOT DUP5 AND DUP6 LT PUSH3 0x210E JUMPI PUSH1 0x1 SWAP5 POP DUP4 PUSH1 0x1F NOT DUP2 AND LT PUSH3 0x20F4 JUMPI JUMPDEST POP POP POP DUP2 SHL ADD PUSH1 0x4 DUP3 ADD SSTORE PUSH3 0x1F09 JUMP JUMPDEST ADD MLOAD PUSH1 0x0 NOT PUSH1 0xF8 DUP5 PUSH1 0x3 SHL AND SHR NOT AND SWAP1 SSTORE CODESIZE DUP1 DUP1 PUSH3 0x20E3 JUMP JUMPDEST DUP2 DUP2 ADD MLOAD DUP4 SSTORE PUSH1 0x20 SWAP5 DUP6 ADD SWAP5 PUSH1 0x1 SWAP1 SWAP4 ADD SWAP3 SWAP1 SWAP2 ADD SWAP1 PUSH3 0x20C6 JUMP JUMPDEST PUSH3 0x215A SWAP1 PUSH1 0x4 DUP6 ADD DUP13 MSTORE PUSH1 0x20 DUP13 KECCAK256 PUSH1 0x1F DUP6 ADD PUSH1 0x5 SHR DUP2 ADD SWAP2 PUSH1 0x20 DUP7 LT PUSH3 0x2097 JUMPI PUSH1 0x1F ADD PUSH1 0x5 SHR ADD SWAP1 PUSH3 0x2F2D JUMP JUMPDEST CODESIZE PUSH3 0x1ED0 JUMP JUMPDEST POP DUP6 SWAP3 DUP6 SWAP1 PUSH3 0x217C PUSH1 0x1 PUSH1 0x1 PUSH1 0xA0 SHL SUB DUP3 AND ISZERO ISZERO PUSH3 0x2EA8 JUMP JUMPDEST PUSH1 0x1 PUSH1 0x1 PUSH1 0xA0 SHL SUB DUP2 AND DUP6 MSTORE PUSH1 0x9 PUSH1 0x20 MSTORE PUSH1 0x40 DUP6 KECCAK256 PUSH1 0x15 ADD SLOAD PUSH1 0xFF DUP2 AND SWAP1 DUP2 PUSH3 0x25AD JUMPI JUMPDEST POP ISZERO PUSH3 0x2568 JUMPI PUSH1 0x6 SLOAD PUSH1 0x40 MLOAD PUSH4 0x70A08231 PUSH1 0xE0 SHL DUP1 DUP3 MSTORE ADDRESS PUSH1 0x4 DUP4 ADD MSTORE SWAP4 SWAP2 PUSH1 0x1 PUSH1 0x1 PUSH1 0xA0 SHL SUB SWAP1 DUP2 AND SWAP1 PUSH1 0x20 SWAP1 DUP4 SWAP1 PUSH1 0x24 SWAP1 DUP3 SWAP1 DUP9 AND GAS STATICCALL SWAP1 DUP2 ISZERO PUSH3 0x8E2 JUMPI DUP5 SWAP1 DUP10 SWAP3 PUSH3 0x2529 JUMPI JUMPDEST PUSH3 0x21F9 SWAP4 POP PUSH3 0x3A00 JUMP JUMPDEST ISZERO PUSH3 0x24F4 JUMPI PUSH1 0x6 SLOAD PUSH1 0x40 MLOAD PUSH4 0xC45A0155 PUSH1 0xE0 SHL DUP2 MSTORE DUP8 SWAP5 SWAP2 PUSH1 0x1 PUSH1 0x1 PUSH1 0xA0 SHL SUB AND PUSH1 0x20 DUP3 PUSH1 0x4 DUP2 DUP5 GAS STATICCALL SWAP2 DUP3 ISZERO PUSH3 0xAF2 JUMPI DUP7 SWAP3 PUSH3 0x24CA JUMPI JUMPDEST POP PUSH1 0x20 PUSH1 0x4 SWAP2 PUSH1 0x40 MLOAD SWAP3 DUP4 DUP1 SWAP3 PUSH4 0x15AB88C9 PUSH1 0xE3 SHL DUP3 MSTORE GAS STATICCALL SWAP1 DUP2 ISZERO PUSH3 0xAF2 JUMPI DUP7 SWAP3 PUSH1 0x20 SWAP3 PUSH3 0x229C SWAP3 DUP6 SWAP2 PUSH3 0x24A8 JUMPI JUMPDEST POP PUSH1 0x40 MLOAD PUSH4 0x64E329CB PUSH1 0xE1 SHL DUP2 MSTORE PUSH1 0x1 PUSH1 0x1 PUSH1 0xA0 SHL SUB DUP1 DUP11 AND PUSH1 0x4 DUP4 ADD MSTORE SWAP1 SWAP2 AND PUSH1 0x24 DUP3 ADD MSTORE SWAP4 DUP5 SWAP3 DUP4 SWAP2 SWAP1 DUP3 SWAP1 PUSH1 0x44 DUP3 ADD SWAP1 JUMP JUMPDEST SUB SWAP3 PUSH1 0x1 PUSH1 0x1 PUSH1 0xA0 SHL SUB AND GAS CALL SWAP1 DUP2 ISZERO PUSH3 0x154B JUMPI DUP6 SWAP2 PUSH3 0x2484 JUMPI JUMPDEST POP PUSH1 0x6 SLOAD PUSH1 0x40 MLOAD SWAP3 DUP4 MSTORE ADDRESS PUSH1 0x4 DUP5 ADD MSTORE SELFBALANCE SWAP3 PUSH1 0x1 PUSH1 0x1 PUSH1 0xA0 SHL SUB SWAP2 DUP3 AND SWAP2 PUSH1 0x20 SWAP1 DUP3 SWAP1 PUSH1 0x24 SWAP1 DUP3 SWAP1 DUP11 AND GAS STATICCALL SWAP1 DUP2 ISZERO PUSH3 0x2479 JUMPI DUP8 SWAP2 PUSH3 0x243B JUMPI JUMPDEST POP SWAP1 PUSH1 0xC4 PUSH1 0x60 SWAP3 PUSH1 0x40 MLOAD SWAP6 DUP7 SWAP4 DUP5 SWAP3 PUSH4 0xF305D719 PUSH1 0xE0 SHL DUP5 MSTORE PUSH1 0x1 DUP1 PUSH1 0xA0 SHL SUB DUP12 AND PUSH1 0x4 DUP6 ADD MSTORE PUSH1 0x24 DUP5 ADD MSTORE DUP11 PUSH1 0x44 DUP5 ADD MSTORE DUP11 PUSH1 0x64 DUP5 ADD MSTORE ADDRESS PUSH1 0x84 DUP5 ADD MSTORE TIMESTAMP PUSH1 0xA4 DUP5 ADD MSTORE GAS CALL SWAP2 DUP3 ISZERO PUSH3 0x154B JUMPI PUSH1 0x20 SWAP3 PUSH3 0x2417 JUMPI JUMPDEST POP PUSH1 0x6 SLOAD PUSH1 0x40 MLOAD PUSH4 0x95EA7B3 PUSH1 0xE0 SHL DUP2 MSTORE PUSH1 0x1 PUSH1 0x1 PUSH1 0xA0 SHL SUB SWAP2 DUP3 AND PUSH1 0x4 DUP3 ADD MSTORE PUSH1 0x0 NOT PUSH1 0x24 DUP3 ADD MSTORE SWAP6 DUP7 SWAP3 PUSH1 0x44 SWAP3 DUP5 SWAP3 SWAP2 AND GAS CALL DUP1 ISZERO PUSH3 0xAF2 JUMPI PUSH32 0x540BCEC33387745B2CED30977DCFE4A623A245511EB0A133989C27C8BB95B4A9 SWAP5 PUSH1 0x40 SWAP5 PUSH1 0x15 SWAP3 PUSH3 0x23E1 JUMPI JUMPDEST POP ADD DUP1 SLOAD PUSH2 0xFFFF NOT AND PUSH2 0x100 OR SWAP1 SSTORE DUP3 MLOAD SWAP5 DUP6 MSTORE PUSH1 0x20 DUP6 ADD MSTORE PUSH1 0x1 PUSH1 0x1 PUSH1 0xA0 SHL SUB AND SWAP3 LOG2 PUSH1 0x1 DUP2 SSTORE DUP1 RETURN JUMPDEST PUSH3 0x2407 SWAP1 PUSH1 0x20 RETURNDATASIZE PUSH1 0x20 GT PUSH3 0x240F JUMPI JUMPDEST PUSH3 0x23FE DUP2 DUP4 PUSH3 0x2938 JUMP JUMPDEST DUP2 ADD SWAP1 PUSH3 0x39E6 JUMP JUMPDEST POP DUP9 PUSH3 0x23B6 JUMP JUMPDEST POP RETURNDATASIZE PUSH3 0x23F2 JUMP JUMPDEST PUSH3 0x2433 SWAP1 PUSH1 0x60 RETURNDATASIZE PUSH1 0x60 GT PUSH3 0x1596 JUMPI PUSH3 0x157E DUP2 DUP4 PUSH3 0x2938 JUMP JUMPDEST POP POP PUSH3 0x234C JUMP JUMPDEST SWAP2 SWAP7 POP POP PUSH1 0x20 DUP2 RETURNDATASIZE PUSH1 0x20 GT PUSH3 0x2470 JUMPI JUMPDEST DUP2 PUSH3 0x245B PUSH1 0x20 SWAP4 DUP4 PUSH3 0x2938 JUMP JUMPDEST DUP2 ADD SUB SLT PUSH3 0x8D4 JUMPI MLOAD DUP9 SWAP6 SWAP1 PUSH1 0xC4 PUSH3 0x22F5 JUMP JUMPDEST RETURNDATASIZE SWAP2 POP PUSH3 0x244C JUMP JUMPDEST PUSH1 0x40 MLOAD RETURNDATASIZE DUP10 DUP3 RETURNDATACOPY RETURNDATASIZE SWAP1 REVERT JUMPDEST PUSH3 0x24A1 SWAP2 POP PUSH1 0x20 RETURNDATASIZE PUSH1 0x20 GT PUSH3 0xAC8 JUMPI PUSH3 0xAB7 DUP2 DUP4 PUSH3 0x2938 JUMP JUMPDEST DUP9 PUSH3 0x22B9 JUMP JUMPDEST PUSH3 0x24C3 SWAP2 POP DUP5 RETURNDATASIZE DUP7 GT PUSH3 0xAC8 JUMPI PUSH3 0xAB7 DUP2 DUP4 PUSH3 0x2938 JUMP JUMPDEST DUP13 PUSH3 0x2267 JUMP JUMPDEST PUSH1 0x4 SWAP2 SWAP3 POP PUSH3 0x24EB PUSH1 0x20 SWAP2 DUP3 RETURNDATASIZE DUP5 GT PUSH3 0xAC8 JUMPI PUSH3 0xAB7 DUP2 DUP4 PUSH3 0x2938 JUMP JUMPDEST SWAP3 SWAP2 POP PUSH3 0x2234 JUMP JUMPDEST PUSH1 0x40 MLOAD PUSH3 0x461BCD PUSH1 0xE5 SHL DUP2 MSTORE PUSH1 0x20 PUSH1 0x4 DUP3 ADD MSTORE PUSH1 0xD PUSH1 0x24 DUP3 ADD MSTORE PUSH13 0x2737BA1030B8383937BB32B217 PUSH1 0x99 SHL PUSH1 0x44 DUP3 ADD MSTORE PUSH1 0x64 SWAP1 REVERT JUMPDEST SWAP2 POP POP PUSH1 0x20 DUP3 RETURNDATASIZE PUSH1 0x20 GT PUSH3 0x255F JUMPI JUMPDEST DUP2 PUSH3 0x2548 PUSH1 0x20 SWAP4 DUP4 PUSH3 0x2938 JUMP JUMPDEST DUP2 ADD SUB SLT PUSH3 0x8D4 JUMPI DUP4 PUSH3 0x21F9 SWAP3 MLOAD SWAP2 PUSH3 0x21ED JUMP JUMPDEST RETURNDATASIZE SWAP2 POP PUSH3 0x2539 JUMP JUMPDEST PUSH1 0x40 MLOAD PUSH3 0x461BCD PUSH1 0xE5 SHL DUP2 MSTORE PUSH1 0x20 PUSH1 0x4 DUP3 ADD MSTORE PUSH1 0x17 PUSH1 0x24 DUP3 ADD MSTORE PUSH32 0x74726164696E6720697320616C7265616479206F70656E000000000000000000 PUSH1 0x44 DUP3 ADD MSTORE PUSH1 0x64 SWAP1 REVERT JUMPDEST PUSH1 0xFF SWAP2 POP PUSH1 0x8 SHR AND ISZERO DUP7 PUSH3 0x21A1 JUMP JUMPDEST SWAP2 SWAP1 PUSH1 0x5 DUP5 ADD DUP10 MSTORE PUSH1 0x20 DUP10 KECCAK256 SWAP1 DUP10 SWAP4 JUMPDEST PUSH1 0x1F NOT DUP5 AND DUP6 LT PUSH3 0x2615 JUMPI PUSH1 0x1 SWAP5 POP DUP4 PUSH1 0x1F NOT DUP2 AND LT PUSH3 0x25FB JUMPI JUMPDEST POP POP POP DUP2 SHL ADD PUSH1 0x5 DUP3 ADD SSTORE PUSH3 0x1DDD JUMP JUMPDEST ADD MLOAD PUSH1 0x0 NOT PUSH1 0xF8 DUP5 PUSH1 0x3 SHL AND SHR NOT AND SWAP1 SSTORE CODESIZE DUP1 DUP1 PUSH3 0x25EA JUMP JUMPDEST DUP2 DUP2 ADD MLOAD DUP4 SSTORE PUSH1 0x20 SWAP5 DUP6 ADD SWAP5 PUSH1 0x1 SWAP1 SWAP4 ADD SWAP3 SWAP1 SWAP2 ADD SWAP1 PUSH3 0x25CD JUMP JUMPDEST PUSH3 0x2661 SWAP1 PUSH1 0x5 DUP6 ADD DUP11 MSTORE PUSH1 0x20 DUP11 KECCAK256 PUSH1 0x1F DUP6 ADD PUSH1 0x5 SHR DUP2 ADD SWAP2 PUSH1 0x20 DUP7 LT PUSH3 0x2097 JUMPI PUSH1 0x1F ADD PUSH1 0x5 SHR ADD SWAP1 PUSH3 0x2F2D JUMP JUMPDEST CODESIZE PUSH3 0x1DA4 JUMP JUMPDEST PUSH4 0x4E487B71 PUSH1 0xE0 SHL DUP9 MSTORE PUSH1 0x41 PUSH1 0x4 MSTORE PUSH1 0x24 DUP9 REVERT JUMPDEST SWAP2 SWAP1 PUSH1 0x4 DUP5 ADD DUP10 MSTORE PUSH1 0x20 DUP10 KECCAK256 SWAP1 DUP10 SWAP4 JUMPDEST PUSH1 0x1F NOT DUP5 AND DUP6 LT PUSH3 0x26D4 JUMPI PUSH1 0x1 SWAP5 POP DUP4 PUSH1 0x1F NOT DUP2 AND LT PUSH3 0x26BA JUMPI JUMPDEST POP POP POP DUP2 SHL ADD PUSH1 0x4 DUP3 ADD SSTORE PUSH3 0x1D74 JUMP JUMPDEST ADD MLOAD PUSH1 0x0 NOT PUSH1 0xF8 DUP5 PUSH1 0x3 SHL AND SHR NOT AND SWAP1 SSTORE CODESIZE DUP1 DUP1 PUSH3 0x26A9 JUMP JUMPDEST DUP2 DUP2 ADD MLOAD DUP4 SSTORE PUSH1 0x20 SWAP5 DUP6 ADD SWAP5 PUSH1 0x1 SWAP1 SWAP4 ADD SWAP3 SWAP1 SWAP2 ADD SWAP1 PUSH3 0x268C JUMP JUMPDEST PUSH3 0x2720 SWAP1 PUSH1 0x4 DUP6 ADD DUP11 MSTORE PUSH1 0x20 DUP11 KECCAK256 PUSH1 0x1F DUP6 ADD PUSH1 0x5 SHR DUP2 ADD SWAP2 PUSH1 0x20 DUP7 LT PUSH3 0x2097 JUMPI PUSH1 0x1F ADD PUSH1 0x5 SHR ADD SWAP1 PUSH3 0x2F2D JUMP JUMPDEST CODESIZE PUSH3 0x1D3A JUMP JUMPDEST SWAP1 POP PUSH3 0x2747 SWAP2 SWAP4 POP PUSH1 0x40 RETURNDATASIZE PUSH1 0x40 GT PUSH3 0xA15 JUMPI PUSH3 0xA05 DUP2 DUP4 PUSH3 0x2938 JUMP JUMPDEST SWAP3 SWAP1 CODESIZE PUSH3 0x1C55 JUMP JUMPDEST PUSH1 0x40 MLOAD RETURNDATASIZE DUP7 DUP3 RETURNDATACOPY RETURNDATASIZE SWAP1 REVERT JUMPDEST PUSH1 0x1 PUSH1 0x1 PUSH1 0x40 SHL SUB DUP2 GT PUSH3 0x2774 JUMPI PUSH1 0x40 MSTORE CODESIZE PUSH3 0x1BF4 JUMP JUMPDEST PUSH4 0x4E487B71 PUSH1 0xE0 SHL DUP3 MSTORE PUSH1 0x41 PUSH1 0x4 MSTORE PUSH1 0x24 DUP3 REVERT JUMPDEST PUSH1 0x40 MLOAD RETURNDATASIZE DUP5 DUP3 RETURNDATACOPY RETURNDATASIZE SWAP1 REVERT JUMPDEST PUSH3 0x27B0 SWAP2 POP PUSH1 0x20 RETURNDATASIZE PUSH1 0x20 GT PUSH3 0xAC8 JUMPI PUSH3 0xAB7 DUP2 DUP4 PUSH3 0x2938 JUMP JUMPDEST CODESIZE PUSH3 0x1BA8 JUMP JUMPDEST PUSH3 0x27D2 SWAP2 POP DUP3 RETURNDATASIZE DUP5 GT PUSH3 0xAC8 JUMPI PUSH3 0xAB7 DUP2 DUP4 PUSH3 0x2938 JUMP JUMPDEST CODESIZE PUSH3 0x1B59 JUMP JUMPDEST POP CALLVALUE PUSH3 0x15D JUMPI DUP1 PUSH1 0x3 NOT CALLDATASIZE ADD SLT PUSH3 0x15D JUMPI PUSH1 0x1 SLOAD PUSH1 0x40 MLOAD PUSH1 0x1 PUSH1 0x1 PUSH1 0xA0 SHL SUB SWAP1 SWAP2 AND DUP2 MSTORE PUSH1 0x20 SWAP1 RETURN JUMPDEST SWAP1 POP CALLVALUE PUSH3 0x1AC1 JUMPI DUP2 PUSH1 0x3 NOT CALLDATASIZE ADD SLT PUSH3 0x1AC1 JUMPI PUSH1 0x4 SLOAD PUSH1 0x1 PUSH1 0x1 PUSH1 0xA0 SHL SUB AND DUP2 MSTORE PUSH1 0x20 SWAP1 RETURN JUMPDEST PUSH1 0x4 CALLDATALOAD SWAP1 PUSH1 0x1 PUSH1 0x1 PUSH1 0xA0 SHL SUB DUP3 AND DUP3 SUB PUSH3 0x8D4 JUMPI JUMP JUMPDEST PUSH1 0x24 CALLDATALOAD SWAP1 PUSH1 0x1 PUSH1 0x1 PUSH1 0xA0 SHL SUB DUP3 AND DUP3 SUB PUSH3 0x8D4 JUMPI JUMP JUMPDEST PUSH1 0x44 CALLDATALOAD SWAP1 PUSH1 0x1 PUSH1 0x1 PUSH1 0xA0 SHL SUB DUP3 AND DUP3 SUB PUSH3 0x8D4 JUMPI JUMP JUMPDEST PUSH1 0xA SLOAD DUP2 LT ISZERO PUSH3 0x28AC JUMPI PUSH1 0x16 SWAP1 PUSH1 0xA PUSH1 0x0 MSTORE MUL PUSH32 0xC65A7BB8D6351C1CF70C95A316CC6A92839C986682D98BC35F958F4883F9D2A8 ADD SWAP1 PUSH1 0x0 SWAP1 JUMP JUMPDEST PUSH4 0x4E487B71 PUSH1 0xE0 SHL PUSH1 0x0 MSTORE PUSH1 0x32 PUSH1 0x4 MSTORE PUSH1 0x24 PUSH1 0x0 REVERT JUMPDEST SWAP1 PUSH1 0x1 DUP3 DUP2 SHR SWAP3 AND DUP1 ISZERO PUSH3 0x28F4 JUMPI JUMPDEST PUSH1 0x20 DUP4 LT EQ PUSH3 0x28DE JUMPI JUMP JUMPDEST PUSH4 0x4E487B71 PUSH1 0xE0 SHL PUSH1 0x0 MSTORE PUSH1 0x22 PUSH1 0x4 MSTORE PUSH1 0x24 PUSH1 0x0 REVERT JUMPDEST SWAP2 PUSH1 0x7F AND SWAP2 PUSH3 0x28D2 JUMP JUMPDEST PUSH2 0x180 DUP2 ADD SWAP1 DUP2 LT PUSH1 0x1 PUSH1 0x1 PUSH1 0x40 SHL SUB DUP3 GT OR PUSH3 0x87D JUMPI PUSH1 0x40 MSTORE JUMP JUMPDEST PUSH1 0x40 DUP2 ADD SWAP1 DUP2 LT PUSH1 0x1 PUSH1 0x1 PUSH1 0x40 SHL SUB DUP3 GT OR PUSH3 0x87D JUMPI PUSH1 0x40 MSTORE JUMP JUMPDEST SWAP1 PUSH1 0x1F DUP1 NOT SWAP2 ADD AND DUP2 ADD SWAP1 DUP2 LT PUSH1 0x1 PUSH1 0x1 PUSH1 0x40 SHL SUB DUP3 GT OR PUSH3 0x87D JUMPI PUSH1 0x40 MSTORE JUMP JUMPDEST SWAP1 PUSH1 0x40 MLOAD SWAP2 DUP3 PUSH1 0x0 DUP3 SLOAD PUSH3 0x296F DUP2 PUSH3 0x28C2 JUMP JUMPDEST SWAP1 DUP2 DUP5 MSTORE PUSH1 0x20 SWAP5 PUSH1 0x1 SWAP2 PUSH1 0x1 DUP2 AND SWAP1 DUP2 PUSH1 0x0 EQ PUSH3 0x29E7 JUMPI POP PUSH1 0x1 EQ PUSH3 0x29A4 JUMPI JUMPDEST POP POP POP PUSH3 0x29A2 SWAP3 POP SUB DUP4 PUSH3 0x2938 JUMP JUMPDEST JUMP JUMPDEST PUSH1 0x0 SWAP1 DUP2 MSTORE DUP6 DUP2 KECCAK256 SWAP6 SWAP4 POP SWAP2 SWAP1 JUMPDEST DUP2 DUP4 LT PUSH3 0x29CE JUMPI POP POP PUSH3 0x29A2 SWAP4 POP DUP3 ADD ADD CODESIZE DUP1 DUP1 PUSH3 0x2991 JUMP JUMPDEST DUP6 SLOAD DUP9 DUP5 ADD DUP6 ADD MSTORE SWAP5 DUP6 ADD SWAP5 DUP8 SWAP5 POP SWAP2 DUP4 ADD SWAP2 PUSH3 0x29B2 JUMP JUMPDEST SWAP3 POP POP POP PUSH3 0x29A2 SWAP5 SWAP3 POP PUSH1 0xFF NOT AND DUP3 DUP5 ADD MSTORE ISZERO ISZERO PUSH1 0x5 SHL DUP3 ADD ADD CODESIZE DUP1 DUP1 PUSH3 0x2991 JUMP JUMPDEST SWAP1 PUSH1 0x40 MLOAD PUSH3 0x2A1A DUP2 PUSH3 0x28FF JUMP JUMPDEST DUP3 SLOAD PUSH1 0x1 PUSH1 0x1 PUSH1 0xA0 SHL SUB AND DUP2 MSTORE SWAP2 DUP3 SWAP1 PUSH2 0x160 SWAP1 PUSH1 0xB SWAP1 PUSH3 0x2A3F PUSH1 0x1 DUP3 ADD PUSH3 0x295A JUMP JUMPDEST PUSH1 0x20 DUP6 ADD MSTORE PUSH3 0x2A52 PUSH1 0x2 DUP3 ADD PUSH3 0x295A JUMP JUMPDEST PUSH1 0x40 DUP6 ADD MSTORE PUSH1 0x3 DUP2 ADD SLOAD PUSH1 0x60 DUP6 ADD MSTORE PUSH1 0x4 DUP2 ADD SLOAD PUSH1 0x80 DUP6 ADD MSTORE PUSH1 0x5 DUP2 ADD SLOAD PUSH1 0xA0 DUP6 ADD MSTORE PUSH1 0x6 DUP2 ADD SLOAD PUSH1 0xC0 DUP6 ADD MSTORE PUSH1 0x7 DUP2 ADD SLOAD PUSH1 0xE0 DUP6 ADD MSTORE PUSH1 0x8 DUP2 ADD SLOAD PUSH2 0x100 DUP6 ADD MSTORE PUSH1 0x9 DUP2 ADD SLOAD PUSH2 0x120 DUP6 ADD MSTORE PUSH1 0xA DUP2 ADD SLOAD PUSH2 0x140 DUP6 ADD MSTORE ADD SLOAD SWAP2 ADD MSTORE JUMP JUMPDEST SWAP2 SWAP1 DUP3 MLOAD SWAP3 DUP4 DUP3 MSTORE PUSH1 0x0 JUMPDEST DUP5 DUP2 LT PUSH3 0x2ADE JUMPI POP POP DUP3 PUSH1 0x0 PUSH1 0x20 DUP1 SWAP5 SWAP6 DUP5 ADD ADD MSTORE PUSH1 0x1F DUP1 NOT SWAP2 ADD AND ADD ADD SWAP1 JUMP JUMPDEST PUSH1 0x20 DUP2 DUP4 ADD DUP2 ADD MLOAD DUP5 DUP4 ADD DUP3 ADD MSTORE ADD PUSH3 0x2ABC JUMP JUMPDEST SWAP1 PUSH3 0x2B33 PUSH3 0x2B20 PUSH2 0x180 PUSH1 0x1 DUP1 PUSH1 0xA0 SHL SUB DUP6 MLOAD AND DUP5 MSTORE PUSH1 0x20 DUP6 ADD MLOAD SWAP1 DUP1 PUSH1 0x20 DUP7 ADD MSTORE DUP5 ADD SWAP1 PUSH3 0x2AB1 JUMP JUMPDEST PUSH1 0x40 DUP5 ADD MLOAD DUP4 DUP3 SUB PUSH1 0x40 DUP6 ADD MSTORE PUSH3 0x2AB1 JUMP JUMPDEST SWAP2 PUSH1 0x60 DUP2 ADD MLOAD PUSH1 0x60 DUP4 ADD MSTORE PUSH1 0x80 DUP2 ADD MLOAD PUSH1 0x80 DUP4 ADD MSTORE PUSH1 0xA0 DUP2 ADD MLOAD PUSH1 0xA0 DUP4 ADD MSTORE PUSH1 0xC0 DUP2 ADD MLOAD PUSH1 0xC0 DUP4 ADD MSTORE PUSH1 0xE0 DUP2 ADD MLOAD PUSH1 0xE0 DUP4 ADD MSTORE PUSH2 0x100 DUP1 DUP3 ADD MLOAD SWAP1 DUP4 ADD MSTORE PUSH2 0x120 DUP1 DUP3 ADD MLOAD SWAP1 DUP4 ADD MSTORE PUSH2 0x140 DUP1 DUP3 ADD MLOAD SWAP1 DUP4 ADD MSTORE PUSH2 0x160 DUP1 SWAP2 ADD MLOAD SWAP2 ADD MSTORE SWAP1 JUMP JUMPDEST SWAP11 SWAP13 SWAP12 SWAP9 SWAP5 PUSH3 0x2C3D SWAP7 PUSH3 0x2C00 DUP14 PUSH3 0x2C0F SWAP4 PUSH3 0x2BF1 PUSH2 0x160 SWAP16 SWAP13 SWAP7 SWAP10 PUSH3 0x2C2D SWAP11 PUSH3 0x2C4D SWAP16 SWAP11 SWAP10 PUSH3 0x2C1E SWAP11 PUSH2 0x180 SWAP3 PUSH1 0x1 DUP1 PUSH1 0xA0 SHL SUB SWAP3 DUP4 DUP1 SWAP3 AND DUP10 MSTORE AND PUSH1 0x20 DUP9 ADD MSTORE AND PUSH1 0x40 DUP7 ADD MSTORE DUP1 PUSH1 0x60 DUP7 ADD MSTORE DUP5 ADD SWAP1 PUSH3 0x2AF3 JUMP JUMPDEST SWAP2 PUSH1 0x80 DUP2 DUP5 SUB SWAP2 ADD MSTORE PUSH3 0x2AB1 JUMP JUMPDEST DUP14 DUP2 SUB PUSH1 0xA0 DUP16 ADD MSTORE SWAP1 PUSH3 0x2AB1 JUMP JUMPDEST SWAP1 DUP12 DUP3 SUB PUSH1 0xC0 DUP14 ADD MSTORE PUSH3 0x2AB1 JUMP JUMPDEST SWAP1 DUP10 DUP3 SUB PUSH1 0xE0 DUP12 ADD MSTORE PUSH3 0x2AB1 JUMP JUMPDEST SWAP1 DUP8 DUP3 SUB PUSH2 0x100 DUP10 ADD MSTORE PUSH3 0x2AB1 JUMP JUMPDEST SWAP1 DUP6 DUP3 SUB PUSH2 0x120 DUP8 ADD MSTORE PUSH3 0x2AB1 JUMP JUMPDEST SWAP5 ISZERO ISZERO PUSH2 0x140 DUP5 ADD MSTORE ISZERO ISZERO SWAP2 ADD MSTORE JUMP JUMPDEST PUSH1 0x20 DUP1 DUP3 ADD SWAP1 DUP1 DUP4 MSTORE DUP4 MLOAD DUP1 SWAP3 MSTORE PUSH1 0x40 SWAP3 PUSH1 0x40 DUP2 ADD DUP3 PUSH1 0x40 DUP6 PUSH1 0x5 SHL DUP5 ADD ADD SWAP7 ADD SWAP5 PUSH1 0x0 SWAP3 JUMPDEST DUP6 DUP5 LT PUSH3 0x2C95 JUMPI POP POP POP POP POP POP POP SWAP1 JUMP JUMPDEST SWAP1 SWAP2 SWAP3 SWAP4 SWAP5 SWAP6 SWAP7 DUP6 DUP1 PUSH1 0x1 SWAP3 PUSH1 0x3F NOT DUP6 DUP3 SUB ADD DUP8 MSTORE DUP11 MLOAD SWAP1 PUSH3 0x2D7C PUSH3 0x2D67 PUSH3 0x2D52 PUSH3 0x2D3E PUSH3 0x2D2A PUSH3 0x2D16 PUSH3 0x2D02 DUP14 PUSH2 0x180 SWAP1 DUP14 DUP1 PUSH1 0xA0 SHL SUB DUP1 DUP13 MLOAD AND DUP12 MSTORE DUP1 DUP14 DUP14 ADD MLOAD AND DUP14 DUP13 ADD MSTORE DUP2 DUP13 ADD MLOAD AND SWAP1 DUP11 ADD MSTORE PUSH1 0x60 SWAP1 DUP1 DUP3 DUP13 ADD MLOAD SWAP3 DUP12 ADD MSTORE DUP10 ADD SWAP1 PUSH3 0x2AF3 JUMP JUMPDEST PUSH1 0x80 DUP1 DUP11 ADD MLOAD SWAP1 DUP10 DUP4 SUB SWAP1 DUP11 ADD MSTORE PUSH3 0x2AB1 JUMP JUMPDEST PUSH1 0xA0 DUP1 DUP10 ADD MLOAD SWAP1 DUP9 DUP4 SUB SWAP1 DUP10 ADD MSTORE PUSH3 0x2AB1 JUMP JUMPDEST PUSH1 0xC0 DUP1 DUP9 ADD MLOAD SWAP1 DUP8 DUP4 SUB SWAP1 DUP9 ADD MSTORE PUSH3 0x2AB1 JUMP JUMPDEST PUSH1 0xE0 DUP1 DUP8 ADD MLOAD SWAP1 DUP7 DUP4 SUB SWAP1 DUP8 ADD MSTORE PUSH3 0x2AB1 JUMP JUMPDEST PUSH2 0x100 DUP1 DUP7 ADD MLOAD SWAP1 DUP6 DUP4 SUB SWAP1 DUP7 ADD MSTORE PUSH3 0x2AB1 JUMP JUMPDEST PUSH2 0x120 DUP1 DUP6 ADD MLOAD SWAP1 DUP5 DUP4 SUB SWAP1 DUP6 ADD MSTORE PUSH3 0x2AB1 JUMP JUMPDEST SWAP2 PUSH2 0x140 DUP1 DUP3 ADD MLOAD ISZERO ISZERO SWAP1 DUP4 ADD MSTORE PUSH2 0x160 DUP1 SWAP2 ADD MLOAD ISZERO ISZERO SWAP2 ADD MSTORE SWAP10 ADD SWAP5 ADD SWAP5 ADD SWAP3 SWAP6 SWAP5 SWAP4 SWAP2 SWAP1 PUSH3 0x2C83 JUMP JUMPDEST PUSH1 0x1 PUSH1 0x1 PUSH1 0x40 SHL SUB DUP2 GT PUSH3 0x87D JUMPI PUSH1 0x1F ADD PUSH1 0x1F NOT AND PUSH1 0x20 ADD SWAP1 JUMP JUMPDEST DUP2 PUSH1 0x1F DUP3 ADD SLT ISZERO PUSH3 0x8D4 JUMPI DUP1 CALLDATALOAD SWAP1 PUSH3 0x2DDE DUP3 PUSH3 0x2DA8 JUMP JUMPDEST SWAP3 PUSH3 0x2DEE PUSH1 0x40 MLOAD SWAP5 DUP6 PUSH3 0x2938 JUMP JUMPDEST DUP3 DUP5 MSTORE PUSH1 0x20 DUP4 DUP4 ADD ADD GT PUSH3 0x8D4 JUMPI DUP2 PUSH1 0x0 SWAP3 PUSH1 0x20 DUP1 SWAP4 ADD DUP4 DUP7 ADD CALLDATACOPY DUP4 ADD ADD MSTORE SWAP1 JUMP JUMPDEST PUSH1 0x8 SLOAD DUP2 LT ISZERO PUSH3 0x28AC JUMPI PUSH1 0x8 PUSH1 0x0 MSTORE PUSH1 0x1 SHL PUSH32 0xF3F7A9FE364FAAB93B216DA50A3214154F22A0A2B415B23A84C8169E8B636EE3 ADD SWAP1 PUSH1 0x0 SWAP1 JUMP JUMPDEST ISZERO PUSH3 0x2E54 JUMPI JUMP JUMPDEST PUSH1 0x40 MLOAD PUSH3 0x461BCD PUSH1 0xE5 SHL DUP2 MSTORE PUSH1 0x20 PUSH1 0x4 DUP3 ADD MSTORE PUSH1 0x26 PUSH1 0x24 DUP3 ADD MSTORE PUSH32 0x4F6E6C7920746865206F776E65722063616E2063616C6C20746869732066756E PUSH1 0x44 DUP3 ADD MSTORE PUSH6 0x31BA34B7B717 PUSH1 0xD1 SHL PUSH1 0x64 DUP3 ADD MSTORE PUSH1 0x84 SWAP1 REVERT JUMPDEST ISZERO PUSH3 0x2EB0 JUMPI JUMP JUMPDEST PUSH1 0x40 MLOAD PUSH3 0x461BCD PUSH1 0xE5 SHL DUP2 MSTORE PUSH1 0x20 PUSH1 0x4 DUP3 ADD MSTORE PUSH1 0x1F PUSH1 0x24 DUP3 ADD MSTORE PUSH32 0x5A65726F2061646472657373657320617265206E6F7420616C6C6F7765642E00 PUSH1 0x44 DUP3 ADD MSTORE PUSH1 0x64 SWAP1 REVERT JUMPDEST SWAP1 DUP2 PUSH1 0x20 SWAP2 SUB SLT PUSH3 0x8D4 JUMPI MLOAD PUSH1 0x1 PUSH1 0x1 PUSH1 0xA0 SHL SUB DUP2 AND DUP2 SUB PUSH3 0x8D4 JUMPI SWAP1 JUMP JUMPDEST SWAP2 SWAP1 DUP3 PUSH1 0x40 SWAP2 SUB SLT PUSH3 0x8D4 JUMPI PUSH1 0x20 DUP3 MLOAD SWAP3 ADD MLOAD SWAP1 JUMP JUMPDEST DUP2 DUP2 LT PUSH3 0x2F39 JUMPI POP POP JUMP JUMPDEST PUSH1 0x0 DUP2 SSTORE PUSH1 0x1 ADD PUSH3 0x2F2D JUMP JUMPDEST SWAP1 DUP2 PUSH1 0x60 SWAP2 SUB SLT PUSH3 0x8D4 JUMPI DUP1 MLOAD SWAP2 PUSH1 0x40 PUSH1 0x20 DUP4 ADD MLOAD SWAP3 ADD MLOAD SWAP1 JUMP JUMPDEST SWAP2 SWAP1 DUP3 ADD DUP1 SWAP3 GT PUSH3 0x2F70 JUMPI JUMP JUMPDEST PUSH4 0x4E487B71 PUSH1 0xE0 SHL PUSH1 0x0 MSTORE PUSH1 0x11 PUSH1 0x4 MSTORE PUSH1 0x24 PUSH1 0x0 REVERT JUMPDEST SWAP2 SWAP1 DUP3 SUB SWAP2 DUP3 GT PUSH3 0x2F70 JUMPI JUMP JUMPDEST DUP2 DUP2 MUL SWAP3 SWAP2 DUP2 ISZERO SWAP2 DUP5 DIV EQ OR ISZERO PUSH3 0x2F70 JUMPI JUMP JUMPDEST DUP2 ISZERO PUSH3 0x2FB3 JUMPI DIV SWAP1 JUMP JUMPDEST PUSH4 0x4E487B71 PUSH1 0xE0 SHL PUSH1 0x0 MSTORE PUSH1 0x12 PUSH1 0x4 MSTORE PUSH1 0x24 PUSH1 0x0 REVERT JUMPDEST SWAP1 PUSH1 0x1 DUP1 PUSH1 0xA0 SHL SUB SWAP1 DUP2 DUP2 MLOAD AND PUSH1 0x1 PUSH1 0x1 PUSH1 0x60 SHL SUB PUSH1 0xA0 SHL SWAP1 DUP2 DUP6 SLOAD AND OR DUP5 SSTORE PUSH1 0x1 DUP5 ADD DUP4 PUSH1 0x20 DUP5 ADD MLOAD AND DUP3 DUP3 SLOAD AND OR SWAP1 SSTORE PUSH1 0x2 DUP5 ADD DUP4 PUSH1 0x40 DUP5 ADD MLOAD AND DUP3 DUP3 SLOAD AND OR SWAP1 SSTORE PUSH1 0x3 DUP5 ADD SWAP1 PUSH1 0x60 DUP4 ADD MLOAD SWAP4 DUP5 MLOAD AND SWAP1 DUP3 SLOAD AND OR SWAP1 SSTORE PUSH1 0x4 SWAP3 DUP4 DUP2 ADD PUSH1 0x20 DUP5 ADD MLOAD DUP1 MLOAD SWAP1 PUSH1 0x1 PUSH1 0x1 PUSH1 0x40 SHL SUB DUP3 GT PUSH3 0x3976 JUMPI PUSH3 0x304B DUP4 SLOAD PUSH3 0x28C2 JUMP JUMPDEST PUSH1 0x1F DUP2 GT PUSH3 0x3940 JUMPI JUMPDEST POP PUSH1 0x20 SWAP1 PUSH1 0x1F DUP4 GT PUSH1 0x1 EQ PUSH3 0x38D3 JUMPI PUSH3 0x3089 SWAP3 SWAP2 PUSH1 0x0 SWAP2 DUP4 PUSH3 0x1FDD JUMPI POP POP DUP2 PUSH1 0x1 SHL SWAP2 PUSH1 0x0 NOT SWAP1 PUSH1 0x3 SHL SHR NOT AND OR SWAP1 JUMP JUMPDEST SWAP1 SSTORE JUMPDEST PUSH1 0x40 DUP4 ADD MLOAD DUP1 MLOAD SWAP1 PUSH1 0x1 PUSH1 0x1 PUSH1 0x40 SHL SUB DUP3 GT PUSH3 0x38BE JUMPI PUSH3 0x30B2 PUSH1 0x5 DUP5 ADD SLOAD PUSH3 0x28C2 JUMP JUMPDEST PUSH1 0x1F DUP2 GT PUSH3 0x3885 JUMPI JUMPDEST POP PUSH1 0x20 SWAP1 PUSH1 0x1F DUP4 GT PUSH1 0x1 EQ PUSH3 0x380E JUMPI PUSH3 0x30F0 SWAP3 SWAP2 PUSH1 0x0 SWAP2 DUP4 PUSH3 0x1FDD JUMPI POP POP DUP2 PUSH1 0x1 SHL SWAP2 PUSH1 0x0 NOT SWAP1 PUSH1 0x3 SHL SHR NOT AND OR SWAP1 JUMP JUMPDEST PUSH1 0x5 DUP3 ADD SSTORE JUMPDEST PUSH1 0x60 DUP4 ADD MLOAD PUSH1 0x6 DUP3 ADD SSTORE PUSH1 0x80 DUP4 ADD MLOAD PUSH1 0x7 DUP3 ADD SSTORE PUSH1 0xA0 DUP4 ADD MLOAD PUSH1 0x8 DUP3 ADD SSTORE PUSH1 0xC0 DUP4 ADD MLOAD PUSH1 0x9 DUP3 ADD SSTORE PUSH1 0xE0 DUP4 ADD MLOAD PUSH1 0xA DUP3 ADD SSTORE PUSH2 0x100 SWAP4 DUP5 DUP5 ADD MLOAD PUSH1 0xB DUP4 ADD SSTORE PUSH2 0x120 SWAP1 DUP2 DUP6 ADD MLOAD PUSH1 0xC DUP5 ADD SSTORE PUSH2 0x140 SWAP6 DUP7 DUP7 ADD MLOAD PUSH1 0xD DUP6 ADD SSTORE PUSH2 0x160 DUP1 SWAP7 ADD MLOAD PUSH1 0xE DUP6 ADD SSTORE PUSH1 0xF DUP5 ADD PUSH1 0x80 DUP7 ADD MLOAD DUP1 MLOAD SWAP1 PUSH1 0x1 PUSH1 0x1 PUSH1 0x40 SHL SUB DUP3 GT PUSH3 0x3610 JUMPI PUSH3 0x3182 DUP4 SLOAD PUSH3 0x28C2 JUMP JUMPDEST PUSH1 0x1F DUP2 GT PUSH3 0x37D8 JUMPI JUMPDEST POP PUSH1 0x20 SWAP1 PUSH1 0x1F DUP4 GT PUSH1 0x1 EQ PUSH3 0x376B JUMPI PUSH3 0x31C0 SWAP3 SWAP2 PUSH1 0x0 SWAP2 DUP4 PUSH3 0x1FDD JUMPI POP POP DUP2 PUSH1 0x1 SHL SWAP2 PUSH1 0x0 NOT SWAP1 PUSH1 0x3 SHL SHR NOT AND OR SWAP1 JUMP JUMPDEST SWAP1 SSTORE JUMPDEST PUSH1 0x10 DUP5 ADD PUSH1 0xA0 DUP7 ADD MLOAD DUP1 MLOAD SWAP1 PUSH1 0x1 PUSH1 0x1 PUSH1 0x40 SHL SUB DUP3 GT PUSH3 0x3610 JUMPI PUSH3 0x31EA DUP4 SLOAD PUSH3 0x28C2 JUMP JUMPDEST PUSH1 0x1F DUP2 GT PUSH3 0x3735 JUMPI JUMPDEST POP PUSH1 0x20 SWAP1 PUSH1 0x1F DUP4 GT PUSH1 0x1 EQ PUSH3 0x36C8 JUMPI PUSH3 0x3228 SWAP3 SWAP2 PUSH1 0x0 SWAP2 DUP4 PUSH3 0x1FDD JUMPI POP POP DUP2 PUSH1 0x1 SHL SWAP2 PUSH1 0x0 NOT SWAP1 PUSH1 0x3 SHL SHR NOT AND OR SWAP1 JUMP JUMPDEST SWAP1 SSTORE JUMPDEST PUSH1 0x11 DUP5 ADD PUSH1 0xC0 DUP7 ADD MLOAD DUP1 MLOAD SWAP1 PUSH1 0x1 PUSH1 0x1 PUSH1 0x40 SHL SUB DUP3 GT PUSH3 0x3610 JUMPI PUSH3 0x3252 DUP4 SLOAD PUSH3 0x28C2 JUMP JUMPDEST PUSH1 0x1F DUP2 GT PUSH3 0x3692 JUMPI JUMPDEST POP PUSH1 0x20 SWAP1 PUSH1 0x1F DUP4 GT PUSH1 0x1 EQ PUSH3 0x3625 JUMPI PUSH3 0x3290 SWAP3 SWAP2 PUSH1 0x0 SWAP2 DUP4 PUSH3 0x1FDD JUMPI POP POP DUP2 PUSH1 0x1 SHL SWAP2 PUSH1 0x0 NOT SWAP1 PUSH1 0x3 SHL SHR NOT AND OR SWAP1 JUMP JUMPDEST SWAP1 SSTORE JUMPDEST PUSH1 0x12 DUP5 ADD PUSH1 0xE0 DUP7 ADD MLOAD DUP1 MLOAD SWAP1 PUSH1 0x1 PUSH1 0x1 PUSH1 0x40 SHL SUB DUP3 GT PUSH3 0x3610 JUMPI PUSH3 0x32BA DUP4 SLOAD PUSH3 0x28C2 JUMP JUMPDEST PUSH1 0x1F DUP2 GT PUSH3 0x35DA JUMPI JUMPDEST POP PUSH1 0x20 SWAP1 PUSH1 0x1F DUP4 GT PUSH1 0x1 EQ PUSH3 0x356D JUMPI PUSH3 0x32F8 SWAP3 SWAP2 PUSH1 0x0 SWAP2 DUP4 PUSH3 0x1FDD JUMPI POP POP DUP2 PUSH1 0x1 SHL SWAP2 PUSH1 0x0 NOT SWAP1 PUSH1 0x3 SHL SHR NOT AND OR SWAP1 JUMP JUMPDEST SWAP1 SSTORE JUMPDEST DUP5 ADD MLOAD DUP1 MLOAD PUSH1 0x13 DUP6 ADD SWAP2 PUSH1 0x1 PUSH1 0x1 PUSH1 0x40 SHL SUB DUP3 GT PUSH3 0x3558 JUMPI PUSH3 0x3320 DUP4 SLOAD PUSH3 0x28C2 JUMP JUMPDEST PUSH1 0x1F DUP2 GT PUSH3 0x3522 JUMPI JUMPDEST POP PUSH1 0x20 SWAP1 PUSH1 0x1F DUP4 GT PUSH1 0x1 EQ PUSH3 0x34B5 JUMPI PUSH3 0x335E SWAP3 SWAP2 PUSH1 0x0 SWAP2 DUP4 PUSH3 0x1FDD JUMPI POP POP DUP2 PUSH1 0x1 SHL SWAP2 PUSH1 0x0 NOT SWAP1 PUSH1 0x3 SHL SHR NOT AND OR SWAP1 JUMP JUMPDEST SWAP1 SSTORE JUMPDEST PUSH1 0x14 DUP4 ADD SWAP2 DUP5 ADD MLOAD DUP1 MLOAD SWAP2 PUSH1 0x1 PUSH1 0x1 PUSH1 0x40 SHL SUB DUP4 GT PUSH3 0x34A0 JUMPI POP PUSH3 0x3388 DUP4 SLOAD PUSH3 0x28C2 JUMP JUMPDEST PUSH1 0x1F DUP2 GT PUSH3 0x346A JUMPI JUMPDEST POP PUSH1 0x20 SWAP1 PUSH1 0x1F DUP4 GT PUSH1 0x1 EQ PUSH3 0x33F4 JUMPI SWAP3 PUSH3 0x33D0 DUP4 PUSH1 0x15 SWAP5 PUSH1 0xFF SWAP8 SWAP5 PUSH2 0xFF00 SWAP8 PUSH1 0x0 SWAP3 PUSH3 0x1FDD JUMPI POP POP DUP2 PUSH1 0x1 SHL SWAP2 PUSH1 0x0 NOT SWAP1 PUSH1 0x3 SHL SHR NOT AND OR SWAP1 JUMP JUMPDEST SWAP1 SSTORE JUMPDEST ADD SWAP5 DUP4 ADD MLOAD ISZERO ISZERO SWAP4 DUP6 SLOAD SWAP4 ADD MLOAD ISZERO ISZERO PUSH1 0x8 SHL AND SWAP3 AND SWAP1 PUSH2 0xFFFF NOT AND OR OR SWAP1 SSTORE JUMP JUMPDEST SWAP1 PUSH1 0x1F NOT DUP4 AND SWAP2 DUP5 PUSH1 0x0 MSTORE PUSH1 0x20 PUSH1 0x0 KECCAK256 SWAP3 PUSH1 0x0 JUMPDEST DUP2 DUP2 LT PUSH3 0x3451 JUMPI POP SWAP4 PUSH1 0xFF SWAP7 SWAP4 PUSH2 0xFF00 SWAP7 SWAP4 PUSH1 0x1 SWAP4 DUP4 PUSH1 0x15 SWAP9 LT PUSH3 0x3437 JUMPI JUMPDEST POP POP POP DUP2 SHL ADD SWAP1 SSTORE PUSH3 0x33D3 JUMP JUMPDEST ADD MLOAD PUSH1 0x0 NOT PUSH1 0xF8 DUP5 PUSH1 0x3 SHL AND SHR NOT AND SWAP1 SSTORE CODESIZE DUP1 DUP1 PUSH3 0x3429 JUMP JUMPDEST SWAP3 SWAP4 PUSH1 0x20 PUSH1 0x1 DUP2 SWAP3 DUP8 DUP7 ADD MLOAD DUP2 SSTORE ADD SWAP6 ADD SWAP4 ADD PUSH3 0x3408 JUMP JUMPDEST PUSH3 0x3499 SWAP1 DUP5 PUSH1 0x0 MSTORE PUSH1 0x20 PUSH1 0x0 KECCAK256 PUSH1 0x1F DUP6 ADD PUSH1 0x5 SHR DUP2 ADD SWAP2 PUSH1 0x20 DUP7 LT PUSH3 0x2097 JUMPI PUSH1 0x1F ADD PUSH1 0x5 SHR ADD SWAP1 PUSH3 0x2F2D JUMP JUMPDEST CODESIZE PUSH3 0x3392 JUMP JUMPDEST PUSH1 0x41 SWAP1 PUSH4 0x4E487B71 PUSH1 0xE0 SHL PUSH1 0x0 MSTORE MSTORE PUSH1 0x24 PUSH1 0x0 REVERT JUMPDEST SWAP1 PUSH1 0x1F NOT DUP4 AND SWAP2 DUP5 PUSH1 0x0 MSTORE PUSH1 0x20 PUSH1 0x0 KECCAK256 SWAP3 PUSH1 0x0 JUMPDEST DUP2 DUP2 LT PUSH3 0x3509 JUMPI POP SWAP1 DUP5 PUSH1 0x1 SWAP6 SWAP5 SWAP4 SWAP3 LT PUSH3 0x34EF JUMPI JUMPDEST POP POP POP DUP2 SHL ADD SWAP1 SSTORE PUSH3 0x3361 JUMP JUMPDEST ADD MLOAD PUSH1 0x0 NOT PUSH1 0xF8 DUP5 PUSH1 0x3 SHL AND SHR NOT AND SWAP1 SSTORE CODESIZE DUP1 DUP1 PUSH3 0x34E1 JUMP JUMPDEST SWAP3 SWAP4 PUSH1 0x20 PUSH1 0x1 DUP2 SWAP3 DUP8 DUP7 ADD MLOAD DUP2 SSTORE ADD SWAP6 ADD SWAP4 ADD PUSH3 0x34C9 JUMP JUMPDEST PUSH3 0x3551 SWAP1 DUP5 PUSH1 0x0 MSTORE PUSH1 0x20 PUSH1 0x0 KECCAK256 PUSH1 0x1F DUP6 ADD PUSH1 0x5 SHR DUP2 ADD SWAP2 PUSH1 0x20 DUP7 LT PUSH3 0x2097 JUMPI PUSH1 0x1F ADD PUSH1 0x5 SHR ADD SWAP1 PUSH3 0x2F2D JUMP JUMPDEST CODESIZE PUSH3 0x332A JUMP JUMPDEST PUSH1 0x41 DUP5 PUSH4 0x4E487B71 PUSH1 0xE0 SHL PUSH1 0x0 MSTORE MSTORE PUSH1 0x24 PUSH1 0x0 REVERT JUMPDEST SWAP1 PUSH1 0x1F NOT DUP4 AND SWAP2 DUP5 PUSH1 0x0 MSTORE PUSH1 0x20 PUSH1 0x0 KECCAK256 SWAP3 PUSH1 0x0 JUMPDEST DUP2 DUP2 LT PUSH3 0x35C1 JUMPI POP SWAP1 DUP5 PUSH1 0x1 SWAP6 SWAP5 SWAP4 SWAP3 LT PUSH3 0x35A7 JUMPI JUMPDEST POP POP POP DUP2 SHL ADD SWAP1 SSTORE PUSH3 0x32FB JUMP JUMPDEST ADD MLOAD PUSH1 0x0 NOT PUSH1 0xF8 DUP5 PUSH1 0x3 SHL AND SHR NOT AND SWAP1 SSTORE CODESIZE DUP1 DUP1 PUSH3 0x3599 JUMP JUMPDEST SWAP3 SWAP4 PUSH1 0x20 PUSH1 0x1 DUP2 SWAP3 DUP8 DUP7 ADD MLOAD DUP2 SSTORE ADD SWAP6 ADD SWAP4 ADD PUSH3 0x3581 JUMP JUMPDEST PUSH3 0x3609 SWAP1 DUP5 PUSH1 0x0 MSTORE PUSH1 0x20 PUSH1 0x0 KECCAK256 PUSH1 0x1F DUP6 ADD PUSH1 0x5 SHR DUP2 ADD SWAP2 PUSH1 0x20 DUP7 LT PUSH3 0x2097 JUMPI PUSH1 0x1F ADD PUSH1 0x5 SHR ADD SWAP1 PUSH3 0x2F2D JUMP JUMPDEST CODESIZE PUSH3 0x32C4 JUMP JUMPDEST PUSH1 0x41 DUP6 PUSH4 0x4E487B71 PUSH1 0xE0 SHL PUSH1 0x0 MSTORE MSTORE PUSH1 0x24 PUSH1 0x0 REVERT JUMPDEST SWAP1 PUSH1 0x1F NOT DUP4 AND SWAP2 DUP5 PUSH1 0x0 MSTORE PUSH1 0x20 PUSH1 0x0 KECCAK256 SWAP3 PUSH1 0x0 JUMPDEST DUP2 DUP2 LT PUSH3 0x3679 JUMPI POP SWAP1 DUP5 PUSH1 0x1 SWAP6 SWAP5 SWAP4 SWAP3 LT PUSH3 0x365F JUMPI JUMPDEST POP POP POP DUP2 SHL ADD SWAP1 SSTORE PUSH3 0x3293 JUMP JUMPDEST ADD MLOAD PUSH1 0x0 NOT PUSH1 0xF8 DUP5 PUSH1 0x3 SHL AND SHR NOT AND SWAP1 SSTORE CODESIZE DUP1 DUP1 PUSH3 0x3651 JUMP JUMPDEST SWAP3 SWAP4 PUSH1 0x20 PUSH1 0x1 DUP2 SWAP3 DUP8 DUP7 ADD MLOAD DUP2 SSTORE ADD SWAP6 ADD SWAP4 ADD PUSH3 0x3639 JUMP JUMPDEST PUSH3 0x36C1 SWAP1 DUP5 PUSH1 0x0 MSTORE PUSH1 0x20 PUSH1 0x0 KECCAK256 PUSH1 0x1F DUP6 ADD PUSH1 0x5 SHR DUP2 ADD SWAP2 PUSH1 0x20 DUP7 LT PUSH3 0x2097 JUMPI PUSH1 0x1F ADD PUSH1 0x5 SHR ADD SWAP1 PUSH3 0x2F2D JUMP JUMPDEST CODESIZE PUSH3 0x325C JUMP JUMPDEST SWAP1 PUSH1 0x1F NOT DUP4 AND SWAP2 DUP5 PUSH1 0x0 MSTORE PUSH1 0x20 PUSH1 0x0 KECCAK256 SWAP3 PUSH1 0x0 JUMPDEST DUP2 DUP2 LT PUSH3 0x371C JUMPI POP SWAP1 DUP5 PUSH1 0x1 SWAP6 SWAP5 SWAP4 SWAP3 LT PUSH3 0x3702 JUMPI JUMPDEST POP POP POP DUP2 SHL ADD SWAP1 SSTORE PUSH3 0x322B JUMP JUMPDEST ADD MLOAD PUSH1 0x0 NOT PUSH1 0xF8 DUP5 PUSH1 0x3 SHL AND SHR NOT AND SWAP1 SSTORE CODESIZE DUP1 DUP1 PUSH3 0x36F4 JUMP JUMPDEST SWAP3 SWAP4 PUSH1 0x20 PUSH1 0x1 DUP2 SWAP3 DUP8 DUP7 ADD MLOAD DUP2 SSTORE ADD SWAP6 ADD SWAP4 ADD PUSH3 0x36DC JUMP JUMPDEST PUSH3 0x3764 SWAP1 DUP5 PUSH1 0x0 MSTORE PUSH1 0x20 PUSH1 0x0 KECCAK256 PUSH1 0x1F DUP6 ADD PUSH1 0x5 SHR DUP2 ADD SWAP2 PUSH1 0x20 DUP7 LT PUSH3 0x2097 JUMPI PUSH1 0x1F ADD PUSH1 0x5 SHR ADD SWAP1 PUSH3 0x2F2D JUMP JUMPDEST CODESIZE PUSH3 0x31F4 JUMP JUMPDEST SWAP1 PUSH1 0x1F NOT DUP4 AND SWAP2 DUP5 PUSH1 0x0 MSTORE PUSH1 0x20 PUSH1 0x0 KECCAK256 SWAP3 PUSH1 0x0 JUMPDEST DUP2 DUP2 LT PUSH3 0x37BF JUMPI POP SWAP1 DUP5 PUSH1 0x1 SWAP6 SWAP5 SWAP4 SWAP3 LT PUSH3 0x37A5 JUMPI JUMPDEST POP POP POP DUP2 SHL ADD SWAP1 SSTORE PUSH3 0x31C3 JUMP JUMPDEST ADD MLOAD PUSH1 0x0 NOT PUSH1 0xF8 DUP5 PUSH1 0x3 SHL AND SHR NOT AND SWAP1 SSTORE CODESIZE DUP1 DUP1 PUSH3 0x3797 JUMP JUMPDEST SWAP3 SWAP4 PUSH1 0x20 PUSH1 0x1 DUP2 SWAP3 DUP8 DUP7 ADD MLOAD DUP2 SSTORE ADD SWAP6 ADD SWAP4 ADD PUSH3 0x377F JUMP JUMPDEST PUSH3 0x3807 SWAP1 DUP5 PUSH1 0x0 MSTORE PUSH1 0x20 PUSH1 0x0 KECCAK256 PUSH1 0x1F DUP6 ADD PUSH1 0x5 SHR DUP2 ADD SWAP2 PUSH1 0x20 DUP7 LT PUSH3 0x2097 JUMPI PUSH1 0x1F ADD PUSH1 0x5 SHR ADD SWAP1 PUSH3 0x2F2D JUMP JUMPDEST CODESIZE PUSH3 0x318C JUMP JUMPDEST SWAP2 SWAP1 PUSH1 0x5 DUP5 ADD PUSH1 0x0 MSTORE PUSH1 0x20 PUSH1 0x0 KECCAK256 SWAP1 PUSH1 0x0 SWAP4 JUMPDEST PUSH1 0x1F NOT DUP5 AND DUP6 LT PUSH3 0x3869 JUMPI PUSH1 0x1 SWAP5 POP DUP4 PUSH1 0x1F NOT DUP2 AND LT PUSH3 0x384F JUMPI JUMPDEST POP POP POP DUP2 SHL ADD PUSH1 0x5 DUP3 ADD SSTORE PUSH3 0x30F6 JUMP JUMPDEST ADD MLOAD PUSH1 0x0 NOT PUSH1 0xF8 DUP5 PUSH1 0x3 SHL AND SHR NOT AND SWAP1 SSTORE CODESIZE DUP1 DUP1 PUSH3 0x383E JUMP JUMPDEST DUP2 DUP2 ADD MLOAD DUP4 SSTORE PUSH1 0x20 SWAP5 DUP6 ADD SWAP5 PUSH1 0x1 SWAP1 SWAP4 ADD SWAP3 SWAP1 SWAP2 ADD SWAP1 PUSH3 0x3821 JUMP JUMPDEST PUSH3 0x38B7 SWAP1 PUSH1 0x5 DUP6 ADD PUSH1 0x0 MSTORE PUSH1 0x20 PUSH1 0x0 KECCAK256 PUSH1 0x1F DUP6 ADD PUSH1 0x5 SHR DUP2 ADD SWAP2 PUSH1 0x20 DUP7 LT PUSH3 0x2097 JUMPI PUSH1 0x1F ADD PUSH1 0x5 SHR ADD SWAP1 PUSH3 0x2F2D JUMP JUMPDEST CODESIZE PUSH3 0x30BC JUMP JUMPDEST PUSH1 0x41 DUP7 PUSH4 0x4E487B71 PUSH1 0xE0 SHL PUSH1 0x0 MSTORE MSTORE PUSH1 0x24 PUSH1 0x0 REVERT JUMPDEST SWAP1 PUSH1 0x1F NOT DUP4 AND SWAP2 DUP5 PUSH1 0x0 MSTORE PUSH1 0x20 PUSH1 0x0 KECCAK256 SWAP3 PUSH1 0x0 JUMPDEST DUP2 DUP2 LT PUSH3 0x3927 JUMPI POP SWAP1 DUP5 PUSH1 0x1 SWAP6 SWAP5 SWAP4 SWAP3 LT PUSH3 0x390D JUMPI JUMPDEST POP POP POP DUP2 SHL ADD SWAP1 SSTORE PUSH3 0x308C JUMP JUMPDEST ADD MLOAD PUSH1 0x0 NOT PUSH1 0xF8 DUP5 PUSH1 0x3 SHL AND SHR NOT AND SWAP1 SSTORE CODESIZE DUP1 DUP1 PUSH3 0x38FF JUMP JUMPDEST SWAP3 SWAP4 PUSH1 0x20 PUSH1 0x1 DUP2 SWAP3 DUP8 DUP7 ADD MLOAD DUP2 SSTORE ADD SWAP6 ADD SWAP4 ADD PUSH3 0x38E7 JUMP JUMPDEST PUSH3 0x396F SWAP1 DUP5 PUSH1 0x0 MSTORE PUSH1 0x20 PUSH1 0x0 KECCAK256 PUSH1 0x1F DUP6 ADD PUSH1 0x5 SHR DUP2 ADD SWAP2 PUSH1 0x20 DUP7 LT PUSH3 0x2097 JUMPI PUSH1 0x1F ADD PUSH1 0x5 SHR ADD SWAP1 PUSH3 0x2F2D JUMP JUMPDEST CODESIZE PUSH3 0x3055 JUMP JUMPDEST PUSH1 0x41 DUP8 PUSH4 0x4E487B71 PUSH1 0xE0 SHL PUSH1 0x0 MSTORE MSTORE PUSH1 0x24 PUSH1 0x0 REVERT JUMPDEST SWAP1 DUP2 SLOAD PUSH1 0x1 PUSH1 0x40 SHL DUP2 LT ISZERO PUSH3 0x87D JUMPI PUSH1 0x1 DUP2 ADD DUP1 DUP5 SSTORE DUP2 LT ISZERO PUSH3 0x28AC JUMPI PUSH3 0x29A2 SWAP3 PUSH1 0x0 MSTORE PUSH1 0x16 PUSH1 0x20 PUSH1 0x0 KECCAK256 SWAP2 MUL ADD PUSH3 0x2FC9 JUMP JUMPDEST PUSH1 0x2 PUSH1 0x0 SLOAD EQ PUSH3 0x39D4 JUMPI PUSH1 0x2 PUSH1 0x0 SSTORE JUMP JUMPDEST PUSH1 0x40 MLOAD PUSH4 0x3EE5AEB5 PUSH1 0xE0 SHL DUP2 MSTORE PUSH1 0x4 SWAP1 REVERT JUMPDEST SWAP1 DUP2 PUSH1 0x20 SWAP2 SUB SLT PUSH3 0x8D4 JUMPI MLOAD DUP1 ISZERO ISZERO DUP2 SUB PUSH3 0x8D4 JUMPI SWAP1 JUMP JUMPDEST PUSH3 0x3A6A SWAP3 PUSH1 0x20 SWAP3 SWAP1 SWAP2 SWAP1 PUSH1 0x1 PUSH1 0x1 PUSH1 0xA0 SHL SUB SWAP1 PUSH3 0x3A23 DUP3 DUP5 AND ISZERO ISZERO PUSH3 0x2EA8 JUMP JUMPDEST AND SWAP1 PUSH3 0x3A32 DUP3 ISZERO ISZERO PUSH3 0x2EA8 JUMP JUMPDEST PUSH1 0x40 MLOAD PUSH4 0x95EA7B3 PUSH1 0xE0 SHL DUP2 MSTORE PUSH1 0x1 PUSH1 0x1 PUSH1 0xA0 SHL SUB SWAP1 SWAP2 AND PUSH1 0x4 DUP3 ADD MSTORE PUSH1 0x24 DUP2 ADD SWAP3 SWAP1 SWAP3 MSTORE SWAP1 SWAP3 DUP4 SWAP2 SWAP1 DUP3 SWAP1 PUSH1 0x0 SWAP1 DUP3 SWAP1 PUSH1 0x44 DUP3 ADD SWAP1 JUMP JUMPDEST SUB SWAP3 GAS CALL DUP1 ISZERO PUSH3 0x3AA5 JUMPI PUSH3 0x3A81 JUMPI JUMPDEST POP PUSH1 0x1 SWAP1 JUMP JUMPDEST PUSH3 0x3A9D SWAP1 PUSH1 0x20 RETURNDATASIZE PUSH1 0x20 GT PUSH3 0x240F JUMPI PUSH3 0x23FE DUP2 DUP4 PUSH3 0x2938 JUMP JUMPDEST POP CODESIZE PUSH3 0x3A7B JUMP JUMPDEST PUSH1 0x40 MLOAD RETURNDATASIZE PUSH1 0x0 DUP3 RETURNDATACOPY RETURNDATASIZE SWAP1 REVERT JUMPDEST PUSH1 0x1 PUSH1 0x1 PUSH1 0xA0 SHL SUB SWAP1 DUP2 AND PUSH3 0x3AC9 DUP2 ISZERO ISZERO PUSH3 0x2EA8 JUMP JUMPDEST PUSH1 0x8 SLOAD SWAP2 PUSH1 0x0 JUMPDEST DUP4 DUP2 LT PUSH3 0x3AE1 JUMPI POP POP POP POP PUSH1 0x0 SWAP1 JUMP JUMPDEST DUP3 DUP3 PUSH3 0x3AEE DUP4 PUSH3 0x2E11 JUMP JUMPDEST POP SLOAD AND EQ PUSH3 0x3B00 JUMPI PUSH1 0x1 ADD PUSH3 0x3AD0 JUMP JUMPDEST POP POP POP POP PUSH1 0x1 SWAP1 JUMP JUMPDEST PUSH3 0x3B15 DUP2 SLOAD PUSH3 0x28C2 JUMP JUMPDEST SWAP1 DUP2 PUSH3 0x3B20 JUMPI POP POP JUMP JUMPDEST DUP2 PUSH1 0x1F PUSH1 0x0 SWAP4 GT PUSH1 0x1 EQ PUSH3 0x3B33 JUMPI POP SSTORE JUMP JUMPDEST SWAP1 DUP1 DUP4 SWAP2 DUP3 MSTORE PUSH3 0x3B54 PUSH1 0x1F PUSH1 0x20 DUP5 KECCAK256 SWAP5 ADD PUSH1 0x5 SHR DUP5 ADD PUSH1 0x1 DUP6 ADD PUSH3 0x2F2D JUMP JUMPDEST SSTORE SSTORE JUMP JUMPDEST DUP2 MLOAD DUP2 SLOAD PUSH1 0x1 PUSH1 0x1 PUSH1 0xA0 SHL SUB NOT AND PUSH1 0x1 PUSH1 0x1 PUSH1 0xA0 SHL SUB SWAP2 SWAP1 SWAP2 AND OR DUP2 SSTORE PUSH1 0x20 SWAP2 DUP3 ADD MLOAD DUP1 MLOAD PUSH1 0x1 SWAP4 SWAP1 SWAP3 DUP5 ADD SWAP2 PUSH1 0x1 PUSH1 0x40 SHL DUP5 GT PUSH3 0x87D JUMPI DUP3 SLOAD DUP5 DUP5 SSTORE DUP1 DUP6 LT PUSH3 0x3BDF JUMPI JUMPDEST POP PUSH1 0x20 ADD SWAP2 PUSH1 0x0 MSTORE PUSH1 0x20 PUSH1 0x0 KECCAK256 PUSH1 0x0 SWAP3 JUMPDEST DUP5 DUP5 LT PUSH3 0x3BC0 JUMPI POP POP POP POP POP POP JUMP JUMPDEST PUSH1 0x16 DUP4 DUP3 PUSH3 0x3BD2 DUP10 SWAP5 MLOAD DUP7 PUSH3 0x2FC9 JUMP JUMPDEST ADD SWAP3 ADD SWAP4 ADD SWAP3 SWAP1 PUSH3 0x3BB0 JUMP JUMPDEST PUSH1 0x16 SWAP1 DUP1 PUSH1 0x16 MUL SWAP1 PUSH1 0x16 DUP3 DIV SUB PUSH3 0x2F70 JUMPI DUP6 PUSH1 0x16 MUL PUSH1 0x16 DUP2 DIV DUP8 SUB PUSH3 0x2F70 JUMPI PUSH1 0x0 SWAP1 DUP7 DUP3 MSTORE PUSH1 0x20 DUP3 KECCAK256 SWAP3 DUP4 ADD SWAP3 ADD JUMPDEST DUP3 DUP2 LT PUSH3 0x3C21 JUMPI POP POP POP PUSH3 0x3B9F JUMP JUMPDEST DUP1 DUP3 DUP6 SWAP3 SSTORE DUP3 DUP11 DUP3 ADD SSTORE DUP3 PUSH1 0x2 DUP3 ADD SSTORE DUP3 PUSH1 0x3 DUP3 ADD SSTORE PUSH3 0x3C45 PUSH1 0x4 DUP3 ADD PUSH3 0x3B09 JUMP JUMPDEST PUSH3 0x3C53 PUSH1 0x5 DUP3 ADD PUSH3 0x3B09 JUMP JUMPDEST DUP3 PUSH1 0x6 DUP3 ADD SSTORE DUP3 PUSH1 0x7 DUP3 ADD SSTORE DUP3 PUSH1 0x8 DUP3 ADD SSTORE DUP3 PUSH1 0x9 DUP3 ADD SSTORE DUP3 PUSH1 0xA DUP3 ADD SSTORE DUP3 PUSH1 0xB DUP3 ADD SSTORE DUP3 PUSH1 0xC DUP3 ADD SSTORE DUP3 PUSH1 0xD DUP3 ADD SSTORE DUP3 PUSH1 0xE DUP3 ADD SSTORE PUSH3 0x3C97 PUSH1 0xF DUP3 ADD PUSH3 0x3B09 JUMP JUMPDEST PUSH3 0x3CA5 PUSH1 0x10 DUP3 ADD PUSH3 0x3B09 JUMP JUMPDEST PUSH3 0x3CB3 PUSH1 0x11 DUP3 ADD PUSH3 0x3B09 JUMP JUMPDEST PUSH3 0x3CC1 PUSH1 0x12 DUP3 ADD PUSH3 0x3B09 JUMP JUMPDEST PUSH3 0x3CCF PUSH1 0x13 DUP3 ADD PUSH3 0x3B09 JUMP JUMPDEST PUSH3 0x3CDD PUSH1 0x14 DUP3 ADD PUSH3 0x3B09 JUMP JUMPDEST DUP3 PUSH1 0x15 DUP3 ADD SSTORE ADD PUSH3 0x3C10 JUMP INVALID PUSH1 0x40 PUSH1 0x80 DUP2 MSTORE CALLVALUE PUSH3 0x429 JUMPI PUSH3 0x10AB DUP1 CODESIZE SUB DUP1 PUSH3 0x1E DUP2 PUSH3 0x42E JUMP JUMPDEST SWAP3 DUP4 CODECOPY DUP2 ADD SWAP1 PUSH1 0x80 DUP2 DUP4 SUB SLT PUSH3 0x429 JUMPI DUP1 MLOAD PUSH1 0x1 PUSH1 0x1 PUSH1 0x40 SHL SUB SWAP2 SWAP1 DUP3 DUP2 GT PUSH3 0x429 JUMPI DUP4 PUSH3 0x51 SWAP2 DUP4 ADD PUSH3 0x46A JUMP JUMPDEST SWAP1 PUSH1 0x20 SWAP4 DUP5 DUP3 ADD MLOAD SWAP1 DUP5 DUP3 GT PUSH3 0x429 JUMPI PUSH3 0x6F SWAP2 DUP4 ADD PUSH3 0x46A JUMP JUMPDEST PUSH1 0x60 DUP7 DUP4 ADD MLOAD SWAP3 ADD MLOAD SWAP1 PUSH1 0x0 SWAP5 CALLER PUSH1 0x1 DUP1 PUSH1 0xA0 SHL SUB NOT DUP8 SLOAD AND OR DUP7 SSTORE CALLER DUP7 PUSH32 0x8BE0079C531659141344CD1FD0A4F28419497F9722A3DAAFE3B4186F6B6457E0 DUP2 DUP1 LOG3 DUP5 MLOAD DUP2 DUP2 GT PUSH3 0x343 JUMPI PUSH1 0x2 SLOAD SWAP1 PUSH1 0x1 SWAP7 DUP8 DUP4 DUP2 SHR SWAP4 AND DUP1 ISZERO PUSH3 0x41E JUMPI JUMPDEST DUP11 DUP5 LT EQ PUSH3 0x324 JUMPI DUP2 SWAP1 PUSH1 0x1F SWAP4 DUP5 DUP2 GT PUSH3 0x3CA JUMPI JUMPDEST POP DUP11 SWAP1 DUP5 DUP4 GT PUSH1 0x1 EQ PUSH3 0x363 JUMPI DUP11 SWAP3 PUSH3 0x357 JUMPI JUMPDEST POP POP PUSH1 0x0 NOT PUSH1 0x3 DUP4 SWAP1 SHL SHR NOT AND SWAP1 DUP8 SHL OR PUSH1 0x2 SSTORE JUMPDEST DUP3 MLOAD SWAP2 DUP3 GT PUSH3 0x343 JUMPI PUSH1 0x3 SWAP3 DUP4 SLOAD DUP8 DUP2 DUP2 SHR SWAP2 AND DUP1 ISZERO PUSH3 0x338 JUMPI JUMPDEST DUP11 DUP3 LT EQ PUSH3 0x324 JUMPI SWAP1 DUP2 DUP4 DUP6 SWAP5 SWAP4 GT PUSH3 0x2CF JUMPI JUMPDEST POP DUP10 SWAP2 DUP4 GT PUSH1 0x1 EQ PUSH3 0x26C JUMPI DUP9 SWAP3 PUSH3 0x260 JUMPI JUMPDEST POP POP PUSH1 0x0 NOT DUP3 DUP5 SHL SHR NOT AND SWAP1 DUP6 SHL OR SWAP1 SSTORE JUMPDEST PUSH8 0xDE0B6B3A7640000 SWAP2 DUP3 DUP2 MUL SWAP3 DUP2 DUP5 DIV EQ SWAP1 ISZERO OR ISZERO PUSH3 0x24C JUMPI DUP2 DUP4 SSTORE PUSH1 0x5 DUP2 GT PUSH3 0x1FE JUMPI SWAP1 PUSH32 0xDDF252AD1BE2C89B69C2B068FC378DAA952BA7F163C4A11628F55A4DF523B3EF SWAP3 SWAP2 PUSH1 0x4 SSTORE CALLER DUP5 MSTORE PUSH1 0x5 DUP6 MSTORE DUP6 DUP5 KECCAK256 SSTORE PUSH1 0x7 DUP5 MSTORE DUP5 DUP4 KECCAK256 PUSH1 0xFF NOT SWAP1 DUP3 DUP3 DUP3 SLOAD AND OR SWAP1 SSTORE ADDRESS DUP5 MSTORE DUP2 DUP7 DUP6 KECCAK256 SWAP2 DUP3 SLOAD AND OR SWAP1 SSTORE SLOAD SWAP3 DUP5 MLOAD SWAP4 DUP5 MSTORE CALLER SWAP4 LOG3 MLOAD PUSH2 0xBCE SWAP1 DUP2 PUSH3 0x4DD DUP3 CODECOPY RETURN JUMPDEST DUP6 MLOAD PUSH3 0x461BCD PUSH1 0xE5 SHL DUP2 MSTORE PUSH1 0x4 DUP2 ADD DUP7 SWAP1 MSTORE PUSH1 0x21 PUSH1 0x24 DUP3 ADD MSTORE PUSH32 0x4D6178205472616E73616374696F6E2063616E6E6F7420657863656564203525 PUSH1 0x44 DUP3 ADD MSTORE PUSH1 0x17 PUSH1 0xF9 SHL PUSH1 0x64 DUP3 ADD MSTORE PUSH1 0x84 SWAP1 REVERT JUMPDEST PUSH4 0x4E487B71 PUSH1 0xE0 SHL DUP5 MSTORE PUSH1 0x11 PUSH1 0x4 MSTORE PUSH1 0x24 DUP5 REVERT JUMPDEST ADD MLOAD SWAP1 POP CODESIZE DUP1 PUSH3 0x15A JUMP JUMPDEST DUP5 DUP10 MSTORE DUP10 DUP10 KECCAK256 DUP9 SWAP5 POP SWAP2 SWAP1 PUSH1 0x1F NOT DUP5 AND DUP11 JUMPDEST DUP13 DUP3 DUP3 LT PUSH3 0x2B8 JUMPI POP POP DUP5 GT PUSH3 0x29F JUMPI JUMPDEST POP POP POP DUP2 SHL ADD SWAP1 SSTORE PUSH3 0x16C JUMP JUMPDEST ADD MLOAD PUSH1 0x0 NOT DUP4 DUP7 SHL PUSH1 0xF8 AND SHR NOT AND SWAP1 SSTORE CODESIZE DUP1 DUP1 PUSH3 0x291 JUMP JUMPDEST DUP4 DUP6 ADD MLOAD DUP7 SSTORE DUP12 SWAP8 SWAP1 SWAP6 ADD SWAP5 SWAP4 DUP5 ADD SWAP4 ADD PUSH3 0x27E JUMP JUMPDEST SWAP1 SWAP2 SWAP3 POP DUP5 DUP10 MSTORE DUP10 DUP10 KECCAK256 DUP4 DUP1 DUP7 ADD PUSH1 0x5 SHR DUP3 ADD SWAP3 DUP13 DUP8 LT PUSH3 0x31A JUMPI JUMPDEST SWAP2 DUP7 SWAP6 DUP12 SWAP3 SWAP6 SWAP5 SWAP4 ADD PUSH1 0x5 SHR ADD SWAP2 JUMPDEST DUP3 DUP2 LT PUSH3 0x30B JUMPI POP POP PUSH3 0x145 JUMP JUMPDEST DUP12 DUP2 SSTORE DUP7 SWAP6 POP DUP11 SWAP2 ADD PUSH3 0x2FB JUMP JUMPDEST SWAP3 POP DUP2 SWAP3 PUSH3 0x2EC JUMP JUMPDEST PUSH4 0x4E487B71 PUSH1 0xE0 SHL DUP10 MSTORE PUSH1 0x22 PUSH1 0x4 MSTORE PUSH1 0x24 DUP10 REVERT JUMPDEST SWAP1 PUSH1 0x7F AND SWAP1 PUSH3 0x12F JUMP JUMPDEST PUSH4 0x4E487B71 PUSH1 0xE0 SHL DUP8 MSTORE PUSH1 0x41 PUSH1 0x4 MSTORE PUSH1 0x24 DUP8 REVERT JUMPDEST ADD MLOAD SWAP1 POP CODESIZE DUP1 PUSH3 0xFD JUMP JUMPDEST PUSH1 0x2 DUP12 MSTORE DUP12 DUP12 KECCAK256 DUP11 SWAP5 POP SWAP2 SWAP1 PUSH1 0x1F NOT DUP5 AND DUP13 DUP15 JUMPDEST DUP3 DUP3 LT PUSH3 0x3B2 JUMPI POP POP DUP5 GT PUSH3 0x398 JUMPI JUMPDEST POP POP POP DUP2 SHL ADD PUSH1 0x2 SSTORE PUSH3 0x112 JUMP JUMPDEST ADD MLOAD PUSH1 0x0 NOT PUSH1 0xF8 DUP5 PUSH1 0x3 SHL AND SHR NOT AND SWAP1 SSTORE CODESIZE DUP1 DUP1 PUSH3 0x389 JUMP JUMPDEST DUP4 DUP6 ADD MLOAD DUP7 SSTORE DUP14 SWAP8 SWAP1 SWAP6 ADD SWAP5 SWAP4 DUP5 ADD SWAP4 ADD DUP15 PUSH3 0x377 JUMP JUMPDEST SWAP1 SWAP2 POP PUSH1 0x2 DUP11 MSTORE DUP11 DUP11 KECCAK256 DUP5 DUP1 DUP6 ADD PUSH1 0x5 SHR DUP3 ADD SWAP3 DUP14 DUP7 LT PUSH3 0x414 JUMPI JUMPDEST SWAP2 DUP12 SWAP2 DUP7 SWAP6 SWAP5 SWAP4 ADD PUSH1 0x5 SHR ADD SWAP2 JUMPDEST DUP3 DUP2 LT PUSH3 0x405 JUMPI POP POP PUSH3 0xE7 JUMP JUMPDEST DUP13 DUP2 SSTORE DUP6 SWAP5 POP DUP12 SWAP2 ADD PUSH3 0x3F5 JUMP JUMPDEST SWAP3 POP DUP2 SWAP3 PUSH3 0x3E7 JUMP JUMPDEST SWAP3 PUSH1 0x7F AND SWAP3 PUSH3 0xD0 JUMP JUMPDEST PUSH1 0x0 DUP1 REVERT JUMPDEST PUSH1 0x40 MLOAD SWAP2 SWAP1 PUSH1 0x1F ADD PUSH1 0x1F NOT AND DUP3 ADD PUSH1 0x1 PUSH1 0x1 PUSH1 0x40 SHL SUB DUP2 GT DUP4 DUP3 LT OR PUSH3 0x454 JUMPI PUSH1 0x40 MSTORE JUMP JUMPDEST PUSH4 0x4E487B71 PUSH1 0xE0 SHL PUSH1 0x0 MSTORE PUSH1 0x41 PUSH1 0x4 MSTORE PUSH1 0x24 PUSH1 0x0 REVERT JUMPDEST SWAP2 SWAP1 DUP1 PUSH1 0x1F DUP5 ADD SLT ISZERO PUSH3 0x429 JUMPI DUP3 MLOAD PUSH1 0x1 PUSH1 0x1 PUSH1 0x40 SHL SUB DUP2 GT PUSH3 0x454 JUMPI PUSH1 0x20 SWAP1 PUSH3 0x4A0 PUSH1 0x1F DUP3 ADD PUSH1 0x1F NOT AND DUP4 ADD PUSH3 0x42E JUMP JUMPDEST SWAP3 DUP2 DUP5 MSTORE DUP3 DUP3 DUP8 ADD ADD GT PUSH3 0x429 JUMPI PUSH1 0x0 JUMPDEST DUP2 DUP2 LT PUSH3 0x4C8 JUMPI POP DUP3 PUSH1 0x0 SWAP4 SWAP5 SWAP6 POP ADD ADD MSTORE SWAP1 JUMP JUMPDEST DUP6 DUP2 ADD DUP4 ADD MLOAD DUP5 DUP3 ADD DUP5 ADD MSTORE DUP3 ADD PUSH3 0x4B2 JUMP INVALID PUSH1 0x80 PUSH1 0x40 DUP2 DUP2 MSTORE PUSH1 0x4 SWAP2 DUP3 CALLDATASIZE LT ISZERO PUSH2 0x16 JUMPI PUSH1 0x0 DUP1 REVERT JUMPDEST PUSH1 0x0 SWAP3 DUP4 CALLDATALOAD PUSH1 0xE0 SHR SWAP2 DUP3 PUSH4 0x6FDDE03 EQ PUSH2 0x5B5 JUMPI POP DUP2 PUSH4 0x95EA7B3 EQ PUSH2 0x58B JUMPI DUP2 PUSH4 0x18160DDD EQ PUSH2 0x56C JUMPI DUP2 PUSH4 0x23B872DD EQ PUSH2 0x497 JUMPI DUP2 PUSH4 0x313CE567 EQ PUSH2 0x47B JUMPI DUP2 PUSH4 0x70A08231 EQ PUSH2 0x443 JUMPI DUP2 PUSH4 0x715018A6 EQ PUSH2 0x3E4 JUMPI DUP2 PUSH4 0x7437681E EQ PUSH2 0x3C6 JUMPI DUP2 PUSH4 0x8DA5CB5B EQ PUSH2 0x39E JUMPI DUP2 PUSH4 0x95D89B41 EQ PUSH2 0x299 JUMPI DUP2 PUSH4 0xA9059CBB EQ PUSH2 0x268 JUMPI DUP2 PUSH4 0xC2D0FFCA EQ PUSH2 0x1B9 JUMPI DUP2 PUSH4 0xDB4CF1E0 EQ PUSH2 0x10A JUMPI POP PUSH4 0xDD62ED3E EQ PUSH2 0xBF JUMPI PUSH1 0x0 DUP1 REVERT JUMPDEST CALLVALUE PUSH2 0x106 JUMPI DUP1 PUSH1 0x3 NOT CALLDATASIZE ADD SLT PUSH2 0x106 JUMPI DUP1 PUSH1 0x20 SWAP3 PUSH2 0xDB PUSH2 0x6BD JUMP JUMPDEST PUSH2 0xE3 PUSH2 0x6D8 JUMP JUMPDEST PUSH1 0x1 PUSH1 0x1 PUSH1 0xA0 SHL SUB SWAP2 DUP3 AND DUP4 MSTORE PUSH1 0x6 DUP7 MSTORE DUP4 DUP4 KECCAK256 SWAP2 AND DUP3 MSTORE DUP5 MSTORE KECCAK256 SLOAD SWAP1 MLOAD SWAP1 DUP2 MSTORE RETURN JUMPDEST POP DUP1 REVERT JUMPDEST SWAP1 POP CALLVALUE PUSH2 0x1B5 JUMPI PUSH1 0x20 CALLDATASIZE PUSH1 0x3 NOT ADD SLT PUSH2 0x1B5 JUMPI PUSH2 0x125 PUSH2 0x6BD JUMP JUMPDEST DUP4 SLOAD PUSH1 0x1 PUSH1 0x1 PUSH1 0xA0 SHL SUB SWAP2 SWAP1 PUSH2 0x13E SWAP1 DUP4 AND CALLER EQ PUSH2 0x726 JUMP JUMPDEST AND SWAP1 DUP2 ISZERO PUSH2 0x15E JUMPI POP DUP3 MSTORE PUSH1 0x7 PUSH1 0x20 MSTORE DUP2 KECCAK256 DUP1 SLOAD PUSH1 0xFF NOT AND PUSH1 0x1 OR SWAP1 SSTORE DUP1 RETURN JUMPDEST PUSH1 0x84 SWAP1 PUSH1 0x20 DUP5 MLOAD SWAP2 PUSH3 0x461BCD PUSH1 0xE5 SHL DUP4 MSTORE DUP3 ADD MSTORE PUSH1 0x2B PUSH1 0x24 DUP3 ADD MSTORE PUSH32 0x45524332303A204578636C756465204D61782054782066726F6D20746865207A PUSH1 0x44 DUP3 ADD MSTORE PUSH11 0x65726F2061646472657373 PUSH1 0xA8 SHL PUSH1 0x64 DUP3 ADD MSTORE REVERT JUMPDEST DUP3 DUP1 REVERT JUMPDEST SWAP2 SWAP1 POP CALLVALUE PUSH2 0x1B5 JUMPI PUSH1 0x20 CALLDATASIZE PUSH1 0x3 NOT ADD SLT PUSH2 0x1B5 JUMPI DUP2 CALLDATALOAD SWAP2 PUSH2 0x1E4 PUSH1 0x1 DUP1 PUSH1 0xA0 SHL SUB DUP6 SLOAD AND CALLER EQ PUSH2 0x726 JUMP JUMPDEST PUSH1 0x5 DUP4 GT PUSH2 0x21C JUMPI SWAP2 PUSH1 0x20 SWAP2 DUP2 PUSH32 0xFF3DD5E80294197918C284BBFC3DADD97D0B40CE92106110946329088F80068A SWAP5 SSTORE MLOAD SWAP1 DUP2 MSTORE LOG1 DUP1 RETURN JUMPDEST PUSH1 0x20 PUSH1 0x84 SWAP3 MLOAD SWAP2 PUSH3 0x461BCD PUSH1 0xE5 SHL DUP4 MSTORE DUP3 ADD MSTORE PUSH1 0x21 PUSH1 0x24 DUP3 ADD MSTORE PUSH32 0x4D6178205472616E73616374696F6E2063616E6E6F7420657863656564203525 PUSH1 0x44 DUP3 ADD MSTORE PUSH1 0x17 PUSH1 0xF9 SHL PUSH1 0x64 DUP3 ADD MSTORE REVERT JUMPDEST POP POP CALLVALUE PUSH2 0x106 JUMPI DUP1 PUSH1 0x3 NOT CALLDATASIZE ADD SLT PUSH2 0x106 JUMPI PUSH1 0x20 SWAP1 PUSH2 0x292 PUSH2 0x288 PUSH2 0x6BD JUMP JUMPDEST PUSH1 0x24 CALLDATALOAD SWAP1 CALLER PUSH2 0x873 JUMP JUMPDEST MLOAD PUSH1 0x1 DUP2 MSTORE RETURN JUMPDEST SWAP2 SWAP1 POP CALLVALUE PUSH2 0x1B5 JUMPI DUP3 PUSH1 0x3 NOT CALLDATASIZE ADD SLT PUSH2 0x1B5 JUMPI DUP1 MLOAD SWAP2 DUP4 PUSH1 0x3 SLOAD SWAP1 PUSH1 0x1 SWAP1 DUP3 PUSH1 0x1 SHR SWAP3 PUSH1 0x1 DUP2 AND DUP1 ISZERO PUSH2 0x394 JUMPI JUMPDEST PUSH1 0x20 SWAP6 DUP7 DUP7 LT DUP3 EQ PUSH2 0x381 JUMPI POP DUP5 DUP9 MSTORE SWAP1 DUP2 ISZERO PUSH2 0x35F JUMPI POP PUSH1 0x1 EQ PUSH2 0x306 JUMPI JUMPDEST PUSH2 0x302 DUP7 DUP7 PUSH2 0x2F8 DUP3 DUP12 SUB DUP4 PUSH2 0x6EE JUMP JUMPDEST MLOAD SWAP2 DUP3 SWAP2 DUP3 PUSH2 0x674 JUMP JUMPDEST SUB SWAP1 RETURN JUMPDEST SWAP3 SWAP6 POP PUSH1 0x3 DUP4 MSTORE PUSH32 0xC2575A0E9E593C00F959F8C92F12DB2869C3395A3B0502D05E2516446F71F85B JUMPDEST DUP3 DUP5 LT PUSH2 0x34C JUMPI POP POP POP DUP3 PUSH2 0x302 SWAP5 PUSH2 0x2F8 SWAP3 DUP3 ADD ADD SWAP5 CODESIZE PUSH2 0x2E7 JUMP JUMPDEST DUP1 SLOAD DUP7 DUP6 ADD DUP9 ADD MSTORE SWAP3 DUP7 ADD SWAP3 DUP2 ADD PUSH2 0x32F JUMP JUMPDEST PUSH1 0xFF NOT AND DUP8 DUP7 ADD MSTORE POP POP POP ISZERO ISZERO PUSH1 0x5 SHL DUP4 ADD ADD SWAP3 POP PUSH2 0x2F8 DUP3 PUSH2 0x302 CODESIZE PUSH2 0x2E7 JUMP JUMPDEST PUSH4 0x4E487B71 PUSH1 0xE0 SHL DUP5 MSTORE PUSH1 0x22 SWAP1 MSTORE PUSH1 0x24 DUP4 REVERT JUMPDEST SWAP4 PUSH1 0x7F AND SWAP4 PUSH2 0x2C7 JUMP JUMPDEST POP POP CALLVALUE PUSH2 0x106 JUMPI DUP2 PUSH1 0x3 NOT CALLDATASIZE ADD SLT PUSH2 0x106 JUMPI SWAP1 SLOAD SWAP1 MLOAD PUSH1 0x1 PUSH1 0x1 PUSH1 0xA0 SHL SUB SWAP1 SWAP2 AND DUP2 MSTORE PUSH1 0x20 SWAP1 RETURN JUMPDEST SWAP1 POP CALLVALUE PUSH2 0x1B5 JUMPI DUP3 PUSH1 0x3 NOT CALLDATASIZE ADD SLT PUSH2 0x1B5 JUMPI PUSH1 0x20 SWAP3 POP SLOAD SWAP1 MLOAD SWAP1 DUP2 MSTORE RETURN JUMPDEST DUP4 CALLVALUE PUSH2 0x440 JUMPI DUP1 PUSH1 0x3 NOT CALLDATASIZE ADD SLT PUSH2 0x440 JUMPI DUP1 SLOAD DUP2 PUSH1 0x1 PUSH1 0x1 PUSH1 0xA0 SHL SUB DUP3 AND PUSH2 0x40D CALLER DUP3 EQ PUSH2 0x726 JUMP JUMPDEST PUSH32 0x8BE0079C531659141344CD1FD0A4F28419497F9722A3DAAFE3B4186F6B6457E0 DUP3 DUP1 LOG3 PUSH1 0x1 PUSH1 0x1 PUSH1 0xA0 SHL SUB NOT AND DUP2 SSTORE DUP1 RETURN JUMPDEST DUP1 REVERT JUMPDEST POP POP CALLVALUE PUSH2 0x106 JUMPI PUSH1 0x20 CALLDATASIZE PUSH1 0x3 NOT ADD SLT PUSH2 0x106 JUMPI PUSH1 0x20 SWAP2 DUP2 SWAP1 PUSH1 0x1 PUSH1 0x1 PUSH1 0xA0 SHL SUB PUSH2 0x46B PUSH2 0x6BD JUMP JUMPDEST AND DUP2 MSTORE PUSH1 0x5 DUP5 MSTORE KECCAK256 SLOAD SWAP1 MLOAD SWAP1 DUP2 MSTORE RETURN JUMPDEST POP POP CALLVALUE PUSH2 0x106 JUMPI DUP2 PUSH1 0x3 NOT CALLDATASIZE ADD SLT PUSH2 0x106 JUMPI PUSH1 0x20 SWAP1 MLOAD PUSH1 0x12 DUP2 MSTORE RETURN JUMPDEST DUP3 DUP5 CALLVALUE PUSH2 0x440 JUMPI PUSH1 0x60 CALLDATASIZE PUSH1 0x3 NOT ADD SLT PUSH2 0x440 JUMPI PUSH2 0x4B2 PUSH2 0x6BD JUMP JUMPDEST SWAP1 PUSH2 0x4BB PUSH2 0x6D8 JUMP JUMPDEST PUSH2 0x4C9 PUSH1 0x44 CALLDATALOAD DUP1 SWAP3 DUP6 PUSH2 0x873 JUMP JUMPDEST PUSH1 0x1 PUSH1 0x1 PUSH1 0xA0 SHL SUB DUP4 AND DUP3 MSTORE PUSH1 0x6 PUSH1 0x20 SWAP1 DUP2 MSTORE DUP5 DUP4 KECCAK256 CALLER DUP5 MSTORE SWAP1 MSTORE DUP4 DUP3 KECCAK256 SLOAD DUP5 MLOAD SWAP3 PUSH1 0x60 DUP5 ADD SWAP1 PUSH8 0xFFFFFFFFFFFFFFFF DUP3 GT DUP6 DUP4 LT OR PUSH2 0x559 JUMPI PUSH1 0x20 DUP8 PUSH2 0x292 DUP9 PUSH2 0x551 DUP10 DUP10 DUP10 DUP10 DUP8 MSTORE PUSH1 0x28 DUP4 MSTORE PUSH32 0x45524332303A207472616E7366657220616D6F756E7420657863656564732061 DUP9 DUP5 ADD MSTORE PUSH8 0x6C6C6F77616E6365 PUSH1 0xC0 SHL DUP8 DUP5 ADD MSTORE PUSH2 0xB4D JUMP JUMPDEST SWAP1 CALLER SWAP1 PUSH2 0x771 JUMP JUMPDEST PUSH4 0x4E487B71 PUSH1 0xE0 SHL DUP2 MSTORE PUSH1 0x41 DUP9 MSTORE PUSH1 0x24 SWAP1 REVERT JUMPDEST POP POP CALLVALUE PUSH2 0x106 JUMPI DUP2 PUSH1 0x3 NOT CALLDATASIZE ADD SLT PUSH2 0x106 JUMPI PUSH1 0x20 SWAP1 PUSH1 0x1 SLOAD SWAP1 MLOAD SWAP1 DUP2 MSTORE RETURN JUMPDEST POP POP CALLVALUE PUSH2 0x106 JUMPI DUP1 PUSH1 0x3 NOT CALLDATASIZE ADD SLT PUSH2 0x106 JUMPI PUSH1 0x20 SWAP1 PUSH2 0x292 PUSH2 0x5AB PUSH2 0x6BD JUMP JUMPDEST PUSH1 0x24 CALLDATALOAD SWAP1 CALLER PUSH2 0x771 JUMP JUMPDEST SWAP3 SWAP2 POP CALLVALUE PUSH2 0x670 JUMPI DUP4 PUSH1 0x3 NOT CALLDATASIZE ADD SLT PUSH2 0x670 JUMPI PUSH1 0x2 SLOAD PUSH1 0x1 DUP2 DUP2 SHR SWAP2 DUP7 SWAP1 DUP3 DUP2 AND DUP1 ISZERO PUSH2 0x666 JUMPI JUMPDEST PUSH1 0x20 SWAP6 DUP7 DUP7 LT DUP3 EQ PUSH2 0x381 JUMPI POP DUP5 DUP9 MSTORE SWAP1 DUP2 ISZERO PUSH2 0x35F JUMPI POP PUSH1 0x1 EQ PUSH2 0x60D JUMPI PUSH2 0x302 DUP7 DUP7 PUSH2 0x2F8 DUP3 DUP12 SUB DUP4 PUSH2 0x6EE JUMP JUMPDEST SWAP3 SWAP6 POP PUSH1 0x2 DUP4 MSTORE PUSH32 0x405787FA12A823E0F2B7631CC41B3BA8828B3321CA811111FA75CD3AA3BB5ACE JUMPDEST DUP3 DUP5 LT PUSH2 0x653 JUMPI POP POP POP DUP3 PUSH2 0x302 SWAP5 PUSH2 0x2F8 SWAP3 DUP3 ADD ADD SWAP5 CODESIZE PUSH2 0x2E7 JUMP JUMPDEST DUP1 SLOAD DUP7 DUP6 ADD DUP9 ADD MSTORE SWAP3 DUP7 ADD SWAP3 DUP2 ADD PUSH2 0x636 JUMP JUMPDEST SWAP4 PUSH1 0x7F AND SWAP4 PUSH2 0x5DD JUMP JUMPDEST DUP4 DUP1 REVERT JUMPDEST PUSH1 0x20 DUP1 DUP3 MSTORE DUP3 MLOAD DUP2 DUP4 ADD DUP2 SWAP1 MSTORE SWAP1 SWAP4 SWAP3 PUSH1 0x0 JUMPDEST DUP3 DUP2 LT PUSH2 0x6A9 JUMPI POP POP PUSH1 0x40 SWAP3 SWAP4 POP PUSH1 0x0 DUP4 DUP3 DUP5 ADD ADD MSTORE PUSH1 0x1F DUP1 NOT SWAP2 ADD AND ADD ADD SWAP1 JUMP JUMPDEST DUP2 DUP2 ADD DUP7 ADD MLOAD DUP5 DUP3 ADD PUSH1 0x40 ADD MSTORE DUP6 ADD PUSH2 0x687 JUMP JUMPDEST PUSH1 0x4 CALLDATALOAD SWAP1 PUSH1 0x1 PUSH1 0x1 PUSH1 0xA0 SHL SUB DUP3 AND DUP3 SUB PUSH2 0x6D3 JUMPI JUMP JUMPDEST PUSH1 0x0 DUP1 REVERT JUMPDEST PUSH1 0x24 CALLDATALOAD SWAP1 PUSH1 0x1 PUSH1 0x1 PUSH1 0xA0 SHL SUB DUP3 AND DUP3 SUB PUSH2 0x6D3 JUMPI JUMP JUMPDEST SWAP1 PUSH1 0x1F DUP1 NOT SWAP2 ADD AND DUP2 ADD SWAP1 DUP2 LT PUSH8 0xFFFFFFFFFFFFFFFF DUP3 GT OR PUSH2 0x710 JUMPI PUSH1 0x40 MSTORE JUMP JUMPDEST PUSH4 0x4E487B71 PUSH1 0xE0 SHL PUSH1 0x0 MSTORE PUSH1 0x41 PUSH1 0x4 MSTORE PUSH1 0x24 PUSH1 0x0 REVERT JUMPDEST ISZERO PUSH2 0x72D JUMPI JUMP JUMPDEST PUSH1 0x64 PUSH1 0x40 MLOAD PUSH3 0x461BCD PUSH1 0xE5 SHL DUP2 MSTORE PUSH1 0x20 PUSH1 0x4 DUP3 ADD MSTORE PUSH1 0x20 PUSH1 0x24 DUP3 ADD MSTORE PUSH32 0x4F776E61626C653A2063616C6C6572206973206E6F7420746865206F776E6572 PUSH1 0x44 DUP3 ADD MSTORE REVERT JUMPDEST PUSH1 0x1 PUSH1 0x1 PUSH1 0xA0 SHL SUB SWAP1 DUP2 AND SWAP2 DUP3 ISZERO PUSH2 0x822 JUMPI AND SWAP2 DUP3 ISZERO PUSH2 0x7D2 JUMPI PUSH1 0x20 PUSH32 0x8C5BE1E5EBEC7D5BD14F71427D1E84F3DD0314C0F7B2291E5B200AC8C7C3B925 SWAP2 DUP4 PUSH1 0x0 MSTORE PUSH1 0x6 DUP3 MSTORE PUSH1 0x40 PUSH1 0x0 KECCAK256 DUP6 PUSH1 0x0 MSTORE DUP3 MSTORE DUP1 PUSH1 0x40 PUSH1 0x0 KECCAK256 SSTORE PUSH1 0x40 MLOAD SWAP1 DUP2 MSTORE LOG3 JUMP JUMPDEST PUSH1 0x40 MLOAD PUSH3 0x461BCD PUSH1 0xE5 SHL DUP2 MSTORE PUSH1 0x20 PUSH1 0x4 DUP3 ADD MSTORE PUSH1 0x22 PUSH1 0x24 DUP3 ADD MSTORE PUSH32 0x45524332303A20617070726F766520746F20746865207A65726F206164647265 PUSH1 0x44 DUP3 ADD MSTORE PUSH2 0x7373 PUSH1 0xF0 SHL PUSH1 0x64 DUP3 ADD MSTORE PUSH1 0x84 SWAP1 REVERT JUMPDEST PUSH1 0x40 MLOAD PUSH3 0x461BCD PUSH1 0xE5 SHL DUP2 MSTORE PUSH1 0x20 PUSH1 0x4 DUP3 ADD MSTORE PUSH1 0x24 DUP1 DUP3 ADD MSTORE PUSH32 0x45524332303A20617070726F76652066726F6D20746865207A65726F20616464 PUSH1 0x44 DUP3 ADD MSTORE PUSH4 0x72657373 PUSH1 0xE0 SHL PUSH1 0x64 DUP3 ADD MSTORE PUSH1 0x84 SWAP1 REVERT JUMPDEST SWAP2 SWAP3 SWAP2 PUSH1 0x1 PUSH1 0x1 PUSH1 0xA0 SHL SUB SWAP1 DUP2 AND SWAP2 DUP3 ISZERO PUSH2 0xAFA JUMPI AND SWAP1 DUP2 ISZERO PUSH2 0xAA9 JUMPI DUP4 ISZERO PUSH2 0xA52 JUMPI PUSH1 0x4 DUP1 SLOAD SWAP5 PUSH1 0x1 SLOAD SWAP6 DUP7 DUP2 MUL SWAP7 DUP2 DUP9 DIV EQ SWAP1 ISZERO OR ISZERO PUSH2 0xA3D JUMPI PUSH1 0x0 SWAP6 DUP4 DUP8 MSTORE PUSH1 0x20 SWAP3 PUSH1 0x7 DUP5 MSTORE PUSH1 0x40 SWAP2 PUSH1 0xFF DUP4 DUP11 KECCAK256 SLOAD AND ISZERO PUSH2 0x9EC JUMPI JUMPDEST POP DUP5 DUP9 MSTORE PUSH1 0x5 DUP5 MSTORE DUP2 DUP9 KECCAK256 SLOAD DUP3 MLOAD SWAP1 DUP4 DUP3 ADD DUP3 DUP2 LT PUSH8 0xFFFFFFFFFFFFFFFF DUP3 GT OR PUSH2 0x9D9 JUMPI PUSH2 0x928 SWAP3 SWAP2 DUP7 SWAP2 DUP7 MSTORE PUSH1 0x1E DUP4 MSTORE PUSH32 0x536166654D6174683A207375627472616374696F6E206F766572666C6F770000 DUP9 DUP5 ADD MSTORE PUSH2 0xB4D JUMP JUMPDEST DUP6 DUP10 MSTORE PUSH1 0x5 DUP6 MSTORE DUP3 DUP10 KECCAK256 SSTORE DUP6 DUP9 MSTORE DUP2 DUP9 KECCAK256 SLOAD SWAP1 DUP4 DUP3 ADD SWAP2 DUP3 DUP2 GT PUSH2 0x9C6 JUMPI DUP3 LT PUSH2 0x983 JUMPI POP DUP2 DUP9 DUP8 PUSH32 0xDDF252AD1BE2C89B69C2B068FC378DAA952BA7F163C4A11628F55A4DF523B3EF SWAP8 SWAP9 SWAP10 SWAP11 MSTORE PUSH1 0x5 DUP7 MSTORE KECCAK256 SSTORE MLOAD SWAP1 DUP2 MSTORE LOG3 JUMP JUMPDEST DUP3 MLOAD PUSH3 0x461BCD PUSH1 0xE5 SHL DUP2 MSTORE SWAP1 DUP2 ADD DUP6 SWAP1 MSTORE PUSH1 0x1B PUSH1 0x24 DUP3 ADD MSTORE PUSH32 0x536166654D6174683A206164646974696F6E206F766572666C6F770000000000 PUSH1 0x44 DUP3 ADD MSTORE PUSH1 0x64 SWAP1 REVERT JUMPDEST PUSH4 0x4E487B71 PUSH1 0xE0 SHL DUP11 MSTORE PUSH1 0x11 DUP3 MSTORE PUSH1 0x24 DUP11 REVERT JUMPDEST PUSH4 0x4E487B71 PUSH1 0xE0 SHL DUP12 MSTORE PUSH1 0x41 DUP5 MSTORE PUSH1 0x24 DUP12 REVERT JUMPDEST PUSH1 0x64 SWAP1 DIV DUP4 GT PUSH2 0x9FC JUMPI CODESIZE PUSH2 0x8CC JUMP JUMPDEST DUP4 PUSH1 0x64 SWAP3 MLOAD SWAP2 PUSH3 0x461BCD PUSH1 0xE5 SHL DUP4 MSTORE DUP3 ADD MSTORE PUSH1 0x18 PUSH1 0x24 DUP3 ADD MSTORE PUSH32 0x4578636565647320746865204D61785478416D6F756E742E0000000000000000 PUSH1 0x44 DUP3 ADD MSTORE REVERT JUMPDEST PUSH1 0x11 DUP3 PUSH4 0x4E487B71 PUSH1 0xE0 SHL PUSH1 0x0 MSTORE MSTORE PUSH1 0x24 PUSH1 0x0 REVERT JUMPDEST PUSH1 0x40 MLOAD PUSH3 0x461BCD PUSH1 0xE5 SHL DUP2 MSTORE PUSH1 0x20 PUSH1 0x4 DUP3 ADD MSTORE PUSH1 0x29 PUSH1 0x24 DUP3 ADD MSTORE PUSH32 0x5472616E7366657220616D6F756E74206D757374206265206772656174657220 PUSH1 0x44 DUP3 ADD MSTORE PUSH9 0x7468616E207A65726F PUSH1 0xB8 SHL PUSH1 0x64 DUP3 ADD MSTORE PUSH1 0x84 SWAP1 REVERT JUMPDEST PUSH1 0x40 MLOAD PUSH3 0x461BCD PUSH1 0xE5 SHL DUP2 MSTORE PUSH1 0x20 PUSH1 0x4 DUP3 ADD MSTORE PUSH1 0x23 PUSH1 0x24 DUP3 ADD MSTORE PUSH32 0x45524332303A207472616E7366657220746F20746865207A65726F2061646472 PUSH1 0x44 DUP3 ADD MSTORE PUSH3 0x657373 PUSH1 0xE8 SHL PUSH1 0x64 DUP3 ADD MSTORE PUSH1 0x84 SWAP1 REVERT JUMPDEST PUSH1 0x40 MLOAD PUSH3 0x461BCD PUSH1 0xE5 SHL DUP2 MSTORE PUSH1 0x20 PUSH1 0x4 DUP3 ADD MSTORE PUSH1 0x25 PUSH1 0x24 DUP3 ADD MSTORE PUSH32 0x45524332303A207472616E736665722066726F6D20746865207A65726F206164 PUSH1 0x44 DUP3 ADD MSTORE PUSH5 0x6472657373 PUSH1 0xD8 SHL PUSH1 0x64 DUP3 ADD MSTORE PUSH1 0x84 SWAP1 REVERT JUMPDEST SWAP2 DUP3 DUP3 GT PUSH2 0xB78 JUMPI POP DUP2 SUB SWAP1 DUP2 GT PUSH2 0xB62 JUMPI SWAP1 JUMP JUMPDEST PUSH4 0x4E487B71 PUSH1 0xE0 SHL PUSH1 0x0 MSTORE PUSH1 0x11 PUSH1 0x4 MSTORE PUSH1 0x24 PUSH1 0x0 REVERT JUMPDEST PUSH1 0x40 MLOAD PUSH3 0x461BCD PUSH1 0xE5 SHL DUP2 MSTORE SWAP1 DUP2 SWAP1 PUSH2 0xB94 SWAP1 PUSH1 0x4 DUP4 ADD PUSH2 0x674 JUMP JUMPDEST SUB SWAP1 REVERT INVALID LOG2 PUSH5 0x6970667358 0x22 SLT KECCAK256 0xC4 SWAP15 SSTORE SELFBALANCE BLOCKHASH 0xCB PUSH18 0xAA09A85B3746B1A934ACBFB9371A9F5EEFD2 PUSH27 0x7B626EA785F264736F6C63430008180033A2646970667358221220 0xAB SWAP3 0xAE KECCAK256 JUMPDEST DUP12 PUSH4 0xE9D939B 0xA7 CALLER MUL 0xE6 0xB4 0xB8 BYTE 0xF7 0xDA SELFBALANCE 0xE1 PUSH4 0x4D00BE17 0x21 PUSH3 0xE86ED6 PUSH5 0x736F6C6343 STOP ADDMOD XOR STOP CALLER "
        },
        "methodIdentifiers": {
          "approval(address,address,uint256)": "5c52a5f2",
          "deploy(address)": "4c96a389",
          "feeTo()": "017e7e58",
          "feeToSetter()": "094b7415",
          "getTokens()": "aa6ca808",
          "getUserTokens()": "8a664ebc",
          "launch(string,string,string,string,string[4],uint256,uint256)": "ad256f7d",
          "launchFee()": "cf3cf573",
          "liquidityFee()": "98118cb4",
          "marketCapLimit()": "80997e47",
          "profile(address)": "9dd9d0fd",
          "profiles(uint256)": "c36fe3d6",
          "setFeeTo(address)": "f46901ed",
          "swapETHForTokens(address,address,address)": "57f8d901",
          "swapTokensForETH(uint256,address,address,address)": "512b1e6e",
          "token(address)": "6d46a1db",
          "tokens(uint256)": "4f64b2be",
          "updateLaunchFee(uint256)": "7660f44a"
        }
      }
    }
  }
}