{"abi":[{"type":"function","name":"FUNDING_GOAL","inputs":[],"outputs":[{"name":"","type":"uint256","internalType":"uint256"}],"stateMutability":"view"},{"type":"function","name":"FUNDING_SUPPLY","inputs":[],"outputs":[{"name":"","type":"uint256","internalType":"uint256"}],"stateMutability":"view"},{"type":"function","name":"calculateBuyReturn","inputs":[{"name":"ethAmount","type":"uint256","internalType":"uint256"}],"outputs":[{"name":"","type":"uint256","internalType":"uint256"}],"stateMutability":"pure"},{"type":"function","name":"calculateSellReturn","inputs":[{"name":"tokenAmount","type":"uint256","internalType":"uint256"}],"outputs":[{"name":"","type":"uint256","internalType":"uint256"}],"stateMutability":"pure"}],"bytecode":{"object":"0x6080604052348015600f57600080fd5b506101c88061001f6000396000f3fe608060405234801561001057600080fd5b506004361061004c5760003560e01c806342e49d5a14610051578063828f3a9c14610073578063bc3c39cb14610086578063bfe6085614610099575b600080fd5b6100616801158e460913d0000081565b60405190815260200160405180910390f35b610061610081366004610100565b6100ac565b610061610094366004610100565b6100de565b6100616b0295be96e64066972000000081565b60006801158e460913d000006100ce6b0295be96e64066972000000084610119565b6100d89190610157565b92915050565b60006b0295be96e6406697200000006100ce6801158e460913d0000084610119565b60006020828403121561011257600080fd5b5035919050565b80820281158282048414176100d8577f4e487b7100000000000000000000000000000000000000000000000000000000600052601160045260246000fd5b60008261018d577f4e487b7100000000000000000000000000000000000000000000000000000000600052601260045260246000fd5b50049056fea264697066735822122031200a11f108ce187a39372f832b7bec16bd088f5de9fbbc12548637eeb0279c64736f6c634300081a0033","linkReferences":{}},"methodIdentifiers":{"FUNDING_GOAL()":"42e49d5a","FUNDING_SUPPLY()":"bfe60856","calculateBuyReturn(uint256)":"828f3a9c","calculateSellReturn(uint256)":"bc3c39cb"},"id":2}