{"abi":[{"type":"function","name":"getCost","inputs":[{"name":"steps","type":"tuple[]","internalType":"struct BondingCurve.Step[]","components":[{"name":"supply","type":"uint256","internalType":"uint256"},{"name":"price","type":"uint256","internalType":"uint256"}]},{"name":"supply","type":"uint256","internalType":"uint256"},{"name":"amount","type":"uint256","internalType":"uint256"}],"outputs":[{"name":"","type":"uint256","internalType":"uint256"}],"stateMutability":"pure"},{"type":"function","name":"getCurrentPrice","inputs":[{"name":"steps","type":"tuple[]","internalType":"struct BondingCurve.Step[]","components":[{"name":"supply","type":"uint256","internalType":"uint256"},{"name":"price","type":"uint256","internalType":"uint256"}]},{"name":"supply","type":"uint256","internalType":"uint256"}],"outputs":[{"name":"","type":"uint256","internalType":"uint256"}],"stateMutability":"pure"},{"type":"function","name":"getRefund","inputs":[{"name":"steps","type":"tuple[]","internalType":"struct BondingCurve.Step[]","components":[{"name":"supply","type":"uint256","internalType":"uint256"},{"name":"price","type":"uint256","internalType":"uint256"}]},{"name":"supply","type":"uint256","internalType":"uint256"},{"name":"amount","type":"uint256","internalType":"uint256"}],"outputs":[{"name":"","type":"uint256","internalType":"uint256"}],"stateMutability":"pure"}],"bytecode":{"object":"0x6080604052348015600f57600080fd5b506107408061001f6000396000f3fe608060405234801561001057600080fd5b50600436106100415760003560e01c80634a1dcb2e146100465780635debf76b1461006b578063d5e398851461007e575b600080fd5b6100596100543660046105dc565b610091565b60405190815260200160405180910390f35b610059610079366004610621565b610126565b61005961008c366004610621565b6102d6565b6000805b83518110156100f1578381815181106100b0576100b061066f565b6020026020010151600001518310156100e9578381815181106100d5576100d561066f565b602002602001015160200151915050610120565b600101610095565b50826001845161010191906106cd565b815181106101115761011161066f565b60200260200101516020015190505b92915050565b600080805b855181101561023a578581815181106101465761014661066f565b6020026020010151600001518510156102325760006001875161016991906106cd565b8214610192578682815181106101815761018161066f565b6020026020010151600001516101b4565b7fffffffffffffffffffffffffffffffffffffffffffffffffffffffffffffffff5b905060006101c287836106cd565b9050600086821882881002821890508884815181106101e3576101e361066f565b602002602001015160200151816101fa91906106e0565b61020490866106f7565b945061021081886106cd565b965061021c81896106f7565b97508660000361022e5750505061023a565b5050505b60010161012b565b5082156102ce576040517f08c379a000000000000000000000000000000000000000000000000000000000815260206004820152602260248201527f4e6f7420656e6f75676820737570706c7920696e20626f6e64696e672063757260448201527f766500000000000000000000000000000000000000000000000000000000000060648201526084015b60405180910390fd5b949350505050565b600081818482811015610345576040517f08c379a000000000000000000000000000000000000000000000000000000000815260206004820152601960248201527f4e6f7420656e6f75676820746f6b656e7320746f2073656c6c0000000000000060448201526064016102c5565b60005b875181101561042357600080821161036157600061038a565b8861036d6001846106cd565b8151811061037d5761037d61066f565b6020026020010151600001515b9050808311610399575061041b565b60006103a582856106cd565b905060008187116103b657866103b8565b815b90508a84815181106103cc576103cc61066f565b602002602001015160200151816103e391906106e0565b6103ed90876106f7565b95506103f981886106cd565b965061040581866106cd565b94508660000361041757505050610423565b5050505b600101610348565b50821561048c576040517f08c379a000000000000000000000000000000000000000000000000000000000815260206004820152601960248201527f526566756e642063616c63756c6174696f6e206661696c65640000000000000060448201526064016102c5565b5095945050505050565b7f4e487b7100000000000000000000000000000000000000000000000000000000600052604160045260246000fd5b6040805190810167ffffffffffffffff811182821017156104e8576104e8610496565b60405290565b604051601f82017fffffffffffffffffffffffffffffffffffffffffffffffffffffffffffffffe016810167ffffffffffffffff8111828210171561053557610535610496565b604052919050565b600082601f83011261054e57600080fd5b813567ffffffffffffffff81111561056857610568610496565b61057760208260051b016104ee565b8082825260208201915060208360061b86010192508583111561059957600080fd5b602085015b8381101561048c57604081880312156105b657600080fd5b6105be6104c5565b8135815260208083013581830152908452929092019160400161059e565b600080604083850312156105ef57600080fd5b823567ffffffffffffffff81111561060657600080fd5b6106128582860161053d565b95602094909401359450505050565b60008060006060848603121561063657600080fd5b833567ffffffffffffffff81111561064d57600080fd5b6106598682870161053d565b9660208601359650604090950135949350505050565b7f4e487b7100000000000000000000000000000000000000000000000000000000600052603260045260246000fd5b7f4e487b7100000000000000000000000000000000000000000000000000000000600052601160045260246000fd5b818103818111156101205761012061069e565b80820281158282048414176101205761012061069e565b808201808211156101205761012061069e56fea26469706673582212203c88fde0bc418693ecdac9a779f7320d63315b00a97704439507fee7ca01d3d564736f6c634300081a0033","linkReferences":{}},"methodIdentifiers":{"getCost((uint256,uint256)[],uint256,uint256)":"5debf76b","getCurrentPrice((uint256,uint256)[],uint256)":"4a1dcb2e","getRefund((uint256,uint256)[],uint256,uint256)":"d5e39885"},"id":7}