{"abi":[{"type":"constructor","inputs":[{"name":"_tokenImplementation","type":"address","internalType":"address"},{"name":"_uniswapV2Router","type":"address","internalType":"address"},{"name":"_uniswapV2Factory","type":"address","internalType":"address"},{"name":"_bondingCurve","type":"address","internalType":"address"},{"name":"_feePercent","type":"uint256","internalType":"uint256"}],"stateMutability":"nonpayable"},{"type":"function","name":"FEE_DENOMINATOR","inputs":[],"outputs":[{"name":"","type":"uint256","internalType":"uint256"}],"stateMutability":"view"},{"type":"function","name":"FUNDING_GOAL","inputs":[],"outputs":[{"name":"","type":"uint256","internalType":"uint256"}],"stateMutability":"view"},{"type":"function","name":"FUNDING_SUPPLY","inputs":[],"outputs":[{"name":"","type":"uint256","internalType":"uint256"}],"stateMutability":"view"},{"type":"function","name":"INITIAL_SUPPLY","inputs":[],"outputs":[{"name":"","type":"uint256","internalType":"uint256"}],"stateMutability":"view"},{"type":"function","name":"MAX_SUPPLY","inputs":[],"outputs":[{"name":"","type":"uint256","internalType":"uint256"}],"stateMutability":"view"},{"type":"function","name":"bondingCurve","inputs":[],"outputs":[{"name":"","type":"address","internalType":"contract BondingCurve"}],"stateMutability":"view"},{"type":"function","name":"burnTokenAndMintWinner","inputs":[{"name":"tokenAddress","type":"address","internalType":"address"}],"outputs":[],"stateMutability":"nonpayable"},{"type":"function","name":"buy","inputs":[{"name":"tokenAddress","type":"address","internalType":"address"}],"outputs":[],"stateMutability":"payable"},{"type":"function","name":"claimFee","inputs":[],"outputs":[],"stateMutability":"nonpayable"},{"type":"function","name":"collateral","inputs":[{"name":"","type":"address","internalType":"address"}],"outputs":[{"name":"","type":"uint256","internalType":"uint256"}],"stateMutability":"view"},{"type":"function","name":"createToken","inputs":[{"name":"name","type":"string","internalType":"string"},{"name":"symbol","type":"string","internalType":"string"},{"name":"uri","type":"string","internalType":"string"}],"outputs":[{"name":"","type":"address","internalType":"address"}],"stateMutability":"nonpayable"},{"type":"function","name":"fee","inputs":[],"outputs":[{"name":"","type":"uint256","internalType":"uint256"}],"stateMutability":"view"},{"type":"function","name":"feePercent","inputs":[],"outputs":[{"name":"","type":"uint256","internalType":"uint256"}],"stateMutability":"view"},{"type":"function","name":"owner","inputs":[],"outputs":[{"name":"","type":"address","internalType":"address"}],"stateMutability":"view"},{"type":"function","name":"renounceOwnership","inputs":[],"outputs":[],"stateMutability":"nonpayable"},{"type":"function","name":"sell","inputs":[{"name":"tokenAddress","type":"address","internalType":"address"},{"name":"amount","type":"uint256","internalType":"uint256"}],"outputs":[],"stateMutability":"nonpayable"},{"type":"function","name":"setBondingCurve","inputs":[{"name":"_bondingCurve","type":"address","internalType":"address"}],"outputs":[],"stateMutability":"nonpayable"},{"type":"function","name":"setFeePercent","inputs":[{"name":"_feePercent","type":"uint256","internalType":"uint256"}],"outputs":[],"stateMutability":"nonpayable"},{"type":"function","name":"setWinner","inputs":[{"name":"winnerAddress","type":"address","internalType":"address"}],"outputs":[],"stateMutability":"nonpayable"},{"type":"function","name":"tokenImplementation","inputs":[],"outputs":[{"name":"","type":"address","internalType":"address"}],"stateMutability":"view"},{"type":"function","name":"tokens","inputs":[{"name":"","type":"address","internalType":"address"}],"outputs":[{"name":"","type":"uint8","internalType":"enum TokenFactory.TokenState"}],"stateMutability":"view"},{"type":"function","name":"transferOwnership","inputs":[{"name":"newOwner","type":"address","internalType":"address"}],"outputs":[],"stateMutability":"nonpayable"},{"type":"function","name":"uniswapV2Factory","inputs":[],"outputs":[{"name":"","type":"address","internalType":"address"}],"stateMutability":"view"},{"type":"function","name":"uniswapV2Router","inputs":[],"outputs":[{"name":"","type":"address","internalType":"address"}],"stateMutability":"view"},{"type":"function","name":"winnerToken","inputs":[],"outputs":[{"name":"","type":"address","internalType":"address"}],"stateMutability":"view"},{"type":"event","name":"BurnTokenAndMintWinner","inputs":[{"name":"sender","type":"address","indexed":true,"internalType":"address"},{"name":"token","type":"address","indexed":true,"internalType":"address"},{"name":"winnerToken","type":"address","indexed":true,"internalType":"address"},{"name":"burnedAmount","type":"uint256","indexed":false,"internalType":"uint256"},{"name":"receivedETH","type":"uint256","indexed":false,"internalType":"uint256"},{"name":"mintedAmount","type":"uint256","indexed":false,"internalType":"uint256"},{"name":"timestamp","type":"uint256","indexed":false,"internalType":"uint256"}],"anonymous":false},{"type":"event","name":"OwnershipTransferred","inputs":[{"name":"previousOwner","type":"address","indexed":true,"internalType":"address"},{"name":"newOwner","type":"address","indexed":true,"internalType":"address"}],"anonymous":false},{"type":"event","name":"SetWinner","inputs":[{"name":"winner","type":"address","indexed":true,"internalType":"address"},{"name":"timestamp","type":"uint256","indexed":false,"internalType":"uint256"}],"anonymous":false},{"type":"event","name":"TokenBuy","inputs":[{"name":"token","type":"address","indexed":true,"internalType":"address"},{"name":"amount0In","type":"uint256","indexed":false,"internalType":"uint256"},{"name":"amount0Out","type":"uint256","indexed":false,"internalType":"uint256"},{"name":"fee","type":"uint256","indexed":false,"internalType":"uint256"},{"name":"timestamp","type":"uint256","indexed":false,"internalType":"uint256"}],"anonymous":false},{"type":"event","name":"TokenCreated","inputs":[{"name":"token","type":"address","indexed":true,"internalType":"address"},{"name":"name","type":"string","indexed":false,"internalType":"string"},{"name":"symbol","type":"string","indexed":false,"internalType":"string"},{"name":"uri","type":"string","indexed":false,"internalType":"string"},{"name":"creator","type":"address","indexed":false,"internalType":"address"},{"name":"timestamp","type":"uint256","indexed":false,"internalType":"uint256"}],"anonymous":false},{"type":"event","name":"TokenLiqudityAdded","inputs":[{"name":"token","type":"address","indexed":true,"internalType":"address"},{"name":"timestamp","type":"uint256","indexed":false,"internalType":"uint256"}],"anonymous":false},{"type":"event","name":"TokenSell","inputs":[{"name":"token","type":"address","indexed":true,"internalType":"address"},{"name":"amount0In","type":"uint256","indexed":false,"internalType":"uint256"},{"name":"amount0Out","type":"uint256","indexed":false,"internalType":"uint256"},{"name":"fee","type":"uint256","indexed":false,"internalType":"uint256"},{"name":"timestamp","type":"uint256","indexed":false,"internalType":"uint256"}],"anonymous":false},{"type":"error","name":"FailedDeployment","inputs":[]},{"type":"error","name":"InsufficientBalance","inputs":[{"name":"balance","type":"uint256","internalType":"uint256"},{"name":"needed","type":"uint256","internalType":"uint256"}]},{"type":"error","name":"OwnableInvalidOwner","inputs":[{"name":"owner","type":"address","internalType":"address"}]},{"type":"error","name":"OwnableUnauthorizedAccount","inputs":[{"name":"account","type":"address","internalType":"address"}]},{"type":"error","name":"ReentrancyGuardReentrantCall","inputs":[]}],"bytecode":{"object":"0x60a060405234801561001057600080fd5b50604051611db5380380611db583398101604081905261002f91610120565b6001600055338061005a57604051631e4fbdf760e01b81526000600482015260240160405180910390fd5b610063816100b2565b506001600160a01b03948516608052600680549486166001600160a01b03199586161790556007805493861693851693909317909255600880549190941692169190911790915560095561017e565b600180546001600160a01b038381166001600160a01b0319831681179093556040519116919082907f8be0079c531659141344cd1fd0a4f28419497f9722a3daafe3b4186f6b6457e090600090a35050565b80516001600160a01b038116811461011b57600080fd5b919050565b600080600080600060a0868803121561013857600080fd5b61014186610104565b945061014f60208701610104565b935061015d60408701610104565b925061016b60608701610104565b9150608086015190509295509295909350565b608051611c156101a06000396000818161025301526107b50152611c156000f3fe6080604052600436106101965760003560e01c80637fd6f15c116100e1578063d73792a91161008a578063e486033911610064578063e48603391461047b578063eff1d50e146104b8578063f088d547146104e5578063f2fde38b146104f857600080fd5b8063d73792a91461042f578063d9fca76914610445578063ddca3f431461046557600080fd5b806399d32fc4116100bb57806399d32fc4146103d8578063a5fdc5de146103ed578063bfe608561461041a57600080fd5b80637fd6f15c146103775780638da5cb5b1461038d57806394aed7d0146103b857600080fd5b806342e49d5a116101435780636c197ff51161011d5780636c197ff514610322578063715018a6146103425780637ce3489b1461035757600080fd5b806342e49d5a146102b857806343ff1fb8146102d557806359d0f713146102f557600080fd5b80632f3a3d5d116101745780632f3a3d5d146102415780632ff2e9dc1461027557806332cb6b0c1461029857600080fd5b806306d4ef641461019b5780631694505e146101f25780632216f7c01461021f575b600080fd5b3480156101a757600080fd5b50600b546101c89073ffffffffffffffffffffffffffffffffffffffff1681565b60405173ffffffffffffffffffffffffffffffffffffffff90911681526020015b60405180910390f35b3480156101fe57600080fd5b506006546101c89073ffffffffffffffffffffffffffffffffffffffff1681565b34801561022b57600080fd5b5061023f61023a36600461173b565b610518565b005b34801561024d57600080fd5b506101c87f000000000000000000000000000000000000000000000000000000000000000081565b34801561028157600080fd5b5061028a6106f4565b6040519081526020016101e9565b3480156102a457600080fd5b5061028a6b033b2e3c9fd0803ce800000081565b3480156102c457600080fd5b5061028a6801158e460913d0000081565b3480156102e157600080fd5b5061023f6102f036600461173b565b61071a565b34801561030157600080fd5b506007546101c89073ffffffffffffffffffffffffffffffffffffffff1681565b34801561032e57600080fd5b5061023f61033d366004611756565b610769565b34801561034e57600080fd5b5061023f61078c565b34801561036357600080fd5b5061023f610372366004611780565b6107a0565b34801561038357600080fd5b5061028a60095481565b34801561039957600080fd5b5060015473ffffffffffffffffffffffffffffffffffffffff166101c8565b3480156103c457600080fd5b506101c86103d3366004611894565b6107ad565b3480156103e457600080fd5b5061023f610961565b3480156103f957600080fd5b5061028a61040836600461173b565b60056020526000908152604090205481565b34801561042657600080fd5b5061028a610a40565b34801561043b57600080fd5b5061028a61271081565b34801561045157600080fd5b5061023f61046036600461173b565b610a59565b34801561047157600080fd5b5061028a600a5481565b34801561048757600080fd5b506104ab61049636600461173b565b60026020526000908152604090205460ff1681565b6040516101e99190611957565b3480156104c457600080fd5b506008546101c89073ffffffffffffffffffffffffffffffffffffffff1681565b61023f6104f336600461173b565b610ada565b34801561050457600080fd5b5061023f61051336600461173b565b610af8565b610520610b59565b600b5473ffffffffffffffffffffffffffffffffffffffff908116908216036105aa576040517f08c379a000000000000000000000000000000000000000000000000000000000815260206004820152601b60248201527f746f6b656e2061646472657373206973207468652077696e6e6572000000000060448201526064015b60405180910390fd5b6040517f70a08231000000000000000000000000000000000000000000000000000000008152336004820152819060009073ffffffffffffffffffffffffffffffffffffffff8316906370a0823190602401602060405180830381865afa158015610619573d6000803e3d6000fd5b505050506040513d601f19601f8201168201806040525081019061063d9190611998565b9050600061064d84833330610b9c565b600b549091506000906106779073ffffffffffffffffffffffffffffffffffffffff163384611044565b600b54604080518681526020810186905290810183905242606082015291925073ffffffffffffffffffffffffffffffffffffffff908116919087169033907fe4ca64b7f2517b04c97fc6a55b6adf4ea4aacc3654ba14b3d65987d12766757a9060800160405180910390a4505050506106f16001600055565b50565b600561070d6b033b2e3c9fd0803ce800000060016119e0565b61071791906119f7565b81565b610722611540565b600880547fffffffffffffffffffffffff00000000000000000000000000000000000000001673ffffffffffffffffffffffffffffffffffffffff92909216919091179055565b610771610b59565b61077d82823333610b9c565b506107886001600055565b5050565b610794611540565b61079e6000611593565b565b6107a8611540565b600955565b6000806107d97f000000000000000000000000000000000000000000000000000000000000000061160a565b6040517f5c6d8da1000000000000000000000000000000000000000000000000000000008152909150819073ffffffffffffffffffffffffffffffffffffffff821690635c6d8da190610836908990899089903090600401611aa0565b600060405180830381600087803b15801561085057600080fd5b505af1158015610864573d6000803e3d6000fd5b5050505073ffffffffffffffffffffffffffffffffffffffff8216600081815260026020908152604080832080547fffffffffffffffffffffffffffffffffffffffffffffffffffffffffffffff001660011790556004805484526003909252822080547fffffffffffffffffffffffff000000000000000000000000000000000000000016909317909255815491906108fd83611b01565b91905055508173ffffffffffffffffffffffffffffffffffffffff167f72d6a46765aafdd4100a7143409417ecff26241bbeddd3f3ac10adcbd636b83b8787873342604051610950959493929190611b39565b60405180910390a250949350505050565b610969611540565b600a546040805160008082526020820192839052923392909161098b91611b9d565b60006040518083038185875af1925050503d80600081146109c8576040519150601f19603f3d011682016040523d82523d6000602084013e6109cd565b606091505b5050905080610a38576040517f08c379a000000000000000000000000000000000000000000000000000000000815260206004820152600f60248201527f4554482073656e64206661696c6564000000000000000000000000000000000060448201526064016105a1565b506000600a55565b600561070d6b033b2e3c9fd0803ce800000060046119e0565b610a61611540565b600b80547fffffffffffffffffffffffff00000000000000000000000000000000000000001673ffffffffffffffffffffffffffffffffffffffff83169081179091556040514281527f75afb183cc8b5c6beea7898983762675fa8160d97ee9e3c93eea964d86d7e4a79060200160405180910390a250565b610ae2610b59565b610aed813334611044565b506106f16001600055565b610b00611540565b73ffffffffffffffffffffffffffffffffffffffff8116610b50576040517f1e4fbdf7000000000000000000000000000000000000000000000000000000008152600060048201526024016105a1565b6106f181611593565b600260005403610b95576040517f3ee5aeb500000000000000000000000000000000000000000000000000000000815260040160405180910390fd5b6002600055565b6000600173ffffffffffffffffffffffffffffffffffffffff861660009081526002602081905260409091205460ff1690811115610bdc57610bdc611928565b14610c43576040517f08c379a000000000000000000000000000000000000000000000000000000000815260206004820152601460248201527f546f6b656e206973206e6f742066756e64696e6700000000000000000000000060448201526064016105a1565b60008411610cd3576040517f08c379a000000000000000000000000000000000000000000000000000000000815260206004820152602260248201527f416d6f756e742073686f756c642062652067726561746572207468616e207a6560448201527f726f00000000000000000000000000000000000000000000000000000000000060648201526084016105a1565b600854604080517f18160ddd0000000000000000000000000000000000000000000000000000000081529051879260009273ffffffffffffffffffffffffffffffffffffffff9182169263901ce73e928616916318160ddd9160048083019260209291908290030181865afa158015610d50573d6000803e3d6000fd5b505050506040513d601f19601f82011682018060405250810190610d749190611998565b886040518363ffffffff1660e01b8152600401610d9b929190918252602082015260400190565b602060405180830381865afa158015610db8573d6000803e3d6000fd5b505050506040513d601f19601f82011682018060405250810190610ddc9190611998565b90506000610dec8260095461161d565b9050610df88183611bb9565b915080600a6000828254610e0c9190611bcc565b90915550506040517f9dc29fac00000000000000000000000000000000000000000000000000000000815273ffffffffffffffffffffffffffffffffffffffff878116600483015260248201899052841690639dc29fac90604401600060405180830381600087803b158015610e8157600080fd5b505af1158015610e95573d6000803e3d6000fd5b5050505073ffffffffffffffffffffffffffffffffffffffff881660009081526005602052604081208054849290610ece908490611bb9565b909155505073ffffffffffffffffffffffffffffffffffffffff85163014610fd6576040805160008082526020820190925273ffffffffffffffffffffffffffffffffffffffff8716908490604051610f279190611b9d565b60006040518083038185875af1925050503d8060008114610f64576040519150601f19603f3d011682016040523d82523d6000602084013e610f69565b606091505b5050905080610fd4576040517f08c379a000000000000000000000000000000000000000000000000000000000815260206004820152600f60248201527f4554482073656e64206661696c6564000000000000000000000000000000000060448201526064016105a1565b505b600a5460408051898152602081018590529081019190915242606082015273ffffffffffffffffffffffffffffffffffffffff8916907fb40ebf7368df31a675c3b3a523e81f6b28b5cf6e4b32586ed0bc6a86052d89919060800160405180910390a2509695505050505050565b6000600173ffffffffffffffffffffffffffffffffffffffff851660009081526002602081905260409091205460ff169081111561108457611084611928565b146110eb576040517f08c379a000000000000000000000000000000000000000000000000000000000815260206004820152600f60248201527f546f6b656e206e6f7420666f756e64000000000000000000000000000000000060448201526064016105a1565b60008211611155576040517f08c379a000000000000000000000000000000000000000000000000000000000815260206004820152600e60248201527f455448206e6f7420656e6f75676800000000000000000000000000000000000060448201526064016105a1565b73ffffffffffffffffffffffffffffffffffffffff84166000908152600560205260408120548161118f826801158e460913d00000611bb9565b905060006009546127106111a39190611bcc565b6111af612710886119e0565b6111b991906119f7565b9050818111156111c65750805b60006111d48260095461161d565b905060006111e28284611bcc565b90508088116111f25760006111fc565b6111fc8189611bb9565b955081600a60008282546112109190611bcc565b9091555050600854604080517f18160ddd00000000000000000000000000000000000000000000000000000000815290518c9260009273ffffffffffffffffffffffffffffffffffffffff91821692637cabb7cf928616916318160ddd9160048083019260209291908290030181865afa158015611292573d6000803e3d6000fd5b505050506040513d601f19601f820116820180604052508101906112b69190611998565b876040518363ffffffff1660e01b81526004016112dd929190918252602082015260400190565b602060405180830381865afa1580156112fa573d6000803e3d6000fd5b505050506040513d601f19601f8201168201806040525081019061131e9190611998565b905060008273ffffffffffffffffffffffffffffffffffffffff166318160ddd6040518163ffffffff1660e01b8152600401602060405180830381865afa15801561136d573d6000803e3d6000fd5b505050506040513d601f19601f820116820180604052508101906113919190611998565b60056113aa6b033b2e3c9fd0803ce800000060046119e0565b6113b491906119f7565b6113be9190611bb9565b90508082111561142a576040517f08c379a000000000000000000000000000000000000000000000000000000000815260206004820152601760248201527f546f6b656e20737570706c79206e6f7420656e6f75676800000000000000000060448201526064016105a1565b6114348689611bcc565b6040517f40c10f1900000000000000000000000000000000000000000000000000000000815273ffffffffffffffffffffffffffffffffffffffff8e8116600483015260248201859052919950908416906340c10f1990604401600060405180830381600087803b1580156114a857600080fd5b505af11580156114bc573d6000803e3d6000fd5b5050505073ffffffffffffffffffffffffffffffffffffffff8d166000818152600560209081526040918290208b9055600a5482518f81529182018690528183015242606082015290517f6c6bf9b07a057cb0766b2b0aefeb3ed76d844744cc34e081c60bb230ef57f65d9181900360800190a2509b9a5050505050505050505050565b60015473ffffffffffffffffffffffffffffffffffffffff16331461079e576040517f118cdaa70000000000000000000000000000000000000000000000000000000081523360048201526024016105a1565b6001805473ffffffffffffffffffffffffffffffffffffffff8381167fffffffffffffffffffffffff0000000000000000000000000000000000000000831681179093556040519116919082907f8be0079c531659141344cd1fd0a4f28419497f9722a3daafe3b4186f6b6457e090600090a35050565b600061161782600061163d565b92915050565b600061271061162c83856119e0565b61163691906119f7565b9392505050565b600081471015611682576040517fcf479181000000000000000000000000000000000000000000000000000000008152476004820152602481018390526044016105a1565b763d602d80600a3d3981f3363d3d373d3d3d363d730000008360601b60e81c176000526e5af43d82803e903d91602b57fd5bf38360781b176020526037600983f0905073ffffffffffffffffffffffffffffffffffffffff8116611617576040517fb06ebf3d00000000000000000000000000000000000000000000000000000000815260040160405180910390fd5b803573ffffffffffffffffffffffffffffffffffffffff8116811461173657600080fd5b919050565b60006020828403121561174d57600080fd5b61163682611712565b6000806040838503121561176957600080fd5b61177283611712565b946020939093013593505050565b60006020828403121561179257600080fd5b5035919050565b7f4e487b7100000000000000000000000000000000000000000000000000000000600052604160045260246000fd5b600082601f8301126117d957600080fd5b813567ffffffffffffffff8111156117f3576117f3611799565b6040517fffffffffffffffffffffffffffffffffffffffffffffffffffffffffffffffe0603f7fffffffffffffffffffffffffffffffffffffffffffffffffffffffffffffffe0601f8501160116810181811067ffffffffffffffff8211171561185f5761185f611799565b60405281815283820160200185101561187757600080fd5b816020850160208301376000918101602001919091529392505050565b6000806000606084860312156118a957600080fd5b833567ffffffffffffffff8111156118c057600080fd5b6118cc868287016117c8565b935050602084013567ffffffffffffffff8111156118e957600080fd5b6118f5868287016117c8565b925050604084013567ffffffffffffffff81111561191257600080fd5b61191e868287016117c8565b9150509250925092565b7f4e487b7100000000000000000000000000000000000000000000000000000000600052602160045260246000fd5b6020810160038310611992577f4e487b7100000000000000000000000000000000000000000000000000000000600052602160045260246000fd5b91905290565b6000602082840312156119aa57600080fd5b5051919050565b7f4e487b7100000000000000000000000000000000000000000000000000000000600052601160045260246000fd5b8082028115828204841417611617576116176119b1565b600082611a2d577f4e487b7100000000000000000000000000000000000000000000000000000000600052601260045260246000fd5b500490565b60005b83811015611a4d578181015183820152602001611a35565b50506000910152565b60008151808452611a6e816020860160208601611a32565b601f017fffffffffffffffffffffffffffffffffffffffffffffffffffffffffffffffe0169290920160200192915050565b608081526000611ab36080830187611a56565b8281036020840152611ac58187611a56565b90508281036040840152611ad98186611a56565b91505073ffffffffffffffffffffffffffffffffffffffff8316606083015295945050505050565b60007fffffffffffffffffffffffffffffffffffffffffffffffffffffffffffffffff8203611b3257611b326119b1565b5060010190565b60a081526000611b4c60a0830188611a56565b8281036020840152611b5e8188611a56565b90508281036040840152611b728187611a56565b73ffffffffffffffffffffffffffffffffffffffff9590951660608401525050608001529392505050565b60008251611baf818460208701611a32565b9190910192915050565b81810381811115611617576116176119b1565b80820180821115611617576116176119b156fea2646970667358221220b412c8f2e93e6f0ecf376920e489a42339a3a767d54fc2c520467a552bf13ab164736f6c634300081a0033","linkReferences":{}},"methodIdentifiers":{"FEE_DENOMINATOR()":"d73792a9","FUNDING_GOAL()":"42e49d5a","FUNDING_SUPPLY()":"bfe60856","INITIAL_SUPPLY()":"2ff2e9dc","MAX_SUPPLY()":"32cb6b0c","bondingCurve()":"eff1d50e","burnTokenAndMintWinner(address)":"2216f7c0","buy(address)":"f088d547","claimFee()":"99d32fc4","collateral(address)":"a5fdc5de","createToken(string,string,string)":"94aed7d0","fee()":"ddca3f43","feePercent()":"7fd6f15c","owner()":"8da5cb5b","renounceOwnership()":"715018a6","sell(address,uint256)":"6c197ff5","setBondingCurve(address)":"43ff1fb8","setFeePercent(uint256)":"7ce3489b","setWinner(address)":"d9fca769","tokenImplementation()":"2f3a3d5d","tokens(address)":"e4860339","transferOwnership(address)":"f2fde38b","uniswapV2Factory()":"59d0f713","uniswapV2Router()":"1694505e","winnerToken()":"06d4ef64"},"id":5}